:100000000C944B020C946A020C946A020C946A02DF
:100010000C94B1060C9413050C946A020C946A02B9
:100020000C946A020C94F9040C946A020C946A020F
:100030000C946A020C94791E0C94B71E0C946A02FC
:100040000C94AC050C943F060C946A020C946A0262
:100050000C94AB200C94FB200C946A020C946A0262
:100060000C9470050C946A020C9427300C946A026C
:100070000C94D3200C946A020C946A020C946A02C9
:100080000C94BC2C0C946A020C946A02E030793017
:10009000793079307930793079307930EA307930A7
:1000A000793079307930793079307930EA30793097
:1000B000793079307930793079307930F23079307F
:1000C000793079307930793079307930063179305A
:1000D000793079307930793079307930F23079305F
:1000E000793079307930793079307930A830793099
:1000F000793079307930793079307930B53079307C
:10010000793079307930793079307930A13079307F
:1001100079307930793079307930793033317930DC
:10012000793079307930793079307930953079306B
:10013000793079307930793079307930BE30793032
:10014000793079307930793079307930D730793009
:10015000793079307930793079307930D7307930F9
:10016000793079307930793079307930D7307930E9
:10017000793079307930793079307930D7307930D9
:100180007930793079307930793079308C30793014
:1001900079307930793079307930793091307930FF
:1001A0007930793079307930793079308C307930F4
:1001B00079307930793079307930793091307930DF
:1001C000793079307930793079307930113179304E
:1001D0007930793079307930793079304F30793001
:1001E0007930793079307930793079304F307930F1
:1001F00079307930793079307930793064307930CC
:100200007930793079307930793079302D317930F1
:100210007930793079307930793079302D31084A38
:10022000D73B3BCE016E84BCBFFDC12F3D6C74310A
:100230009ABD56833DDA3D00C77F11BED9E4BB4C61
:100240003E916BAAAABE000000803F6E616E0069FD
:100250006E660053454E54494E454C00454158008A
:100260004541590045415A00454758004547590006
:1002700045475A00454D5800454D5900454D5A00D7
:100280004B50004B49004B44004341524D415F42AB
:100290004941530057494E475F464C4150535F42D6
:1002A000494153004D4F544F525F52455455524EA1
:1002B0005F484F4D455F504F57455200524554558A
:1002C000524E5F484F4D455F44495354414E43455C
:1002D00000414C5048415F4341524D415F504944B9
:1002E00000414C5048415F4341524D415F5345529C
:1002F000564F00414C5048415F57494E47535F535A
:100300004552564F00414C5048415F4553430041D0
:100310004C5048415F50554D505F534F46545F53CA
:10032000544152540050554D505F445554595F4309
:1003300059434C4500535445505045525F4D415828
:100340005F4359434C4553004D4F544F525F4D410D
:10035000585F54454D504552415455524500530243
:100360005C026002640268026C027002740278022D
:100370007C0280028302860289029402A402BC02EB
:10038000D102E102F30205030F03250335034803FD
:1003900000407A10F35A00A0724E18090010A5D43C
:1003A000E80000E87648170000E40B54020000CA99
:1003B0009A3B000000E1F5050000809698000000DF
:1003C00040420F000000A08601000000102700003E
:1003D0000000E803000000006400000000000A00C4
:1003E000000000000100000000002C76D888DC67C7
:1003F0004F0823DFC1DFAE59E1B1B796E5E3E4531F
:10040000C63AE651997696E8E6C28426EB898C9B3B
:1004100062ED407C6FFCEFBC9C9F40F2BAA56FA5DB
:10042000F490055A2AF75C936B6CF9676DC11BFC5D
:10043000E0E40D47FEF520E6B500D0ED902E030078
:10044000943577050080841E080000204E0A0000C5
:1004500000C80C333333330F986E12831141EF8D84
:100460002114893BE65516CFFEE6DB18D1844B38C4
:100470001BF77C1D901DA4BBE424203284725E22F5
:100480008100C9F124ECA1E53D276364696E6F70BA
:10049000737578585B0011241FBECFEFD0E4DEBF28
:1004A000CDBF12E0A0E0B1E0E4E9FDE700E00BBF62
:1004B00002C007900D92AE34B107D9F719E0AEE44F
:1004C000B2E001C01D92A533B107E1F70E94781395
:1004D0000C94DB350C94000088E480934E0289E094
:1004E00080934F02109250021092520210925102C9
:1004F0001092540210925502109256021092570216
:100500000895A0E0B0E0BC01CD010E944C3926EA7C
:100510003BE944EC50E40E942E3A20E030E040E019
:1005200058E30E942E3A0895A0E0B0E0BC01CD014E
:1005300020E038E140E050E00E94603E9B01AC01C9
:100540008FE056954795379527958A95D1F7C9013C
:100550000895DF93CF9300D0CDB7DEB780914E02E0
:1005600061E0AE014F5F5F4F0E94B83120E08981AA
:100570009A8197FD06C0822F0F900F90CF91DF9147
:10058000089521E0822F0F900F90CF91DF91089571
:100590008430D0F42091510230915202A901436875
:1005A00051608130F1F0813088F0823029F1833060
:1005B00019F4A90143685167506880914E0261E0C7
:1005C0000E94643181E0089580E00895A9014368A4
:1005D0005164506880914E0261E00E94643181E074
:1005E0000895A90143685165506880914E0261E009
:1005F0000E94643181E00895A90143685166506802
:1006000080914E0261E00E94643181E00895AF92D2
:10061000BF92CF92DF92EF92FF920F931F93DF93DF
:10062000CF9300D0CDB7DEB7843008F066C02091FC
:10063000510230915202A90143685160813009F49E
:1006400070C0813008F469C0823009F479C0833009
:1006500019F4A90143685167506880914E0261E026
:100660000E94643160914F0270E080E090E00E944F
:100670004C395B016C0120E030E04AE755E40E9410
:100680002E3A7B018C0120E030E040E85FE30E94DD
:10069000AF3888230CF451C0C801B70120E03FEF08
:1006A0004FE757E40E94233A18160CF03EC0C601EB
:1006B000B50120E030E040E251E40E942E3A0E9471
:1006C0002039CB01672B39F020E931E0F90131976E
:1006D000F1F70197D9F780914E0260E0AE014F5FCC
:1006E0005F4F0E94B83129813A810090500202C0C8
:1006F000369527950A94E2F702C020E030E0C90160
:100700000F900F90CF91DF911F910F91FF90EF907D
:10071000DF90CF90BF90AF900895A90143685164D6
:100720009BCFA9014368516597CFC801B7010E94CB
:100730002039CB010197F1F7CECF61E070E0F9CF1E
:10074000A9014368516688CFFF920F931F93DF93EF
:10075000CF9300D0CDB7DEB78C01F62E80914E023C
:1007600061E0AE014F5F5F4F0E94B83189819A818D
:1007700097FD27C010E0F3E0FF15D0F08091510203
:1007800090915202AC014368516021E0F21689F168
:10079000F21658F1E2E0FE1681F1FF1619F4AC01F1
:1007A00043685167506880914E0261E00E94643155
:1007B000812F0F900F90CF91DF911F910F91FF909C
:1007C000089580914E0260E0A8010E94B831F801BE
:1007D000808191810090500202C0969587950A947D
:1007E000E2F79183808311E0C6CFAC014368516486
:1007F000D9CFAC0143685165D5CFAC014368516690
:10080000D1CF0F931F93DF93CF9300D0CDB7DEB737
:100810008C0180914E0261E0AE014F5F5F4F0E94FC
:10082000B83189819A8197FD3EC020915302E22F11
:10083000F0E0EC5AFD4F8081882319F510E08AE042
:100840008083243040F58091510290915202AC0196
:1008500043685160213009F47EC0213008F06EC039
:10086000AC0143685164506880914E0261E00E947F
:100870006431812F0F900F90CF91DF911F910F91D5
:1008800008958150808310E0E22FF0E0EC5AFD4F94
:1008900080818823A1F2812F0F900F90CF91DF915B
:1008A0001F910F9108954091530250E0440F551F3E
:1008B000485A5D4F80914E0260E00E94B83120910D
:1008C0005302E22FF0E0EE0FFF1FE85AFD4F808148
:1008D00091810090500202C0969587950A94E2F7A4
:1008E000918380832F5F20935302243060F2109213
:1008F0005302109254028091580290915902F801CB
:10090000918380831092550280915A0290915B02EC
:10091000938382831092560280915C0290915D02D3
:10092000958384831092570280915E0290915F02BA
:100930009783868311E020915302A6CF223039F0AD
:10094000233009F090CFAC01436851678CCFAC01E4
:100950004368516688CFAC014368516584CF81B14B
:10096000806C81B982B18F7382B9209A28982198BE
:1009700029983E9A46980A98129A0B98139AE8E694
:10098000F0E0808182608083ACE6B0E08C91826090
:100990008C93808181608083EBE6F0E080818460CD
:1009A0008083808188608083089589EF87BD18BC2B
:1009B00014BC15BC16BC84B5826084BD85B583604B
:1009C00085BD86E080936E00089589EF8093B30023
:1009D000E0EBF0E01082A1EBB0E01C921092B200CC
:1009E00083E08C9380818260808382E080937000BA
:1009F00008951F920F920FB60F9211248F939F9319
:100A0000199B0AC080912A0390912B038C509E4F12
:100A100090932B0380932A039F918F910F900FBE89
:100A20000F901F9018951F920F920FB60F921124DE
:100A30002F933F938F939F9319991AC08091B2007F
:100A400020912A0330912B0390E0880F991F820F89
:100A5000931F90932B0380932A0310922C039F9152
:100A60008F913F912F910F900FBE0F901F9018956F
:100A70008091B20090E0909581959F4F880F991FCB
:100A800090932B0380932A03EACFECE7F0E0808178
:100A90008E7F8083EAE7F0E0808180648083089520
:100AA000ECE7F0E0808181608083EAE7F0E080811C
:100AB00080648083089508980998ECE7F0E010823C
:100AC000808180648083EAE7F0E010828081876023
:100AD000808380818068808380818860808308959E
:100AE0001F920F920FB60F9211248F939F93AF9383
:100AF000BF93809143038823C9F08091780090913F
:100B00007900A0E0B0E08093480390934903A0935C
:100B10004A03B0934B0310924303BF91AF919F914F
:100B20008F910F900FBE0F901F90189580917800B5
:100B30009091790090933E0380933D0380917C00D7
:100B4000816080937C0080917A00806480937A0039
:100B500081E080934303E1CF1F920F920FB60F9273
:100B600011242F938F939F9380914C038111469A68
:100B7000809136038F5F80933603809137038F5FB8
:100B800080933703809138039091390301969093B5
:100B900039038093380380913A038F5F80933A033F
:100BA00080913603843109F457C08091370384362D
:100BB00009F44CC080913A03853009F441C080911A
:100BC000380390913903019779F18091380390911E
:100BD00039038436910511F18091380390913903DE
:100BE000845F914041F09F918F912F910F900FBEA4
:100BF0000F901F901895109239031092380380912E
:100C00004E03882381F3815080934E039F918F91EF
:100C10002F910F900FBE0F901F90189580914D034C
:100C2000882331F11798D8CF80914D03882331F470
:100C300080914E03882311F41798C7CF179AC5CF18
:100C400081E08093420310923A03B9CF81E0809310
:100C50003C0310923703AECF81E080933B03809337
:100C60003F038093400380934103109236039DCF4E
:100C700080914E03882309F4AFCF1798ADCF1F9210
:100C80000F920FB60F9211248F9380914C03811114
:100C900046988F910F900FBE0F901F90189510924D
:100CA00039031092380381E080934E030895109227
:100CB00039031092380380934E030895AF92BF9288
:100CC000CF92DF92EF92FF920F931F9380912C03AC
:100CD0008823B1F56091DA017091DB018091DC012C
:100CE0009091DD01E0902A03F0902B032AE939E985
:100CF00049E55FE30E942E3A5B016C010027F7FC97
:100D00000095102FC801B7010E944E392AE939E930
:100D100049E15EE30E942E3A28E23EE74CE85CE3BC
:100D20000E942E3A9B01AC01C601B5010E94E93731
:100D30006093DA017093DB018093DC019093DD0115
:100D400081E080932C03289A85E38A95F1F728980F
:100D50001F910F91FF90EF90DF90CF90BF90AF90D9
:100D600008951F920F920FB60F920BB60F92112497
:100D70002F933F934F935F936F937F938F939F93A3
:100D8000AF93BF93EF93FF9380E091E00E948D209B
:100D9000029904C08091DE018823F1F4039909C00F
:100DA0008091DE01813029F010922F0381E0809341
:100DB000DE01FF91EF91BF91AF919F918F917F9154
:100DC0006F915F914F913F912F910F900BBE0F90BC
:100DD0000FBE0F901F90189510922F031092DE01F6
:100DE000DDCF0F931F93CF93DF938DE091E00E94AF
:100DF0008D2081E080932F031092320310923303F1
:100E0000109234031092350380912F03882361F0F0
:100E1000C0E4DFE1CE010197F1F70E94052BA89510
:100E200080912F038823B1F710923E0281E08093D6
:100E30002F0380912F038823F9F0C0E4DFE1CE0176
:100E40000197F1F70E94052B8091320390913303B3
:100E5000A0913403B09135030196A11DB11D80937B
:100E6000320390933303A0933403B0933503A895D2
:100E700080912F03882319F78DB79EB708970FB677
:100E8000F8949EBF0FBE8DBFEDB7FEB731960EE64C
:100E900012E0ADB7BEB712961C930E93119781E383
:100EA00091E0938382838091320390913303A091E8
:100EB0003403B091350384839583A683B7830E945E
:100EC00036378DB79EB708960FB6F8949EBF0FBE03
:100ED0008DBFC8010E948D202091320330913303D1
:100EE000409134035091350367E170E080E090E079
:100EF0000E9440270E949027DF91CF911F910F9170
:100F000008952F923F924F925F926F927F928F92AD
:100F10009F92AF92BF92CF92DF92EF92FF920F9388
:100F20001F930091EF021091F0022091F102309195
:100F3000F2020093040310930503209306033093F9
:100F4000070348E0242E43E0342E4091D60150910F
:100F5000D7016091D8017091D901C1010E94271C6D
:100F60006AE070E080E090E00E94B4252B013C0133
:100F70006BE070E080E090E00E94B4254B015C01E2
:100F80006CE070E080E090E00E94B4256B017C0191
:100F9000C101B301A201950184010E94351C6FE0DB
:100FA00070E080E090E00E94C72570936502609336
:100FB000640270936B0260936A026DE070E080E0FF
:100FC00090E00E94C72570936702609366026EE00E
:100FD00070E080E090E00E94C72570936902609302
:100FE0006802609164027091650282E00E940D1EA9
:100FF0001F910F91FF90EF90DF90CF90BF90AF9037
:101000009F908F907F906F905F904F903F902F9028
:101010000895EF92FF920F931F9360E170E080E0DC
:1010200090E00E94B4252091DA013091DB014091DB
:10103000DC015091DD010E94233A18160CF44FC0D8
:101040006FE070E080E090E00E94C7259B01AC015A
:10105000709365026093640270936B0260936A02FE
:1010600082E0B9010E940D1E6DE070E080E090E02A
:101070000E94C7257B018C014091EF025091F00244
:101080006091F1027091F20288E093E00E944F1C9F
:101090009C01220F331F220F331F280F391FC90154
:1010A000AA2797FDA095BA2F8E0D9F1DA01FB11FD7
:1010B0009701245D3E4F281739074CF4309367029F
:1010C000209366021F910F91FF90EF900895970172
:1010D0002C523140281739078CF79C01EFCF88EE4E
:1010E00093E0909365028093640290936B028093E7
:1010F0006A0282E068EE73E00E940D1E1F910F915C
:10110000FF90EF9008950F931F93DF93CF93CDB788
:10111000DEB7C054D0400FB6F894DEBF0FBECDBFCF
:1011200019828E010F5F1F4FC80161E070E00E94BD
:10113000D32BC80141E050E060E070E00E94A02B9A
:10114000C80142E050E060E070E00E94A02B609196
:10115000640270916502882777FD8095982F0E9420
:101160004E3920E030E04AE754E40E94E83720E0BE
:1011700030E048EC52E40E942E3A20E030E04AE7AA
:1011800054E40E94B338AB01BC01C8010E94FF2B9C
:101190006091600270916102882777FD8095982F99
:1011A0000E944E3920E030E04AE754E40E94E837DC
:1011B00020E030E048EC52E40E942E3A20E030E09B
:1011C0004AE754E40E94B338AB01BC01C8010E9455
:1011D000FF2B6091620270916302882777FD8095F2
:1011E000982F0E944E3920E030E04AE754E40E94F4
:1011F000E83720E030E048EC52E40E942E3A20E04C
:1012000030E04AE754E40E94B338AB01BC01C801A6
:101210000E94FF2BF80101900020E9F731978AE046
:1012200090E091838083C8010E948D20C05CDF4FD5
:101230000FB6F894DEBF0FBECDBFCF91DF911F91E7
:101240000F910895CF92DF92EF92FF920F931F9329
:10125000DF93CF93CDB7DEB7C054D0400FB6F8942C
:10126000DEBF0FBECDBF19826E010894C11CD11C18
:10127000C60164E070E00E94D32B6091EB02709194
:10128000EC028091ED029091EE020E941B39AB01BD
:10129000BC01662757FD6095762FC6010E94A02BE2
:1012A0006091E7027091E8028091E9029091EA0270
:1012B0000E941B39AB01BC01662757FD6095762F54
:1012C000C6010E94A02BC60140E050E060E070E043
:1012D0000E94FF2B6091EF027091F0028091F10269
:1012E0009091F2020E941B39AB01BC01662757FDA9
:1012F0006095762FC6010E94A02BC60140E050E009
:1013000060E070E00E94FF2BC60140E050E060E02A
:1013100070E00E94FF2BC6010E948D20198260910F
:101320002D0370912E0380E090E00E944C397B01E8
:101330008C0160913203709133038091340390915A
:1013400035030E944C399B01AC01C801B7010E94D2
:10135000B338AB01BC01C6010E94FF2B4091D702FC
:101360005091D8026091D9027091DA02C6010E94B0
:10137000FF2BC60140E050E060E070E00E94FF2BD0
:10138000C60140E050E060E070E00E94FF2BC60123
:1013900040E050E060E070E00E94FF2B40910403C9
:1013A000509105036091060370910703C6010E94E6
:1013B000FF2B4091DA015091DB016091DC017091CB
:1013C000DD01C6010E94FF2B4091D3025091D4024F
:1013D0006091D5027091D602C6010E94FF2B409108
:1013E0004403509145036091460370914703C60141
:1013F0000E94FF2BF60101900020E9F731978AE067
:1014000090E091838083C6010E948D20C05CDF4FF5
:101410000FB6F894DEBF0FBECDBFCF91DF911F9105
:101420000F91FF90EF90DF90CF9008950F931F934F
:10143000DF93CF93CDB7DEB7C054D0400FB6F8944A
:10144000DEBF0FBECDBF19828E010F5F1F4FC801D7
:1014500063E070E00E94D32B4091290350E060E0EC
:1014600070E0C8010E94A02BC80140E050E060E09D
:1014700070E00E94A02BC80140E050E060E070E006
:101480000E94A02BC80140E050E060E070E00E94A4
:10149000A02BC80140E050E060E070E00E94A02B6B
:1014A000C80140E050E060E070E00E94A02BC8015D
:1014B00040E050E060E070E00E94A02B4091F50217
:1014C0005091F6026091F7027091F802C8010E94F3
:1014D000A02B4091F9025091FA026091FB027091A9
:1014E000FC02C8010E94A02B4091280350E060E05C
:1014F00070E0C8010E94A02BC80140E050E060E00D
:1015000070E00E94A02BC80140E050E060E070E075
:101510000E94A02BC80140E050E060E070E00E9413
:10152000A02B40914C0350E060E070E0C8010E94A5
:10153000A02BC80140E050E060E070E00E94A02BCA
:10154000F80101900020E9F731978AE090E091835B
:101550008083C8010E948D20C05CDF4F0FB6F894D5
:10156000DEBF0FBECDBFCF91DF911F910F910895C8
:10157000BF92CF92DF92EF92FF920F931F93CF9380
:10158000DF93EC016B01BB24B394B09203034F5F74
:101590005F4F81F16EE070E080E090E00E94C7252F
:1015A0007B018C016DE070E080E090E00E94C72537
:1015B000CA36D10509F4A4C0CB36D1052CF1C43804
:1015C000D10509F48AC1C538D1050CF057C0CF3612
:1015D000D10509F4B5C0C338D10509F420C1CB3613
:1015E000D10541F40E94332610923903109238033A
:1015F000B0924E03DF91CF911F910F91FF90EF902A
:10160000DF90CF90BF900895C630D10509F410C186
:10161000C730D1050CF041C0C430D10509F499C0E0
:10162000C530D1050CF0E0C0229721F7F6012085E6
:10163000318542855385DA01C901880F991FAA1F98
:10164000BB1F880F991FAA1FBB1F820F931FA41FC8
:10165000B51F9B01280F391FCB01845D9E4F821758
:1016600093073CF0CB018C529140821793070CF406
:10167000C9019093670280936602BCCFCA3CD10532
:1016800009F447C0CB3CD1050CF031C1C93CD105B0
:1016900009F0B0CF0E94160AADCFC636D105E1F1F0
:1016A000C736D1050CF030C1279709F0A3CFB70199
:1016B000F6012481358146815781DA01C901880FFD
:1016C000991FAA1FBB1F880F991FAA1FBB1F820F3C
:1016D000931FA41FB51F9B01280F391FCB01845DE9
:1016E0009E4F821793073CF0CB018C52914082179A
:1016F00093070CF4C90190936902809368027ACF32
:101700000E9490271092390310923803B0924E0332
:1017100071CF0E9422096ECF83E591E00E948D2057
:1017200082E080936C02B09228030E94810710929D
:10173000390310923803B0924E03109203035ACF2C
:10174000B092D2021092390310923803B0924E0335
:1017500051CF10926C028EE794E0909365028093D3
:10176000640290936B0280936A0282E06EE774E0F9
:101770000E940D1EB09229036091EF027091F00259
:101780008091F1029091F20220E030E044E353E4D2
:101790000E94E8377B018C0160930403709305037A
:1017A000809306039093070320E030E040E050E090
:1017B0000E94AF38882384F4C801B70120E030E0EC
:1017C00044EB53E40E94E9376093040370930503EC
:1017D0008093060390930703109239031092380305
:1017E00081E080934E0306CF83E080936C0288EE05
:1017F00093E0909365028093640290936B028093D0
:101800006A0282E068EE73E00E940D1E10922903C6
:101810001092390310923803B0924E03EBCEB0927F
:101820004C031092390310923803B0924E03E2CE6B
:10183000F60184819581A681B781B7FD96C0880F96
:10184000991FAA1FBB1F880F991FAA1FBB1F880FB4
:10185000991FAA1FBB1F82589B4F90936B028093C6
:101860006A02F60160857185828593856E5C7F4F83
:101870008F4F9F4F0E944E397B018C0167E170E0D2
:1018800080E090E00E94C7250E944E399B01AC0188
:10189000C801B7010E942E3A20E030E048EC52E443
:1018A0000E94B3380E9420399B01709331036093EA
:1018B000300380912D0390912E032817390708F4E7
:1018C00051C080912D0390912E038217930708F049
:1018D00091CE81E080933E028DCE469810924C03CB
:1018E0001092390310923803B0924E0383CECB3C52
:1018F000D10539F0CE3CD10509F07CCE0E94BB2742
:1019000079CE0E94830876CEC736D105B1F0C936AC
:10191000D10509F06FCEF6016481758186819781CA
:1019200020853185428553850E94402710923903D6
:1019300010923803B0924E035DCE87E691E00E948C
:101940008D2010926C02109228038EE794E0909301
:101950006B0280936A021092390310923803B0929E
:101960004E0348CE10923E0245CE80E090E0A0E0CB
:10197000B0E065CFEF92FF920F931F930E948D1DF1
:10198000569A579A3C9A8BE290E066E00E94DD1DE1
:101990008BE290E067E00E94DD1D88E290E064E069
:1019A0000E94DD1D0E94BE1D6DE070E080E090E0B1
:1019B0000E94C725162F072F6EE070E080E090E0B0
:1019C0000E94C725F62EE72E80E0612F702F0E941F
:1019D0000D1E81E06F2D7E2D0E940D1E82E068EEAF
:1019E00073E00E940D1E109366020093670210932D
:1019F000600200936102F0926802E0926902F09244
:101A00006202E092630288EE93E090936B0280930F
:101A10006A0290936502809364021F910F91FF9078
:101A2000EF900895EF92FF920F931F93DF93CF9360
:101A300000D0CDB7DEB7CE01019660E00E94A403CE
:101A4000882371F16091D3027091D4028091D50204
:101A50009091D60226E636E646E65FE30E942E3AED
:101A60007B018C0189819A810E9481022AE939E9EE
:101A700049EF50E40E942E3A2DEC3CEC4CEC5DE337
:101A80000E942E3A9B01AC01C801B7010E94E937C0
:101A90006093D3027093D4028093D5029093D602C0
:101AA0000F900F90CF91DF911F910F91FF90EF90CA
:101AB00008952F923F924F925F926F927F928F92F2
:101AC0009F92AF92BF92CF92DF92EF92FF920F93CD
:101AD0001F93DF93CF9300D000D0CDB7DEB78091B6
:101AE000D202882309F4A89588EB9AE00E945A2331
:101AF0008091F3029091F402892B19F180914F03A8
:101B000090915003892B09F4A0C080913B03813050
:101B100009F4A4C00F900F900F900F90CF91DF9118
:101B20001F910F91FF90EF90DF90CF90BF90AF90FB
:101B30009F908F907F906F905F904F903F902F90ED
:101B4000089580913B03813009F4ADC080913C033E
:101B5000813009F4A3C080913F03813009F449C06A
:101B600080916C02823009F4F7C110924D0380918C
:101B70004003813009F452C280914103813009F45D
:101B8000F1C180914203813029F6109242032091E5
:101B90002D0330912E03809130039091310328174B
:101BA000390709F451C340913E0280912F038823E5
:101BB00071F48091DE0190E0242F332727FD3095CA
:101BC0008217930709F4A6CF81E080932F03413059
:101BD00009F476C32FEF3FEF80912D0390912E03F0
:101BE000280F391F30932E0320932D030E94052BBD
:101BF00091CF90916C02933009F4B7CF10923F03CC
:101C000080910303813009F4FBC2923009F423C3AD
:101C100080910103909102030196909302038093B7
:101C200001038436910509F44EC38855924009F0AA
:101C300097CF89E592E0909302038093010382E0BD
:101C400080936C020E9481078BCF8EE791E00E9407
:101C50008D2080913B03813009F05CCF0E945517A5
:101C60000E94131440904F03509050030894411C5D
:101C7000511C5092500340924F03C20162E370E046
:101C80000E947F3E892B09F432C3FCED4F16F5E02C
:101C90005F0609F48AC310923B033CCF0E945E06A4
:101CA00010923C0358CF0E94EE2C3B014C010E9445
:101CB000E12C2091FD023091FE024091FF025091F3
:101CC00000037B018C01E21AF30A040B150BE0926E
:101CD000F902F092FA020093FB021093FC02609367
:101CE000FD027093FE028093FF02909300030E9416
:101CF000120D80917C008E7F80937C0080917A0011
:101D0000806480937A00E0903D03F0903E03609100
:101D1000D7027091D8028091D9029091DA0226E61A
:101D200036E646E65FE30E942E3A5B016C0100E076
:101D300010E0C801B7010E944C392CE53FE84AEE9B
:101D400050E40E942E3A20E030E040E85AE30E943E
:101D50002E3A9B01AC01C601B5010E94E93728E487
:101D600031EE4AE650E40E94E8376093D702709360
:101D7000D8028093D9029093DA0260914403709163
:101D80004503809146039091470326E636E646E6F2
:101D90005FE30E942E3A7B018C01609148037091B1
:101DA000490380914A0390914B0324EF31E040E0D6
:101DB00050E00E94603E0E944C3920E030E040E854
:101DC0005AE30E942E3A9B01AC01C801B7010E9460
:101DD000E9376093440370934503809346039093DF
:101DE00047030E949D170E9455170E94921660910A
:101DF000D6017091D7018091D8019091D9010E94AC
:101E0000E714E0907D03F0907E0300917F03109132
:101E10008003E092E702F092E8020093E902109357
:101E2000EA02A0908103B0908203C0908303D09017
:101E30008403A092EB02B092EC02C092ED02D09229
:101E4000EE028091850390918603A0918703B09163
:101E500088038093EF029093F002A093F102B09375
:101E6000F20210923B0340904F035090500328EC35
:101E7000421651040CF4F4C12091DB023091DC02D3
:101E80004091DD025091DE02C801B7010E94E8379F
:101E90006093E7027093E8028093E9029093EA026C
:101EA0002091DF023091E0024091E1025091E20284
:101EB000C601B5010E94E8376093EB027093EC0213
:101EC0008093ED029093EE0288EC4816510409F4D9
:101ED00039C22091DB023091DC024091DD02509149
:101EE000DE026091E7027091E8028091E902909130
:101EF000EA020E94E8376093E7027093E802809359
:101F0000E9029093EA022091DF023091E0024091D1
:101F1000E1025091E2026091EB027091EC0280913B
:101F2000ED029091EE020E94E8376093EB0270930D
:101F3000EC028093ED029093EE020E94EE2C661963
:101F40007709880999096093F5027093F6028093E6
:101F5000F7029093F802FACD0E94090881E080937D
:101F60004D0305CE1092410365E170E080E090E002
:101F70000E94B4253B014C01E8B4A7B466E170E0CF
:101F800080E090E00E94C7251B012C01FF24002760
:101F9000F7FC0095102FC801B7010E944E399B0134
:101FA000AC01C401B3010E942E3A69837A838B830A
:101FB0009C8360E070E080E89FE3A40193010E94AD
:101FC000E8377B018C01BB24CC24DD24C601B5019C
:101FD0000E944C399B01AC01C801B7010E942E3A06
:101FE0007B018C01C201B1010E944E399B01AC0101
:101FF000C801B7010E942E3A20E030E048EC52E4DC
:102000000E94B3389B01AC0169817A818B819C81EC
:102010000E94E9370E94203968BDB3CD1092400379
:1020200062E170E080E090E00E94B4257B018C01C9
:102030006091600270916102882777FD8095982FEA
:102040000E944E399B01AC01C801B7010E942E3A93
:102050005B016C0160E070E080E89FE3A8019701FC
:102060000E94E8377B018C016091660270916702E3
:10207000882777FD8095982F0E944E399B01AC01EF
:10208000C801B7010E942E3A9B01AC01C601B501FF
:102090000E94E9370E941B399B01AC0170936102D9
:1020A0006093600280E0B9010E940D1E63E170E060
:1020B00080E090E00E94B4257B018C016091620277
:1020C00070916302882777FD8095982F0E944E3982
:1020D0009B01AC01C801B7010E942E3A5B016C0163
:1020E00060E070E080E89FE3A80197010E94E83774
:1020F0007B018C016091680270916902882777FDED
:102100008095982F0E944E399B01AC01C801B70100
:102110000E942E3A9B01AC01C601B5010E94E9372D
:102120000E941B399B01AC017093630260936202B1
:1021300081E0B9010E940D1E80916C02833009F488
:102140001BCD64E170E080E090E00E94B4257B014B
:102150008C0168E170E080E090E00E94B42520915D
:1021600044033091450340914603509147030E9438
:10217000AF38882334F48EE794E090936B02809319
:102180006A026091640270916502882777FD8095EC
:10219000982F0E944E399B01AC01C801B7010E94E3
:1021A0002E3A5B016C0160E070E080E89FE3A801DB
:1021B00097010E94E8377B018C0160916A0270915F
:1021C0006B02882777FD8095982F0E944E399B01DE
:1021D000AC01C801B7010E942E3A9B01AC01C601B7
:1021E000B5010E94E9370E941B399B01AC01709335
:1021F00065026093640282E0B9010E940D1EBCCCAE
:10220000109203031092020310920103923009F01E
:10221000ACCC80912803882309F09ECE8EE794E011
:10222000909365028093640290936B0280936A029C
:1022300082E06EE774E00E940D1E10926C028091A5
:10224000010390910203EDCC10922F0340913E02C6
:102250004093DE01AACC8091010390910203E1CC6E
:102260002091DB023091DC024091DD025091DE02D0
:10227000C801B7010E94E9376093DB027093DC026A
:102280008093DD029093DE022091DF023091E00224
:102290004091E1025091E202C601B5010E94E93786
:1022A0006093DF027093E0028093E1029093E20278
:1022B000C20101969093500380934F032C0104CEEA
:1022C00021E030E089CC88EE93E090936502809322
:1022D000640290936B0280936A0282E068EE73E07E
:1022E0000E940D1E80910103909102039ECC00D0AC
:1022F00000D000D0EDB7FEB731960EE612E0ADB7D4
:10230000BEB712961C930E9311978FE991E09383B9
:102310008283C20162E370E00E947F3E7583648322
:102320000E943637EDB7FEB736960FB6F894FEBF6B
:102330000FBEEDBFC8010E948D2040904F0350900A
:102340005003A3CC6091DB027091DC028091DD022E
:102350009091DE0220E030E048E453E40E94B3387C
:102360006093DB027093DC028093DD029093DE02C7
:102370006091DF027091E0028091E1029091E202AF
:1023800020E030E048E453E40E94B3386093DF0279
:102390007093E0028093E1029093E20289EC90E076
:1023A0009093500380934F03C8CD8AEA91E00E9436
:1023B0008D200E9462141092F4021092F302109287
:1023C000500310924F0367CCEF92FF920F931F932D
:1023D000F89485B7806885BF85B7806885BF14BECF
:1023E00028E288E190E00FB6F894A8958093600009
:1023F0000FBE2093600081B1806C81B982B18F7370
:1024000082B9209A2898219829983E9A46980A9845
:10241000129A0B98139A80916800826080936800EA
:1024200080916C00826080936C0080916800816074
:102430008093680080916B00846080936B00809132
:102440006B00886080936B0060E072EC81E090E04C
:102450000E94762183EC91E00E948D20789461E0C7
:1024600040E951E0169A20E030E0CA010197F1F707
:102470002F5F3F4F83E128383807B9F7169820E0DF
:1024800030E0CA010197F1F72F5F3F4F93E1283801
:102490003907B9F7615030F7169A0E94E82D0E946B
:1024A0008B1B0E945D2899EF97BD18BC14BC15BC0E
:1024B00016BC84B5826084BD85B5836085BD86E029
:1024C00080936E009093B3001092B0001092B10010
:1024D0001092B20083E08093B1008091B0008260DE
:1024E0008093B00082E0809370000E946C02089894
:1024F000099810927C0080917C00806480937C001D
:1025000010927A0080917A00876080937A0080919F
:102510007A00806880937A0080917A008860809346
:102520007A000E948D1D569A579A3C9A8BE290E051
:1025300066E00E94DD1D8BE290E067E00E94DD1DF9
:1025400088E290E064E00E94DD1D0E94BE1D6DE007
:1025500070E080E090E00E94C725162F072F6EE004
:1025600070E080E090E00E94C725F62EE72E80E024
:10257000612F702F0E940D1E81E06F2D7E2D0E9415
:102580000D1E82E068EE73E00E940D1E109366023D
:10259000009367021093600200936102F092680258
:1025A000E0926902F0926202E092630288EE93E0A8
:1025B00090936B0280936A02909365028093640209
:1025C0000E94A32C0E94D82A8DE091E00E948D20C9
:1025D00081E080932F031092320310923303109204
:1025E00034031092350380912F03882361F000E4B7
:1025F0001FE1C8010197F1F70E94052BA895809172
:102600002F038823B1F710923E0281E080932F03BD
:1026100080912F038823F9F000E41FE1C80101979E
:10262000F1F70E94052B8091320390913303A09122
:102630003403B09135030196A11DB11D809332037F
:1026400090933303A0933403B0933503A8958091FE
:102650002F03882319F7ADB7BEB718970FB6F894B4
:10266000BEBF0FBEADBFEDB7FEB731960EE612E0AE
:1026700012961C930E93119781E391E093838283CA
:102680008091320390913303A0913403B0913503CC
:1026900084839583A683B7830E9436378DB79EB710
:1026A00008960FB6F8949EBF0FBE8DBFC8010E945A
:1026B0008D202091320330913303409134035091A7
:1026C000350367E170E080E090E00E9440270E94BF
:1026D000902783E080936C021092390310923803A4
:1026E00082E080934E031F910F91FF90EF90089529
:1026F0000E94E4110E94590DFDCFEF92FF920F93BB
:102700001F93FC018091510390915203A0915303B8
:10271000B091540380839183A283B3838091550346
:1027200090915603A0915703B0915803FB01808309
:102730009183A283B3838091590390915A03A0910E
:102740005B03B0915C03FA0180839183A283B3831E
:1027500080915D0390915E03A0915F03B09160034F
:10276000F90180839183A283B38380916103909167
:102770006203A0916303B0916403F80180839183A5
:10278000A283B3838091650390916603A091670350
:10279000B0916803F70180839183A283B38381E0C2
:1027A0001F910F91FF90EF900895CF92DF92EF92DB
:1027B000FF920F931F938C017B016A016091B90313
:1027C0007091BA03882777FD8095982F0E944E3923
:1027D000F80160837183828393836091BB0370915E
:1027E000BC03882777FD8095982F0E944E39F7010A
:1027F00060837183828393836091BD037091BE0374
:10280000882777FD8095982F0E944E39F6016083C6
:1028100071838283938380E01F910F91FF90EF90EB
:10282000DF90CF9008952091B9033091BA03809141
:102830001202909113028217930724F4309313022B
:1028400020931202809114029091150228173907E3
:1028500024F430931502209314022091BB0330918D
:10286000BC0380911602909117028217930724F4FB
:10287000309317022093160280911802909119024A
:102880002817390724F43093190220931802209155
:10289000BD033091BE0380911A0290911B028217F2
:1028A000930724F430931B0220931A0280911C0298
:1028B00090911D022817390724F430931D022093AC
:1028C0001C0208950F931F93DF93CF93CDB7DEB70C
:1028D000E2970FB6F894DEBF0FBECDBF2091140271
:1028E000309115028091120290911302280F391F26
:1028F00037FD64C0C90195958795BC01809304029A
:1029000090930502209118023091190280911602CD
:1029100090911702280F391F37FD56C0C9019595B0
:102920008795AC01809306029093070220911C02C8
:1029300030911D0280911A0290911B02280F391FBD
:1029400037FD3FC035952795209308023093090243
:102950008DB79EB70A970FB6F8949EBF0FBE8DBF76
:10296000EDB7FEB731968E010F5F1F4FADB7BEB703
:1029700012961C930E9311978FED91E093838283AF
:102980006483758346835783208731870E94363757
:102990008DB79EB70A960FB6F8949EBF0FBE8DBF37
:1029A000C8010E948D20E2960FB6F894DEBF0FBEDC
:1029B000CDBFCF91DF911F910F9108952F5F3F4FB2
:1029C00099CF2F5F3F4FBECF2F5F3F4FA7CF2F92A3
:1029D0003F924F925F926F927F928F929F92AF92AF
:1029E000BF92CF92DF92EF92FF920F931F93DF93EC
:1029F000CF93CDB7DEB764970FB6F894DEBF0FBEA6
:102A0000CDBF6D877E878F87988B8091550390917E
:102A10005603A0915703B091580389879A87AB87D3
:102A2000BC87209151033091520340915303509140
:102A30005403CA01B9010E942E3A7B018C016985B9
:102A40007A858B859C859B01AC010E942E3AA8015A
:102A500097010E94E9370E94953A6D837E838F83A8
:102A600098872FE632E143E85AE30E94AF38882383
:102A700044F48FE692E1A3E8BAE38D839E83AF83AB
:102A8000B887A0905903B0905A03C0905B03D090D0
:102A90005C03C601B501A60195010E942E3A9B0177
:102AA000AC01C801B7010E94E9370E94953A6983D9
:102AB0007A838B839C832FE632E143E85AE30E94BA
:102AC000AF38882344F48FE692E1A3E8BAE3898320
:102AD0009A83AB83BC836091CF037091D003882726
:102AE00077FD8095982F0E944E397B018C01609173
:102AF000CB037091CC03882777FD8095982F0E9497
:102B00004E399B01AC01C801B7010E945C387B01C2
:102B10008C0120E030E040E050E00E94AF38882394
:102B20000CF4F5C0C801B7012BED3FE049EC50E4CF
:102B30000E94233A181654F4C801B7012BED3FE068
:102B400049EC50E40E94E8377B018C01C801B701D1
:102B500021EE3EE245E652E40E942E3A6093850360
:102B600070938603809387039093880320900E02CE
:102B700030900F02409010025090110260900A02B3
:102B800070900B0280900C0290900D02C601B5016E
:102B90002D813E814F8158850E945C387B018C01DC
:102BA00060E070E080E89FE3A40193010E94E837B1
:102BB000698B7A8B8B8B9C8B6091C3037091C40360
:102BC0008091C5039091C6039058A20191010E9483
:102BD0002E3A2D853E854F8558890E942E3A2091A8
:102BE00081033091820340918303509184030E94BA
:102BF000E937A40193010E942E3A5B016C0117FB97
:102C0000109517F91095C801B70121EE3EE245E68F
:102C100052E40E942E3A29893A894B895C890E94A4
:102C20002E3A9B01AC01C601B5010E94E9376093C1
:102C30008103709382038093830390938403698557
:102C40007A858B859C8529813A814B815C810E94A4
:102C50005C385B016C012091C7033091C80340913F
:102C6000C9035091CA035058C201B1010E942E3AC3
:102C70002D853E854F8558890E942E3A20917D03EF
:102C800030917E0340917F03509180030E94E93789
:102C90009B01AC01C401B3010E942E3A7B018C015F
:102CA000C601B50121EE3EE245E652E40E942E3A0D
:102CB0009B01AC0169897A898B899C890E942E3A93
:102CC0009B01AC01C801B7010E94E93760937D0305
:102CD00070937E0380937F039093800364960FB676
:102CE000F894DEBF0FBECDBFCF91DF911F910F9142
:102CF000FF90EF90DF90CF90BF90AF909F908F901C
:102D00007F906F905F904F903F902F900895C801F3
:102D1000B7012BED3FE049EC50E40E94E9377B011D
:102D20008C0100CFEF92FF920F931F93E0905D0311
:102D3000F0905E0300915F031091600364E070E027
:102D400080E090E00E94B4259B01AC01C801B7016E
:102D50000E94E8376093BF037093C0038093C10360
:102D60009093C203E0906103F090620300916303CB
:102D70001091640365E070E080E090E00E94B4256B
:102D80009B01AC01C801B7010E94E8376093C303FF
:102D90007093C4038093C5039093C603E0906503CA
:102DA000F0906603009167031091680366E070E09D
:102DB00080E090E00E94B4259B01AC01C801B701FE
:102DC0000E94E8376093C7037093C8038093C903D8
:102DD0009093CA030091B9031091BA0367E070E0C1
:102DE00080E090E00E94C725061B170B1093CC03D0
:102DF0000093CB030091BB031091BC0368E070E02B
:102E000080E090E00E94C725061B170B1093CE03AD
:102E10000093CD030091BD031091BE0369E070E003
:102E200080E090E00E94C725061B170B1093D0038B
:102E30000093CF031F910F91FF90EF900895DF93C0
:102E4000CF930F92CDB7DEB7198288E669E1AE0164
:102E50004F5F5F4F0E94E03189810F90CF91DF91EA
:102E60000895EF92FF920F931F93982F8B01F42EEA
:102E7000E22E88E6692FA8010E94E03121E030E0CF
:102E800002C0220F331FFA94E2F72150F80180812B
:102E900090E002C095958795EA94E2F72823208375
:102EA0001F910F91FF90EF900895DF93CF93CDB7CF
:102EB000DEB728970FB6F894DEBF0FBECDBF1982DC
:102EC0008CE062E0AE014F5F5F4F0E94E03189818C
:102ED00080FD09C028960FB6F894DEBF0FBECDBFA7
:102EE000CF91DF9108958CE063E047E09E012E5F73
:102EF0003F4F0E94FD31888583FDECCF9B8180E0B0
:102F00002A8130E0822B932B9093BA038093B903EC
:102F10009D8180E02C8130E0822B932B9093BC0329
:102F20008093BB039F8180E02E8130E0822B932B26
:102F30009093BE038093BD03CDCF2F923F924F92CB
:102F40005F926F927F928F929F92AF92BF92CF9239
:102F5000DF92EF92FF920F931F93DF93CF93CDB742
:102F6000DEB72E970FB6F894DEBF0FBECDBF88E652
:102F70006BE34EE09E012F5F3F4F0E94FD31998130
:102F800080E02A81C22EDD24C82AD92AD0926A0381
:102F9000C09269039B8180E02C81A22EBB24A82AC9
:102FA000B92AB0926C03A0926B039D8180E02E81C0
:102FB000822E9924882A992A90926E0380926D031A
:102FC0003F8120E0688570E0622B732B7093700363
:102FD00060936F03398520E04A85642E7724622A46
:102FE000732A70927203609271033B8520E04C85D6
:102FF000442E5524422A532A50927403409273035C
:103000003D8520E04E85242E3324222A332A309217
:10301000760320927503882777FD8095982F0E946C
:103020004E3920E030E04AEA53E40E94B33828EBFE
:103030003EE142E152E40E94E937609377037093E6
:1030400078038093790390937A0380917B03833094
:1030500009F4C2C0823009F4A7C0813009F0D4C09D
:103060000F2EF0E0EF2EF0E0FF2EF0E00F2FF6E451
:103070001F2FF02DB601882777FD8095982F0E948D
:103080004E39A80197010E94B338609351037093A1
:1030900052038093530390935403B501882777FD1F
:1030A0008095982F0E944E39A80197010E94B3384D
:1030B000609355037093560380935703909358037E
:1030C000B401882777FD8095982F0E944E39A8017A
:1030D00097010E94B3386093590370935A03809309
:1030E0005B0390935C0380917C03882309F067C0A5
:1030F0000F2EF0E0EF2EF0E0FF2EF3E00F2FF3E4C1
:103100001F2FF02DB301882777FD8095982F0E94FF
:103110004E39A80197010E94B33860935D03709304
:103120005E0380935F0390936003B201882777FD6D
:103130008095982F0E944E39A80197010E94B338BC
:1031400060936103709362038093630390936403BD
:10315000B101882777FD8095982F0E944E39A801EC
:1031600097010E94B3386093650370936603809360
:103170006703909368032E960FB6F894DEBF0FBED8
:10318000CDBFCF91DF911F910F91FF90EF90DF9016
:10319000CF90BF90AF909F908F907F906F905F90F7
:1031A0004F903F902F9008950F2EF0E0EF2EF0E01B
:1031B000FF2EF0E80F2FF5E41F2FF02D5BCF8130AD
:1031C000B1F40F2EF0E0EF2EF0E0FF2EF3E80F2F1A
:1031D000F2E41F2FF02D96CF0F2EF0E0EF2EF0E04F
:1031E000FF2EF0E00F2FF5E41F2FF02D43CF82309C
:1031F000C1F40F2EF3E3EF2EF3E3FF2EF3E00F2FD6
:10320000F2E41F2FF02D7ECF8823C1F40F2EF0E0C3
:10321000EF2EF0E0FF2EF0E80F2FF6E41F2FF02D39
:1032200029CF8330B1F40F2EF3E3EF2EF3E3FF2E1B
:10323000F3E80F2FF1E41F2FF02D64CF0F2EF0E0F5
:10324000EF2EF0E0FF2EF0E80F2FFFE31F2FF02D01
:1032500011CF0F2EF0E0EF2EF0E0FF2EF0E80F2F51
:10326000FFE31F2FF02D4ECF0F931F93CF93DF93CC
:1032700000E010E0C0E9D1E00E949D1720E030E0BE
:10328000CE010197F1F72F5F3F4F83E128383807D0
:10329000B9F70F5F1F4F083C110571F7DF91CF9110
:1032A0001F910F91089588E66BE641E00E947B3103
:1032B000089588E66BE640E00E947B310895EF9226
:1032C000FF920F931F93DF93CF9300D00F92CDB750
:1032D000DEB77C018CE06AE040E00E947B3100E4D4
:1032E0001CE9C8010197F1F78CE06AE04FE00E9409
:1032F0007B31C8010197F1F78CE060E143E09E016A
:103300002F5F3F4F0E94FD31698170E0605870402F
:10331000882777FD8095982F0E944E3920E030E075
:1033200040E85BE30E942E3A20E030E040E85FE3B3
:103330000E94E937F70160837183828393836A81F6
:1033400070E060587040882777FD8095982F0E9424
:103350004E3920E030E040E85BE30E942E3A20E066
:1033600030E040E85FE30E94E937F701648375834A
:10337000868397836B8170E060587040882777FD63
:103380008095982F0E944E3920E030E040E85BE3C2
:103390000E942E3A20E030E040E85FE30E94E937E7
:1033A000F70160877187828793878CE06AE040E04D
:1033B0000E947B31C8010197F1F74091EA014295E3
:1033C000407F8091EB01482B8CE06AE00E947B31CA
:1033D000C8010197F1F70F900F900F90CF91DF91F7
:1033E0001F910F91FF90EF900895482F88E669E1B3
:1033F0000E947B310895DF93CF930F92CDB7DEB754
:10340000198288E66BE1AE014F5F5F4F0E94E031A9
:10341000898190E095958795959587959595879560
:1034200083700F90CF91DF910895DF93CF930F9228
:10343000CDB7DEB7198288E66AE1AE014F5F5F4F14
:103440000E94E031898187700F90CF91DF910895BC
:10345000EF92FF920F931F93DF93CF930F92CDB70D
:10346000DEB7F82EE62E042F122F198288E66F2D74
:10347000AE014F5F5F4F0E94E03121E030E002C0BB
:10348000220F331F0A95E2F72150622F70E0012EC0
:1034900002C0660F771F0A94E2F7898190E0012E3F
:1034A00002C0959587950A94E2F7422F48236095CC
:1034B00046232E21822F90E002C0880F991F1A9573
:1034C000E2F7482B498388E66F2D0E947B310F90ED
:1034D000CF91DF911F910F91FF90EF900895DF93AF
:1034E000CF930F92CDB7DEB7198288E66BE1AE01BC
:1034F0004F5F5F4F0E94E031898190E095958795FD
:10350000959587959595879583700F90CF91DF91CD
:1035100008951F93DF93CF930F92CDB7DEB7182F87
:10352000198288E66AE1AE014F5F5F4F0E94E03189
:103530001770198388E66AE1412F0E947B310F9052
:10354000CF91DF911F9108951F93DF93CF930F9237
:10355000CDB7DEB7182F198288E66CE1AE014F5F58
:103560005F4F0E94E0311370110F110F110F89810D
:1035700090E0959587959595879595958795837016
:10358000182B198388E66CE1412F0E947B310F9044
:10359000CF91DF911F9108951F93DF93CF930F92E7
:1035A000CDB7DEB7182F198288E66BE1AE014F5F09
:1035B0005F4F0E94E0311370110F110F110F8981BD
:1035C00090E09595879595958795959587958370C6
:1035D000182B198388E66BE1412F0E947B310F90F5
:1035E000CF91DF911F9108950F931F93DF93CF9396
:1035F0000F92CDB7DEB788E669E140E00E947B31EB
:10360000198288E66AE18E010F5F1F4FA8010E94B0
:10361000E031198288E66AE140E00E947B3119823C
:1036200088E66BE1A8010E94E031498150E05595A0
:1036300047955595479555954795437048604983FB
:1036400088E66BE10E947B31198288E66CE1A80173
:103650000E94E031498150E0559547955595479531
:10366000559547954370498388E66CE10E947B310C
:10367000198288E669E1A8010E94E031198288E692
:103680006AE1A8010E94E031198288E66BE1A80195
:103690000E94E031898190E0959587959595879571
:1036A00095958795837080937C03198288E66BE1FA
:1036B000A8010E94E031898190E0959587959595C4
:1036C0008795959587958370898380937B0388E69A
:1036D0006BE640E00E947B3188E66BE140E10E94AE
:1036E0007B3188E66CE140E10E947B3188E667E34C
:1036F00042E20E947B3188E668E341E00E947B3130
:1037000088E66BE641E00E947B310F90CF91DF911C
:103710001F910F9108958F929F92AF92BF92CF9277
:10372000DF92EF92FF920F931F93DF93CF9300D01E
:1037300000D0CDB7DEB7198288E665E77E01089430
:10374000E11CF11CA7010E94E0318981813791F0D1
:1037500080E00F900F900F900F90CF91DF911F910D
:103760000F91FF90EF90DF90CF90BF90AF909F9020
:103770008F9008950E94F41A82E0C82ED12CCC0EAE
:10378000DD1E03E0A02EB12CAC0EBD1E14E0812E78
:10379000912C8C0E9D1E00E911E088E667E342E261
:1037A0000E947B3188E668E341E00E947B3188E635
:1037B00067E3A6010E94E03188E664E2A5010E9469
:1037C000E03188E668E3A4010E94E031198288E6CE
:1037D00060E0A7010E94E0318A81823279F140E005
:1037E00020E030E0C8010197F1F72F5F3F4F8FE1F4
:1037F00020343807B9F7442381F28CE060E0A70158
:103800000E94E0318981883409F0A2CF20E030E0C5
:1038100040E951E0CA010197F1F72F5F3F4F83E084
:10382000283E3807B9F789E893E00E945F1988E6D7
:1038300065E7A7010E94E03181E08BCF8B8188236F
:1038400071F640E08C81813059F641E0C9CF0F9389
:103850001F93FC01448F558F668F778F008F118FD8
:10386000228F338F1F910F910895CF92DF92EF92A5
:10387000FF920F931F93FC014487558766877787D4
:10388000008B118B228B338BC48AD58AE68AF78A08
:103890001F910F91FF90EF90DF90CF9008956F925E
:1038A0007F928F929F92AF92BF92CF92DF92EF92D0
:1038B000FF920F931F93CF93DF93EC019A01AB011B
:1038C000688D798D8A8D9B8D0E94E8373B014C0174
:1038D00020E030E040E050E00E94233A88230CF4DE
:1038E000F8C060E070E084EB93E4A40193010E94CF
:1038F000E8377B018C0164015301C601B501A801C1
:1039000097010E94233A18160CF0D2C0E882F9827F
:103910000A831B830F2EF0E06F2EF0E07F2EF0E87D
:103920008F2EFFEB9F2EF02DA80197016C8D7D8DC2
:103930008E8D9F8D0E942E3AA40193010E942E3AF3
:103940002C813D814E815F810E94E9377B018C0192
:103950006C837D838E839F8320E030E044E353E4D7
:103960000E94233A181654F0C801B70120E030E055
:1039700044E353EC0E94AF38882344F480E090E0A5
:10398000A4E3B3E48C839D83AE83BF8361E170E0E5
:1039900080E090E00E94B4257B018C012885398568
:1039A0004A855B850E942E3A5B016C0160E070E005
:1039B00080E89FE3A80197010E94E83728813981B8
:1039C0004A815B810E942E3A2C8D3D8D4E8D5F8DFC
:1039D0000E94B3389B01AC01C601B5010E94E937D2
:1039E0005B016C01688779878A879B876C857D85F9
:1039F0008E859F85288139814A815B810E942E3A7C
:103A00007B018C01688979898A899B892C813D8118
:103A10004E815F810E942E3A9B01AC01C801B70123
:103A20000E94E9377B018C01C601B5012C893D89D3
:103A30004E895F890E942E3A9B01AC01C801B701F3
:103A40000E94E9377B018C0120E030E048EC52E431
:103A50000E94233A181654F0C801B70120E030E064
:103A600048EC52EC0E94AF38882354F40F2EF0E05B
:103A7000EF2EF0E0FF2EF8EC0F2FF2E41F2FF02DC9
:103A8000C801B701A40193010E942E3A0E941B397C
:103A9000CB01DF91CF911F910F91FF90EF90DF90BD
:103AA000CF90BF90AF909F908F907F906F90089530
:103AB000A882B982CA82DB820F2EF0E06F2EF0E07E
:103AC0007F2EF0E88F2EFFE39F2EF02DA6019501AB
:103AD0002DCFC401B30120E030E044EB53E40E9459
:103AE000E9375B016C018401730107CFCF93DF934A
:103AF000FC01848D958DA68DB78D20E2EF01199282
:103B00002A95E9F7408F518F628F738F848F958F3D
:103B1000A68FB78FDF91CF91089580ED97E09093B6
:103B2000F6038093F5039093F8038093F703909343
:103B3000FA038093F9039093FC038093FB03909323
:103B4000FE038093FD03909300048093FF03909302
:103B500002048093010490930404809303049093DF
:103B60000604809305049093080480930704109240
:103B7000090410920A0410920B0408951092850013
:103B80001092840080E49CE99093890080938800DF
:103B900088EE93E090938B0080938A0010928000CF
:103BA000E1E8F0E01082808188608083808182601B
:103BB000808386E080936F0008959C0180910904C2
:103BC0008930F8F4E0910904F0E0EE0FFF1FE952AC
:103BD000FC4F31832083E0910904F0E0E551FC4F74
:103BE0006083E0910904F0E0EE0FFF1FEB50FC4F03
:103BF00011821082809109048F5F8093090481E013
:103C0000089580E008959C01220F331FC901089593
:103C10009C0136952795C9010895E82F80910904E4
:103C2000E81748F4F0E0EE0FFF1FEB50FC4F660F73
:103C3000771F718360830895A82F80910904A817C6
:103C4000C0F46623B9F0B0E0FD01EE0FFF1FE952AA
:103C5000FC4F0190F081E02DA551BC4F81E090E038
:103C60000C9002C0880F991F0A94E2F72081282B3C
:103C700020830895B0E0FD01EE0FFF1FE952FC4FD5
:103C80000190F081E02DA551BC4F81E090E00C90B7
:103C900002C0880F991F0A94E2F78095208128239B
:103CA0002083089580910904882309F40895809160
:103CB0000904882381F0E091D703F091D80381E0D3
:103CC00090E00090EB0302C0880F991F0A94E2F77E
:103CD0002081282B20838091F5039091F603909307
:103CE0008B0080938A0081E080930A0480930B0408
:103CF00008951F920F920FB60F920BB60F921124D8
:103D00002F938F939F93EF93FF93809109048823C0
:103D100061F4FF91EF919F918F912F910F900BBEC6
:103D20000F900FBE0F901F90189580910904882363
:103D300081F0E091D703F091D80381E090E000900A
:103D4000EB0302C0880F991F0A94E2F72081282B09
:103D500020838091F5039091F60390938B008093DC
:103D60008A0081E080930A0480930B04D2CF1F92D3
:103D70000F920FB60F920BB60F9211242F933F9311
:103D80004F935F936F937F938F939F93AF93BF9363
:103D9000EF93FF9380910B048823A1F180910A0493
:103DA000882309F04BC090910A0480910904981768
:103DB000E0F5E0910A04F0E0EE0FFF1FEB50FC4F3E
:103DC00080819181892B09F059C0E0910A04F0E0CB
:103DD000EE0FFF1FEB50FC4F0190F081E02D30976C
:103DE00011F4E8EEF3E08091840090918500E80FF3
:103DF000F91FF0938B00E0938A0080910A048F5F93
:103E000080930A04FF91EF91BF91AF919F918F91A1
:103E10007F916F915F914F913F912F910F900BBECA
:103E20000F900FBE0F901F90189580910904882362
:103E300059F510920A0410920B04E4CFA0910A04E1
:103E4000A15080910904A81708F0ADCFB0E0FD01A2
:103E5000EE0FFF1FE952FC4F0190F081E02DA551BC
:103E6000BC4F81E090E00C9002C0880F991F0A942B
:103E7000E2F7809520812823208395CF80910A0442
:103E800061E00E941C1EA1CF80910904815060E076
:103E90000E941C1ECECFAF92BF92CF92DF92EF92C4
:103EA000FF920F931F937B018C01EE0CFF1C001FF0
:103EB000111FEE0CFF1C001F111FEE0CFF1C001F3A
:103EC000111FEE0CFF1C001F111F60E078E689E84F
:103ED00099E09701A8010E94923E59016A01089455
:103EE000A108B108C108D10860E074E284EF90E055
:103EF0009701A8010E94923EF901B90161507040FA
:103F0000CB01880F991F9B01220F331F220F331FF4
:103F1000220F331F820F931FA0E0B0E08A159B058C
:103F2000AC05BD0579F186017501E81AF90A0A0B9D
:103F30001B0BCF01880F991F9F01220F331F220FE8
:103F4000331F220F331F820F931FA0E0B0E08A15AA
:103F50009B05AC05BD05D1F0A6019501281B390BC9
:103F60004A0B5B0B2E153F054007510708F4BF01B4
:103F7000CB011F910F91FF90EF90DF90CF90BF90FA
:103F8000AF900895EE24FF248701D3CF20E030E0E6
:103F900040E050E0E7CF982F8091C00085FFFCCF34
:103FA0009093C6000895E0918F04F0E0E45BFB4F2E
:103FB000808380918F04803418F010928F040895CC
:103FC00080918F048F5F80938F040895982F809144
:103FD000C80085FFFCCF9093CE000895E0911305B3
:103FE000F0E0E053FB4F808380911305803418F09C
:103FF000109213050895809113058F5F8093130528
:104000000895DB012C91FC01E20FF11D40838C919E
:10401000803410F01C9208958C918F5F8C930895DA
:10402000CF93DF93DC01EB01FA019881808198172F
:1040300099F08881A80FB11D9C918881803428F067
:104040001882892FDF91CF91089588818F5F8883AF
:10405000892FDF91CF91089590E0892FDF91CF9143
:1040600008958091C00087FFFCCF8091C60008951D
:104070008091C80087FFFCCF8091CE000895909179
:104080008C0480918D0420E0981321E0822F089504
:10409000909110058091110520E0981321E0822F66
:1040A000089590918C0480918D049817A9F0E09167
:1040B0008C04F0E0E45FFB4FE08180918C0480345D
:1040C00020F010928C048E2F089580918C048F5FC5
:1040D00080938C048E2F0895E0E08E2F08959091A8
:1040E0001005809111059817A9F0E0911005F0E0F6
:1040F000E057FB4FE08180911005803420F0109252
:1041000010058E2F0895809110058F5F8093100504
:104110008E2F0895E0E08E2F0895FC019081992361
:1041200051F031968091C00085FFFCCF9093C6007E
:1041300090819923B1F70895FC019081992351F062
:1041400031968091C80085FFFCCF9093CE0090817E
:104150009923B1F708951F920F920FB60F920BB6E5
:104160000F9211248F93EF93FF938091C600E091FB
:104170008D04F0E0E45FFB4F808380918D048034F8
:1041800060F010928D04FF91EF918F910F900BBE14
:104190000F900FBE0F901F90189580918D048F5F28
:1041A00080938D04F0CF1F920F920FB60F920BB633
:1041B0000F9211248F93EF93FF938091CE00E091A3
:1041C0001105F0E0E057FB4F8083809111058034AA
:1041D00060F010921105FF91EF918F910F900BBE3F
:1041E0000F900FBE0F901F901895809111058F5F53
:1041F00080931105F0CF1F920F920FB60F920BB65E
:104200000F9211248F939F93EF93FF9390918E04BD
:1042100080918F04981711F1E0918E04F0E0E45B37
:10422000FB4FE08180918E04803488F010928E04E0
:10423000EE23A1F0E093C600FF91EF919F918F9143
:104240000F900BBE0F900FBE0F901F90189580918E
:104250008E048F5F80938E04EE2361F78091C100FE
:104260008F7D8093C100E8CFDC018C91882381F0A1
:10427000E0911305F0E0E053FB4F8083809113053C
:10428000803460F01092130511968C91882381F789
:104290008091C90080628093C900089580911305C0
:1042A0008F5F809313051196F0CFDC018C918823EA
:1042B00081F0E0918F04F0E0E45BFB4F808380911C
:1042C0008F04803460F010928F0411968C918823B3
:1042D00081F78091C10080628093C1000895809130
:1042E0008F048F5F80938F041196F0CFAF92BF92AF
:1042F000CF92DF92EF92FF920F931F937B018C017D
:10430000EE0CFF1C001F111FEE0CFF1C001F111FE5
:10431000EE0CFF1C001F111FEE0CFF1C001F111FD5
:1043200060E078E689E899E09701A8010E94923E52
:1043300059016A010894A108B108C108D10860E0D8
:1043400074E284EF90E09701A8010E94923EF90187
:10435000B90161507040CB01880F991F9B01220F5A
:10436000331F220F331F220F331F820F931FA0E032
:10437000B0E0A816B906CA06DB06E9F186017501A8
:10438000E81AF90A0A0B1B0BCF01880F991F9F012E
:10439000220F331F220F331F220F331F820F931F51
:1043A000A0E0B0E0A816B906CA06DB0641F1A601F6
:1043B0009501281B390B4A0B5B0B2E153F05400757
:1043C000510708F4BF0188E18093C1008EE080931B
:1043D000C2007093C5006093C4008091C1008068E2
:1043E0008093C1001F910F91FF90EF90DF90CF90CD
:1043F000BF90AF900895EE24FF248701C5CF20E041
:1044000030E040E050E0D9CFAF92BF92CF92DF9240
:10441000EF92FF920F931F937B018C01EE0CFF1C18
:10442000001F111FEE0CFF1C001F111FEE0CFF1CC4
:10443000001F111FEE0CFF1C001F111F60E078E62B
:1044400089E899E09701A8010E94923E59016A010A
:104450000894A108B108C108D10860E074E284EFB3
:1044600090E09701A8010E94923EF901B9016150C4
:104470007040CB01880F991F9B01220F331F220F21
:10448000331F220F331F820F931FA0E0B0E0A81646
:10449000B906CA06DB06E9F186017501E81AF90AD0
:1044A0000A0B1B0BCF01880F991F9F01220F331F8F
:1044B000220F331F220F331F820F931FA0E0B0E0A3
:1044C000A816B906CA06DB0641F1A6019501281B0C
:1044D000390B4A0B5B0B2E153F054007510708F4BB
:1044E000BF0188E18093C9008EE08093CA00709379
:1044F000CD006093CC008091C90080688093C90092
:104500001F910F91FF90EF90DF90CF90BF90AF90F1
:104510000895EE24FF248701C5CF20E030E040E07D
:1045200050E0D9CFCF93DF93EC010E943F20882346
:1045300019F4DF91CF9108950E945120982F209176
:104540000907E22FF0E0EC5EFA4F8083E22FEF5F85
:104550002E2FE09309078A3011F0E33651F780914E
:1045600008078823B1F481E09A30B9F081E08093A4
:104570000807F0E0EC5EFA4F1082E22FF0E0EC5E0C
:10458000FA4F10821092090710921405DF91CF9113
:1045900008951092080780E0E7CFF0E0EC5EFA4F54
:1045A0001082882351F384E195E0FE010995209162
:1045B0000907E3CF8F929F92AF92BF92CF92DF9283
:1045C000EF92FF920F931F93DF93CF9300D000D011
:1045D000CDB7DEB7162F072F6A0119821A821B8208
:1045E0001C826EE172E00E94C836AC01009709F4AB
:1045F0005EC082E04032580709F459C0812F902FE5
:104600009C018901EE24FF2482E2882E82E0982E0C
:104610005E010894A11CB11C0FC080E090E06EE127
:1046200072E00E94C836AC01009779F10C5F1F4F11
:1046300092E04032590749F100D000D000D0EDB7E8
:10464000FEB73196ADB7BEB712965C934E931197F5
:1046500093828282B582A4820E94673789819A817F
:10466000AB81BC81F80180839183A283B3830894DA
:10467000E11CF11C8DB79EB706960FB6F8949EBF4D
:104680000FBE8DBFEC14FD0441F6C7010F900F90D3
:104690000F900F90CF91DF911F910F91FF90EF90AE
:1046A000DF90CF90BF90AF909F908F900895EE24B1
:1046B000FF24EBCFCF92DF92EF92FF920F931F93E5
:1046C000CF93DF938C010E943F20882349F4DF9130
:1046D000CF911F910F91FF90EF90DF90CF900895B1
:1046E0000E945120982F20910907E22FF0E0EC5E04
:1046F000FA4F8083E22FEF5F2E2FE09309078A3075
:1047000011F0E33621F7809108078823A1F481E0B6
:104710009A30A9F081E080930807F0E0EC5EFA4F50
:104720001082E22FF0E0EC5EFA4F1082109209073F
:1047300010921405CCCF1092080780E0E9CFF0E08A
:10474000EC5EFA4F1082882361F384E195E068E71C
:1047500075E044E650E00E94DA227C01D0907805B2
:10476000C090790580917A0590917B05E7012197AA
:104770001C161D06D4F5ECE7F5E02D2D3C2DAC0103
:10478000C901DA0120E030E040E050E0B701660FF7
:10479000771F660F771F6C587A4F04C081919191F3
:1047A000A191B191280F391F4A1F5B1FE617F70728
:1047B000A9F7CC0FDD1FCC0FDD1FC858DA4F888159
:1047C0009981AA81BB8182179307A407B50719F0C5
:1047D000EE24EA94FE2C8D2D9C2D68E775E0A70150
:1047E000F8010995209109079CCF20E030E040E0D6
:1047F00050E0DFCF8F929F92AF92BF92CF92DF9225
:10480000EF92FF920F931F93DF93CF93CDB7DEB755
:1048100064970FB6F894DEBF0FBECDBF4C015A01AE
:104820006B018BE0E82EF12CEC0EFD1ED701E6E2C9
:10483000F2E083E001900D928150E1F7C701B901E8
:104840000E94CD36002349F0F70101900020E9F7DE
:1048500031978AE090E0918380838DB79EB7089767
:104860000FB6F8949EBF0FBE8DBFEDB7FEB7319661
:104870008E010F5F1F4FADB7BEB712961C930E93FC
:104880001197F382E282A482B582C682D7820E9407
:1048900036378DB79EB708960FB6F8949EBF0FBEF9
:1048A0008DBFC4010E948D20C8010E948D20649696
:1048B0000FB6F894DEBF0FBECDBFCF91DF911F9131
:1048C0000F91FF90EF90DF90CF90BF90AF909F90AF
:1048D0008F9008958F929F92AF92BF92CF92DF9266
:1048E000EF92FF920F931F93DF93CF93CDB7DEB775
:1048F00064970FB6F894DEBF0FBECDBF4C015A01CE
:104900006B019BE0E92EF12CEC0EFD1ED701E6E2D7
:10491000F2E083E001900D928150E1F7C701B90107
:104920000E94CD36002349F0F70101900020E9F7FD
:1049300031978AE090E0918380838DB79EB7089786
:104940000FB6F8949EBF0FBE8DBFEDB7FEB7319680
:104950008E010F5F1F4FADB7BEB712961C930E931B
:104960001197F382E282A482B582C682D7820E9426
:1049700036378DB79EB708960FB6F8949EBF0FBE18
:104980008DBFC4010E948D20C8010E948D206496B5
:104990000FB6F894DEBF0FBECDBFCF91DF911F9150
:1049A0000F91FF90EF90DF90CF90BF90AF909F90CE
:1049B0008F900895EF92FF920F931F93DF93CF9301
:1049C000CDB7DEB72A970FB6F894DEBF0FBECDBFC6
:1049D0007C012223B9F5ADB7BEB718970FB6F8948E
:1049E000BEBF0FBEADBFEDB7FEB731968E010F5FF4
:1049F0001F4F12961C930E93119780E392E09383BE
:104A0000828344835583668377830E9436378DB7CC
:104A10009EB708960FB6F8949EBF0FBE8DBFC70114
:104A20000E948D20C8010E948D202A960FB6F8940E
:104A3000DEBF0FBECDBFCF91DF911F910F91FF90D1
:104A4000EF9008958DB79EB708970FB6F8949EBF64
:104A50000FBE8DBFEDB7FEB731968E010F5F1F4FB2
:104A6000ADB7BEB712961C930E93119789E292E0F0
:104A7000C6CF0F931F93DF93CF93CDB7DEB72A979F
:104A80000FB6F894DEBF0FBECDBF2DB73EB728508E
:104A900030400FB6F8943EBF0FBE2DBFEDB7FEB746
:104AA00031968E010F5F1F4FADB7BEB712961C93A4
:104AB0000E93119726E332E0338322836483758358
:104AC000868397830E9436372DB73EB7285F3F4FC6
:104AD0000FB6F8943EBF0FBE2DBFC8010E948D20B7
:104AE0002A960FB6F894DEBF0FBECDBFCF91DF91EF
:104AF0001F910F9108950F931F93DF93CF93CDB71D
:104B0000DEB72A970FB6F894DEBF0FBECDBF00D038
:104B100000D000D0EDB7FEB731968E010F5F1F4F6A
:104B2000ADB7BEB712961C930E93119729E332E0EE
:104B300033832283958384830E9436378DB79EB753
:104B400006960FB6F8949EBF0FBE8DBFC8010E9497
:104B50008D202A960FB6F894DEBF0FBECDBFCF9141
:104B6000DF911F910F910895EBEEF7E0E60FF71F2D
:104B7000E081F0E0EE0FFF1FEE0FFF1FE259F84F4C
:104B80002081318142815381B901CA010895EBEE40
:104B9000F7E0E60FF71FE081F0E0EE0FFF1FEE0FEA
:104BA000FF1FE255F84F60817181828193810895E2
:104BB000CF92DF92EF92FF920F931F93CF93DF93E9
:104BC00002ED17E05BEEC52E57E0D52E4AE0E42E4D
:104BD00047E0F42E1FC0E601E881F0E0EE0FFF1F72
:104BE000EE0FFF1FE255F84FE70188819981AA81F6
:104BF000BB8180839183A283B3830F5F1F4F08948F
:104C0000C11CD11CC4E0D0E0EC0EFD1EE7E00B3E61
:104C10001E0701F1D8018C918823E9F6F601808105
:104C2000C82FD0E0CC0FDD1FCC0FDD1FC259D84FED
:104C3000D7016D917D918D919C910E944E3920E01C
:104C400030E44CE156E40E94B338688379838A8368
:104C50009B83D3CFDF91CF911F910F91FF90EF9066
:104C6000DF90CF90089510920A0710920B071092D0
:104C70000C0710920D078CE993E1A0E0B0E080935F
:104C80000E0790930F07A0931007B09311078CE3C2
:104C900096EFAFEFBFEF8093120790931307A093A7
:104CA0001407B09315078CE795E1A0E0B0E080937E
:104CB000160790931707A0931807B093190782E778
:104CC00096E5A0E0B0E080931A0790931B07A093AD
:104CD0001C07B0931D078AE195EFAFEFBFEF8093FC
:104CE0001E0790931F07A0932007B093210782E02F
:104CF00093E0A0E0B0E08093220790932307A09375
:104D00002407B093250781E590E0A0E0B0E0809310
:104D1000260790932707A0932807B09329078BE0D5
:104D200091E0A0E0B0E080932A0790932B07A09336
:104D30002C07B0932D0784E89FEFAFEFBFEF809370
:104D40002E0790932F07A0933007B093310788E880
:104D500093E1A0E0B0E08093320790933307A093F3
:104D60003407B093350788EE93E0A0E0B0E080937D
:104D7000360790933707A0933807B09339071092FE
:104D80003A0710923B0710923C0710923D078CEDBA
:104D900095E0A0E0B0E080933E0790933F07A0939A
:104DA0004007B09341078093420790934307A09335
:104DB0004407B09345078093460790934707A09315
:104DC0004807B093490780E291EAA7E0B0E08093FA
:104DD0004A0790934B07A0934C07B0934D0788E286
:104DE00093E2A0E0B0E080934E0790934F07A0932A
:104DF0005007B09351078093520790935307A093A5
:104E00005407B09355078093560790935707A09384
:104E10005807B093590780935A0790935B07A09364
:104E20005C07B0935D0780935E0790935F07A09344
:104E30006007B093610789E190E0A0E0B0E0809363
:104E4000620790936307A0936407B093650784E6B5
:104E500090E0A0E0B0E08093660790936707A0938E
:104E60006807B093690786E490E0A0E0B0E0809323
:104E70006A0790936B07A0936C07B0936D07089532
:104E8000EF92FF920F931F93CF93DF937B018C01DF
:104E9000FB01EE0FFF1FEE0FFF1FE65FF84F2083B1
:104EA000318342835383FB01EE52F84F8081882384
:104EB00009F5F701E551F84F6081C62FD0E0CC0F1E
:104EC000DD1FCC0FDD1FC259D84FCA01B9010E94A6
:104ED0004E3920E030E44CE156E40E94B338688358
:104EE00079838A839B83DF91CF911F910F91FF90EC
:104EF000EF900895F701E551F84FE081F0E0EE0FF3
:104F0000FF1FEE0FFF1FE255F84F208331834283CE
:104F10005383DF91CF911F910F91FF90EF900895F0
:104F2000EF92FF920F931F93CF93DF93CAE0D7E0E6
:104F3000EE24FF248701D801C701880F991FAA1FFB
:104F4000BB1F880F991FAA1FBB1F499159916991D7
:104F500079910E94AE3D0894E11CF11C011D111DC8
:104F600087E0CE36D80739F7DF91CF911F910F91A7
:104F7000FF90EF900895CF92DF92EF92FF920F9300
:104F80001F93CF93DF9354E0C52E58E0D52E109297
:104F90000408C60165E070E00E94D32BC60140E022
:104FA00050E060E070E00E94A02B40910A07509111
:104FB0000B0760910C0770910D07C6010E94A02B92
:104FC000CEE0D7E041E0E42EF12C012D112D06C0FA
:104FD0000894E11CF11C011D111D249687E0CE36BA
:104FE000D807D1F084E098E0B801A7010E94A02B77
:104FF000488159816A817B8184E098E00E94A02BDE
:10500000C70183709070039719F784E098E00E94BD
:105010008D2010920408DCCFF60101900020E9F702
:105020003197E450F840EC5FF74F8CE290E09183C9
:10503000808384E098E00E948D2010920408EEE5C1
:10504000F3E06591749184E098E00E94B63601E047
:1050500010E0CCE2D0E0F60101900020E9F73197B2
:10506000E450F840EC5FF74FD183C08384E098E0D0
:105070000E948D200931A0F4F801EE0FFF1FE25AC3
:10508000FC4F6591749184E098E00E94B6360F5F02
:105090001F4F09311105F9F684E098E00E948D2038
:1050A0008CE392E00E948D20DF91CF911F910F91B0
:1050B000FF90EF90DF90CF900895CF92DF92EF9224
:1050C000FF920F931F93CF93DF9380E090E00E94B5
:1050D000A83D6A3F71058105910509F0DBC00AE032
:1050E00017E0C0E0D0E0CE01880F991F880F991F0C
:1050F0000E94A83DD8016D937D938D939D938D0162
:105100002196C931D10579F791E09093D207109299
:10511000EB071092D3071092EC071092D4079093EC
:10512000ED071092D50722E02093EE071092D607E4
:1051300083E08093EF071092D70744E04093F00795
:105140001092D80735E03093F1079093D9079093E8
:10515000F2079093DA072093F3079093DB0780938D
:10516000F4071092DC0786E08093F5071092DD07C4
:1051700027E02093F6071092DE0758E05093F707D8
:105180009093DF074093F8079093E0073093F90777
:105190009093E1078093FA071092E20789E08093E9
:1051A000FB071092E3078AE08093FC071092E40764
:1051B0008BE08093FD071092E5078CE08093FE075B
:1051C0001092E6078DE08093FF071092E7078EE0CC
:1051D000809300089093E807209301089093E907D3
:1051E000509302081092EA078FE08093030802EDC3
:1051F00017E0FBEECF2EF7E0DF2EEAE0EE2EE7E041
:10520000FE2E1FC0D601EC91F0E0EE0FFF1FEE0F57
:10521000FF1FE255F84FE70188819981AA81BB8180
:1052200080839183A283B3830F5F1F4F0894C11CB7
:10523000D11CC4E0D0E0EC0EFD1EE7E00B3E1E07E3
:1052400001F1E80188818823E9F6F6018081C82F01
:10525000D0E0CC0FDD1FCC0FDD1FC259D84FD701D6
:105260006D917D918D919C910E944E3920E030E4AA
:105270004CE156E40E94B338688379838A839B8328
:10528000D3CFDF91CF911F910F91FF90EF90DF90DF
:10529000CF90089510920A0710920B0710920C07F6
:1052A00010920D078CE993E1A0E0B0E080930E0727
:1052B00090930F07A0931007B09311078CE396EF1C
:1052C000AFEFBFEF8093120790931307A0931407DB
:1052D000B09315078CE795E1A0E0B0E08093160746
:1052E00090931707A0931807B093190782E796E5E4
:1052F000A0E0B0E080931A0790931B07A0931C07CF
:10530000B0931D078AE195EFAFEFBFEF80931E07C3
:1053100090931F07A0932007B093210782E093E0AA
:10532000A0E0B0E08093220790932307A093240786
:10533000B093250781E590E0A0E0B0E080932607D8
:1053400090932707A0932807B09329078BE091E05B
:10535000A0E0B0E080932A0790932B07A0932C073E
:10536000B0932D0784E89FEFAFEFBFEF80932E0738
:1053700090932F07A0933007B093310788E893E10B
:10538000A0E0B0E08093320790933307A0933407F6
:10539000B093350788EE93E0A0E0B0E08093360745
:1053A00090933707A0933807B093390710923A07C4
:1053B00010923B0710923C0710923D078CED95E050
:1053C000A0E0B0E080933E0790933F07A093400792
:1053D000B09341078093420790934307A0934407FB
:1053E000B09345078093460790934707A0934807DB
:1053F000B093490780E291EAA7E0B0E080934A07C2
:1054000090934B07A0934C07B0934D0788E293E22B
:10541000A0E0B0E080934E0790934F07A093500711
:10542000B09351078093520790935307A09354076A
:10543000B09355078093560790935707A09358074A
:10544000B093590780935A0790935B07A0935C072A
:10545000B0935D0780935E0790935F07A09360070A
:10546000B093610789E190E0A0E0B0E0809362072B
:1054700090936307A0936407B093650784E690E078
:10548000A0E0B0E08093660790936707A093680759
:10549000B093690786E490E0A0E0B0E080936A07EB
:1054A00090936B07A0936C07B0936D072DCE94B1CA
:1054B000906B94B9269890E59CBD882319F08CB523
:1054C00080628CBD613049F1613068F48CB58CBD6F
:1054D000403191F04131A0F44430E1F1483049F1DC
:1054E000423071F108956230E1F0633089F78CB594
:1054F0008C608CBD403171F78CB581608CBD089596
:10550000403421F1403889F0403261F78DB5816037
:105510008DBD8CB582608CBD08958CB584608CBDCA
:10552000D7CF8CB588608CBDD3CF8CB583608CBD54
:1055300008958DB581608DBD8CB581608CBD089559
:105540008DB581608DBD8CB58CBD08958CB58260A4
:105550008CBD08958CB581608CBD8CB58CBD0895D3
:105560008EBD0DB407FEFDCF8EB50895482F66237E
:1055700069F09C01F90180818EBD0DB407FEFDCF5D
:105580008EB531968E2F841B8617A8F30895482F69
:10559000662369F09C01F9019FEF9EBD0DB407FEE3
:1055A000FDCF8EB581938E2F841B8617B0F308959F
:1055B0003D9A3F9A549A559A459847985C985D98B9
:1055C0000895459847985C985D9808959C0180914E
:1055D0003E02813061F080916808815080936808B4
:1055E00087FF0895822F81508093680808958091E5
:1055F00068088F5F80936808992787FD90958217C8
:1056000093077CF310926808089590916808913090
:1056100071F192308CF19230A1F0933019F14598EC
:1056200047985C985D9880913E02813091F0892F77
:1056300081508093680887FF089583E0809368080D
:105640000895459847985C9A5D9A80913E02813012
:1056500071F7892F8F5F8093680884306CF3109204
:1056600068080895459A47985C985D9ADCCF4598FC
:10567000479A5C9A5D98D7CF992389F6459A479ABD
:105680005C985D98D0CF90916808933009F449C038
:105690009430DCF09530D9F195306CF1963009F406
:1056A0004AC0973009F442C0459847985C985D9885
:1056B00080913E028130A9F4892F8F5F8093680822
:1056C0008830A4F0109268080895913029F1923042
:1056D000BCF0459847985C9A5D9880913E02813075
:1056E00059F3892F81508093680887FF089587E0D8
:1056F0008093680808954598479A5C985D98EDCF27
:10570000992391F6459847985C985D9AE6CF459A1B
:10571000479A5C985D98E1CF459847985C9A5D9A66
:10572000DCCF4598479A5C9A5D98D7CF459A4798C1
:105730005C985D9AD2CF459A47985C985D98CDCF9A
:10574000EF92FF920F931F937C018DB79EB708973E
:105750000FB6F8949EBF0FBE8DBFEDB7FEB7319662
:1057600009E618E0ADB7BEB712961C930E931197D9
:105770008FE392E0938382834483558366837783A8
:105780000E9436378DB79EB708960FB6F8949EBF25
:105790000FBE8DBFC701B8010E94CD361F910F917A
:1057A000FF90EF900895EF92FF920F931F937C016B
:1057B00000D000D000D0EDB7FEB7319609E618E072
:1057C000ADB7BEB712961C930E93119784E492E086
:1057D00093838283758364830E9436378DB79EB727
:1057E00006960FB6F8949EBF0FBE8DBFC701B801D5
:1057F0000E94CD361F910F91FF90EF9008954F9228
:105800005F926F927F928F929F92AF92BF92CF9250
:10581000DF92EF92FF920F931F93CF93DF932C01B0
:105820003A014B01CB01BA010E941B395B016C01AB
:10583000C401B30120E030E040E050E00E94AF3806
:1058400088230CF450C0EDB7FEB738970FB6F89424
:10585000FEBF0FBEEDBFEDB6FEB60894E11CF11C15
:1058600089E698E09283818387E492E0F70193834D
:105870008283B582A4828CE99FEFA89E8001A99EB5
:10588000100DB89E100D1124C401B30120E030E0CA
:1058900048EC52E40E942E3A0E941B39060F171F53
:1058A000F701178306830E9436378DB79EB7089697
:1058B0000FB6F8949EBF0FBE8DBFC20169E678E0B7
:1058C0000E94CD36DF91CF911F910F91FF90EF9005
:1058D000DF90CF90BF90AF909F908F907F906F9010
:1058E0005F904F9008958DB79EB708970FB6F894C4
:1058F0009EBF0FBE8DBFEDB6FEB60894E11CF11C35
:1059000089E698E0EDB7FEB79283818387E492E061
:10591000F70193838283B582A48284E690E0A89EF7
:105920008001A99E100DB89E100D1124C401B30171
:1059300020E030E048EC52E40E942E3A0E941B39ED
:10594000061B170BADCF109295001092940089EFB3
:1059500090E0909399008093980010929000E1E974
:10596000F0E0108280818260808380818360808308
:1059700082E08093710008951F920F920FB60F92EC
:1059800011248F939F93AF93BF938091730890914D
:105990007408A0917508B09176080196A11DB11DFB
:1059A0008093730890937408A0937508B093760859
:1059B000BF91AF919F918F910F900FBE0F901F904D
:1059C0001895F894209173083091740840917508E7
:1059D000509176087894B901CA010895EF92FF9228
:1059E0000F931F93F89460917308709174088091DD
:1059F000750890917608E0909400F0909500789466
:105A00002AEF30E040E050E00E94603E9B01AC0194
:105A100000E010E02E0D3F1D401F511F220F331FCD
:105A2000441F551F220F331F441F551FB901CA01C0
:105A30001F910F91FF90EF90089591E09093C0080F
:105A400080939D081092BE081092BF08089520917F
:105A50009C0830E080919B08281B3109C9010895FA
:105A600040919B0880919C08481760F4E42FF0E077
:105A7000E558F74F8081282F30E04F5F40939B0817
:105A8000C90108952FEF3FEFC9010895E0919B08E8
:105A900080919C08E81740F4F0E0E558F74F8081CA
:105AA000E82FF0E0CF010895EFEFFFEFCF01089569
:105AB00008959C014091C3085091C40841155105B7
:105AC00011F190919B0880919C089817E0F01616B0
:105AD000170694F490E0A0E0B0E0E0E0F0E0A55814
