:100000000C94AD010C94CC010C94CC010C94CC015B
:100010000C94CC010C94CC010C94CC010C94CC012C
:100020000C94CC010C94CC010C94CC010C94CC011C
:100030000C94CC010C948F1C0C94CD1C0C94CC0112
:100040000C9442040C94CC010C94CC010C94CC0183
:100050000C94C11E0C94111F0C94CC010C94CC0177
:100060000C942C040C94CC010C9455270C94CC01CA
:100070000C94E91E0C94CC010C94CC010C94CC0192
:100080000C94CC010C94CC010C94CC010E28A72725
:10009000A727A727A727A727A727A7271828A7277E
:1000A000A727A727A727A727A727A7271828A7276E
:1000B000A727A727A727A727A727A7272028A72756
:1000C000A727A727A727A727A727A7273428A72732
:1000D000A727A727A727A727A727A7272028A72736
:1000E000A727A727A727A727A727A727D627A72771
:1000F000A727A727A727A727A727A727E327A72754
:10010000A727A727A727A727A727A727CF27A72757
:10011000A727A727A727A727A727A7276128A727B4
:10012000A727A727A727A727A727A727C327A72743
:10013000A727A727A727A727A727A727EC27A7270A
:10014000A727A727A727A727A727A7270528A727E0
:10015000A727A727A727A727A727A7270528A727D0
:10016000A727A727A727A727A727A7270528A727C0
:10017000A727A727A727A727A727A7270528A727B0
:10018000A727A727A727A727A727A727BA27A727EC
:10019000A727A727A727A727A727A727BF27A727D7
:1001A000A727A727A727A727A727A727BA27A727CC
:1001B000A727A727A727A727A727A727BF27A727B7
:1001C000A727A727A727A727A727A7273F28A72726
:1001D000A727A727A727A727A727A7277D27A727D9
:1001E000A727A727A727A727A727A7277D27A727C9
:1001F000A727A727A727A727A727A7279227A727A4
:10020000A727A727A727A727A727A7275B28A727C9
:10021000A727A727A727A727A727A7275B28084A35
:10022000D73B3BCE016E84BCBFFDC12F3D6C74310A
:100230009ABD56833DDA3D00C77F11BED9E4BB4C61
:100240003E916BAAAABE000000803F6E616E0069FD
:100250006E660000407A10F35A00A0724E18090032
:1002600010A5D4E80000E87648170000E40B54021B
:100270000000CA9A3B000000E1F505000080969856
:1002800000000040420F000000A0860100000010A6
:100290002700000000E803000000006400000000E8
:1002A000000A00000000000100000000002C76D8C9
:1002B00088DC674F0823DFC1DFAE59E1B1B796E5AF
:1002C000E3E453C63AE651997696E8E6C28426EB13
:1002D000898C9B62ED407C6FFCEFBC9C9F40F2BA26
:1002E000A56FA5F490055A2AF75C936B6CF9676DBE
:1002F000C11BFCE0E40D47FEF520E6B500D0ED9013
:100300002E0300943577050080841E080000204EDF
:100310000A000000C80C333333330F986E12831178
:1003200041EF8D2114893BE65516CFFEE6DB18D14F
:10033000844B381BF77C1D901DA4BBE42420328421
:10034000725E228100C9F124ECA1E53D2763646956
:100350006E6F70737578585B000011241FBECFEF6D
:10036000D0E4DEBFCDBF11E0A0E0B1E0EAEDFBE6F6
:1003700000E00BBF02C007900D92AE3AB107D9F76B
:1003800016E0AEEAB1E001C01D92AB3DB107E1F766
:100390000E94AE080C94092D0C94000088E4809310
:1003A000AE0189E08093AF011092B0011092B201CA
:1003B0001092B1011092B4011092B5011092B601E1
:1003C0001092B7010895A0E0B0E0BC01CD010E94F9
:1003D000733026EA3BE944EC50E40E94553120E0BA
:1003E00030E040E058E30E9455310895A0E0B0E0CD
:1003F000BC01CD0120E038E140E050E00E948F35A3
:100400009B01AC018FE056954795379527958A95C6
:10041000D1F7C9010895DF93CF9300D0CDB7DEB7F0
:100420008091AE0161E0AE014F5F5F4F0E94E62810
:1004300020E089819A8197FD06C0822F0F900F904E
:10044000CF91DF91089521E0822F0F900F90CF91EF
:10045000DF9108958430D0F42091B1013091B20140
:10046000A901436851608130F1F0813088F0823019
:1004700029F1833019F4A9014368516750688091CC
:10048000AE0161E00E94922881E0089580E0089525
:10049000A9014368516450688091AE0161E00E94F7
:1004A000922881E00895A9014368516550688091C0
:1004B000AE0161E00E94922881E00895A90143689D
:1004C000516650688091AE0161E00E94922881E0FF
:1004D0000895AF92BF92CF92DF92EF92FF920F9367
:1004E0001F93DF93CF9300D0CDB7DEB7843008F0F1
:1004F00066C02091B1013091B201A90143685160F9
:10050000813009F470C0813008F469C0823009F488
:1005100079C0833019F4A90143685167506880910C
:10052000AE0161E00E9492286091AF0170E080E02E
:1005300090E00E9473305B016C0120E030E04AE7FC
:1005400055E40E9455317B018C0120E030E040E809
:100550005FE30E94D62F88230CF451C0C801B70175
:1005600020E03FEF4FE757E40E944A3118160CF0A5
:100570003EC0C601B50120E030E040E251E40E94F7
:1005800055310E944730CB01672B39F020E931E02B
:10059000F9013197F1F70197D9F78091AE0160E049
:1005A000AE014F5F5F4F0E94E62829813A8100909B
:1005B000B00102C0369527950A94E2F702C020E008
:1005C00030E0C9010F900F90CF91DF911F910F91F3
:1005D000FF90EF90DF90CF90BF90AF900895A9016A
:1005E000436851649BCFA9014368516597CFC80107
:1005F000B7010E944730CB010197F1F7CECF61E000
:1006000070E0F9CFA9014368516688CFFF920F933C
:100610001F93DF93CF9300D0CDB7DEB78C01F62EBA
:100620008091AE0161E0AE014F5F5F4F0E94E6280E
:1006300089819A8197FD27C010E0F3E0FF15D0F083
:100640008091B1019091B201AC014368516021E009
:10065000F21689F1F21658F1E2E0FE1681F1FF166A
:1006600019F4AC014368516750688091AE0161E0B4
:100670000E949228812F0F900F90CF91DF911F91B0
:100680000F91FF9008958091AE0160E0A8010E9453
:10069000E628F801808191810090B00102C0969512
:1006A00087950A94E2F79183808311E0C6CFAC016D
:1006B00043685164D9CFAC0143685165D5CFAC01D3
:1006C00043685166D1CF0F931F93DF93CF9300D030
:1006D000CDB7DEB78C018091AE0161E0AE014F5F16
:1006E0005F4F0E94E62889819A8197FD3EC0209144
:1006F000B301E22FF0E0EC54FE4F8081882319F51E
:1007000010E08AE08083243040F58091B10190911F
:10071000B201AC0143685160213009F47EC0213040
:1007200008F06EC0AC014368516450688091AE011E
:1007300061E00E949228812F0F900F90CF91DF915E
:100740001F910F9108958150808310E0E22FF0E017
:10075000EC54FE4F80818823A1F2812F0F900F90DF
:10076000CF91DF911F910F9108954091B30150E017
:10077000440F551F48545E4F8091AE0160E00E94C7
:10078000E6282091B301E22FF0E0EE0FFF1FE854BE
:10079000FE4F808191810090B00102C096958795AF
:1007A0000A94E2F7918380832F5F2093B301243072
:1007B00060F21092B3011092B4018091B80190914F
:1007C000B901F801918380831092B5018091BA013B
:1007D0009091BB01938382831092B6018091BC01FA
:1007E0009091BD01958384831092B7018091BE01E1
:1007F0009091BF019783868311E02091B301A6CF2A
:10080000223039F0233009F090CFAC0143685167B2
:100810008CCFAC014368516688CFAC014368516509
:1008200084CF81B1806C81B982B18F7382B9089510
:100830000898ECE7F0E01082808180648083EAE72A
:10084000F0E010828081876080838081806880836F
:1008500080818860808308951F920F920FB60F9257
:1008600011248F939F9380917800909179009093B9
:100870005102809350029F918F910F900FBE0F9065
:100880001F9018951F920F920FB60F9211248F93FD
:100890009F9380914C028F5F80934C0280914D0218
:1008A0008F5F80934D0280914C028530A1F0809142
:1008B0004D02823349F482B190E4892782B981E004
:1008C00080934F0210924D029F918F910F900FBE17
:1008D0000F901F90189581E080934E0210924C0269
:1008E000E6CFEAE7F0E080818064808308958CE7BA
:1008F00087BD14BC16BC84B5826084BD85B5846098
:1009000085BD82E080936E0080E091E00E94A31E8E
:100910000895EF92FF920F931F93DF93CF9300D030
:10092000CDB7DEB7CE0101960E946303882371F133
:1009300060912602709127028091280290912902ED
:1009400026E636E646E65FE30E9455317B018C01E0
:1009500089819A810E94E3012AE939E949EF50E44B
:100960000E9455312DEC3CEC4CEC5DE30E9455317E
:100970009B01AC01C801B7010E94102F60932602B1
:100980007093270280932802909329020F900F9072
:10099000CF91DF911F910F91FF90EF900895EF920B
:1009A000FF920F931F937C0100D000D000D0EDB7D1
:1009B000FEB7319602EC11E0ADB7BEB712961C93AC
:1009C0000E9311978AE191E0938382837583648308
:1009D0000E945D2E8DB79EB706960FB6F8949EBF07
:1009E0000FBE8DBFC701B8010E94F42D1F910F915A
:1009F000FF90EF900895EF92FF920F931F937C0169
:100A000000D000D000D0EDB7FEB7319602EC11E077
:100A1000ADB7BEB712961C930E9311978EE191E07D
:100A200093838283758364830E945D2E8DB79EB706
:100A300006960FB6F8949EBF0FBE8DBFC701B801D2
:100A40000E94F42D1F910F91FF90EF9008954F9207
:100A50005F926F927F928F929F92AF92BF92CF924E
:100A6000DF92EF92FF920F931F93CF93DF932C01AE
:100A70003A014B01CB01BA010E9442305B016C018B
:100A8000C401B30120E030E040E050E00E94D62FE6
:100A900088230CF450C0EDB7FEB738970FB6F89422
:100AA000FEBF0FBEEDBFEDB6FEB60894E11CF11C13
:100AB00082EC91E09283818381E291E0F70193835C
:100AC0008283B582A4828CE99FEFA89E8001A99EB3
:100AD000100DB89E100D1124C401B30120E030E0C8
:100AE00048EC52E40E9455310E944230060F171F15
:100AF000F701178306830E945D2E8DB79EB7089677
:100B00000FB6F8949EBF0FBE8DBFC20162EC71E0BC
:100B10000E94F42DDF91CF911F910F91FF90EF90E4
:100B2000DF90CF90BF90AF909F908F907F906F900D
:100B30005F904F9008958DB79EB708970FB6F894C1
:100B40009EBF0FBE8DBFEDB6FEB60894E11CF11C32
:100B500082EC91E0EDB7FEB79283818381E291E070
:100B6000F70193838283B582A48284E690E0A89EF5
:100B70008001A99E100DB89E100D1124C401B3016F
:100B800020E030E048EC52E40E9455310E944230AF
:100B9000061B170BADCF0E94A31B549A559A569A69
:100BA0008BE290E064E00E94F31B8BE290E065E052
:100BB0000E94F31B8BE290E066E00E94F31B0E9410
:100BC000D41B609166017091670180E00E94231C34
:100BD000609166017091670181E00E94231C609121
:100BE00068017091690182E00E94231C0895F894C5
:100BF00085B7806885BF85B7806885BF14BE81B121
:100C0000806C81B982B18F7382B960E072EC81E04F
:100C100090E00E948C1F88E291E00E94A31E7894CD
:100C200061E040E951E0169A20E030E0CA01019706
:100C3000F1F72F5F3F4F83E128383807B9F716984F
:100C400020E030E0CA010197F1F72F5F3F4F83E1C9
:100C500028383807B9F7615030F70E9416250E94EE
:100C60007C150E94C8118CE787BD14BC16BC84B5E6
:100C7000826084BD85B5846085BD82E080936E000E
:100C800080E091E00E94A31E0E94A31B549A559AF3
:100C9000569A8BE290E064E00E94F31B8BE290E0B6
:100CA00065E00E94F31B8BE290E066E00E94F31B7C
:100CB0000E94D41B609166017091670180E00E94E0
:100CC000231C609166017091670181E00E94231CE2
:100CD000609168017091690182E00E94231C0E946A
:100CE000CE01089810927C0080917C0080648093F3
:100CF0007C0010927A0080917A00876080937A005D
:100D000080917A00806880937A0080917A00886070
:100D100080937A001092C00108958F929F92AF92B3
:100D2000BF92CF92DF92EF92FF920F931F93DF93C8
:100D3000CF9300D0CDB7DEB788EF9EE00E94702140
:100D400080914E02813009F484C080914F0281303D
:100D500079F00F900F90CF91DF911F910F91FF903D
:100D6000EF90DF90CF90BF90AF909F908F900895BD
:100D700020912E0230912F02409130025091310289
:100D8000E0903202F090330200913402109135026B
:100D9000A0903602B0903702C0903802D09039024D
:100DA0008DB79EB74C970FB6F8949EBF0FBE8DBF00
:100DB000EDB7FEB7319682EC882E81E0982EADB764
:100DC000BEB712969C928E92119786E491E093831F
:100DD000828380913A0290913B02A0913C02B091B3
:100DE0003D0284839583A683B78380913E029091D0
:100DF0003F02A0914002B091410280879187A28773
:100E0000B3878091420290914302A0914402B09135
:100E1000450284879587A687B787208B318B428BC5
:100E2000538BE48AF58A068B178BA08EB18EC28E07
:100E3000D38E0E945D2E8DB79EB74C960FB6F89458
:100E40009EBF0FBE8DBFC4010E94A31E10924F0211
:100E500080CFCE0101960E946303882371F16091D7
:100E6000260270912702809128029091290226E69D
:100E700036E646E65FE30E9455317B018C018981AD
:100E80009A810E94E3012AE939E949EF50E40E947E
:100E900055312DEC3CEC4CEC5DE30E9455319B014F
:100EA000AC01C801B7010E94102F60932602709315
:100EB0002702809328029093290280917A0080640F
:100EC00080937A00E0905002F090510260912A02E3
:100ED00070912B0280912C0290912D0226E636E62D
:100EE00046E65FE30E9455315B016C0100E010E0D3
:100EF000C801B7010E9473302CE53FE84AEE50E488
:100F00000E94553120E030E040E85AE30E9455311C
:100F10009B01AC01C601B5010E94102F28E431EEFF
:100F20004AE650E40E940F2F60932A0270932B022E
:100F300080932C0290932D020E9485120E94F80F3C
:100F40000E94471060917A0270917B0280917C022E
:100F500090917D0260933A0270933B0280933C0231
:100F600090933D02E0907E02F0907F02009180021B
:100F700010918102E0923E02F0923F020093400203
:100F800010934102A0908202B0908302C09084022C
:100F9000D0908502A0924202B0924302C0924402D5
:100FA000D092450210924E028090520290905302CD
:100FB00024E6821691040CF042C020912E0230915A
:100FC0002F0240913002509131020E94102F609305
:100FD0002E0270932F028093300290933102209161
:100FE0003202309133024091340250913502C801EF
:100FF000B7010E94102F60933202709333028093E6
:10100000340290933502209136023091370240919C
:10101000380250913902C601B5010E94102F609329
:101020003602709337028093380290933902089405
:10103000811C911C909253028092520286CEA4E6AB
:101040008A169104D9F120912E0230912F024091FD
:101050003002509131020E940F2F60933A02709338
:101060003B0280933C0290933D02209132023091EA
:1010700033024091340250913502C801B7010E94F9
:101080000F2F60933E0270933F0280934002909333
:10109000410220913602309137024091380250913E
:1010A0003902C601B5010E940F2F6093420270936E
:1010B0004302809344029093450247CE86E391E039
:1010C0000E94A31E60912E0270912F028091300227
:1010D0009091310220E030E048EC52E40E94DA2F97
:1010E00060932E0270932F0280933002909331020E
:1010F00060913202709133028091340290913502F6
:1011000020E030E048EC52E40E94DA2F6093320293
:1011100070933302809334029093350260913602CB
:1011200070913702809138029091390220E030E0CE
:1011300048EC52E40E94DA2F609336027093370233
:101140008093380290933902809152029091530219
:1011500001969093530280935202F7CD0E94F705B7
:101160000E948D06FDCF2F923F924F925F926F9219
:101170007F928F929F92AF92BF92CF92DF92EF9227
:10118000FF920F931F93DF93CF93CDB7DEB7C45475
:10119000D0400FB6F894DEBF0FBECDBF198200D08D
:1011A00000D000D0EDB7FEB7319632EC432E31E0DF
:1011B000532EADB7BEB712965C924E9211978EE148
:1011C00091E09383828321E0E22EF12CF582E48288
:1011D0000E945D2EEDB7FEB736960FB6F894FEBFAF
:1011E0000FBEEDBFCE01019625969FAF8EAF25971E
:1011F000CE010196B2010E94F42D00D000D000D0A3
:10120000EDB7FEB73196ADB7BEB712965C924E926F
:1012100011970AE111E013830283F582E4820E94B0
:101220005D2EEDB7FEB736960FB6F894FEBF0FBE33
:10123000EDBFCE010196B2010E94F42D00D000D086
:1012400000D0EDB7FEB73196ADB7BEB712965C923F
:101250004E9211971383028382E090E095838483FA
:101260000E945D2EEDB7FEB736960FB6F894FEBF1E
:101270000FBEEDBFCE010196B2010E94F42D609128
:101280004A0270914B02882777FD8095982F0E9423
:10129000753020E030E04AE754E40E940F2F20E050
:1012A00030E04AEF54E40E94DA2F3B014C010E94E7
:1012B00042305B016C01C401B30120E030E040E04A
:1012C00050E00E94D62F88230CF4BCC1ADB7BEB746
:1012D00018970FB6F894BEBF0FBEADBFEDB6FEB601
:1012E0000894E11CF11C12965C924E921197E1E277
:1012F000F1E02396FFAFEEAF2397D7011396FC934F
:10130000EE9312971596BC92AE9214978CE99FEFCC
:10131000A89E8001A99E100DB89E100D1124C40135
:10132000B30120E030E048EC52E40E9455310E94C5
:101330004230060F171FF701178306830E945D2EA8
:101340008DB79EB708960FB6F8949EBF0FBE8DBF9F
:1013500092EC492E91E0592ECE010196B2010E94E5
:10136000F42D6091460270914702882777FD8095A1
:10137000982F0E94753020E030E04AEF53E40E943D
:101380000F2F20E030E849E055E40E94DA2F3B01BE
:101390004C010E9442305B016C01C401B30120E0AA
:1013A00030E040E050E00E94D62F87FDDAC0ADB7B4
:1013B000BEB718970FB6F894BEBF0FBEADBF0DB73E
:1013C0001EB70F5F1F4F12965C924E921197239695
:1013D0008EAD9FAD2397F80193838283B582A4825B
:1013E000C401B30120E030E048EC52E40E945531E2
:1013F0000E9442302CE93FEFD901AA9E9001AB9E9A
:10140000300DBA9E300D1124620F731FF8017783DF
:1014100066830E945D2E8DB79EB708960FB6F8942E
:101420009EBF0FBE8DBF02EC11E0CE010196B80148
:101430000E94F42D6091480270914902882777FD3F
:101440008095982F0E94753020E030E04AEF53E4F9
:101450000E940F2F20E030E849E055E40E94DA2F87
:101460003B014C010E9442305B016C01C401B3019D
:1014700020E030E040E050E00E94D62F88230CF4BA
:10148000AFC08DB79EB708970FB6F8949EBF0FBE3A
:101490008DBFEDB6FEB60894E11CF11CADB7BEB72A
:1014A00012961C930E93119723968EAD9FAD2397A2
:1014B000F70193838283B582A4828CE99FEFA89E73
:1014C0008001A99E100DB89E100D1124C401B30116
:1014D00020E030E048EC52E40E9455310E94423056
:1014E000060F171FD70117961C930E9316970E948D
:1014F0005D2EEDB7FEB738960FB6F894FEBF0FBE5F
:10150000EDBFCE01019662EC71E00E94F42D2596AC
:10151000EEADFFAD259701900020E9F731978AE005
:1015200090E091838083CE0101960E94A31ECC5B44
:10153000DF4F0FB6F894DEBF0FBECDBFCF91DF9166
:101540001F910F91FF90EF90DF90CF90BF90AF90E1
:101550009F908F907F906F905F904F903F902F90D3
:101560000895ADB7BEB718970FB6F894BEBF0FBEBB
:10157000ADBFEDB6FEB60894E11CF11C12965C926C
:101580004E92119723968EAD9FAD2397F7019383CB
:101590008283B582A48284E690E0A89E8001A99E01
:1015A000100DB89E100D1124C401B30120E030E0ED
:1015B00048EC52E40E9455310E944230061B170B42
:1015C000D70117961C930E9316970E945D2EEDB7C8
:1015D000FEB738960FB6F894FEBF0FBEEDBF23CF0F
:1015E0008DB79EB708970FB6F8949EBF0FBE8DBFFC
:1015F000EDB6FEB60894E11CF11CADB7BEB712966D
:101600001C930E93119723968EAD9FAD2397F701F0
:1016100093838283B582A48284E690E0A89E8001B1
:10162000A99E100DB89E100D1124C401B30120E035
:1016300030E048EC52E40E9455310E944230061BD3
:10164000170B50CF8DB79EB708970FB6F8949EBF73
:101650000FBE8DBFEDB6FEB60894E11CF11CADB710
:10166000BEB712965C924E921197E1E2F1E023969A
:10167000FFAFEEAF2397D7011396FC93EE9312972B
:101680001596BC92AE92149784E690E0A89E8001D5
:10169000A99E100DB89E100D1124C401B30120E0C5
:1016A00030E048EC52E40E9455310E944230061B63
:1016B000170B41CE2F923F924F925F926F927F9283
:1016C0008F929F92AF92BF92CF92DF92EF92FF9252
:1016D0000F931F93DF93CF93CDB7DEB7C454D040A1
:1016E0000FB6F894DEBF0FBECDBF198200D000D078
:1016F00000D0EDB7FEB7319652EC452E51E0552E95
:10170000ADB7BEB712965C924E9211978EE191E002
:101710009383828384E090E0958384830E945D2E8E
:10172000EDB7FEB736960FB6F894FEBF0FBEEDBF0D
:101730001E010894211C311CC101B2010E94F42D2C
:1017400000D000D000D00DB71EB70F5F1F4FADB750
:10175000BEB712965C924E9211974AE1E42E41E098
:10176000F42EF801F382E28260913A0270913B021A
:1017700080913C0290913D020E944230D801159622
:101780007C936E9314970E945D2EEDB7FEB736964C
:101790000FB6F894FEBF0FBEEDBFC101B2010E94AB
:1017A000F42D00D000D000D00DB71EB70F5F1F4F33
:1017B000ADB7BEB712965C924E921197F801F382C4
:1017C000E28260913E0270913F02809140029091CE
:1017D00041020E944230D80115967C936E93149773
:1017E0000E945D2EEDB7FEB736960FB6F894FEBF99
:1017F0000FBEEDBFC101B2010E94F42D00D000D098
:1018000000D00DB71EB70F5F1F4FADB7BEB7129612
:101810005C924E921197F801F382E282609142024B
:101820007091430280914402909145020E9442309F
:10183000D80115967C936E9314970E945D2EEDB798
:10184000FEB736960FB6F894FEBF0FBEEDBFC101CE
:10185000B2010E94F42D2DB73EB7285030400FB68C
:10186000F8943EBF0FBE2DBFEDB7FEB73196ADB7B2
:10187000BEB712965C924E92119721E231E033830B
:10188000228315821482178216820E945D2E8DB7E4
:101890009EB708960FB6F8949EBF0FBE8DBFC101CC
:1018A000B2010E94F42DADB7BEB718970FB6F894E9
:1018B000BEBF0FBEADBFEDB7FEB7319612965C92BC
:1018C0004E92119721E231E03383228315821482F4
:1018D000178216820E945D2E8DB79EB708960FB6AE
:1018E000F8949EBF0FBE8DBFC101B2010E94F42DBE
:1018F000ADB7BEB718970FB6F894BEBF0FBEADBF59
:10190000EDB7FEB7319612965C924E92119721E296
:1019100031E03383228315821482178216820E945B
:101920005D2E8DB79EB708960FB6F8949EBF0FBE7A
:101930008DBFC101B2010E94F42DC1010E94A31EFE
:101940001982ADB7BEB718970FB6F894BEBF0FBED9
:10195000ADBFEDB7FEB7319612965C924E921197DD
:1019600021E231E0338322831582148217821682AA
:101970000E945D2E8DB79EB708960FB6F8949EBF55
:101980000FBE8DBFC101B2010E94F42D60902A02EA
:1019900070902B0280902C0290902D02C401B30114
:1019A0000E9442305B016C0125967FAF6EAF259798
:1019B000C401B30120E030E040E050E00E94D62FA7
:1019C00088230CF4B1C18DB79EB708970FB6F89471
:1019D0009EBF0FBE8DBFEDB6FEB60894E11CF11C94
:1019E000ADB7BEB712965C924E92119721E231E0EC
:1019F000F70133832283B582A4828CE99FEF259679
:101A0000AEADBFAD2597A89F8001A99F100DB89FCF
:101A1000100D1124C401B30120E030E048EC52E481
:101A20000E9455310E944230060F171FF70117839D
:101A300006830E945D2E2DB73EB7285F3F4F0FB63D
:101A4000F8943EBF0FBE2DBFC10162EC71E00E9451
:101A5000F42D8DB79EB708970FB6F8949EBF0FBEB2
:101A60008DBFEDB7FEB73196ADB7BEB712965C929B
:101A70004E92119721E231E0338322831582148242
:101A8000178216820E945D2E8DB79EB708960FB6FC
:101A9000F8949EBF0FBE8DBFC101B2010E94F42D0C
:101AA000ADB7BEB718970FB6F894BEBF0FBEADBFA7
:101AB000EDB7FEB7319612965C924E92119721E2E5
:101AC00031E03383228315821482178216820E94AA
:101AD0005D2E8DB79EB708960FB6F8949EBF0FBEC9
:101AE0008DBFC101B2010E94F42DADB7BEB71897EA
:101AF0000FB6F894BEBF0FBEADBFEDB7FEB73196BF
:101B000012965C924E92119721E231E03383228348
:101B100015821482178216820E945D2E8DB79EB7A1
:101B200008960FB6F8949EBF0FBE8DBFC101B201DB
:101B30000E94F42DADB7BEB718970FB6F894BEBF8C
:101B40000FBEADBFEDB7FEB7319612965C924E92C6
:101B5000119721E231E033832283158214821782A8
:101B600016820E945D2E8DB79EB708960FB6F89428
:101B70009EBF0FBE8DBFC101B2010E94F42DADB753
:101B8000BEB718970FB6F894BEBF0FBEADBFEDB786
:101B9000FEB7319612965C924E92119721E231E097
:101BA0003383228315821482178216820E945D2E4F
:101BB0008DB79EB708960FB6F8949EBF0FBE8DBF27
:101BC000C101B2010E94F42D60902602709027029C
:101BD0008090280290902902C401B3010E944230F3
:101BE0005B016C0123967FAF6EAF2397C401B301F5
:101BF00020E030E040E050E00E94D62F88230CF433
:101C0000C5C08DB79EB708970FB6F8949EBF0FBE9C
:101C10008DBFEDB6FEB60894E11CF11CADB7BEB7A2
:101C200012965C924E92119721E231E0F7013383D4
:101C30002283B582A4828CE99FEF2396AEADBFAD1F
:101C40002397A89F8001A99F100DB89F100D112404
:101C5000C401B30120E030E048EC52E40E94553169
:101C60000E944230060F171FF701178306830E9458
:101C70005D2E2DB73EB7285F3F4F0FB6F8943EBF9D
:101C80000FBE2DBFC10162EC71E00E94F42D8DB733
:101C90009EB708970FB6F8949EBF0FBE8DBFEDB7E5
:101CA000FEB73196ADB7BEB712965C924E921197C1
:101CB00021E231E033832283158214821782168257
:101CC0000E945D2E8DB79EB708960FB6F8949EBF02
:101CD0000FBE8DBFC101B2010E94F42DF101019030
:101CE0000020E9F731978AE090E091838083C10179
:101CF0000E94A31ECC5BDF4F0FB6F894DEBF0FBE71
:101D0000CDBFCF91DF911F910F91FF90EF90DF90AA
:101D1000CF90BF90AF909F908F907F906F905F908B
:101D20004F903F902F900895ADB7BEB718970FB65C
:101D3000F894BEBF0FBEADBFEDB6FEB60894E11C71
:101D4000F11C12965C924E92119721E231E0F7015C
:101D500033832283B582A48284E690E02596AEADDB
:101D6000BFAD2597A89F8001A99F100DB89F100DAA
:101D70001124C401B30120E030E048EC52E40E9499
:101D800055310E944230061B170B50CEADB7BEB77F
:101D900018970FB6F894BEBF0FBEADBFEDB6FEB636
:101DA0000894E11CF11C12965C924E92119721E26C
:101DB00031E0F70133832283B582A48284E690E088
:101DC0002396AEADBFAD2397A89F8001A99F100DAC
:101DD000B89F100D1124C401B30120E030E048EC9D
:101DE00052E40E9455310E944230061B170B3CCF33
:101DF000CF93DF93EB014F5F5F4F79F08730910511
:101E000009F44BC0883091055CF08A3C910599F04B
:101E10008B3C910511F40E94B308DF91CF91089596
:101E20008230910569F00697C1F788858093C101DA
:101E3000DF91CF9108950E945A0BDF91CF910895C1
:101E40002C813D814E815F81CA01B901660F771FE8
:101E5000881F991F660F771F881F991F660F771FAE
:101E6000881F991F660F771F881F991F620F731FA6
:101E7000841F951F22E030E040E050E00E94D03502
:101E80002A5B3A4F309347022093460280E0B90123
:101E90000E94231CDF91CF910895288539854A85BA
:101EA0005B85CA01B901660F771F881F991F660FEE
:101EB000771F881F991F660F771F881F991F660F4E
:101EC000771F881F991F620F731F841F951F22E0C1
:101ED00030E040E050E00E94D0352A5B3A4F30932A
:101EE0004902209348024C815D816E817F8177FD9C
:101EF00022C0DB01CA01880F991FAA1FBB1F880FD0
:101F0000991FAA1FBB1F840F951FA61FB71F8851BB
:101F10009C4F90934B0280934A0281E0B9010E944A
:101F2000231C60914A0270914B0282E00E94231CA4
:101F3000DF91CF91089540E050E060E070E0D9CFAC
:101F4000EF92FF920F931F93FC01809154029091A6
:101F50005502A0915602B091570280839183A283CB
:101F6000B3838091580290915902A0915A02B09186
:101F70005B02FB0180839183A283B38380915C0227
:101F800090915D02A0915E02B0915F02FA018083A0
:101F90009183A283B3838091600290916102A091AA
:101FA0006202B0916302F90180839183A283B383BB
:101FB0008091640290916502A0916602B0916702DF
:101FC000F80180839183A283B3838091680290910A
:101FD0006902A0916A02B0916B02F701808391833C
:101FE000A283B38381E01F910F91FF90EF9008953A
:101FF000609160027091610280916202909163022F
:1020000020917601309177014091780150917901CA
:102010000E940F2F609360027093610280936202AE
:1020200090936302609164027091650280916602F0
:102030009091670220917A0130917B0140917C015F
:1020400050917D010E940F2F60936402709365028E
:1020500080936602909367026091680270916902B2
:1020600080916A0290916B0220917E0130917F01F4
:1020700040918001509181010E940F2F609368026E
:102080007093690280936A0290936B0208952F9275
:102090003F924F925F926F927F928F929F92AF92F8
:1020A000BF92CF92DF92EF92FF920F931F93DF9335
:1020B000CF93CDB7DEB760970FB6F894DEBF0FBEF3
:1020C000CDBF609058027090590280905A02909053
:1020D0005B0220915402309155024091560250917A
:1020E0005702CA01B9010E9455317B018C01C4011C
:1020F000B301A40193010E945531A80197010E94E8
:10210000102F0E94BC3169837A838B839C832FE6D6
:1021100032E143E85AE30E94D62F882344F48FE645
:1021200092E1A3E8BAE389839A83AB83BC83A0904E
:102130005C02B0905D02C0905E02D0905F02C6016A
:10214000B501A60195010E9455319B01AC01C80162
:10215000B7010E94102F0E94BC317B018C012FE639
:1021600032E143E85AE30E94D62F882354F40F2E1D
:10217000FFE6EF2EF2E1FF2EF3E80F2FFAE31F2F19
:10218000F02DC401B301A80197010E94832F6D8334
:102190007E838F83988720908601309087014090BE
:1021A00088015090890180918A0190918B01A091C2
:1021B0008C01B0918D0189879A87AB87BC8760902D
:1021C0008201709083018090840190908501C60106
:1021D000B50129813A814B815C810E94832F7B016B
:1021E0008C0160E070E080E89FE3A40193010E940D
:1021F0000F2F6D877E878F87988B60916402709117
:10220000650280916602909167029058A201910147
:102210000E94553129853A854B855C850E94553150
:1022200020917E0230917F02409180025091810284
:102230000E94102FA40193010E9455315B016C0193
:1022400017FB109517F91095C801B70121EE3EE272
:1022500045E652E40E9455312D853E854F855889CB
:102260000E9455319B01AC01C601B5010E94102F9F
:1022700060937E0270937F0280938002909381022C
:10228000209168023091690240916A0250916B027C
:102290005058C201B1010E9455319B01AC016985C2
:1022A0007A858B859C850E94553120917A023091E8
:1022B0007B0240917C0250917D020E94102F9B0175
:1022C000AC01C401B3010E9455317B018C016D81C9
:1022D0007E818F81988521EE3EE245E652E40E94A0
:1022E00055319B01AC016D857E858F8598890E9453
:1022F00055319B01AC01C801B7010E94102F6093BA
:102300007A0270937B0280937C0290937D02C201DB
:10231000B1012091600230916102409162025091BE
:1023200063020E9455319B01AC0169857A858B85DA
:102330009C850E9455319B01AC0160918202709195
:10234000830280918402909185020E94102F6093F5
:102350008202709383028093840290938502609638
:102360000FB6F894DEBF0FBECDBFCF91DF911F91A6
:102370000F91FF90EF90DF90CF90BF90AF909F9024
:102380008F907F906F905F904F903F902F90089527
:1023900080E090E00E94CF348A3F09F0089581E008
:1023A00090E00E94D7340E94733060936A0170936A
:1023B0006B0180936C0190936D0185E090E00E9429
:1023C000D7340E94733060936E0170936F018093D5
:1023D00070019093710189E090E00E94D7340E94CF
:1023E00073306093720170937301809374019093C2
:1023F00075018DE090E00E94D7340E9473306093A5
:10240000760170937701809378019093790181E14F
:1024100090E00E94D7340E94733060937A017093E9
:102420007B0180937C0190937D0185E190E00E9487
:10243000D7340E94733060937E0170937F01809344
:10244000800190938101089560916A0170916B0100
:1024500080916C0190916D010E944730AB01BC01ED
:1024600081E090E00E94DD3460916E0170916F0117
:1024700080917001909171010E944730AB01BC01C5
:1024800085E090E00E94DD346091720170917301EB
:1024900080917401909175010E944730AB01BC019D
:1024A00089E090E00E94DD346091760170917701BF
:1024B00080917801909179010E944730AB01BC0175
:1024C0008DE090E00E94DD3460917A0170917B0193
:1024D00080917C0190917D010E944730AB01BC014D
:1024E00081E190E00E94DD3460917E0170917F0176
:1024F00080918001909181010E944730AB01BC0125
:1025000085E190E00E94DD3408952F923F924F9232
:102510005F926F927F928F929F92AF92BF92CF9273
:10252000DF92EF92FF920F931F93DF93CF93CDB77C
:10253000DEB72E970FB6F894DEBF0FBECDBF88E68C
:102540006BE34EE09E012F5F3F4F0E942B29998144
:1025500080E02A81C22EDD24C82AD92AD0926D02B9
:10256000C0926C029B8180E02C81A22EBB24A82A01
:10257000B92AB0926F02A0926E029D8180E02E81F6
:10258000822E9924882A992A909271028092700250
:102590003F8120E0688570E0622B732B709373029B
:1025A00060937202398520E04A85642E7724622A7E
:1025B000732A70927502609274023B8520E04C850C
:1025C000442E5524422A532A509277024092760292
:1025D0003D8520E04E85242E3324222A332A309252
:1025E000790220927802882777FD8095982F0E94A3
:1025F000753020E030E04AEA53E40E94DA2F28EBFD
:102600003EE142E152E40E94102F609386027093F3
:102610008702809388029093890280918A02833096
:1026200009F4C2C0823009F4A7C0813009F0D4C0D7
:102630000F2EF0E0EF2EF0E0FF2EF0E00F2FF6E48B
:102640001F2FF02DB601882777FD8095982F0E94C7
:102650007530A80197010E94DA2F6093540270939D
:1026600055028093560290935702B501882777FD53
:102670008095982F0E947530A80197010E94DA2F4B
:10268000609358027093590280935A0290935B02B0
:10269000B401882777FD8095982F0E947530A80196
:1026A00097010E94DA2F60935C0270935D02809321
:1026B0005E0290935F0280918B02882309F067C0CD
:1026C0000F2EF0E0EF2EF0E0FF2EF3E00F2FF3E4FB
:1026D0001F2FF02DB301882777FD8095982F0E943A
:1026E0007530A80197010E94DA2F60936002709301
:1026F00061028093620290936302B201882777FDA2
:102700008095982F0E947530A80197010E94DA2FBA
:1027100060936402709365028093660290936702EF
:10272000B101882777FD8095982F0E947530A80108
:1027300097010E94DA2F6093680270936902809378
:102740006A0290936B022E960FB6F894DEBF0FBE0E
:10275000CDBFCF91DF911F910F91FF90EF90DF9050
:10276000CF90BF90AF909F908F907F906F905F9031
:102770004F903F902F9008950F2EF0E0EF2EF0E055
:10278000FF2EF0E80F2FF5E41F2FF02D5BCF8130E7
:10279000B1F40F2EF0E0EF2EF0E0FF2EF3E80F2F54
:1027A000F2E41F2FF02D96CF0F2EF0E0EF2EF0E089
:1027B000FF2EF0E00F2FF5E41F2FF02D43CF8230D6
:1027C000C1F40F2EF3E3EF2EF3E3FF2EF3E00F2F10
:1027D000F2E41F2FF02D7ECF8823C1F40F2EF0E0FE
:1027E000EF2EF0E0FF2EF0E80F2FF6E41F2FF02D74
:1027F00029CF8330B1F40F2EF3E3EF2EF3E3FF2E56
:10280000F3E80F2FF1E41F2FF02D64CF0F2EF0E02F
:10281000EF2EF0E0FF2EF0E80F2FFFE31F2FF02D3B
:1028200011CF0F2EF0E0EF2EF0E0FF2EF0E80F2F8B
:10283000FFE31F2FF02D4ECF0F931F93CF93DF9306
:1028400000E010E0C0E9D1E00E94851220E030E015
:10285000CE010197F1F72F5F3F4F83E1283838070A
:10286000B9F70F5F1F4F083C110571F7DF91CF914A
:102870001F910F91089588E66BE641E00E94A92818
:10288000089588E66BE640E00E94A9280895482F45
:1028900088E669E10E94A9280895DF93CF930F92FB
:1028A000CDB7DEB7198288E669E1AE014F5F5F4FB1
:1028B0000E940E2989810F90CF91DF910895EF92A8
:1028C000FF920F931F93982F8B01F42EE22E88E630
:1028D000692FA8010E940E2921E030E002C0220FDA
:1028E000331FFA94E2F72150F801808190E002C092
:1028F00095958795EA94E2F7282320831F910F91FD
:10290000FF90EF900895DF93CF930F92CDB7DEB78E
:10291000198288E66BE1AE014F5F5F4F0E940E297E
:10292000898190E09595879595958795959587955B
:1029300083700F90CF91DF910895DF93CF930F9223
:10294000CDB7DEB7198288E66AE1AE014F5F5F4F0F
:102950000E940E29898187700F90CF91DF91089591
:10296000EF92FF920F931F93DF93CF930F92CDB708
:10297000DEB7F82EE62E042F122F198288E66F2D6F
:10298000AE014F5F5F4F0E940E2921E030E002C090
:10299000220F331F0A95E2F72150622F70E0012EBB
:1029A00002C0660F771F0A94E2F7898190E0012E3A
:1029B00002C0959587950A94E2F7422F48236095C7
:1029C00046232E21822F90E002C0880F991F1A956E
:1029D000E2F7482B498388E66F2D0E94A9280F90C3
:1029E000CF91DF911F910F91FF90EF900895DF93AA
:1029F000CF930F92CDB7DEB7198288E66BE1AE01B7
:102A00004F5F5F4F0E940E29898190E095958795D1
:102A1000959587959595879583700F90CF91DF91C8
:102A200008951F93DF93CF930F92CDB7DEB7182F82
:102A3000198288E66AE1AE014F5F5F4F0E940E295E
:102A40001770198388E66AE1412F0E94A9280F9028
:102A5000CF91DF911F9108951F93DF93CF930F9232
:102A6000CDB7DEB7182F198288E66CE1AE014F5F53
:102A70005F4F0E940E291370110F110F110F8981E2
:102A800090E0959587959595879595958795837011
:102A9000182B198388E66CE1412F0E94A9280F901A
:102AA000CF91DF911F9108951F93DF93CF930F92E2
:102AB000CDB7DEB7182F198288E66BE1AE014F5F04
:102AC0005F4F0E940E291370110F110F110F898192
:102AD00090E09595879595958795959587958370C1
:102AE000182B198388E66BE1412F0E94A9280F90CB
:102AF000CF91DF911F9108950F931F93DF93CF9391
:102B00000F92CDB7DEB788E669E140E00E94A928C0
:102B1000198288E66AE18E010F5F1F4FA8010E94AB
:102B20000E29198288E66AE140E00E94A9281982EC
:102B300088E66BE1A8010E940E29498150E0559575
:102B400047955595479555954795437048604983F6
:102B500088E66BE10E94A928198288E66CE1A80149
:102B60000E940E29498150E0559547955595479506
:102B7000559547954370498388E66CE10E94A928E2
:102B8000198288E669E1A8010E940E29198288E667
:102B90006AE1A8010E940E29198288E66BE1A8016A
:102BA0000E940E29898190E0959587959595879546
:102BB00095958795837080938B02198288E66BE1E7
:102BC000A8010E940E29898190E095958795959599
:102BD0008795959587958370898380938A0288E687
:102BE0006BE640E00E94A92888E66BE140E10E9484
:102BF000A92888E66CE140E10E94A92888E66BE6F6
:102C000041E00E94A9280F90CF91DF911F910F9171
:102C10000895DF93CF930F92CDB7DEB7198288E680
:102C200065E7AE014F5F5F4F0E940E2989818836AC
:102C300029F080E00F90CF91DF9108950E947C15DC
:102C400081E00F90CF91DF910895EF92FF920F9363
:102C50001F93FC0180918C0290918D02A0918E02B5
:102C6000B0918F0280839183A283B383809190027D
:102C700090919102A0919202B0919302FB01808306
:102C80009183A283B3838091940290919502A09145
:102C90009602B0919702FA0180839183A283B38355
:102CA0008091980290919902A0919A02B0919B0212
:102CB000F90180839183A283B38380919C029091D8
:102CC0009D02A0919E02B0919F02F80180839183A2
:102CD000A283B3838091A0029091A102A091A2024D
:102CE000B091A302F70180839183A283B38381E033
:102CF0001F910F91FF90EF900895CF92DF92EF9286
:102D0000FF920F931F938C017B016A016091E8028F
:102D10007091E902882777FD8095982F0E94753081
:102D2000F80160837183828393836091EA027091DA
:102D3000EB02882777FD8095982F0E947530F70168
:102D400060837183828393836091EC027091ED02C2
:102D5000882777FD8095982F0E947530F601608353
:102D60007183828393831F910F91FF90EF90DF9087
:102D7000CF900895DF93CF930F92CDB7DEB719822E
:102D800088E669E1AE014F5F5F4F0E940E2989819D
:102D90000F90CF91DF910895EF92FF920F931F93C1
:102DA000982F8B01F42EE22E88E6692FA8010E944D
:102DB0000E2921E030E002C0220F331FFA94E2F71F
:102DC0002150F801808190E002C095958795EA94A2
:102DD000E2F7282320831F910F91FF90EF90089531
:102DE000DF93CF93CDB7DEB728970FB6F894DEBF49
:102DF0000FBECDBF19828CE062E0AE014F5F5F4F26
:102E00000E940E29898180FD09C028960FB6F8948A
:102E1000DEBF0FBECDBFCF91DF9108958CE063E0A0
:102E200047E09E012E5F3F4F0E942B29888583FD3E
:102E3000ECCF9B8180E02A8130E0822B932B909312
:102E4000E9028093E8029D8180E02C8130E0822BB2
:102E5000932B9093EB028093EA029F8180E02E8176
:102E600030E0822B932B9093ED028093EC02CDCF38
:102E70002F923F924F925F926F927F928F929F928A
:102E8000AF92BF92CF92DF92EF92FF920F931F9378
:102E9000DF93CF93CDB7DEB72E970FB6F894DEBF92
:102EA0000FBECDBF88E66BE34EE09E012F5F3F4F24
:102EB0000E942B29998180E02A81C22EDD24C82A14
:102EC000D92AD092A502C092A4029B8180E02C81D5
:102ED000A22EBB24A82AB92AB092A702A092A602C9
:102EE0009D8180E02E81822E9924882A992A9092B1
:102EF000A9028092A8023F8120E0688570E0622BE1
:102F0000732B7093AB026093AA02398520E04A8547
:102F1000642E7724622A732A7092AD026092AC020A
:102F20003B8520E04C85442E5524422A532A50925A
:102F3000AF024092AE023D8520E04E85242E332420
:102F4000222A332A3092B1022092B002882777FDDC
:102F50008095982F0E94753020E030E04AEA53E4D3
:102F60000E94DA2F28EB3EE142E152E40E94102F4A
:102F70006093B2027093B3028093B4029093B5024F
:102F80008091B602833009F4C2C0823009F4A7C030
:102F9000813009F0D4C00F2EF0E0EF2EF0E0FF2ECC
:102FA000F0E00F2FF6E41F2FF02DB601882777FDF4
:102FB0008095982F0E947530A80197010E94DA2F02
:102FC00060938C0270938D0280938E0290938F0297
:102FD000B501882777FD8095982F0E947530A8014C
:102FE00097010E94DA2F6093900270939102809370
:102FF000920290939302B401882777FD8095982FD1
:103000000E947530A80197010E94DA2F6093940204
:103010007093950280939602909397028091B702E5
:10302000882309F067C00F2EF0E0EF2EF0E0FF2EAE
:10303000F3E00F2FF3E41F2FF02DB301882777FD66
:103040008095982F0E947530A80197010E94DA2F71
:10305000609398027093990280939A0290939B02D6
:10306000B201882777FD8095982F0E947530A801BE
:1030700097010E94DA2F60939C0270939D028093C7
:103080009E0290939F02B101882777FD8095982F2B
:103090000E947530A80197010E94DA2F6093A00268
:1030A0007093A1028093A2029093A3022E960FB672
:1030B000F894DEBF0FBECDBFCF91DF911F910F916E
:1030C000FF90EF90DF90CF90BF90AF909F908F9048
:1030D0007F906F905F904F903F902F9008950F2EAC
:1030E000F0E0EF2EF0E0FF2EF0E80F2FF5E41F2FB9
:1030F000F02D5BCF8130B1F40F2EF0E0EF2EF0E039
:10310000FF2EF3E80F2FF2E41F2FF02D96CF0F2E96
:10311000F0E0EF2EF0E0FF2EF0E00F2FF5E41F2F90
:10312000F02D43CF8230C1F40F2EF3E3EF2EF3E303
:10313000FF2EF3E00F2FF2E41F2FF02D7ECF882318
:10314000C1F40F2EF0E0EF2EF0E0FF2EF0E80F2F8D
:10315000F6E41F2FF02D29CF8330B1F40F2EF3E3C7
:10316000EF2EF3E3FF2EF3E80F2FF1E41F2FF02DE6
:1031700064CF0F2EF0E0EF2EF0E0FF2EF0E80F2FDF
:10318000FFE31F2FF02D11CF0F2EF0E0EF2EF0E018
:10319000FF2EF0E80F2FFFE31F2FF02D4ECF88E614
:1031A0006BE641E00E94A928089588E66BE640E0BE
:1031B0000E94A9280895EF92FF920F931F93DF9327
:1031C000CF9300D00F92CDB7DEB77C018CE06AE0E0
:1031D00040E00E94A92800E41CE9C8010197F1F72A
:1031E0008CE06AE04FE00E94A928C8010197F1F73E
:1031F0008CE060E143E09E012F5F3F4F0E942B294E
:10320000698170E060587040882777FD8095982F1D
:103210000E94753020E030E040E85BE30E945531C9
:1032200020E030E040E85FE30E94102FF701608368
:103230007183828393836A8170E06058704088272D
:1032400077FD8095982F0E94753020E030E040E8AF
:103250005BE30E94553120E030E040E85FE30E94EC
:10326000102FF70164837583868397836B8170E0E9
:1032700060587040882777FD8095982F0E947530A0
:1032800020E030E040E85BE30E94553120E030E090
:1032900040E85FE30E94102FF70160877187828703
:1032A00093878CE06AE040E00E94A928C80101975A
:1032B000F1F740918E014295407F80918F01482B1C
:1032C0008CE06AE00E94A928C8010197F1F70F90ED
:1032D0000F900F90CF91DF911F910F91FF90EF9082
:1032E0000895482F88E669E10E94A9280895DF9390
:1032F000CF930F92CDB7DEB7198288E66BE1AE01AE
:103300004F5F5F4F0E940E29898190E095958795C8
:10331000959587959595879583700F90CF91DF91BF
:103320000895DF93CF930F92CDB7DEB7198288E669
:103330006AE1AE014F5F5F4F0E940E29898187705D
:103340000F90CF91DF910895EF92FF920F931F930B
:10335000DF93CF930F92CDB7DEB7F82EE62E042F72
:10336000122F198288E66F2DAE014F5F5F4F0E94CA
:103370000E2921E030E002C0220F331F0A95E2F748
:103380002150622F70E0012E02C0660F771F0A9451
:10339000E2F7898190E0012E02C0959587950A9405
:1033A000E2F7422F4823609546232E21822F90E09A
:1033B00002C0880F991F1A95E2F7482B498388E6C7
:1033C0006F2D0E94A9280F90CF91DF911F910F912F
:1033D000FF90EF900895DF93CF930F92CDB7DEB7B4
:1033E000198288E66BE1AE014F5F5F4F0E940E29A4
:1033F000898190E095958795959587959595879581
:1034000083700F90CF91DF9108951F93DF93CF9337
:103410000F92CDB7DEB7182F198288E66AE1AE01A8
:103420004F5F5F4F0E940E291770198388E66AE18B
:10343000412F0E94A9280F90CF91DF911F910895ED
:103440001F93DF93CF930F92CDB7DEB7182F19825A
:1034500088E66CE1AE014F5F5F4F0E940E2913704A
:10346000110F110F110F898190E095958795959512
:103470008795959587958370182B198388E66CE15D
:10348000412F0E94A9280F90CF91DF911F9108959D
:103490001F93DF93CF930F92CDB7DEB7182F19820A
:1034A00088E66BE1AE014F5F5F4F0E940E291370FB
:1034B000110F110F110F898190E0959587959595C2
:1034C0008795959587958370182B198388E66BE10E
:1034D000412F0E94A9280F90CF91DF911F9108954D
:1034E0000F931F93DF93CF930F92CDB7DEB788E68C
:1034F00069E140E00E94A928198288E66AE18E010C
:103500000F5F1F4FA8010E940E29198288E66AE109
:1035100040E00E94A928198288E66BE1A8010E9478
:103520000E29498150E055954795559547955595F4
:10353000479543704860498388E66BE10E94A9285B
:10354000198288E66CE1A8010E940E29498150E0A9
:10355000559547955595479555954795437049839A
:1035600088E66CE10E94A928198288E669E1A80131
:103570000E940E29198288E66AE1A8010E940E299C
:10358000198288E66BE1A8010E940E29898190E0EA
:103590009595879595958795959587958370809353
:1035A000B702198288E66BE1A8010E940E29898181
:1035B00090E09595879595958795959587958370D6
:1035C00089838093B60288E66BE640E00E94A928D2
:1035D00088E66BE140E10E94A92888E66CE140E1C1
:1035E0000E94A92888E667E342E20E94A92888E6AB
:1035F00068E341E00E94A92888E66BE641E00E946A
:10360000A9280F90CF91DF911F910F9108958F926C
:103610009F92AF92BF92CF92DF92EF92FF920F9361
:103620001F93DF93CF9300D000D0CDB7DEB71982C0
:1036300088E665E77E010894E11CF11CA7010E9461
:103640000E298981813791F080E00F900F900F90C3
:103650000F90CF91DF911F910F91FF90EF90DF902E
:10366000CF90BF90AF909F908F9008950E94701A56
:1036700012E0C12ED12CCC0EDD1EB3E0AB2EB12C4E
:10368000AC0EBD1EA4E08A2E912C8C0E9D1E00E96E
:1036900011E088E667E342E20E94A92888E668E331
:1036A00041E00E94A92888E667E3A6010E940E294E
:1036B00088E664E2A5010E940E2988E668E3A40179
:1036C0000E940E29198288E660E0A7010E940E2957
:1036D0008A81823279F140E020E030E0C801019730
:1036E000F1F72F5F3F4F8FE120343807B9F74423BC
:1036F00081F28CE060E0A7010E940E298981883464
:1037000009F0A2CF20E030E040E951E0CA01019782
:10371000F1F72F5F3F4F83E0283E3807B9F788EB7A
:1037200092E00E94DB1888E665E7A7010E940E2957
:1037300081E08BCF8B81882371F640E08C818130D2
:1037400059F641E0C9CF80ED97E090930D03809347
:103750000C0390930F0380930E03909311038093B7
:103760001003909313038093120390931503809397
:103770001403909317038093160390931903809377
:10378000180390931B0380931A0390931D03809357
:103790001C0390931F0380931E031092200310922A
:1037A0002103109222030895109285001092840044
:1037B00080E49CE9909389008093880088EE93E0F0
:1037C00090938B0080938A0010928000E1E8F0E0F3
:1037D000108280818860808380818260808386E01F
:1037E00080936F0008959C01809120038930F8F444
:1037F000E0912003F0E0EE0FFF1FE251FD4F318317
:103800002083E0912003F0E0EE5FFC4F6083E091C5
:103810002003F0E0EE0FFF1FE45FFC4F11821082E7
:10382000809120038F5F8093200381E0089580E0E2
:1038300008959C01220F331FC90108959C013695FC
:103840002795C9010895E82F80912003E81748F4CF
:10385000F0E0EE0FFF1FE45FFC4F660F771F7183F0
:1038600060830895A82F80912003A817C0F46623D1
:10387000B9F0B0E0FD01EE0FFF1FE251FD4F0190E6
:10388000F081E02DAE5FBC4F81E090E00C9002C073
:10389000880F991F0A94E2F72081282B208308952E
:1038A000B0E0FD01EE0FFF1FE251FD4F0190F081EE
:1038B000E02DAE5FBC4F81E090E00C9002C0880F1D
:1038C000991F0A94E2F78095208128232083089588
:1038D00080912003882309F4089580912003882390
:1038E00081F0E091EE02F091EF0281E090E0009033
:1038F000020302C0880F991F0A94E2F72081282B47
:10390000208380910C0390910D0390938B00809302
:103910008A0081E0809321038093220308951F92FF
:103920000F920FB60F920BB60F9211242F938F9315
:103930009F93EF93FF9380912003882361F4FF917D
:10394000EF919F918F912F910F900BBE0F900FBE13
:103950000F901F90189580912003882381F0E091AB
:10396000EE02F091EF0281E090E00090020302C0CD
:10397000880F991F0A94E2F72081282B20838091D9
:103980000C0390910D0390938B0080938A0081E04B
:103990008093210380932203D2CF1F920F920FB600
:1039A0000F920BB60F9211242F933F934F935F9377
:1039B0006F937F938F939F93AF93BF93EF93FF93F7
:1039C000809122038823A1F180912103882309F0AB
:1039D0004BC090912103809120039817E0F5E0916E
:1039E0002103F0E0EE0FFF1FE45FFC4F8081918127
:1039F000892B09F059C0E0912103F0E0EE0FFF1F81
:103A0000E45FFC4F0190F081E02D309711F4E8EE77
:103A1000F3E08091840090918500E80FF91FF09306
:103A20008B00E0938A00809121038F5F80932103B4
:103A3000FF91EF91BF91AF919F918F917F916F9186
:103A40005F914F913F912F910F900BBE0F900FBE42
:103A50000F901F90189580912003882359F510929C
:103A6000210310922203E4CFA0912103A150809161
:103A70002003A81708F0ADCFB0E0FD01EE0FFF1F47
:103A8000E251FD4F0190F081E02DAE5FBC4F81E02F
:103A900090E00C9002C0880F991F0A94E2F780957D
:103AA00020812823208395CF8091210361E00E940B
:103AB000321CA1CF80912003815060E00E94321C13
:103AC000CECFAF92BF92CF92DF92EF92FF920F9341
:103AD0001F937B018C01EE0CFF1C001F111FEE0CCD
:103AE000FF1C001F111FEE0CFF1C001F111FEE0C0E
:103AF000FF1C001F111F60E078E689E899E097013C
:103B0000A8010E94AE3559016A010894A108B108C4
:103B1000C108D10860E074E284EF90E09701A80149
:103B20000E94AE35F901B90161507040CB01880F98
:103B3000991F9B01220F331F220F331F220F331FA8
:103B4000820F931FA0E0B0E08A159B05AC05BD0570
:103B500079F186017501E81AF90A0A0B1B0BCF01EE
:103B6000880F991F9F01220F331F220F331F220F2F
:103B7000331F820F931FA0E0B0E08A159B05AC05B0
:103B8000BD05D1F0A6019501281B390B4A0B5B0B33
:103B90002E153F054007510708F4BF01CB011F91C7
:103BA0000F91FF90EF90DF90CF90BF90AF9008956E
:103BB000EE24FF248701D3CF20E030E040E050E046
:103BC000E7CF982F8091C00085FFFCCF9093C6006F
:103BD0000895E091A603F0E0ED59FC4F80838091B9
:103BE000A603803418F01092A60308958091A603CE
:103BF0008F5F8093A6030895982F8091C80085FF5A
:103C0000FCCF9093CE000895E0912A04F0E0E951B2
:103C1000FC4F808380912A04803418F010922A048B
:103C2000089580912A048F5F80932A040895DB0110
:103C30002C91FC01E20FF11D40838C91803410F037
:103C40001C9208958C918F5F8C930895CF93DF938E
:103C5000DC01EB01FA0198818081981799F0888145
:103C6000A80FB11D9C918881803428F01882892F7B
:103C7000DF91CF91089588818F5F8883892FDF91AD
:103C8000CF91089590E0892FDF91CF910895809191
:103C9000C00087FFFCCF8091C60008958091C800C6
:103CA00087FFFCCF8091CE0008959091A30380916F
:103CB000A40320E0981321E0822F08959091270417
:103CC0008091280420E0981321E0822F089590919C
:103CD000A3038091A4039817A9F0E091A303F0E057
:103CE000ED5DFC4FE0818091A303803420F01092C1
:103CF000A3038E2F08958091A3038F5F8093A30366
:103D00008E2F0895E0E08E2F0895909127048091E2
:103D100028049817A9F0E0912704F0E0E955FC4F3A
:103D2000E08180912704803420F0109227048E2FA8
:103D30000895809127048F5F809327048E2F089524
:103D4000E0E08E2F0895FC019081992351F0319687
:103D50008091C00085FFFCCF9093C600908199238D
:103D6000B1F70895FC019081992351F0319680912B
:103D7000C80085FFFCCF9093CE0090819923B1F7C6
:103D800008951F920F920FB60F920BB60F92112447
:103D90008F93EF93FF938091C600E091A403F0E02E
:103DA000ED5DFC4F80838091A403803460F010921D
:103DB000A403FF91EF918F910F900BBE0F900FBE58
:103DC0000F901F9018958091A4038F5F8093A40398
:103DD000F0CF1F920F920FB60F920BB60F921124D5
:103DE0008F93EF93FF938091CE00E0912804F0E051
:103DF000E955FC4F808380912804803460F0109254
:103E00002804FF91EF918F910F900BBE0F900FBE82
:103E10000F901F901895809128048F5F809328043D
:103E2000F0CF1F920F920FB60F920BB60F92112484
:103E30008F939F93EF93FF939091A5038091A60397
:103E4000981711F1E091A503F0E0ED59FC4FE081E6
:103E50008091A503803488F01092A503EE23A1F091
:103E6000E093C600FF91EF919F918F910F900BBE51
:103E70000F900FBE0F901F9018958091A5038F5F34
:103E80008093A503EE2361F78091C1008F7D80931D
:103E9000C100E8CFDC018C91882381F0E0912A04F5
:103EA000F0E0E951FC4F808380912A04803460F077
:103EB00010922A0411968C91882381F78091C90071
:103EC00080628093C900089580912A048F5F809357
:103ED0002A041196F0CFDC018C91882381F0E091C7
:103EE000A603F0E0ED59FC4F80838091A603803457
:103EF00060F01092A60311968C91882381F780912F
:103F0000C10080628093C10008958091A6038F5FF5
:103F10008093A6031196F0CFAF92BF92CF92DF921B
:103F2000EF92FF920F931F937B018C01EE0CFF1C0D
:103F3000001F111FEE0CFF1C001F111FEE0CFF1CB9
:103F4000001F111FEE0CFF1C001F111F60E078E620
:103F500089E899E09701A8010E94AE3559016A01EC
:103F60000894A108B108C108D10860E074E284EFA8
:103F700090E09701A8010E94AE35F901B9016150A6
:103F80007040CB01880F991F9B01220F331F220F16
:103F9000331F220F331F820F931FA0E0B0E0A8163B
:103FA000B906CA06DB06E9F186017501E81AF90AC5
:103FB0000A0B1B0BCF01880F991F9F01220F331F84
:103FC000220F331F220F331F820F931FA0E0B0E098
:103FD000A816B906CA06DB0641F1A6019501281B01
:103FE000390B4A0B5B0B2E153F054007510708F4B0
:103FF000BF0188E18093C1008EE08093C20070937E
:10400000C5006093C4008091C10080688093C100A6
:104010001F910F91FF90EF90DF90CF90BF90AF90E6
:104020000895EE24FF248701C5CF20E030E040E072
:1040300050E0D9CFAF92BF92CF92DF92EF92FF9232
:104040000F931F937B018C01EE0CFF1C001F111FAF
:10405000EE0CFF1C001F111FEE0CFF1C001F111F98
:10406000EE0CFF1C001F111F60E078E689E899E064
:104070009701A8010E94AE3559016A010894A10870
:10408000B108C108D10860E074E284EF90E09701C4
:10409000A8010E94AE35F901B90161507040CB0111
:1040A000880F991F9B01220F331F220F331F220FEE
:1040B000331F820F931FA0E0B0E0A816B906CA060E
:1040C000DB06E9F186017501E81AF90A0A0B1B0BF8
:1040D000CF01880F991F9F01220F331F220F331F1B
:1040E000220F331F820F931FA0E0B0E0A816B9067D
:1040F000CA06DB0641F1A6019501281B390B4A0BC4
:104100005B0B2E153F054007510708F4BF0188E1FE
:104110008093C9008EE08093CA007093CD006093B5
:10412000CC008091C90080688093C9001F910F91D5
:10413000FF90EF90DF90CF90BF90AF900895EE2466
:10414000FF248701C5CF20E030E040E050E0D9CF28
:10415000CF93DF93EC010E94551E882319F4DF9161
:10416000CF9108950E94671E982F20912006E22F7C
:10417000F0E0E55DFB4F8083E22FEF5F2E2FE093B1
:1041800020068A3011F0E33651F780911F0688230C
:10419000B1F481E09A30B9F081E080931F06F0E03D
:1041A000E55DFB4F1082E22FF0E0E55DFB4F1082F2
:1041B0001092200610922B04DF91CF910895109257
:1041C0001F0680E0E7CFF0E0E55DFB4F108288231B
:1041D00051F38BE294E0FE01099520912006E3CF94
:1041E0008F929F92AF92BF92CF92DF92EF92FF9207
:1041F0000F931F93DF93CF9300D000D0CDB7DEB7DE
:10420000162F072F6A0119821A821B821C8260E90D
:1042100071E00E94EF2DAC01009709F45EC081E0CF
:104220004239580709F459C0812F902F9C01890108
:10423000EE24FF2484E9882E81E0982E5E01089404
:10424000A11CB11C0FC080E090E060E971E00E9409
:10425000EF2DAC01009779F10C5F1F4F91E04239CF
:10426000590749F100D000D000D0EDB7FEB7319624
:10427000ADB7BEB712965C934E931197938282822C
:10428000B582A4820E948E2E89819A81AB81BC81E5
:10429000F80180839183A283B3830894E11CF11C0D
:1042A0008DB79EB706960FB6F8949EBF0FBE8DBF12
:1042B000EC14FD0441F6C7010F900F900F900F9082
:1042C000CF91DF911F910F91FF90EF90DF90CF90F2
:1042D000BF90AF909F908F900895EE24FF24EBCF76
:1042E000CF92DF92EF92FF920F931F93CF93DF93C2
:1042F0008C010E94551E882349F4DF91CF911F91B4
:104300000F91FF90EF90DF90CF9008950E94671E6D
:10431000982F20912006E22FF0E0E55DFB4F80838F
:10432000E22FEF5F2E2FE09320068A3011F0E33664
:1043300021F780911F068823A1F481E09A30A9F02B
:1043400081E080931F06F0E0E55DFB4F1082E22FD5
:10435000F0E0E55DFB4F10821092200610922B04D6
:10436000CCCF10921F0680E0E9CFF0E0E55DFB4F77
:104370001082882361F38BE294E06FE874E044E6F6
:1043800050E00E94F0207C01D0908F04C0909004F7
:104390008091910490919204E70121971C161D06CB
:1043A000D4F5E3E9F4E02D2D3C2DAC01C901DA018F
:1043B00020E030E040E050E0B701660F771F660F65
:1043C000771F65577B4F04C081919191A191B19165
:1043D000280F391F4A1F5B1FE617F707A9F7CC0FF5
:1043E000DD1FCC0FDD1FC157DB4F88819981AA816A
:1043F000BB8182179307A407B50719F0EE24EA944E
:10440000FE2C8D2D9C2D6FE874E0A701F801099515
:10441000209120069CCF20E030E040E050E0DFCF4C
:104420008F929F92AF92BF92CF92DF92EF92FF92C4
:104430000F931F93DF93CF93CDB7DEB764970FB67B
:10444000F894DEBF0FBECDBF4C015A016B018BE06B
:10445000E82EF12CEC0EFD1ED701E8E9F1E083E037
:1044600001900D928150E1F7C701B9010E94F42D2E
:10447000002349F0F70101900020E9F731978AE025
:1044800090E0918380838DB79EB708970FB6F8941C
:104490009EBF0FBE8DBFEDB7FEB731968E010F5F89
:1044A0001F4FADB7BEB712961C930E931197F382B0
:1044B000E282A482B582C682D7820E945D2E8DB729
:1044C0009EB708960FB6F8949EBF0FBE8DBFC4016D
:1044D0000E94A31EC8010E94A31E64960FB6F89402
:1044E000DEBF0FBECDBFCF91DF911F910F91FF9027
:1044F000EF90DF90CF90BF90AF909F908F900895F6
:104500008F929F92AF92BF92CF92DF92EF92FF92E3
:104510000F931F93DF93CF93CDB7DEB764970FB69A
:10452000F894DEBF0FBECDBF4C015A016B019BE07A
:10453000E92EF12CEC0EFD1ED701E8E9F1E083E055
:1045400001900D928150E1F7C701B9010E94F42D4D
:10455000002349F0F70101900020E9F731978AE044
:1045600090E0918380838DB79EB708970FB6F8943B
:104570009EBF0FBE8DBFEDB7FEB731968E010F5FA8
:104580001F4FADB7BEB712961C930E931197F382CF
:10459000E282A482B582C682D7820E945D2E8DB748
:1045A0009EB708960FB6F8949EBF0FBE8DBFC4018C
:1045B0000E94A31EC8010E94A31E64960FB6F89421
:1045C000DEBF0FBECDBFCF91DF911F910F91FF9046
:1045D000EF90DF90CF90BF90AF909F908F90089515
:1045E000EF92FF920F931F93DF93CF93CDB7DEB778
:1045F0002A970FB6F894DEBF0FBECDBF7C012223F1
:10460000B9F5ADB7BEB718970FB6F894BEBF0FBED9
:10461000ADBFEDB7FEB731968E010F5F1F4F1296FB
:104620001C930E93119782EA91E0938382834483D3
:104630005583668377830E945D2E8DB79EB708965B
:104640000FB6F8949EBF0FBE8DBFC7010E94A31E78
:10465000C8010E94A31E2A960FB6F894DEBF0FBEB3
:10466000CDBFCF91DF911F910F91FF90EF900895F3
:104670008DB79EB708970FB6F8949EBF0FBE8DBF3B
:10468000EDB7FEB731968E010F5F1F4FADB7BEB7C6
:1046900012961C930E9311978BE991E0C6CF0F935E
:1046A0001F93DF93CF93CDB7DEB72A970FB6F89459
:1046B000DEBF0FBECDBF2DB73EB7285030400FB67E
:1046C000F8943EBF0FBE2DBFEDB7FEB731968E01F9
:1046D0000F5F1F4FADB7BEB712961C930E93119785
:1046E00028EA31E03383228364837583868397834A
:1046F0000E945D2E2DB73EB7285F3F4F0FB6F8944E
:104700003EBF0FBE2DBFC8010E94A31E2A960FB642
:10471000F894DEBF0FBECDBFCF91DF911F910F91F7
:1047200008950F931F93DF93CF93CDB7DEB72A97EA
:104730000FB6F894DEBF0FBECDBF00D000D000D0C2
:10474000EDB7FEB731968E010F5F1F4FADB7BEB705
:1047500012961C930E9311972BEA31E03383228338
:10476000958384830E945D2E8DB79EB706960FB603
:10477000F8949EBF0FBE8DBFC8010E94A31E2A964B
:104780000FB6F894DEBF0FBECDBFCF91DF911F9162
:104790000F91089594B1906B94B9269890E59CBDC3
:1047A000882319F08CB580628CBD613049F161308D
:1047B00068F48CB58CBD403191F04131A0F44430A7
:1047C000E1F1483049F1423071F108956230E1F091
:1047D000633089F78CB58C608CBD403171F78CB536
:1047E00081608CBD0895403421F1403889F0403219
:1047F00061F78DB581608DBD8CB582608CBD0895EB
:104800008CB584608CBDD7CF8CB588608CBDD3CF80
:104810008CB583608CBD08958DB581608DBD8CB5E0
:1048200081608CBD08958DB581608DBD8CB58CBDCA
:1048300008958CB582608CBD08958CB581608CBD67
:104840008CB58CBD08958EBD0DB407FEFDCF8EB521
:104850000895482F662369F09C01F90180818EBD7F
:104860000DB407FEFDCF8EB531968E2F841B8617B3
:10487000A8F30895482F662369F09C01F9019FEF82
:104880009EBD0DB407FEFDCF8EB581938E2F841B88
:104890008617B0F3089591E09093660680934306DF
:1048A000109264061092650608952091420630E049
:1048B00080914106281B3109C901089540914106A4
:1048C00080914206481760F4E42FF0E0EF5DF94F65
:1048D0008081282F30E04F5F40934106C901089541
:1048E0002FEF3FEFC9010895E09141068091420604
:1048F000E81740F4F0E0EF5DF94F8081E82FF0E039
:10490000CF010895EFEFFFEFCF01089508959C01C7
:104910004091690650916A064115510511F1909137
:104920004106809142069817E0F01616170694F497
:1049300090E0A0E0B0E0E0E0F0E0AF5DB94FE20F62
:10494000F31F80818C939F5FE92FF0E0DF01E61772
:10495000F7079CF31092410660934206CB01FA01DF
:1049600009950895E0916706F0916806309729F05F
:1049700010926406109265060995089590936A0650
:10498000809369060895909368068093670608955A
:10499000DF93CF930F92CDB7DEB789838091660600
:1049A0008823F9F0809165068032A0F48091640636
:1049B000E82FF0E0EC5BF94F998190838F5F809353
:1049C00064068093650621E030E0C9010F90CF9125
:1049D000DF91089520E030E0C9010F90CF91DF9181
:1049E0000895CE01019661E00E94062721E030E0A3
:1049F000C9010F90CF91DF9108950F93082F8091F7
:104A0000430664E476E04091650621E00E94A0261A
:104A10001092640610926506109266060F91089532
:104A20000E943C2608950E942F2608951092410668
:104A30001092420610926406109265060E94132698
:104A400082EB94E20E94362787E894E20E943127A5
:104A50000895AF92BF92CF92DF92EF92FF920F93A1
:104A60001F93DF93CF930F92CDB7DEB76C017B011D
:104A7000809166068823F1F16115710571F100E0FE
:104A800010E05E010894A11CB11C17C0809165065E
:104A9000803260F480916406E82FF0E0EC5BF94F1F
:104AA00090838F5F80936406809365060F5F1F4F2E
:104AB0000E151F0590F480916606F601E00FF11FB8
:104AC00090819983882311F7C50161E00E94062730
:104AD0000F5F1F4F0E151F0570F3C7010F90CF9189
:104AE000DF911F910F91FF90EF90DF90CF90BF90DB
:104AF000AF900895C6010E940627EFCF0F938091D3
:104B0000430664E476E04091650621E001E00E94FE
:104B1000A0261092640610926506109266060F9108
:104B20000895AF92BF92CF92DF92EF92FF920F93D0
:104B30001F93182FF62E0023B1F181E080936606B3
:104B400010934306043008F045C060E0E0E0002325
:104B5000C9F00150802F880F880F880F59016A0112
:104B600004C0D694C794B794A7948A95D2F7E0323C
:104B700070F7E62FF0E0EC5BF94FA0826F5FE62F55
:104B8000002339F760936406E0936506812F64E49F
:104B900076E04E2F21E00E94A0261092640610922B
:104BA0006506109266064F2D413208F040E2812FD3
:104BB00061E276E02E2D0E944F26109241068093EE
:104BC00042061F910F91FF90EF90DF90CF90BF9022
:104BD000AF90089503E0B9CF1F93182F10924106AC
:104BE0001092420610926406109265060E941326E7
:104BF00082EB94E20E94362787E894E20E943127F4
:104C0000812F0E9438261F910895242F462F61324C
:104C100008F040E261E276E00E944F2610924106E1
:104C200080934206089510926B0681E080936D0692
:104C300010926E0687B18C7F87B988B1836088B97E
:104C4000E9EBF0E080818E7F808380818D7F80839F
:104C500088E48093B80085E48093BC000895ECEB71
:104C6000F0E080818A7B808388B18C7F88B9089549
:104C7000880F8093BA0008959B01AC0160E074E254
:104C800084EF90E00E94AE352051304040405040CB
:104C900056954795379527952093B8000895382F56
:104CA0004132E8F580916B068823E1F791E090931B
:104CB0006B0620936D068FEF8093D80610929306B3
:104CC0004150409394064F5F90936C0680916C0620
:104CD000330F832B80936C0680916E06813011F127
:104CE00085EE8093BC0080916B068130E1F380916A
:104CF0009306841710F440919306442371F020E04A
:104D000030E0FB01E20FF31FD901AD58B94F8C9190
:104D100080832F5F3F4F2417A0F3842F089540E036
:104D2000842F089510926E0680916C068093BB00CC
:104D30008091BC0083FDF8CF85EC8093BC00D3CF7D
:104D40000F93982F522F413208F04BC080916B0681
:104D50008823E1F782E080936B0600936D068FEF66
:104D60008093D8061092930640939406442371F0E2
:104D700020E030E0F901ED58F94FDB01A20FB31F3D
:104D80008C9180832F5F3F4F2417A0F310926C0605
:104D900080916C06990F892B80936C0680916E062A
:104DA000813011F185EE8093BC00552379F4809118
:104DB000D8068F3F99F08091D806803219F1809102
:104DC000D806803309F184E00F91089580916B0635
:104DD0008230E1F38091D8068F3F69F780E00F9130
:104DE000089581E00F91089510926E0680916C06EF
:104DF0008093BB008091BC0083FDF8CF85EC80934D
:104E0000BC00D3CF82E0E0CF83E0DECFAC01809165
:104E1000B60690E0860F911D81970CF580916B0688
:104E2000843011F082E00895662391F020E030E0B4
:104E30008091B606F901EB56F94FE80FF11DDA0142
:104E4000A20FB31F8C9180832F5F3F4F261780F3F3
:104E50008091B606860F8093B60680E0089581E0C3
:104E6000089590937206809371060895909370064A
:104E700080936F060895882321F485E88093BC0011
:104E8000089585EC8093BC00089585ED8093BC0067
:104E90008091BC0084FDFCCF10926B06089585ECD8
:104EA0008093BC0010926B0608951F920F920FB66C
:104EB0000F920BB60F9211242F933F934F935F9352
:104EC0006F937F938F939F93AF93BF93EF93FF93D2
:104ED0008091B90090E0A0E0B0E0887F9070A07071
:104EE000B070FC01893C910590F5EA5BFF4FEE0F35
:104EF000FF1F0590F491E02D099484E080936B06E8
:104F00001092B5061092B606E0916F06F091700609
:104F100009958091B606882329F481E08093B6062E
:104F2000109295069091B506E92FF0E0EB56F94FF7
:104F300080818093BB009F5F9093B5069091B506EA
:104F40008091B6069817D8F485EC8093BC00FF9149
:104F5000EF91BF91AF919F918F917F916F915F91F1
:104F60004F913F912F910F900BBE0F900FBE0F905E
:104F70001F9018958091D706803208F4AAC085E862
:104F80008093BC00E4CF809193069091BB00E82F02
:104F9000F0E0ED58F94F90838F5F809393069091E6
:104FA000930680919406981750F7CECF80E38093B4
:104FB000D80685ED8093BC008091BC0084FDFCCFB9
:104FC00010926B06C4CF88E38093D80685EC80935B
:104FD000BC0010926B06BBCF809193069091BB00F2
:104FE000E82FF0E0ED58F94F90838F5F80939306A0
:104FF00080916D06882309F47CC085ED8093BC0008
:105000008091BC0084FDFCCFDBCF83E080936B06F6
:105010001092D70685EC8093BC0099CF1092D806E9
:1050200085ED8093BC008091BC0084FDFCCFC8CF8F
:1050300080916C068093BB0085EC8093BC0087CF89
:105040009091930680919406981708F45BC0809124
:105050006D06882309F44DC085ED8093BC008091D6
:10506000BC0084FDFCCFACCF80E28093D80685EDF8
:105070008093BC008091BC0084FDFCCFA1CF85EC67
:105080008093BC0010926B068091D706803230F47A
:10509000E091D706F0E0E954F94F10826091D7060D
:1050A000E0917106F091720687EB96E070E0099549
:1050B0001092D7064CCF85EC8093BC0010926B0603
:1050C00046CF85ED8093BC008091BC0084FDFCCF71
:1050D00077CF8091D7069091BB00E82FF0E0E9549C
:1050E000F94F90838F5F8093D70685EC8093BC0047
:1050F0002ECF81E080936E0684EA8093BC001092EC
:105100006B0625CF90919306E92FF0E0ED58F94F0B
:1051100080818093BB009F5F9093930685EC809382
:10512000BC0015CFFF920F931F93162FF42E052F5F
:105130000E944B24812F0E94C824802F0E94C824E3
:105140008F2D0E94C8240E947E251F910F91FF90F1
:1051500008950F931F93162F042F0E944B24812F25
:105160000E94C824802F0E94C8240E947E251F917F
:105170000F910895EF92FF920F931F93CF93DF93B8
:10518000F62E142F022FE32E442339F4DF91CF9112
:105190001F910F91FF90EF9008950E944B248F2D47
:1051A0000E94C824802F9E2D9C01E90189910E94B4
:1051B000C8249E01201B2117C8F30E947E25DF9181
:1051C000CF911F910F91FF90EF900895EF92FF9272
:1051D0000F931F93E82EF62E8A010E944B248F2DE9
:1051E0000E94C8240E947E258E2D62E041E00E942C
:1051F00005260E945E24F82EF801808391830E9488
:105200005E243F2D20E0280F391FF80131832083D1
:1052100081E01F910F91FF90EF900895EF92FF9220
:105220000F931F93182F062F7A010E944B24802F73
:105230000E94C8240E947E25812F61E041E00E94E7
:1052400005260E945E24F701808381E01F910F9163
:10525000FF90EF900895DF92EF92FF920F931F93CC
:10526000CF93DF93082F162FF42EE22ED32E0E9419
:105270004B24812F0E94C8240E947E25802F6F2DF1
:1052800041E00E940526FF2059F08E2D9D2D9C01A6
:10529000E9010E945E2489939E012E192F15C8F3FF
:1052A00080E0DF91CF911F910F91FF90EF90DF9001
:1052B00008952F923F924F925F926F927F928F92BA
:1052C0009F92AF92BF92CF92DF92EF92FF920F9395
:1052D0001F93DF93CF93CDB7DEB761970FB6F894E6
:1052E000DEBF0FBECDBF3C017F876E876A01FC0128
:1052F00017821682838181FD03C06FEF7FEF6FC33A
:105300009E012F5F3F4F398B288BF3012381EE8560
:10531000FF8523FD859123FF8191FF87EE878823F9
:1053200009F45AC3853251F4EE85FF8523FD85913A
:1053300023FF8191FF87EE87853229F490E0B30146
:105340000E94312EE2CF982F10E088249924103249
:10535000B0F49B3269F09C3228F4903251F09332D1
:1053600071F40BC09D3239F0903349F4116028C0BC
:105370001260146025C0186023C0106121C017FDA1
:105380002AC0892F80538A3078F416FF06C0FAE0CD
:105390009F9E902C1124980E13C03AE0839E802C7F
:1053A0001124880E10620CC09E3221F416FD14C325
:1053B000106406C09C3611F4106802C0983659F487
:1053C000EE85FF8523FD959123FF9191FF87EE8761
:1053D000992309F0BCCF892F8554833020F4812F85
:1053E0008061905E07C0892F8556833008F09FC189
:1053F000812F8F7E86FD02C076E0972E6FE3F62E1A
:10540000F822953619F4F0E4FF2A07C0963619F40D
:1054100020E8F22A02C091109A94F7FE0AC03BE3FA
:10542000391518F45CE3B52E02C0B92CB39427E00B
:1054300009C047E0491520F4BB2447E0942EF7CF7C
:10544000292DBB24C60104969D878C87F6016081B7
:10545000718182819381AE014F5F5F4F0B2D0E945E
:105460000C2D6C010981202E332400FF04C003FDA4
:1054700002C01DE209C0F1FE02C01BE205C0F2FC41
:1054800002C010E001C010E2C1018C709070892B45
:10549000B9F1112311F483E001C084E0881510F004
:1054A00088240AC0881AF3FC07C080E290E0B301A8
:1054B0000E94312E8A94C9F7112329F0812F90E0A0
:1054C000B3010E94312E23FE03C00BE412E00EC094
:1054D0000FE412E00BC0E114F10409F0805290E0F7
:1054E000B3010E94312E0F5F1F4F05C0EF2CFF2428
:1054F000F0E1EF22FF24F8018491882361F714C1C1
:10550000F7FE12C0BC0C24FE04C08A81813309F46A
:10551000BA941B141CF0BB24B3942DC0F8E0FB1507
:1055200050F538E0B32E27C0F6FC25C0892D90E059
:105530008C159D054CF02CEFC2162FEFD20624F0EF
:1055400030E8F32A01C09A94992049F0E2E0F0E0B3
:10555000EC0FFD1FE90DF11D80818033A1F3F7FEF3
:105560000AC0B92CB394892D90E0C816D90614F05E
:10557000992401C09C18F7FC03C025E030E009C065
:105580001C141D041CF021E030E003C096012F5FC5
:105590003F4F112311F02F5F3F4F992029F0892DA4
:1055A00090E00196280F391F882D90E028173907C1
:1055B00014F0882401C0821A4F2C5524C20189702E
:1055C0009070892B39F008C080E290E0B3010E940E
:1055D000312E8A948820C1F7112329F0812F90E081
:1055E000B3010E94312E43FE07C008C080E390E063
:1055F000B3010E94312E8A948820C1F7F7FE46C07D
:105600008601D7FE02C000E010E076010894E11C9C
:10561000F11CE01AF10A41E050E04C0F5D1FE40E6E
:10562000F51E26014B185108892D90E0AA24BB24B1
:10563000A81AB90A5FEF0F3F150729F48EE290E030
:10564000B3010E94312EC016D10634F04016510627
:105650001CF4F701808101C080E3015010400894E0
:10566000E11CF11C0A151B052CF090E0B3010E940F
:10567000312EE0CF0C151D0539F49A81963318F4BC
:10568000953311F424FE81E390E04BC08A8181338D
:1056900009F00F7E90E0B3010E94312E9920A1F015
:1056A0008EE290E0B3010E94312E12E0E1E0F0E0E2
:1056B000EC0FFD1FE10FF11D1F5F808190E0B30132
:1056C0000E94312E9A9491F744FC03C085E690E045
:1056D00002C085E490E0B3010E94312ED7FC05C0E2
:1056E000C114D10441F404FF06C0D094C194D10880
:1056F000D3948DE201C08BE290E0B3010E94312E81
:1057000080E305C08F5F26EF3FEFC20ED31E3AE065
:10571000C316D104BCF790E0B3010E94312EC6013C
:10572000C096B3010E94312ECC84DD8452C19336E1
:1057300031F0933799F0933509F059C023C0F60141
:10574000808189835E010894A11CB11C22E030E0B5
:10575000C20ED31E21E0E22EF12C12C0F601A08071
:10576000B18016FD03C06FEF7FEF02C0692D70E0BE
:1057700022E030E0C20ED31EC5010E94FF2D7C0145
:105780001F7713C0F601A080B18016FD03C06FEF34
:105790007FEF02C0692D70E022E030E0C20ED31E20
:1057A000C5010E94E42D7C01106813FF07C01BC0D7
:1057B00080E290E0B3010E94312E8A94882D90E01F
:1057C000E816F906A8F30FC0F50117FD859117FF3C
:1057D00081915F0190E0B3010E94312E81108A9483
:1057E0000894E108F108E114F10471F7F2C094366D
:1057F00011F0993689F517FF08C0F6012081318133
:105800004281538184E090E00AC0F6018081918159
:105810009C01442737FD4095542F82E090E0C80E4C
:10582000D91E9FE6F92EF12257FF09C050954095E9
:10583000309521953F4F4F4F5F4F90E8F92ACA01AD
:10584000B901AE014F5F5F4F2AE030E00E94B12EF8
:10585000E82EE889EE1A41C0953721F41F7E2AE030
:1058600030E01CC0197F9F3661F0903720F49835E6
:1058700009F0B2C00FC0903739F0983709F0ACC0CA
:1058800004C028E030E00AC0106114FD146020E17B
:1058900030E004C014FD166020E132E017FF08C0BC
:1058A000F601608171818281938144E050E008C0FB
:1058B000F60180819181BC0180E090E042E050E0FF
:1058C000C40ED51EAE014F5F5F4F0E94B12EE82E71
:1058D0005889E51A8FE7F82EF122F6FE0BC08EEFFD
:1058E000F822E91438F4F4FE07C0F2FC05C09FEE7C
:1058F000F92202C01E2D01C0192DF4FE0DC0FE01BB
:10590000EE0DF11D8081803319F4E9EEFE2208C00E
:105910001F5FF2FE05C003C08F2D867809F01F5F60
:105920000F2DF3FC14C0F0FE0FC0181510F09E2CC4
:105930000BC09E2C980C911A182D06C080E290E0A6
:10594000B3010E94312E1F5F1815C0F304C0181553
:1059500010F4811A01C0882404FF0FC080E390E096
:10596000B3010E94312E02FF1DC001FD03C088E774
:1059700090E00EC088E590E00BC0802F867891F013
:1059800001FF02C08BE201C080E2F7FC8DE290E0F3
:10599000B3010E94312E06C080E390E0B3010E9463
:1059A000312E9A94E914C0F3EA94E1E0F0E0EC0FB0
:1059B000FD1FEE0DF11D808190E0B3010E94312E9C
:1059C000EE2091F706C080E290E0B3010E94312EF4
:1059D0008A948820C1F799CCF30166817781CB0145
:1059E00061960FB6F894DEBF0FBECDBFCF91DF91A9
:1059F0001F910F91FF90EF90DF90CF90BF90AF90ED
:105A00009F908F907F906F905F904F903F902F90DE
:105A10000895F8940C94EB35283008F027E03327EC
:105A2000DA01990F311D87FD9160009661057105BE
:105A300039F432602E5F3D9330E32A95E1F7089503
:105A40009F3F30F080387105610509F03C5F3C5F95
:105A50003D93913008F08068911DDF93CF931F93A1
:105A60000F93FF92EF92192F987F9695E92F9695B5
:105A70009695E90FFF27E355FD4F99273327EE242D
:105A8000FF24A701E70105900894079428F4360F36
:105A9000E71EF81E491F511D660F771F881F991FAB
:105AA0000694A1F70590079428F4E70EF81E491F05
:105AB000561FC11D770F881F991F661F0694A1F7F7
:105AC0000590079428F4F80E491F561FC71FD11DD3
:105AD000880F991F661F771F0694A1F705900794FA
