:100000000C944B020C946A020C946A020C946A02DF
:100010000C9440060C9408050C946A020C946A0235
:100020000C946A020C94EE040C946A020C946A021A
:100030000C946A020C94951D0C94D31D0C946A02C6
:100040000C949D050C9430060C946A020C946A0280
:100050000C94C71F0C9417200C946A020C946A022B
:100060000C9465050C946A020C94432F0C946A025C
:100070000C94EF1F0C946A020C946A020C946A02AE
:100080000C94D82B0C946A020C946A02FC2F952FC6
:10009000952F952F952F952F952F952F0630952FCE
:1000A000952F952F952F952F952F952F0630952FBE
:1000B000952F952F952F952F952F952F0E30952FA6
:1000C000952F952F952F952F952F952F2230952F82
:1000D000952F952F952F952F952F952F0E30952F86
:1000E000952F952F952F952F952F952FC42F952FC1
:1000F000952F952F952F952F952F952FD12F952FA4
:10010000952F952F952F952F952F952FBD2F952FA7
:10011000952F952F952F952F952F952F4F30952F04
:10012000952F952F952F952F952F952FB12F952F93
:10013000952F952F952F952F952F952FDA2F952F5A
:10014000952F952F952F952F952F952FF32F952F31
:10015000952F952F952F952F952F952FF32F952F21
:10016000952F952F952F952F952F952FF32F952F11
:10017000952F952F952F952F952F952FF32F952F01
:10018000952F952F952F952F952F952FA82F952F3C
:10019000952F952F952F952F952F952FAD2F952F27
:1001A000952F952F952F952F952F952FA82F952F1C
:1001B000952F952F952F952F952F952FAD2F952F07
:1001C000952F952F952F952F952F952F2D30952F76
:1001D000952F952F952F952F952F952F6B2F952F29
:1001E000952F952F952F952F952F952F6B2F952F19
:1001F000952F952F952F952F952F952F802F952FF4
:10020000952F952F952F952F952F952F4930952F19
:10021000952F952F952F952F952F952F4930084A7B
:10022000D73B3BCE016E84BCBFFDC12F3D6C74310A
:100230009ABD56833DDA3D00C77F11BED9E4BB4C61
:100240003E916BAAAABE000000803F6E616E0069FD
:100250006E660053454E54494E454C00454158008A
:100260004541590045415A00454758004547590006
:1002700045475A00454D5800454D5900454D5A00D7
:100280004B50004B49004B44004341524D415F42AB
:100290004941530057494E475F464C4150535F42D6
:1002A000494153004D4F544F525F52455455524EA1
:1002B0005F484F4D455F504F57455200524554558A
:1002C000524E5F484F4D455F44495354414E43455C
:1002D00000414C5048415F4341524D415F504944B9
:1002E00000414C5048415F4341524D415F5345529C
:1002F000564F00414C5048415F57494E47535F535A
:100300004552564F00414C5048415F4553430041D0
:100310004C5048415F50554D505F534F46545F53CA
:10032000544152540050554D505F445554595F4309
:1003300059434C4500535445505045525F4D415828
:100340005F4359434C4553004D4F544F525F4D410D
:10035000585F54454D504552415455524500530243
:100360005C026002640268026C027002740278022D
:100370007C0280028302860289029402A402BC02EB
:10038000D102E102F30205030F03250335034803FD
:1003900000407A10F35A00A0724E18090010A5D43C
:1003A000E80000E87648170000E40B54020000CA99
:1003B0009A3B000000E1F5050000809698000000DF
:1003C00040420F000000A08601000000102700003E
:1003D0000000E803000000006400000000000A00C4
:1003E000000000000100000000002C76D888DC67C7
:1003F0004F0823DFC1DFAE59E1B1B796E5E3E4531F
:10040000C63AE651997696E8E6C28426EB898C9B3B
:1004100062ED407C6FFCEFBC9C9F40F2BAA56FA5DB
:10042000F490055A2AF75C936B6CF9676DC11BFC5D
:10043000E0E40D47FEF520E6B500D0ED902E030078
:10044000943577050080841E080000204E0A0000C5
:1004500000C80C333333330F986E12831141EF8D84
:100460002114893BE65516CFFEE6DB18D1844B38C4
:100470001BF77C1D901DA4BBE424203284725E22F5
:100480008100C9F124ECA1E53D276364696E6F70BA
:10049000737578585B0011241FBECFEFD0E4DEBF28
:1004A000CDBF12E0A0E0B1E0ECECFBE700E00BBF59
:1004B00002C007900D92A234B107D9F719E0A2E467
:1004C000B2E001C01D92A932B107E1F70E94941277
:1004D0000C94F7340C94000088E48093420289E085
:1004E00080934302109244021092460210924502F9
:1004F000109248021092490210924A0210924B0246
:100500000895A0E0B0E0BC01CD010E94683826EA61
:100510003BE944EC50E40E944A3920E030E040E0FE
:1005200058E30E944A390895A0E0B0E0BC01CD0133
:1005300020E038E140E050E00E947C3D9B01AC01AE
:100540008FE056954795379527958A95D1F7C9013C
:100550000895DF93CF9300D0CDB7DEB780914202EC
:1005600061E0AE014F5F5F4F0E94D43020E089818F
:100570009A8197FD06C0822F0F900F90CF91DF9147
:10058000089521E0822F0F900F90CF91DF91089571
:100590008430D0F42091450230914602A90143688D
:1005A00051608130F1F0813088F0823029F1833060
:1005B00019F4A9014368516750688091420261E0D3
:1005C0000E94803081E0089580E00895A901436889
:1005D000516450688091420261E00E94803081E065
:1005E0000895A9014368516550688091420261E015
:1005F0000E94803081E00895A901436851665068E7
:100600008091420261E00E94803081E00895AF92C3
:10061000BF92CF92DF92EF92FF920F931F93DF93DF
:10062000CF9300D0CDB7DEB7843008F066C02091FC
:10063000450230914602A90143685160813009F4B6
:1006400070C0813008F469C0823009F479C0833009
:1006500019F4A9014368516750688091420261E032
:100660000E9480306091430270E080E090E00E9440
:1006700068385B016C0120E030E04AE755E40E94F5
:100680004A397B018C0120E030E040E85FE30E94C2
:10069000CB3788230CF451C0C801B70120E03FEFED
:1006A0004FE757E40E943F3918160CF03EC0C601D0
:1006B000B50120E030E040E251E40E944A390E9456
:1006C0003C38CB01672B39F020E931E0F901319753
:1006D000F1F70197D9F78091420260E0AE014F5FD8
:1006E0005F4F0E94D43029813A810090440202C0B9
:1006F000369527950A94E2F702C020E030E0C90160
:100700000F900F90CF91DF911F910F91FF90EF907D
:10071000DF90CF90BF90AF900895A90143685164D6
:100720009BCFA9014368516597CFC801B7010E94CB
:100730003C38CB010197F1F7CECF61E070E0F9CF03
:10074000A9014368516688CFFF920F931F93DF93EF
:10075000CF9300D0CDB7DEB78C01F62E8091420248
:1007600061E0AE014F5F5F4F0E94D43089819A8172
:1007700097FD27C010E0F3E0FF15D0F0809145020F
:1007800090914602AC014368516021E0F21689F174
:10079000F21658F1E2E0FE1681F1FF1619F4AC01F1
:1007A0004368516750688091420261E00E94803046
:1007B000812F0F900F90CF91DF911F910F91FF909C
:1007C00008958091420260E0A8010E94D430F801AF
:1007D000808191810090440202C0969587950A9489
:1007E000E2F79183808311E0C6CFAC014368516486
:1007F000D9CFAC0143685165D5CFAC014368516690
:10080000D1CF0F931F93DF93CF9300D0CDB7DEB737
:100810008C018091420261E0AE014F5F5F4F0E9408
:10082000D43089819A8197FD3EC020914702E22F02
:10083000F0E0E85BFD4F8081882319F510E08AE045
:100840008083243040F58091450290914602AC01AE
:1008500043685160213009F47EC0213008F06EC039
:10086000AC014368516450688091420261E00E948B
:100870008030812F0F900F90CF91DF911F910F91BA
:1008800008958150808310E0E22FF0E0E85BFD4F97
:1008900080818823A1F2812F0F900F90CF91DF915B
:1008A0001F910F9108954091470250E0440F551F4A
:1008B000445B5D4F8091420260E00E94D430209101
:1008C0004702E22FF0E0EE0FFF1FE45BFD4F808157
:1008D00091810090440202C0969587950A94E2F7B0
:1008E000918380832F5F20934702243060F210921F
:1008F00047021092480280914C0290914D02F801FB
:10090000918380831092490280914E0290914F0210
:100910009383828310924A028091500290915102F7
:100920009583848310924B028091520290915302DE
:100930009783868311E020914702A6CF223039F0B9
:10094000233009F090CFAC01436851678CCFAC01E4
:100950004368516688CFAC014368516584CF81B14B
:10096000806C81B982B18F7382B9209A28982198BE
:1009700029983E9A46980A98129A0B98139AE8E694
:10098000F0E0808182608083ECE6F0E0808182602C
:100990008083089589EF87BD18BC14BC15BC16BCB4
:1009A00084B5826084BD85B5836085BD86E0809313
:1009B0006E00089589EF8093B300E0EBF0E01082C1
:1009C000A1EBB0E01C921092B20083E08C93808186
:1009D0008260808382E08093700008951F920F925E
:1009E0000FB60F9211248F939F93199B0AC0809189
:1009F0001E0390911F038C509E4F90931F03809372
:100A00001E039F918F910F900FBE0F901F9018950E
:100A10001F920F920FB60F9211242F933F938F9333
:100A20009F9319991AC08091B20020911E033091B2
:100A30001F0390E0880F991F820F931F90931F034D
:100A400080931E03109220039F918F913F912F91CD
:100A50000F900FBE0F901F9018958091B20090E0FC
:100A6000909581959F4F880F991F90931F038093B6
:100A70001E03EACFECE7F0E080818E7F8083EAE717
:100A8000F0E08081806480830895ECE7F0E080816D
:100A900081608083EAE7F0E080818064808308954C
:100AA00008980998ECE7F0E01082808180648083E8
:100AB000EAE7F0E01082808187608083808180682F
:100AC000808380818860808308951F920F920FB683
:100AD0000F9211248F939F9380912E03882389F086
:100AE0008091780090917900909334038093330340
:100AF00010922E039F918F910F900FBE0F901F9019
:100B000018958091780090917900909329038093B3
:100B1000280380917C00816080937C0080917A0022
:100B2000806480937A0081E080932E039F918F915F
:100B30000F900FBE0F901F9018951F920F920FB637
:100B40000F9211242F938F939F93809135038111DE
:100B5000469A809121038F5F809321038091220325
:100B60008F5F809322038091230390912403019649
:100B70009093240380932303809125038F5F8093B8
:100B8000250380912103843109F457C08091220309
:100B9000843609F44CC080912503853009F441C0A6
:100BA0008091230390912403019779F1809123038D
:100BB000909124038436910511F180912303909143
:100BC0002403845F914041F09F918F912F910F906A
:100BD0000FBE0F901F9018951092240310922303BC
:100BE00080913703882381F38150809337039F914D
:100BF0008F912F910F900FBE0F901F90189580919D
:100C00003603882331F11798D8CF80913603882393
:100C100031F480913703882311F41798C7CF179ABE
:100C2000C5CF81E080932D0310922503B9CF81E0D9
:100C30008093270310922203AECF81E08093260396
:100C400080932A0380932B0380932C03109221031B
:100C50009DCF80913703882309F4AFCF1798ADCF8C
:100C60001F920F920FB60F9211248F93809135032C
:100C7000811146988F910F900FBE0F901F9018957D
:100C80001F920F920FB60F9211248F93029904C0F6
:100C90008091D101882389F4039909C08091D10101
:100CA000813029F010923C0381E08093D1018F9133
:100CB0000F900FBE0F901F90189510923C0310924A
:100CC000D101EACF109224031092230381E0809394
:100CD000370308951092240310922303809337035F
:100CE0000895AF92BF92CF92DF92EF92FF920F934F
:100CF0001F93809120038823B1F56091CD017091FD
:100D0000CE018091CF019091D001E0901E03F09030
:100D10001F032AE939E949E55FE30E944A395B018B
:100D20006C010027F7FC0095102FC801B7010E9445
:100D30006A382AE939E949E15EE30E944A3928E242
:100D40003EE74CE85CE30E944A399B01AC01C601D6
:100D5000B5010E9405376093CD017093CE01809359
:100D6000CF019093D00181E080932003289A85E3FE
:100D70008A95F1F728981F910F91FF90EF90DF90DF
:100D8000CF90BF90AF9008952F923F924F925F9275
:100D90006F927F928F929F92AF92BF92CF92DF928B
:100DA000EF92FF920F931F930091E3021091E402E0
:100DB0002091E5023091E6020093F8021093F902C7
:100DC0002093FA023093FB024CEF242E42E0342EA3
:100DD0004091C9015091CA016091CB017091CC0141
:100DE000C1010E94431B6AE070E080E090E00E9435
:100DF000D0242B013C016BE070E080E090E00E9489
:100E0000D0244B015C016CE070E080E090E00E9437
:100E1000D0246B017C01C101B301A20195018401C1
:100E20000E94511B6FE070E080E090E00E94E3249C
:100E3000709359026093580270935F0260935E0250
:100E40006DE070E080E090E00E94E32470935B022C
:100E500060935A026EE070E080E090E00E94E3242C
:100E600070935D0260935C02609158027091590228
:100E700082E00E94291D1F910F91FF90EF90DF905B
:100E8000CF90BF90AF909F908F907F906F905F902A
:100E90004F903F902F900895EF92FF920F931F93E2
:100EA00060E170E080E090E00E94D0242091CD01CC
:100EB0003091CE014091CF015091D0010E943F3935
:100EC00018160CF44FC06FE070E080E090E00E94D4
:100ED000E3249B01AC017093590260935802709314
:100EE0005F0260935E0282E0B9010E94291D6DE0FD
:100EF00070E080E090E00E94E3247B018C0140914F
:100F0000E3025091E4026091E5027091E6028CEFF9
:100F100092E00E946B1B9C01220F331F220F331F94
:100F2000280F391FC901AA2797FDA095BA2F8E0D4A
:100F30009F1DA01FB11F9701245D3E4F2817390741
:100F40004CF430935B0220935A021F910F91FF9053
:100F5000EF90089597012C523140281739078CF7EC
:100F60009C01EFCF88EE93E0909359028093580252
:100F700090935F0280935E0282E068EE73E00E94CD
:100F8000291D1F910F91FF90EF9008950F931F93CC
:100F9000DF93CF93CDB7DEB7C054D0400FB6F894EF
:100FA000DEBF0FBECDBF19828E010F5F1F4FC8017C
:100FB00061E070E00E94EF2AC80141E050E060E08B
:100FC00070E00E94BC2AC80142E050E060E070E09E
:100FD0000E94BC2A6091580270915902882777FDBF
:100FE0008095982F0E946A3820E030E04AE754E468
:100FF0000E94043720E030E048EC52E40E944A3975
:1010000020E030E04AE754E40E94CF37AB01BC0156
:10101000C8010E941B2B60915402709155028827D1
:1010200077FD8095982F0E946A3820E030E04AE7EB
:1010300054E40E94043720E030E048EC52E40E947F
:101040004A3920E030E04AE754E40E94CF37AB0150
:10105000BC01C8010E941B2B60915602709157027F
:10106000882777FD8095982F0E946A3820E030E02D
:101070004AE754E40E94043720E030E048EC52E4B0
:101080000E944A3920E030E04AE754E40E94CF371A
:10109000AB01BC01C8010E941B2BF801019000208C
:1010A000E9F731978AE090E091838083C8010E943C
:1010B000A91FC05CDF4F0FB6F894DEBF0FBECDBFD7
:1010C000CF91DF911F910F910895CF92DF92EF9210
:1010D000FF920F931F93DF93CF93CDB7DEB7C0542A
:1010E000D0400FB6F894DEBF0FBECDBF19826E019F
:1010F0000894C11CD11CC60164E070E00E94EF2A74
:101100006091DF027091E0028091E1029091E20231
:101110000E943738AB01BC01662757FD6095762FDA
:10112000C6010E94BC2A6091DB027091DC028091B2
:10113000DD029091DE020E943738AB01BC016627C8
:1011400057FD6095762FC6010E94BC2AC60140E07B
:1011500050E060E070E00E941B2B6091E302709110
:10116000E4028091E5029091E6020E943738AB01DB
:10117000BC01662757FD6095762FC6010E94BC2AE8
:10118000C60140E050E060E070E00E941B2BC60109
:1011900040E050E060E070E00E941B2BC6010E941E
:1011A000A91F1982609138037091390380913A0325
:1011B00090913B030E9468387B018C0160913F0352
:1011C0007091400380914103909142030E946838DE
:1011D0009B01AC01C801B7010E94CF3720E030E08D
:1011E00048EC52E40E944A39AB01BC01C6010E949E
:1011F0001B2B4091CB025091CC026091CD0270919B
:10120000CE02C6010E941B2BC60140E050E060E008
:1012100070E00E941B2BC60140E050E060E070E0EF
:101220000E941B2BC60140E050E060E070E00E948D
:101230001B2B4091F8025091F9026091FA027091D3
:10124000FB02C6010E941B2B4091CD015091CE01A3
:101250006091CF017091D001C6010E941B2B40917B
:10126000C7025091C8026091C9027091CA02C601BA
:101270000E941B2B40912F0350913003609131034A
:1012800070913203C6010E941B2BF60101900020D1
:10129000E9F731978AE090E091838083C6010E944C
:1012A000A91FC05CDF4F0FB6F894DEBF0FBECDBFE5
:1012B000CF91DF911F910F91FF90EF90DF90CF9032
:1012C00008950F931F93DF93CF93CDB7DEB7C0542C
:1012D000D0400FB6F894DEBF0FBECDBF19828E018D
:1012E0000F5F1F4FC80163E070E00E94EF2A40913A
:1012F0001D0350E060E070E0C8010E94BC2AC801F4
:1013000040E050E060E070E00E94BC2AC80140E08C
:1013100050E060E070E00E94BC2AC80140E050E06C
:1013200060E070E00E94BC2AC80140E050E060E04C
:1013300070E00E94BC2AC80140E050E060E070E02C
:101340000E94BC2AC80140E050E060E070E00E94CA
:10135000BC2A4091E9025091EA026091EB0270913F
:10136000EC02C8010E94BC2A4091ED025091EE02AD
:101370006091EF027091F002C8010E94BC2A409176
:101380001C0350E060E070E0C8010E94BC2AC80164
:1013900040E050E060E070E00E94BC2AC80140E0FC
:1013A00050E060E070E00E94BC2AC80140E050E0DC
:1013B00060E070E00E94BC2A4091350350E060E09C
:1013C00070E0C8010E94BC2AC80140E050E060E023
:1013D00070E00E94BC2AF80101900020E9F73197E3
:1013E0008AE090E091838083C8010E94A91FC05CBD
:1013F000DF4F0FB6F894DEBF0FBECDBFCF91DF91A8
:101400001F910F910895BF92CF92DF92EF92FF92BA
:101410000F931F93CF93DF93EC018B01BB24B39405
:10142000B092F7024F5F5F4F81F16EE070E080E0B5
:1014300090E00E94E3246B017C016DE070E080E0AD
:1014400090E00E94E324CA36D10509F4A3C0CB364C
:10145000D1052CF1C438D10509F44FC1C538D105E7
:101460000CF057C0CF36D10509F4B4C0C338D1054C
:1014700009F41FC1CB36D10541F40E944F251092CB
:10148000240310922303B0923703DF91CF911F9171
:101490000F91FF90EF90DF90CF90BF900895C630EE
:1014A000D10509F40FC1C730D1050CF041C0C430DB
:1014B000D10509F498C0C530D1050CF0DFC02297E2
:1014C00021F7F8012085318542855385DA01C9016C
:1014D000880F991FAA1FBB1F880F991FAA1FBB1F28
:1014E000820F931FA41FB51F9B01280F391FCB012B
:1014F000845D9E4F821793073CF0CB018C52914044
:10150000821793070CF4C90190935B0280935A02EF
:10151000BCCFCA3CD10509F446C0CB3CD1050CF088
:10152000F6C0C93CD10509F0B0CF0E946109ADCF2A
:10153000C636D105D9F1C736D1050CF0F5C02797CD
:1015400009F0A3CFF8012481358146815781DA0162
:10155000C901880F991FAA1FBB1F880F991FAA1FB7
:10156000BB1F820F931FA41FB51F9601280F391FA1
:10157000C601845D9E4F821793073CF0C6018C52D2
:101580009140821793070CF4C90190935D028093F8
:101590005C027BCF0E94AC2610922403109223039E
:1015A000B092370372CF0E9465086FCF80E091E060
:1015B0000E94A91F82E080936002B0921C030E94E7
:1015C000C4061092240310922303B09237031092A2
:1015D000F7025BCFB092C60210922403109223034D
:1015E000B092370352CF109260028EE794E090934E
:1015F00059028093580290935F0280935E0282E0CA
:101600006EE774E00E94291DB0921D036091E30211
:101610007091E4028091E5029091E60220E030E0D2
:1016200044E353E40E9404377B018C016093F80289
:101630007093F9028093FA029093FB0220E030E06D
:1016400040E050E00E94CB37882384F4C801B70102
:1016500020E030E044EB53E40E9405376093F80249
:101660007093F9028093FA029093FB021092240384
:101670001092230381E08093370307CF83E08093A8
:10168000600288EE93E09093590280935802909301
:101690005F0280935E0282E068EE73E00E94291D83
:1016A00010921D031092240310922303B09237036B
:1016B000ECCEB09235031092240310922303B09223
:1016C0003703E3CEF801648175818681978197FDA8
:1016D00070C0660F771F881F991F660F771F881FBE
:1016E000991F660F771F881F991FCB0182589B4F48
:1016F00090935F0280935E02C8CE469810923503A5
:101700001092240310922303B0923703BECECB3C39
:10171000D10539F0CE3CD10509F0B7CE0E94D726CD
:10172000B4CE0E94C607B1CEC736D10531F1C93655
:10173000D10509F0AACEF80164817581868197816F
:1017400020853185428553850E945C26F80184817D
:101750009581A681B7818D309105A105B10511F163
:101760000E97A105B10509F081CFF801808591851B
:1017700090935D0280935C0279CF84E191E00E94B6
:10178000A91F1092600210921C038EE794E09093C0
:101790005F0280935E021092240310922303B092A2
:1017A000370373CE8085918590935B0280935A02B4
:1017B0005DCF60E070E080E090E08BCFEF92FF9231
:1017C0000F931F930E94A91C569A579A3C9A8BE23A
:1017D00090E066E00E94F91C8BE290E067E00E94D6
:1017E000F91C88E290E064E00E94F91C0E94DA1C77
:1017F0006DE070E080E090E00E94E324162F072F58
:101800006EE070E080E090E00E94E324F62EE72E88
:1018100080E0612F702F0E94291D81E06F2D7E2DA9
:101820000E94291D82E068EE73E00E94291D10933A
:101830005A0200935B021093540200935502F092F7
:101840005C02E0925D02F0925602E092570288EE4E
:1018500093E090935F0280935E029093590280938D
:1018600058021F910F91FF90EF900895982F029BBF
:1018700018C01092310281E080933C03992391F0CB
:1018800080913C03882369F0A89580912D038823DB
:10189000B9F310922D030E94212A80913C038823E2
:1018A00099F7089508950F931F938BE291E00E949A
:1018B000A91F81E080933C0310923F0310924003E4
:1018C000109241031092420380913C03882369F0F7
:1018D000A89580912D038823B9F30E94212A1092A4
:1018E0002D0380913C03882399F71092310281E007
:1018F00080933C0380913C038823F1F0A89580916C
:101900002D038823B9F30E94212A80913F039091EF
:101910004003A0914103B09142030196A11DB11D66
:1019200080933F0390934003A0934103B0934203FD
:1019300080913C03882311F78DB79EB708970FB6A7
:10194000F8949EBF0FBE8DBFEDB7FEB7319602E68D
:1019500012E0ADB7BEB712961C930E9311978FE4A9
:1019600091E09383828380913F0390914003A09103
:101970004103B091420384839583A683B7830E9479
:1019800052368DB79EB708960FB6F8949EBF0FBE1D
:101990008DBFC8010E94A91F20913F0330914003D1
:1019A000409141035091420367E170E080E090E094
:1019B0000E945C260E94AC261F910F910895EF9221
:1019C000FF920F931F93DF93CF9300D0CDB7DEB775
:1019D000CE01019660E00E94A403882371F160911A
:1019E000C7027091C8028091C9029091CA0226E68E
:1019F00036E646E65FE30E944A397B018C01898125
:101A00009A810E9481022AE939E949EF50E40E9453
:101A10004A392DEC3CEC4CEC5DE30E944A399B01C9
:101A2000AC01C801B7010E9405376093C7027093EB
:101A3000C8028093C9029093CA020F900F90CF9171
:101A4000DF911F910F91FF90EF9008952F923F9299
:101A50004F925F926F927F928F929F92AF92BF92BE
:101A6000CF92DF92EF92FF920F931F93DF93CF936A
:101A700000D000D0CDB7DEB78091C602882309F42C
:101A8000A89583E09AE00E9476228091E7029091E7
:101A9000E802892B19F18091430390914403892B2B
:101AA00009F497C080912603813009F4C8C00F90D3
:101AB0000F900F900F90CF91DF911F910F91FF909A
:101AC000EF90DF90CF90BF90AF909F908F907F90DE
:101AD0006F905F904F903F902F90089580912603D4
:101AE000813009F4CCC080912703813009F438C2D9
:101AF00080912A03813009F476C08091600282309F
:101B000009F431C31092360380912B03813009F41C
:101B10002CC280912C03813051F610922C0365E188
:101B200070E080E090E00E94D0243B014C01E8B4DA
:101B3000A7B466E170E080E090E00E94E3241B011E
:101B40002C01FF240027F7FC0095102FC801B701D6
:101B50000E946A389B01AC01C401B3010E944A395A
:101B600069837A838B839C8360E070E080E89FE3E5
:101B7000A40193010E9404377B018C01BB24CC2477
:101B8000DD24C601B5010E9468389B01AC01C80183
:101B9000B7010E944A397B018C01C201B1010E9448
:101BA0006A389B01AC01C801B7010E944A3920E0A4
:101BB00030E048EC52E40E94CF379B01AC016981D0
:101BC0007A818B819C810E9405370E943C3868BDD8
:101BD0006ECF81E791E00E94A91F8091260381309A
:101BE00009F065CF2CC090916002933009F48ACF40
:101BF00010922A038091F702813009F4BAC2923020
:101C000009F4DAC28091F5029091F6020196909360
:101C1000F6028093F5028436910509F402C38855D3
:101C2000924009F06ACF89E592E09093F6028093A2
:101C3000F50282E0809360020E94C4065ECF0E949B
:101C400071160E942F134090430350904403089450
:101C5000411C511C5092440340924303C20162E371
:101C600070E00E949B3D892B09F4EFC2FCED4F16FA
:101C7000F5E05F0609F447C31092260318CF0E94CF
:101C80000A2C3B014C010E94FD2B2091F102309166
:101C9000F2024091F3025091F4027B018C01E21AAE
:101CA000F30A040B150BE092ED02F092EE020093A2
:101CB000EF021093F0026093F1027093F2028093AE
:101CC000F3029093F4020E94DF0C80917C008E7FDF
:101CD00080937C0080917A00806480937A00E09009
:101CE0002803F09029036091CB027091CC0280917F
:101CF000CD029091CE0226E636E646E65FE30E94EC
:101D00004A395B016C0100E010E0C801B7010E9494
:101D1000683820E030E44CE955E40E944A3920E07C
:101D200030E040E85AE30E944A3920E030E44CE1D8
:101D300055E40E9404372DEC3CEC4CEC5DE30E9432
:101D40004A392DEC3CEC4CEC5CE30E944A399B0197
:101D5000AC01C601B5010E9405376093CB027093B8
:101D6000CC028093CD029093CE02E0903303F090AA
:101D7000340360912F03709130038091310390916F
:101D8000320326E636E646E65FE30E944A395B0107
:101D90006C0100E010E0C801B7010E94683820E043
:101DA00030E04AEF53E40E944A3920E030E040E856
:101DB0005AE30E944A3920E030E040E050E40E94BB
:101DC00005372DEC3CEC4CEC5DE30E944A399B015D
:101DD000AC01C601B5010E94053760932F037093D3
:101DE000300380933103909332030E94B9160E940E
:101DF00071160E94AE156091C9017091CA0180915F
:101E0000CB019091CC010E940314E0907103F090FB
:101E100072030091730310917403E092DB02F0925D
:101E2000DC020093DD021093DE02A0907503B090F7
:101E30007603C0907703D0907803A092DF02B0922F
:101E4000E002C092E102D092E20280917903909187
:101E50007A03A0917B03B0917C038093E30290937B
:101E6000E402A093E502B093E602109226034090AC
:101E700043035090440328EC421651040CF4A1C1D2
:101E80002091CF023091D0024091D1025091D202E4
:101E9000C801B7010E9404376093DB027093DC0233
:101EA0008093DD029093DE022091D3023091D40220
:101EB0004091D5025091D602C601B5010E94043767
:101EC0006093DF027093E0028093E1029093E2025C
:101ED00088EC4816510409F4E3C12091CF023091F7
:101EE000D0024091D1025091D2026091DB027091F8
:101EF000DC028091DD029091DE020E940437609343
:101F0000DB027093DC028093DD029093DE0220916D
:101F1000D3023091D4024091D5025091D602609103
:101F2000DF027091E0028091E1029091E2020E9452
:101F300004376093DF027093E0028093E102909394
:101F4000E2020E940A2C66197709880999096093B0
:101F5000E9027093EA028093EB029093EC02C3CD06
:101F60000E94710610922703C3CD10922B0362E1E9
:101F700070E080E090E00E94D0247B018C016091B1
:101F8000540270915502882777FD8095982F0E9402
:101F90006A389B01AC01C801B7010E944A395B0154
:101FA0006C0160E070E080E89FE3A80197010E9467
:101FB00004377B018C0160915A0270915B02882783
:101FC00077FD8095982F0E946A389B01AC01C8016B
:101FD000B7010E944A399B01AC01C601B5010E94BC
:101FE00005370E9437389B01AC017093550260930E
:101FF000540280E0B9010E94291D63E170E080E095
:1020000090E00E94D0247B018C0160915602709177
:102010005702882777FD8095982F0E946A389B0188
:10202000AC01C801B7010E944A395B016C0160E054
:1020300070E080E89FE3A80197010E9404377B01CC
:102040008C0160915C0270915D02882777FD80951C
:10205000982F0E946A389B01AC01C801B7010E9409
:102060004A399B01AC01C601B5010E9405370E94A7
:1020700037389B01AC01709357026093560281E0A0
:10208000B9010E94291D80916002833009F441CD7D
:1020900064E170E080E090E00E94D0243B014C01BC
:1020A00068E170E080E090E00E94D024E0902F038F
:1020B000F09030030091310310913203A801970191
:1020C0000E94CB37882384F4C801B70120E030E0B8
:1020D00040E050E00E94CB37882331F08EE794E057
:1020E00090935F0280935E02609158027091590252
:1020F000882777FD8095982F0E946A389B01AC0154
:10210000C401B3010E944A395B016C0160E070E0D8
:1021100080E89FE3A40193010E9404377B018C01B6
:1021200060915E0270915F02882777FD8095982FFD
:102130000E946A389B01AC01C801B7010E944A396C
:102140009B01AC01C601B5010E9405370E943738DA
:102150009B01AC01709359026093580282E0B9016F
:102160000E94291DD6CC0E944C0781E08093360343
:10217000CBCC1092F7021092F6021092F502923038
:1021800009F0C0CC80911C03882369F78EE794E0A6
:10219000909359028093580290935F0280935E025D
:1021A00082E06EE774E00E94291D10926002809127
:1021B000F5029091F6022FCD8091F5029091F602F2
:1021C0002ACD2091CF023091D0024091D10250917E
:1021D000D202C801B7010E9405376093CF02709305
:1021E000D0028093D1029093D2022091D3023091F9
:1021F000D4024091D5025091D602C601B5010E9489
:1022000005376093D3027093D4028093D5029093E4
:10221000D602C201019690934403809343032C019C
:1022200057CE88EE93E09093590280935802909392
:102230005F0280935E0282E068EE73E00E94291DD7
:102240008091F5029091F602EACC00D000D000D047
:10225000EDB7FEB7319602E612E0ADB7BEB7129603
:102260001C930E93119782E991E093838283C201BC
:1022700062E370E00E949B3D758364830E94523646
:10228000EDB7FEB736960FB6F894FEBF0FBEEDBFA2
:10229000C8010E94A91F4090430350904403E6CC1C
:1022A0006091CF027091D0028091D1029091D202C0
:1022B00020E030E048E453E40E94CF376093CF023F
:1022C0007093D0028093D1029093D2026091D30296
:1022D0007091D4028091D5029091D60220E030E036
:1022E00048E453E40E94CF376093D3027093D40242
:1022F0008093D5029093D60289EC90E090934403AA
:10230000809343031ECE8DE991E00E94A91F0E9495
:102310007E131092E8021092E7021092440310928A
:102320004303AACCCF92DF92EF92FF920F931F93B9
:10233000F89485B7806885BF85B7806885BF14BE6F
:1023400028E288E190E00FB6F894A89580936000A9
:102350000FBE2093600081B1806C81B982B18F7310
:1023600082B9209A2898219829983E9A46980A98E6
:10237000129A0B98139A809168008260809368008B
:1023800080916C00826080936C0060E072EC81E070
:1023900090E00E94922086EB91E00E94A91F789421
:1023A00061E040E951E0169A20E030E0CA0101976F
:1023B000F1F72F5F3F4F83E128383807B9F71698B8
:1023C00020E030E0CA010197F1F72F5F3F4F83E132
:1023D00028383807B9F7615030F7169A0E94042D53
:1023E0000E94A71A0E94792799EF97BD18BC14BCC8
:1023F00015BC16BC84B5826084BD85B5836085BD7F
:1024000086E080936E009093B3001092B00010921B
:10241000B1001092B20083E0D82ED092B10080912A
:10242000B00082608093B00002E0C02EC0927000C5
:102430000E946C020898099810927C0080917C00A0
:10244000806480937C0010927A0080917A0087608B
:1024500080937A0080917A00806880937A008091DE
:102460007A00886080937A000E94A91C569A579A35
:102470003C9A8BE290E066E00E94F91C8BE290E0CF
:1024800067E00E94F91C88E290E064E00E94F91C79
:102490000E94DA1C6DE070E080E090E00E94E3248E
:1024A000162F072F6EE070E080E090E00E94E3249A
:1024B000F62EE72E80E0612F702F0E94291D81E00B
:1024C0006F2D7E2D0E94291D82E068EE73E00E9430
:1024D000291D10935A0200935B021093540200933B
:1024E0005502F0925C02E0925D02F0925602E09298
:1024F000570288EE93E090935F0280935E02909380
:102500005902809358020E94BF2BD0926002109211
:10251000240310922303C09237031F910F91FF9061
:10252000EF90DF90CF9008950E9492110E94260DA7
:10253000FDCFEF92FF920F931F93FC018091450313
:1025400090914603A0914703B09148038083918303
:10255000A283B3838091490390914A03A0914B03D6
:10256000B0914C03FB0180839183A283B38380915C
:102570004D0390914E03A0914F03B0915003FA0187
:1025800080839183A283B3838091510390915203FE
:10259000A0915303B0915403F90180839183A283E6
:1025A000B3838091550390915603A0915703B09146
:1025B0005803F80180839183A283B38380915903E8
:1025C00090915A03A0915B03B0915C03F701808363
:1025D0009183A283B38381E01F910F91FF90EF90CD
:1025E0000895CF92DF92EF92FF920F931F938C0189
:1025F0007B016A016091AD037091AE03882777FD7E
:102600008095982F0E946A38F801608371838283D5
:1026100093836091AF037091B003882777FD809515
:10262000982F0E946A38F7016083718382839383B5
:102630006091B1037091B203882777FD8095982F40
:102640000E946A38F601608371838283938380E0FD
:102650001F910F91FF90EF90DF90CF900895209100
:10266000AD033091AE03809105029091060282176E
:10267000930724F430930602209305028091070209
:10268000909108022817390724F430930802209308
:1026900007022091AF033091B0038091090290911D
:1026A0000A028217930724F430930A022093090246
:1026B00080910B0290910C022817390724F4309373
:1026C0000C0220930B022091B1033091B203809150
:1026D0000D0290910E028217930724F430930E029C
:1026E00020930D0280910F02909110022817390754
:1026F00024F43093100220930F0208950F931F9338
:10270000DF93CF93CDB7DEB7E2970FB6F894DEBF75
:102710000FBECDBF209107023091080280910502C3
:1027200090910602280F391F37FD64C0C9019595A5
:102730008795BC018093F7019093F80120910B02DB
:1027400030910C028091090290910A02280F391FE2
:1027500037FD56C0C90195958795AC018093F90165
:102760009093FA0120910F023091100280910D0296
:1027700090910E02280F391F37FD3FC035952795E0
:102780002093FB013093FC018DB79EB70A970FB6DB
:10279000F8949EBF0FBE8DBFEDB7FEB731968E0188
:1027A0000F5F1F4FADB7BEB712961C930E931197D4
:1027B00082ED91E09383828364837583468357839C
:1027C000208731870E9452368DB79EB70A960FB682
:1027D000F8949EBF0FBE8DBFC8010E94A91FE2964C
:1027E0000FB6F894DEBF0FBECDBFCF91DF911F9122
:1027F0000F9108952F5F3F4F99CF2F5F3F4FBECF6F
:102800002F5F3F4FA7CF2F923F924F925F926F92D1
:102810007F928F929F92AF92BF92CF92DF92EF9270
:10282000FF920F931F93DF93CF93CDB7DEB76497DB
:102830000FB6F894DEBF0FBECDBF6D877E878F8742
:10284000988B8091490390914A03A0914B03B091DA
:102850004C0389879A87AB87BC87209145033091C9
:1028600046034091470350914803CA01B9010E94B1
:102870004A397B018C0169857A858B859C859B0112
:10288000AC010E944A39A80197010E9405370E94B5
:10289000B1396D837E838F8398872FE632E143E8D9
:1028A0005AE30E94CB37882344F48FE692E1A3E8F1
:1028B000BAE38D839E83AF83B887A0904D03B09019
:1028C0004E03C0904F03D0905003C601B501A6013E
:1028D00095010E944A399B01AC01C801B7010E94D1
:1028E00005370E94B13969837A838B839C832FE6F5
:1028F00032E143E85AE30E94CB37882344F48FE661
:1029000092E1A3E8BAE389839A83AB83BC836091A5
:10291000C3037091C403882777FD8095982F0E9488
:102920006A387B018C016091BF037091C0038827D6
:1029300077FD8095982F0E946A389B01AC01C801F1
:10294000B7010E9478377B018C0120E030E040E045
:1029500050E00E94CB3788230CF4F5C0C801B701C2
:102960002BED3FE049EC50E40E943F39181654F437
:10297000C801B7012BED3FE049EC50E40E94043759
:102980007B018C01C801B70121EE3EE245E652E42D
:102990000E944A396093790370937A0380937B0392
:1029A00090937C0320900102309002024090030239
:1029B000509004026090FD017090FE018090FF0134
:1029C00090900002C601B5012D813E814F8158854E
:1029D0000E9478377B018C0160E070E080E89FE323
:1029E000A40193010E940437698B7A8B8B8B9C8B9B
:1029F0006091B7037091B8038091B9039091BA03C5
:102A00009058A20191010E944A392D853E854F853B
:102A100058890E944A39209175033091760340917C
:102A20007703509178030E940537A40193010E9417
:102A30004A395B016C0117FB109517F91095C80115
:102A4000B70121EE3EE245E652E40E944A39298967
:102A50003A894B895C890E944A399B01AC01C601C5
:102A6000B5010E94053760937503709376038093D8
:102A700077039093780369857A858B859C85298176
:102A80003A814B815C810E9478375B016C01209117
:102A9000BB033091BC034091BD035091BE0350581D
:102AA000C201B1010E944A392D853E854F85588962
:102AB0000E944A392091710330917203409173034F
:102AC000509174030E9405379B01AC01C401B3010E
:102AD0000E944A397B018C01C601B50121EE3EE21C
:102AE00045E652E40E944A399B01AC0169897A8922
:102AF0008B899C890E944A399B01AC01C801B701AE
:102B00000E9405376093710370937203809373037F
:102B10009093740364960FB6F894DEBF0FBECDBFDA
:102B2000CF91DF911F910F91FF90EF90DF90CF90A9
:102B3000BF90AF909F908F907F906F905F904F90DD
:102B40003F902F900895C801B7012BED3FE049EC6D
:102B500050E40E9405377B018C0100CFEF92FF9279
:102B60000F931F93E0905103F09052030091530391
:102B70001091540364E070E080E090E00E94D02463
:102B80009B01AC01C801B7010E9404376093B303F5
:102B90007093B4038093B5039093B603E09055030C
:102BA000F0905603009157031091580365E070E0D0
:102BB00080E090E00E94D0249B01AC01C801B701E5
:102BC0000E9404376093B7037093B8038093B903EE
:102BD0009093BA03E0905903F0905A0300915B037D
:102BE00010915C0366E070E080E090E00E94D024E9
:102BF0009B01AC01C801B7010E9404376093BB037D
:102C00007093BC038093BD039093BE030091AD030A
:102C10001091AE0367E070E080E090E00E94E32452
:102C2000061B170B1093C0030093BF030091AF0363
:102C30001091B00368E070E080E090E00E94E3242F
:102C4000061B170B1093C2030093C1030091B1033D
:102C50001091B20369E070E080E090E00E94E3240C
:102C6000061B170B1093C4030093C3031F910F910E
:102C7000FF90EF900895DF93CF930F92CDB7DEB71B
:102C8000198288E669E1AE014F5F5F4F0E94FC3018
:102C900089810F90CF91DF910895EF92FF920F936A
:102CA0001F93982F8B01F42EE22E88E6692FA8013E
:102CB0000E94FC3021E030E002C0220F331FFA9462
:102CC000E2F72150F801808190E002C09595879548
:102CD000EA94E2F7282320831F910F91FF90EF9051
:102CE0000895DF93CF93CDB7DEB728970FB6F8944A
:102CF000DEBF0FBECDBF19828CE062E0AE014F5F38
:102D00005F4F0E94FC30898180FD09C028960FB674
:102D1000F894DEBF0FBECDBFCF91DF9108958CE058
:102D200063E047E09E012E5F3F4F0E941931888586
:102D300083FDECCF9B8180E02A8130E0822B932BB6
:102D40009093AE038093AD039D8180E02C8130E0B1
:102D5000822B932B9093B0038093AF039F8180E0ED
:102D60002E8130E0822B932B9093B2038093B1039A
:102D7000CDCF2F923F924F925F926F927F928F9220
:102D80009F92AF92BF92CF92DF92EF92FF920F93FA
:102D90001F93DF93CF93CDB7DEB72E970FB6F8947E
:102DA000DEBF0FBECDBF88E66BE34EE09E012F5F16
:102DB0003F4F0E941931998180E02A81C22EDD2483
:102DC000C82AD92AD0925E03C0925D039B8180E01D
:102DD0002C81A22EBB24A82AB92AB0926003A0920B
:102DE0005F039D8180E02E81822E9924882A992A72
:102DF00090926203809261033F8120E0688570E0D9
:102E0000622B732B7093640360936303398520E016
:102E10004A85642E7724622A732A70926603609230
:102E200065033B8520E04C85442E5524422A532AD5
:102E300050926803409267033D8520E04E85242E22
:102E40003324222A332A30926A0320926903882786
:102E500077FD8095982F0E946A3820E030E04AEA9A
:102E600053E40E94CF3728EB3EE142E152E40E9456
:102E7000053760936B0370936C0380936D0390939D
:102E80006E0380916F03833009F4C2C0823009F46D
:102E9000A7C0813009F0D4C00F2EF0E0EF2EF0E093
:102EA000FF2EF0E00F2FF6E41F2FF02DB60188273C
:102EB00077FD8095982F0E946A38A80197010E949B
:102EC000CF376093450370934603809347039093F5
:102ED0004803B501882777FD8095982F0E946A38AE
:102EE000A80197010E94CF376093490370934A036A
:102EF00080934B0390934C03B401882777FD809512
:102F0000982F0E946A38A80197010E94CF376093DA
:102F10004D0370934E0380934F0390935003809121
:102F20007003882309F067C00F2EF0E0EF2EF0E069
:102F3000FF2EF3E00F2FF3E41F2FF02DB3018827AE
:102F400077FD8095982F0E946A38A80197010E940A
:102F5000CF37609351037093520380935303909340
:102F60005403B201882777FD8095982F0E946A3814
:102F7000A80197010E94CF376093550370935603C1
:102F80008093570390935803B101882777FD80956C
:102F9000982F0E946A38A80197010E94CF3760934A
:102FA000590370935A0380935B0390935C032E96AE
:102FB0000FB6F894DEBF0FBECDBFCF91DF911F914A
:102FC0000F91FF90EF90DF90CF90BF90AF909F90C8
:102FD0008F907F906F905F904F903F902F900895CB
:102FE0000F2EF0E0EF2EF0E0FF2EF0E80F2FF5E4CB
:102FF0001F2FF02D5BCF8130B1F40F2EF0E0EF2EBC
:10300000F0E0FF2EF3E80F2FF2E41F2FF02D96CF04
:103010000F2EF0E0EF2EF0E0FF2EF0E00F2FF5E4A2
:103020001F2FF02D43CF8230C1F40F2EF3E3EF2E8C
:10303000F3E3FF2EF3E00F2FF2E41F2FF02D7ECFEE
:103040008823C1F40F2EF0E0EF2EF0E0FF2EF0E821
:103050000F2FF6E41F2FF02D29CF8330B1F40F2E60
:10306000F3E3EF2EF3E3FF2EF3E80F2FF1E41F2F2E
:10307000F02D64CF0F2EF0E0EF2EF0E0FF2EF0E801
:103080000F2FFFE31F2FF02D11CF0F2EF0E0EF2EAB
:10309000F0E0FF2EF0E80F2FFFE31F2FF02D4ECFB3
:1030A0000F931F93CF93DF9300E010E0C0E9D1E0CE
:1030B0000E94B91620E030E0CE010197F1F72F5FB2
:1030C0003F4F83E128383807B9F70F5F1F4F083C9F
:1030D000110571F7DF91CF911F910F91089588E647
:1030E0006BE641E00E949730089588E66BE640E089
:1030F0000E9497300895EF92FF920F931F93DF93F2
:10310000CF9300D00F92CDB7DEB77C018CE06AE0A0
:1031100040E00E94973000E41CE9C8010197F1F7F4
:103120008CE06AE04FE00E949730C8010197F1F708
:103130008CE060E143E09E012F5F3F4F0E94193118
:10314000698170E060587040882777FD8095982FDE
:103150000E946A3820E030E040E85BE30E944A3990
:1031600020E030E040E85FE30E940537F70160832C
:103170007183828393836A8170E0605870408827EE
:1031800077FD8095982F0E946A3820E030E040E873
:103190005BE30E944A3920E030E040E85FE30E94B0
:1031A0000537F70164837583868397836B8170E0AD
:1031B00060587040882777FD8095982F0E946A3864
:1031C00020E030E040E85BE30E944A3920E030E054
:1031D00040E85FE30E940537F701608771878287C7
:1031E00093878CE06AE040E00E949730C801019725
:1031F000F1F74091DD014295407F8091DE01482B3F
:103200008CE06AE00E949730C8010197F1F70F90B7
:103210000F900F90CF91DF911F910F91FF90EF9042
:103220000895482F88E669E10E9497300895DF935A
:10323000CF930F92CDB7DEB7198288E66BE1AE016E
:103240004F5F5F4F0E94FC30898190E09595879594
:10325000959587959595879583700F90CF91DF9180
:103260000895DF93CF930F92CDB7DEB7198288E62A
:103270006AE1AE014F5F5F4F0E94FC308981877029
:103280000F90CF91DF910895EF92FF920F931F93CC
:10329000DF93CF930F92CDB7DEB7F82EE62E042F33
:1032A000122F198288E66F2DAE014F5F5F4F0E948B
:1032B000FC3021E030E002C0220F331F0A95E2F714
:1032C0002150622F70E0012E02C0660F771F0A9412
:1032D000E2F7898190E0012E02C0959587950A94C6
:1032E000E2F7422F4823609546232E21822F90E05B
:1032F00002C0880F991F1A95E2F7482B498388E688
:103300006F2D0E9497300F90CF91DF911F910F91F9
:10331000FF90EF900895DF93CF930F92CDB7DEB774
:10332000198288E66BE1AE014F5F5F4F0E94FC306F
:10333000898190E095958795959587959595879541
:1033400083700F90CF91DF9108951F93DF93CF93F8
:103350000F92CDB7DEB7182F198288E66AE1AE0169
:103360004F5F5F4F0E94FC301770198388E66AE157
:10337000412F0E9497300F90CF91DF911F910895B8
:103380001F93DF93CF930F92CDB7DEB7182F19821B
:1033900088E66CE1AE014F5F5F4F0E94FC30137016
:1033A000110F110F110F898190E0959587959595D3
:1033B0008795959587958370182B198388E66CE11E
:1033C000412F0E9497300F90CF91DF911F91089568
:1033D0001F93DF93CF930F92CDB7DEB7182F1982CB
:1033E00088E66BE1AE014F5F5F4F0E94FC301370C7
:1033F000110F110F110F898190E095958795959583
:103400008795959587958370182B198388E66BE1CE
:10341000412F0E9497300F90CF91DF911F91089517
:103420000F931F93DF93CF930F92CDB7DEB788E64C
:1034300069E140E00E949730198288E66AE18E01D6
:103440000F5F1F4FA8010E94FC30198288E66AE1D5
:1034500040E00E949730198288E66BE1A8010E9443
:10346000FC30498150E055954795559547955595C0
:10347000479543704860498388E66BE10E94973026
:10348000198288E66CE1A8010E94FC30498150E075
:10349000559547955595479555954795437049835B
:1034A00088E66CE10E949730198288E669E1A801FC
:1034B0000E94FC30198288E66AE1A8010E94FC3073
:1034C000198288E66BE1A8010E94FC30898190E0B6
:1034D0009595879595958795959587958370809314
:1034E0007003198288E66BE1A8010E94FC30898193
:1034F00090E0959587959595879595958795837097
:10350000898380936F0388E66BE640E00E949730E2
:1035100088E66BE140E10E94973088E66CE140E18B
:103520000E94973088E667E342E20E94973088E67F
:1035300068E341E00E94973088E66BE641E00E9434
:1035400097300F90CF91DF911F910F9108958F9237
:103550009F92AF92BF92CF92DF92EF92FF920F9322
:103560001F93DF93CF9300D000D0CDB7DEB7198281
:1035700088E665E77E010894E11CF11CA7010E9422
:10358000FC308981813791F080E00F900F900F908F
:103590000F90CF91DF911F910F91FF90EF90DF90EF
:1035A000CF90BF90AF909F908F9008950E94101A77
:1035B00082E0C82ED12CCC0EDD1E03E0A02EB12C53
:1035C000AC0EBD1E14E0812E912C8C0E9D1E00E9C8
:1035D00011E088E667E342E20E94973088E668E3FC
:1035E00041E00E94973088E667E3A6010E94FC3024
:1035F00088E664E2A5010E94FC3088E668E3A40145
:103600000E94FC30198288E660E0A7010E94FC302D
:103610008A81823279F140E020E030E0C8010197F0
:10362000F1F72F5F3F4F8FE120343807B9F744237C
:1036300081F28CE060E0A7010E94FC30898188342F
:1036400009F0A2CF20E030E040E951E0CA01019743
:10365000F1F72F5F3F4F83E0283E3807B9F78DE73A
:1036600093E00E947B1888E665E7A7010E94FC3082
:1036700081E08BCF8B81882371F640E08C81813093
:1036800059F641E0C9CF0F931F93FC01448F558F2A
:10369000668F778F008F118F228F338F1F910F913D
:1036A0000895CF92DF92EF92FF920F931F93FC0148
:1036B0004487558766877787008B118B228B338BE6
:1036C000C48AD58AE68AF78A1F910F91FF90EF90FE
:1036D000DF90CF9008956F927F928F929F92AF92DA
:1036E000BF92CF92DF92EF92FF920F931F93CF93EF
:1036F000DF93EC019A01AB01688D798D8A8D9B8DEA
:103700000E9404373B014C0120E030E040E050E0F3
:103710000E943F3988230CF4F8C060E070E084EB2D
:1037200093E4A40193010E9404377B018C0164019E
:103730005301C601B501A80197010E943F3918162F
:103740000CF0D2C0E882F9820A831B830F2EF0E0CE
:103750006F2EF0E07F2EF0E88F2EFFEB9F2EF02DE6
:10376000A80197016C8D7D8D8E8D9F8D0E944A39A9
:10377000A40193010E944A392C813D814E815F81D1
:103780000E9405377B018C016C837D838E839F8330
:1037900020E030E044E353E40E943F39181654F02F
:1037A000C801B70120E030E044E353EC0E94CB377E
:1037B000882344F480E090E0A4E3B3E48C839D8309
:1037C000AE83BF8361E170E080E090E00E94D0248E
:1037D0007B018C01288539854A855B850E944A39A1
:1037E0005B016C0160E070E080E89FE3A801970155
:1037F0000E940437288139814A815B810E944A39BD
:103800002C8D3D8D4E8D5F8D0E94CF379B01AC017D
:10381000C601B5010E9405375B016C016887798795
:103820008A879B876C857D858E859F8528813981D8
:103830004A815B810E944A397B018C0168897989C0
:103840008A899B892C813D814E815F810E944A3902
:103850009B01AC01C801B7010E9405377B018C01B7
:10386000C601B5012C893D894E895F890E944A397C
:103870009B01AC01C801B7010E9405377B018C0197
:1038800020E030E048EC52E40E943F39181654F032
:10389000C801B70120E030E048EC52EC0E94CB3781
:1038A000882354F40F2EF0E0EF2EF0E0FF2EF8EC1A
:1038B0000F2FF2E41F2FF02DC801B701A4019301CF
:1038C0000E944A390E943738CB01DF91CF911F9176
:1038D0000F91FF90EF90DF90CF90BF90AF909F90AF
:1038E0008F907F906F900895A882B982CA82DB8200
:1038F0000F2EF0E06F2EF0E07F2EF0E88F2EFFE32A
:103900009F2EF02DA60195012DCFC401B30120E01B
:1039100030E044EB53E40E9405375B016C01840105
:10392000730107CFCF93DF93FC01848D958DA68D16
:10393000B78D20E2EF0119922A95E9F7408F518F58
:10394000628F738F848F958FA68FB78FDF91CF9102
:10395000089580ED97E09093EA038093E9039093B4
:10396000EC038093EB039093EE038093ED0390932D
:10397000F0038093EF039093F2038093F10390930D
:10398000F4038093F3039093F6038093F5039093ED
:10399000F8038093F7039093FA038093F9039093CD
:1039A000FC038093FB031092FD031092FE03109220
:1039B000FF030895109285001092840080E49CE932
:1039C000909389008093880088EE93E090938B0019
:1039D00080938A0010928000E1E8F0E010828081FC
:1039E0008860808380818260808386E080936F001E
:1039F00008959C018091FD038930F8F4E091FD0366
:103A0000F0E0EE0FFF1FE553FC4F31832083E09180
:103A1000FD03F0E0E152FC4F6083E091FD03F0E034
:103A2000EE0FFF1FE751FC4F118210828091FD03C2
:103A30008F5F8093FD0381E0089580E008959C01ED
:103A4000220F331FC90108959C0136952795C9019E
:103A50000895E82F8091FD03E81748F4F0E0EE0F99
:103A6000FF1FE751FC4F660F771F71836083089536
:103A7000A82F8091FD03A817C0F46623B9F0B0E029
:103A8000FD01EE0FFF1FE553FC4F0190F081E02D8B
:103A9000A152BC4F81E090E00C9002C0880F991FAA
:103AA0000A94E2F72081282B20830895B0E0FD01DD
:103AB000EE0FFF1FE553FC4F0190F081E02DA15266
:103AC000BC4F81E090E00C9002C0880F991F0A94CF
:103AD000E2F7809520812823208308958091FD03BB
:103AE000882309F408958091FD03882381F0E091F3
:103AF000CB03F091CC0381E090E00090DF0302C0A3
:103B0000880F991F0A94E2F72081282B2083809147
:103B1000E9039091EA0390938B0080938A0081E0FF
:103B20008093FE038093FF0308951F920F920FB6B8
:103B30000F920BB60F9211242F938F939F93EF93B5
:103B4000FF938091FD03882361F4FF91EF919F9192
:103B50008F912F910F900BBE0F900FBE0F901F9063
:103B600018958091FD03882381F0E091CB03F091BB
:103B7000CC0381E090E00090DF0302C0880F991F22
:103B80000A94E2F72081282B20838091E903909109
:103B9000EA0390938B0080938A0081E08093FE0378
:103BA0008093FF03D2CF1F920F920FB60F920BB6E6
:103BB0000F9211242F933F934F935F936F937F93B3
:103BC0008F939F93AF93BF93EF93FF938091FF03E6
:103BD0008823A1F18091FE03882309F04BC09091C6
:103BE000FE038091FD039817E0F5E091FE03F0E0FD
:103BF000EE0FFF1FE751FC4F80819181892B09F067
:103C000059C0E091FE03F0E0EE0FFF1FE751FC4FBB
:103C10000190F081E02D309711F4E8EEF3E080910F
:103C2000840090918500E80FF91FF0938B00E093DA
:103C30008A008091FE038F5F8093FE03FF91EF91D6
:103C4000BF91AF919F918F917F916F915F914F91B4
:103C50003F912F910F900BBE0F900FBE0F901F90B2
:103C600018958091FD03882359F51092FE03109258
:103C7000FF03E4CFA091FE03A1508091FD03A8179C
:103C800008F0ADCFB0E0FD01EE0FFF1FE553FC4F94
:103C90000190F081E02DA152BC4F81E090E00C90AA
:103CA00002C0880F991F0A94E2F78095208128238B
:103CB000208395CF8091FE0361E00E94381DA1CF43
:103CC0008091FD03815060E00E94381DCECFAF92FD
:103CD000BF92CF92DF92EF92FF920F931F937B01DF
:103CE0008C01EE0CFF1C001F111FEE0CFF1C001FAF
:103CF000111FEE0CFF1C001F111FEE0CFF1C001FFC
:103D0000111F60E078E689E899E09701A8010E9418
:103D1000AE3D59016A010894A108B108C108D10853
:103D200060E074E284EF90E09701A8010E94AE3D4C
:103D3000F901B90161507040CB01880F991F9B01B7
:103D4000220F331F220F331F220F331F820F931FA7
:103D5000A0E0B0E08A159B05AC05BD0579F18601B0
:103D60007501E81AF90A0A0B1B0BCF01880F991F7E
:103D70009F01220F331F220F331F220F331F820F89
:103D8000931FA0E0B0E08A159B05AC05BD05D1F0FE
:103D9000A6019501281B390B4A0B5B0B2E153F051D
:103DA0004007510708F4BF01CB011F910F91FF900D
:103DB000EF90DF90CF90BF90AF900895EE24FF2456
:103DC0008701D3CF20E030E040E050E0E7CF982FEC
:103DD0008091C00085FFFCCF9093C6000895E091CC
:103DE0008304F0E0E05CFB4F8083809183048034A7
:103DF00018F0109283040895809183048F5F80935C
:103E000083040895982F8091C80085FFFCCF90937C
:103E1000CE000895E0910705F0E0EC53FB4F80835E
:103E200080910705803418F010920705089580915D
:103E300007058F5F809307050895DB012C91FC0136
:103E4000E20FF11D40838C91803410F01C92089594
:103E50008C918F5F8C930895CF93DF93DC01EB01FE
:103E6000FA0198818081981799F08881A80FB11D77
:103E70009C918881803428F01882892FDF91CF911E
:103E8000089588818F5F8883892FDF91CF9108956E
:103E900090E0892FDF91CF9108958091C00087FF36
:103EA000FCCF8091C60008958091C80087FFFCCFA9
:103EB0008091CE000895909180048091810420E04B
:103EC000981321E0822F08959091040580910505B3
:103ED00020E0981321E0822F089590918004809132
:103EE00081049817A9F0E0918004F0E0E050FC4FC5
:103EF000E08180918004803420F0109280048E2F25
:103F00000895809180048F5F809380048E2F0895A0
:103F1000E0E08E2F08959091040580910505981793
:103F2000A9F0E0910405F0E0EC57FB4FE0818091AF
:103F30000405803420F0109204058E2F089580919E
:103F400004058F5F809304058E2F0895E0E08E2F87
:103F50000895FC019081992351F031968091C00021
:103F600085FFFCCF9093C60090819923B1F7089507
:103F7000FC019081992351F031968091C80085FF12
:103F8000FCCF9093CE0090819923B1F708951F92B2
:103F90000F920FB60F920BB60F9211248F93EF93DF
:103FA000FF938091C600E0918104F0E0E050FC4F67
:103FB000808380918104803460F010928104FF91AD
:103FC000EF918F910F900BBE0F900FBE0F901F902F
:103FD0001895809181048F5F80938104F0CF1F92A8
:103FE0000F920FB60F920BB60F9211248F93EF938F
:103FF000FF938091CE00E0910505F0E0EC57FB4F78
:10400000808380910505803460F010920505FF9152
:10401000EF918F910F900BBE0F900FBE0F901F90DE
:104020001895809105058F5F80930505F0CF1F924D
:104030000F920FB60F920BB60F9211248F939F938E
:10404000EF93FF939091820480918304981711F16C
:10405000E0918204F0E0E05CFB4FE081809182041B
:10406000803488F010928204EE23A1F0E093C60021
:10407000FF91EF919F918F910F900BBE0F900FBE0C
:104080000F901F901895809182048F5F8093820417
:10409000EE2361F78091C1008F7D8093C100E8CF4E
:1040A000DC018C91882381F0E0910705F0E0EC536E
:1040B000FB4F808380910705803460F010920705E4
:1040C00011968C91882381F78091C900806280933A
:1040D000C9000895809107058F5F809307051196A9
:1040E000F0CFDC018C91882381F0E0918304F0E033
:1040F000E05CFB4F808380918304803460F01092F9
:10410000830411968C91882381F78091C10080628D
:104110008093C1000895809183048F5F809383040E
:104120001196F0CFAF92BF92CF92DF92EF92FF92B3
:104130000F931F937B018C01EE0CFF1C001F111FBE
:10414000EE0CFF1C001F111FEE0CFF1C001F111FA7
:10415000EE0CFF1C001F111F60E078E689E899E073
:104160009701A8010E94AE3D59016A010894A10877
:10417000B108C108D10860E074E284EF90E09701D3
:10418000A8010E94AE3DF901B90161507040CB0118
:10419000880F991F9B01220F331F220F331F220FFD
:1041A000331F820F931FA0E0B0E0A816B906CA061D
:1041B000DB06E9F186017501E81AF90A0A0B1B0B07
:1041C000CF01880F991F9F01220F331F220F331F2A
:1041D000220F331F820F931FA0E0B0E0A816B9068C
:1041E000CA06DB0641F1A6019501281B390B4A0BD3
:1041F0005B0B2E153F054007510708F4BF0188E10E
:104200008093C1008EE08093C2007093C5006093DC
:10421000C4008091C10080688093C1001F910F91FC
:10422000FF90EF90DF90CF90BF90AF900895EE2475
:10423000FF248701C5CF20E030E040E050E0D9CF37
:10424000AF92BF92CF92DF92EF92FF920F931F93A4
:104250007B018C01EE0CFF1C001F111FEE0CFF1CDC
:10426000001F111FEE0CFF1C001F111FEE0CFF1C86
:10427000001F111F60E078E689E899E09701A80126
:104280000E94AE3D59016A010894A108B108C10815
:10429000D10860E074E284EF90E09701A8010E94E9
:1042A000AE3DF901B90161507040CB01880F991FF3
:1042B0009B01220F331F220F331F220F331F820F48
:1042C000931FA0E0B0E0A816B906CA06DB06E9F124
:1042D00086017501E81AF90A0A0B1B0BCF01880F3A
:1042E000991F9F01220F331F220F331F220F331FED
:1042F000820F931FA0E0B0E0A816B906CA06DB063D
:1043000041F1A6019501281B390B4A0B5B0B2E15B9
:104310003F054007510708F4BF0188E18093C900B9
:104320008EE08093CA007093CD006093CC008091A2
:10433000C90080688093C9001F910F91FF90EF9092
:10434000DF90CF90BF90AF900895EE24FF248701B7
:10435000C5CF20E030E040E050E0D9CFCF93DF93ED
:10436000EC010E945B1F882319F4DF91CF9108951F
:104370000E946D1F982F2091FD06E22FF0E0E85F6C
:10438000FA4F8083E22FEF5F2E2FE093FD068A30F5
:1043900011F0E33651F78091FC068823B1F481E0F7
:1043A0009A30B9F081E08093FC06F0E0E85FFA4FC4
:1043B0001082E22FF0E0E85FFA4F10821092FD06C3
:1043C00010920805DF91CF9108951092FC0680E0CD
:1043D000E7CFF0E0E85FFA4F1082882351F388E0DE
:1043E00095E0FE0109952091FD06E3CF8F929F9203
:1043F000AF92BF92CF92DF92EF92FF920F931F93F3
:10440000DF93CF9300D000D0CDB7DEB7162F072FA4
:104410006A0119821A821B821C8261E172E00E9489
:10442000E435AC01009709F45EC082E043315807DF
:1044300009F459C0812F902F9C018901EE24FF249B
:1044400085E1882E82E0982E5E010894A11CB11CA3
:104450000FC080E090E061E172E00E94E435AC01C1
:10446000009779F10C5F1F4F92E04331590749F1F2
:1044700000D000D000D0EDB7FEB73196ADB7BEB7D3
:1044800012965C934E93119793828282B582A48296
:104490000E94833689819A81AB81BC81F801808337
:1044A0009183A283B3830894E11CF11C8DB79EB75E
:1044B00006960FB6F8949EBF0FBE8DBFEC14FD0498
:1044C00041F6C7010F900F900F900F90CF91DF91A1
:1044D0001F910F91FF90EF90DF90CF90BF90AF9022
:1044E0009F908F900895EE24FF24EBCFCF92DF9220
:1044F000EF92FF920F931F93CF93DF938C010E9453
:104500005B1F882349F4DF91CF911F910F91FF909A
:10451000EF90DF90CF9008950E946D1F982F20910B
:10452000FD06E22FF0E0E85FFA4F8083E22FEF5FB5
:104530002E2FE093FD068A3011F0E33621F78091AB
:10454000FC068823A1F481E09A30A9F081E08093F1
:10455000FC06F0E0E85FFA4F1082E22FF0E0E85F3F
:10456000FA4F10821092FD0610920805CCCF1092DF
:10457000FC0680E0E9CFF0E0E85FFA4F1082882384
:1045800061F388E095E06CE675E044E650E00E9457
:10459000F6217C01D0906C05C0906D0580916E0570
:1045A00090916F05E70121971C161D06D4F5E0E7F1
:1045B000F5E02D2D3C2DAC01C901DA0120E030E001
:1045C00040E050E0B701660F771F660F771F68590C
:1045D0007A4F04C081919191A191B191280F391F17
:1045E0004A1F5B1FE617F707A9F7CC0FDD1FCC0F9B
:1045F000DD1FC459DA4F88819981AA81BB81821756
:104600009307A407B50719F0EE24EA94FE2C8D2D2C
:104610009C2D6CE675E0A701F80109952091FD0637
:104620009CCF20E030E040E050E0DFCF8F929F92BF
:10463000AF92BF92CF92DF92EF92FF920F931F93B0
:10464000DF93CF93CDB7DEB764970FB6F894DEBF94
:104650000FBECDBF4C015A016B018BE0E82EF12C4F
:10466000EC0EFD1ED701E9E1F2E083E001900D922E
:104670008150E1F7C701B9010E94E935002349F0F3
:10468000F70101900020E9F731978AE090E09183EB
:1046900080838DB79EB708970FB6F8949EBF0FBE64
:1046A0008DBFEDB7FEB731968E010F5F1F4FADB7CF
:1046B000BEB712961C930E931197F382E282A482E6
:1046C000B582C682D7820E9452368DB79EB70896B1
:1046D0000FB6F8949EBF0FBE8DBFC4010E94A91FE4
:1046E000C8010E94A91F64960FB6F894DEBF0FBEE2
:1046F000CDBFCF91DF911F910F91FF90EF90DF9091
:10470000CF90BF90AF909F908F9008958F929F927F
:10471000AF92BF92CF92DF92EF92FF920F931F93CF
:10472000DF93CF93CDB7DEB764970FB6F894DEBFB3
:104730000FBECDBF4C015A016B019BE0E92EF12C5D
:10474000EC0EFD1ED701E9E1F2E083E001900D924D
:104750008150E1F7C701B9010E94E935002349F012
:10476000F70101900020E9F731978AE090E091830A
:1047700080838DB79EB708970FB6F8949EBF0FBE83
:104780008DBFEDB7FEB731968E010F5F1F4FADB7EE
:10479000BEB712961C930E931197F382E282A48205
:1047A000B582C682D7820E9452368DB79EB70896D0
:1047B0000FB6F8949EBF0FBE8DBFC4010E94A91F03
:1047C000C8010E94A91F64960FB6F894DEBF0FBE01
:1047D000CDBFCF91DF911F910F91FF90EF90DF90B0
:1047E000CF90BF90AF909F908F900895EF92FF92DF
:1047F0000F931F93DF93CF93CDB7DEB72A970FB6F2
:10480000F894DEBF0FBECDBF7C012223B9F5ADB752
:10481000BEB718970FB6F894BEBF0FBEADBFEDB7C9
:10482000FEB731968E010F5F1F4F12961C930E93A9
:10483000119783E292E09383828344835583668356
:1048400077830E9452368DB79EB708960FB6F894BC
:104850009EBF0FBE8DBFC7010E94A91FC8010E9445
:10486000A91F2A960FB6F894DEBF0FBECDBFCF9119
:10487000DF911F910F91FF90EF9008958DB79EB734
:1048800008970FB6F8949EBF0FBE8DBFEDB7FEB769
:1048900031968E010F5F1F4FADB7BEB712961C93B6
:1048A0000E9311978CE192E0C6CF0F931F93DF9385
:1048B000CF93CDB7DEB72A970FB6F894DEBF0FBE01
:1048C000CDBF2DB73EB7285030400FB6F8943EBF4D
:1048D0000FBE2DBFEDB7FEB731968E010F5F1F4F94
:1048E000ADB7BEB712961C930E93119729E232E032
:1048F0003383228364837583868397830E94523631
:104900002DB73EB7285F3F4F0FB6F8943EBF0FBE9E
:104910002DBFC8010E94A91F2A960FB6F894DEBFCA
:104920000FBECDBFCF91DF911F910F9108950F93CF
:104930001F93DF93CF93CDB7DEB72A970FB6F894C6
:10494000DEBF0FBECDBF00D000D000D0EDB7FEB7A8
:1049500031968E010F5F1F4FADB7BEB712961C93F5
:104960000E9311972CE232E0338322839583848364
:104970000E9452368DB79EB706960FB6F8949EBF2A
:104980000FBE8DBFC8010E94A91F2A960FB6F894CA
:10499000DEBF0FBECDBFCF91DF911F910F91089564
:1049A000EFEDF7E0E60FF71FE081F0E0EE0FFF1FFD
:1049B000EE0FFF1FEE59F84F208131814281538164
:1049C000B901CA010895EFEDF7E0E60FF71FE081A6
:1049D000F0E0EE0FFF1FEE0FFF1FEE55F84F608166
:1049E0007181828193810895CF92DF92EF92FF923D
:1049F0000F931F93CF93DF9306EC17E05FEDC52E67
:104A000057E0D52E4EEFE42E46E0F42E1FC0E6010F
:104A1000E881F0E0EE0FFF1FEE0FFF1FEE55F84F9D
:104A2000E70188819981AA81BB8180839183A283D8
:104A3000B3830F5F1F4F0894C11CD11CC4E0D0E0AA
:104A4000EC0EFD1EE7E00F3D1E0701F1D8018C9131
:104A50008823E9F6F6018081C82FD0E0CC0FDD1F56
:104A6000CC0FDD1FCE59D84FD7016D917D918D911F
:104A70009C910E946A3820E030E44CE156E40E94A8
:104A8000CF37688379838A839B83D3CFDF91CF919C
:104A90001F910F91FF90EF90DF90CF9008951092AB
:104AA000FE061092FF0610920007109201078CE993
:104AB00093E1A0E0B0E08093020790930307A093F6
:104AC0000407B09305078CE396EFAFEFBFEF809339
:104AD000060790930707A0930807B09309078CE790
:104AE00095E1A0E0B0E080930A0790930B07A093B4
:104AF0000C07B0930D0782E796E5A0E0B0E0809345
:104B00000E0790930F07A0931007B09311078AE147
:104B100095EFAFEFBFEF8093120790931307A09329
:104B20001407B093150782E093E0A0E0B0E0809313
:104B3000160790931707A0931807B093190781E5FC
:104B400090E0A0E0B0E080931A0790931B07A09339
:104B50001C07B0931D078BE091E0A0E0B0E08093CC
:104B60001E0790931F07A0932007B093210784E8A6
:104B70009FEFAFEFBFEF8093220790932307A0939F
:104B80002407B093250788E893E1A0E0B0E0809384
:104B9000260790932707A0932807B093290788EE4C
:104BA00093E0A0E0B0E080932A0790932B07A093B6
:104BB0002C07B0932D0710922E0710922F071092FA
:104BC0003007109231078CED95E0A0E0B0E08093C3
:104BD000320790933307A0933407B093350780933F
:104BE000360790933707A0933807B093390780931F
:104BF0003A0790933B07A0933C07B0933D0780E2B0
:104C000091EAA7E0B0E080933E0790933F07A0931E
:104C10004007B093410788E293E2A0E0B0E08093C0
:104C2000420790934307A0934407B09345078093AE
:104C3000460790934707A0934807B093490780938E
:104C40004A0790934B07A0934C07B0934D0780936E
:104C50004E0790934F07A0935007B093510780934E
:104C6000520790935307A0935407B093550789E1D7
:104C700090E0A0E0B0E08093560790935707A09390
:104C80005807B093590780E794E9A0E0B0E080931B
:104C90005A0790935B07A0935C07B0935D0780E68B
:104CA0009EEAAAE0B0E080935E0790935F07A0932E
:104CB0006007B09361070895EF92FF920F931F93DF
:104CC000CF93DF937B018C01FB01EE0FFF1FEE0FF3
:104CD000FF1FE250F94F2083318342835383FB014E
:104CE000EA53F84F8081882309F5F701E152F84F24
:104CF0006081C62FD0E0CC0FDD1FCC0FDD1FCE5959
:104D0000D84FCA01B9010E946A3820E030E44CE172
:104D100056E40E94CF37688379838A839B83DF912F
:104D2000CF911F910F91FF90EF900895F701E152FD
:104D3000F84FE081F0E0EE0FFF1FEE0FFF1FEE5582
:104D4000F84F2083318342835383DF91CF911F91AA
:104D50000F91FF90EF900895EF92FF920F931F93A2
:104D6000CF93DF93CEEFD6E0EE24FF248701D80166
:104D7000C701880F991FAA1FBB1F880F991FAA1F61
:104D8000BB1F49915991699179910E94CA3C08943D
:104D9000E11CF11C011D111D87E0C236D80739F74F
:104DA000DF91CF911F910F91FF90EF900895CF92D7
:104DB000DF92EF92FF920F931F93CF93DF9358EF01
:104DC000C52E57E0D52E1092F807C60165E070E0B9
:104DD0000E94EF2AC60140E050E060E070E00E94CF
:104DE000BC2A4091FE065091FF0660910007709129
:104DF0000107C6010E94BC2AC2E0D7E041E0E42ED0
:104E0000F12C012D112D06C00894E11CF11C011D8F
:104E1000111D249687E0C236D807D1F088EF97E0BD
:104E2000B801A7010E94BC2A488159816A817B810F
:104E300088EF97E00E94BC2AC701837090700397A7
:104E400019F788EF97E00E94A91F1092F807DCCFAE
:104E5000F60101900020E9F73197E85FF740E8504C
:104E6000F84F8CE290E09183808388EF97E00E9476
:104E7000A91F1092F807EEE5F3E06591749188EFB1
:104E800097E00E94D23501E010E0CCE2D0E0F601DC
:104E900001900020E9F73197E85FF740E850F84FBC
:104EA000D183C08388EF97E00E94A91F0931A0F445
:104EB000F801EE0FFF1FE25AFC4F6591749188EFE5
:104EC00097E00E94D2350F5F1F4F09311105F9F6A7
:104ED00088EF97E00E94A91F8FE292E00E94A91F2D
:104EE000DF91CF911F910F91FF90EF90DF90CF90C6
:104EF0000895CF92DF92EF92FF920F931F93CF937B
:104F0000DF9380E090E00E94C43C6A3F7105810518
:104F1000910509F0DBC00EEF16E0C0E0D0E0CE0155
:104F2000880F991F880F991F0E94C43CD8016D9368
:104F30007D938D939D938D012196C931D10579F78C
:104F400091E09093C6071092DF071092C707109266
:104F5000E0071092C8079093E1071092C90722E07A
:104F60002093E2071092CA0783E08093E307109230
:104F7000CB0744E04093E4071092CC0735E0309330
:104F8000E5079093CD079093E6079093CE07209383
:104F9000E7079093CF078093E8071092D00786E049
:104FA0008093E9071092D10727E02093EA07109237
:104FB000D20758E05093EB079093D3074093EC0748
:104FC0009093D4073093ED079093D5078093EE0725
:104FD0001092D60789E08093EF071092D7078AE0F6
:104FE0008093F0071092D8078BE08093F10710921E
:104FF000D9078CE08093F2071092DA078DE0809356
:10500000F3071092DB078EE08093F4079093DC07A0
:105010002093F5079093DD075093F6071092DE0773
:105020008FE08093F70706EC17E0FFEDCF2EF7E057
:10503000DF2EEEEFEE2EE6E0FE2E1FC0D601EC9145
:10504000F0E0EE0FFF1FEE0FFF1FEE55F84FE701E8
:1050500088819981AA81BB8180839183A283B38354
:105060000F5F1F4F0894C11CD11CC4E0D0E0EC0EB0
:10507000FD1EE7E00F3D1E0701F1E801888188234E
:10508000E9F6F6018081C82FD0E0CC0FDD1FCC0FF0
:10509000DD1FCE59D84FD7016D917D918D919C9197
:1050A0000E946A3820E030E44CE156E40E94CF3799
:1050B000688379838A839B83D3CFDF91CF911F91BC
:1050C0000F91FF90EF90DF90CF9008951092FE0621
:1050D0001092FF0610920007109201078CE993E1ED
:1050E000A0E0B0E08093020790930307A093040729
:1050F000B09305078CE396EFAFEFBFEF8093060701
:1051000090930707A0930807B09309078CE795E1F0
:10511000A0E0B0E080930A0790930B07A0930C07E0
:10512000B0930D0782E796E5A0E0B0E080930E070C
:1051300090930F07A0931007B09311078AE195EFA2
:10514000AFEFBFEF8093120790931307A09314075C
:10515000B093150782E093E0A0E0B0E080931607DB
:1051600090931707A0931807B093190781E590E073
:10517000A0E0B0E080931A0790931B07A0931C0750
:10518000B0931D078BE091E0A0E0B0E080931E0794
:1051900090931F07A0932007B093210784E89FEF07
:1051A000AFEFBFEF8093220790932307A0932407CC
:1051B000B093250788E893E1A0E0B0E0809326074C
:1051C00090932707A0932807B093290788EE93E0D0
:1051D000A0E0B0E080932A0790932B07A0932C07C0
:1051E000B0932D0710922E0710922F0710923007C0
:1051F000109231078CED95E0A0E0B0E0809332078B
:1052000090933307A0933407B09335078093360704
:1052100090933707A0933807B093390780933A07E4
:1052200090933B07A0933C07B0933D0780E291EA3F
:10523000A7E0B0E080933E0790933F07A09340071C
:10524000B093410788E293E2A0E0B0E08093420788
:1052500090934307A0934407B09345078093460774
:1052600090934707A0934807B093490780934A0754
:1052700090934B07A0934C07B0934D0780934E0734
:1052800090934F07A0935007B09351078093520714
:1052900090935307A0935407B093550789E190E08A
:1052A000A0E0B0E08093560790935707A09358076B
:1052B000B093590780E794E9A0E0B0E080935A07E3
:1052C00090935B07A0935C07B0935D0780E69EEA2E
:1052D000AAE0B0E080935E0790935F07A093600719
:1052E000B09361072DCE94B1906B94B9269890E558
:1052F0009CBD882319F08CB580628CBD613049F16A
:10530000613068F48CB58CBD403191F04131A0F42E
:105310004430E1F1483049F1423071F10895623092
:10532000E1F0633089F78CB58C608CBD403171F74A
:105330008CB581608CBD0895403421F1403889F0EE
:10534000403261F78DB581608DBD8CB582608CBDBA
:1053500008958CB584608CBDD7CF8CB588608CBD2A
:10536000D3CF8CB583608CBD08958DB581608DBD24
:105370008CB581608CBD08958DB581608DBD8CB577
:105380008CBD08958CB582608CBD08958CB581600C
:105390008CBD8CB58CBD08958EBD0DB407FEFDCFC0
:1053A0008EB50895482F662369F09C01F90180812C
:1053B0008EBD0DB407FEFDCF8EB531968E2F841BAA
:1053C0008617A8F30895482F662369F09C01F90118
:1053D0009FEF9EBD0DB407FEFDCF8EB581938E2F3E
:1053E000841B8617B0F308953D9A3F9A549A559AB4
:1053F000459847985C985D980895459847985C98BB
:105400005D9808959C0180913102813061F0809116
:105410005C08815080935C0887FF0895822F81503B
:1054200080935C08089580915C088F5F80935C088E
:10543000992787FD9095821793077CF310925C085B
:10544000089590915C08913071F192308CF1923016
:10545000A1F0933019F1459847985C985D98809138
:105460003102813091F0892F815080935C0887FF51
:10547000089583E080935C080895459847985C9A66
:105480005D9A80913102813071F7892F8F5F80930F
:105490005C0884306CF310925C080895459A479834
:1054A0005C985D9ADCCF4598479A5C9A5D98D7CF17
:1054B000992389F6459A479A5C985D98D0CF909148
:1054C0005C08933009F449C09430DCF09530D9F190
:1054D00095306CF1963009F44AC0973009F442C017
:1054E000459847985C985D98809131028130A9F485
:1054F000892F8F5F80935C088830A4F010925C083D
:105500000895913029F19230BCF0459847985C9A03
:105510005D9880913102813059F3892F81508093B9
:105520005C0887FF089587E080935C08089545989C
:10553000479A5C985D98EDCF992391F645984798E6
:105540005C985D9AE6CF459A479A5C985D98E1CF62
:10555000459847985C9A5D9ADCCF4598479A5C9A43
:105560005D98D7CF459A47985C985D9AD2CF459A77
:1055700047985C985D98CDCFEF92FF920F931F9361
:105580007C018DB79EB708970FB6F8949EBF0FBEEB
:105590008DBFEDB7FEB731960DE518E0ADB7BEB7DC
:1055A00012961C930E93119782E392E09383828369
:1055B00044835583668377830E9452368DB79EB7A6
:1055C00008960FB6F8949EBF0FBE8DBFC701B801F5
:1055D0000E94E9351F910F91FF90EF900895EF928F
:1055E000FF920F931F937C0100D000D000D0EDB745
:1055F000FEB731960DE518E0ADB7BEB712961C9315
:105600000E93119787E392E093838283758364837B
:105610000E9452368DB79EB706960FB6F8949EBF7D
:105620000FBE8DBFC701B8010E94E9351F910F91D0
:10563000FF90EF9008954F925F926F927F928F92BA
:105640009F92AF92BF92CF92DF92EF92FF920F9311
:105650001F93CF93DF932C013A014B01CB01BA0189
:105660000E9437385B016C01C401B30120E030E0D7
:1056700040E050E00E94CB3788230CF450C0EDB7D7
:10568000FEB738970FB6F894FEBF0FBEEDBFEDB66C
:10569000FEB60894E11CF11C8DE598E092838183AD
:1056A0008AE392E0F70193838283B582A4828CE936
:1056B0009FEFA89E8001A99E100DB89E100D112489
:1056C000C401B30120E030E048EC52E40E944A39C2
:1056D0000E943738060F171FF701178306830E94B1
:1056E00052368DB79EB708960FB6F8949EBF0FBE80
:1056F0008DBFC2016DE578E00E94E935DF91CF9161
:105700001F910F91FF90EF90DF90CF90BF90AF90DF
:105710009F908F907F906F905F904F9008958DB77E
:105720009EB708970FB6F8949EBF0FBE8DBFEDB61B
:10573000FEB60894E11CF11C8DE598E0EDB7FEB7CC
:10574000928381838AE392E0F70193838283B58217
:10575000A48284E690E0A89E8001A99E100DB89EC8
:10576000100D1124C401B30120E030E048EC52E4F4
:105770000E944A390E943738061B170BADCF109292
:1057800095001092940089EF90E090939900809397
:10579000980010929000E1E9F0E010828081826030
:1057A000808380818360808382E08093710008958C
:1057B0001F920F920FB60F9211248F939F93AF9366
:1057C000BF938091670890916808A0916908B09193
:1057D0006A080196A11DB11D80936708909368081F
:1057E000A0936908B0936A08BF91AF919F918F9180
:1057F0000F900FBE0F901F901895F8942091670896
:10580000309168084091690850916A087894B9010C
:10581000CA010895EF92FF920F931F93F89460913D
:105820006708709168088091690890916A08E09013
:105830009400F090950078942AEF30E040E050E03A
:105840000E947C3D9B01AC0100E010E02E0D3F1D4D
:10585000401F511F220F331F441F551F220F331F9C
:10586000441F551FB901CA011F910F91FF90EF907E
:10587000089591E09093B408809391081092B20833
:105880001092B30808952091900830E080918F081D
:10589000281B3109C901089540918F088091900813
:1058A000481760F4E42FF0E0E159F74F8081282F8A
:1058B00030E04F5F40938F08C90108952FEF3FEF0D
:1058C000C9010895E0918F0880919008E81740F48D
:1058D000F0E0E159F74F8081E82FF0E0CF01089523
:1058E000EFEFFFEFCF01089508959C014091B708B5
:1058F0005091B8084115510511F190918F08809190
:1059000090089817E0F01616170694F490E0A0E0BF
:10591000B0E0E0E0F0E0A159B74FE20FF31F808163
:105920008C939F5FE92FF0E0DF01E617F7079CF308
:1059300010928F0860939008CB01FA0109950895A1
:10594000E091B508F091B608309729F01092B208AE
:105950001092B308099508959093B8088093B708FA
:1059600008959093B6088093B5080895DF93CF9378
:105970000F92CDB7DEB789838091B4088823F9F000
:105980008091B3088032A0F48091B208E82FF0E053
:10599000EE56F74F998190838F5F8093B208809382
:1059A000B30821E030E0C9010F90CF91DF91089555
:1059B00020E030E0C9010F90CF91DF910895CE0132
:1059C000019661E00E94F42E21E030E0C9010F90C1
:1059D000CF91DF9108950F93082F8091910862E98C
:1059E00078E04091B30821E00E948E2E1092B20818
:1059F0001092B3081092B4080F9108950E942A2EB5
:105A000008950E941D2E089510928F0810929008FC
:105A10001092B2081092B3080E94012E80EA9CE214
:105A20000E94242F85E79CE20E941F2F0895AF92C9
:105A3000BF92CF92DF92EF92FF920F931F93DF936B
:105A4000CF930F92CDB7DEB76C017B018091B40884
:105A50008823F1F16115710571F100E010E05E013C
:105A60000894A11CB11C17C08091B308803260F467
:105A70008091B208E82FF0E0EE56F74F90838F5FE9
:105A80008093B2088093B3080F5F1F4F0E151F0558
:105A900090F48091B408F601E00FF11F9081998392
:105AA000882311F7C50161E00E94F42E0F5F1F4F9C
:105AB0000E151F0570F3C7010F90CF91DF911F9155
:105AC0000F91FF90EF90DF90CF90BF90AF9008952F
:105AD000C6010E94F42EEFCF0F938091910862E9E6
