:100000000C94AD010C94CC010C94CC010C94CC015B
:100010000C94CC010C9463040C94CC010C94CC0192
:100020000C94CC010C9449040C94CC010C94CC019C
:100030000C94CC010C94E11A0C941F1B0C94CC0171
:100040000C94BF040C94CC010C94CC010C94CC0106
:100050000C94131D0C94631D0C94CC010C94CC01D6
:100060000C94A9040C94CC010C94A7250C94CC01FD
:100070000C943B1D0C94CC010C94CC010C94CC0141
:100080000C94CC010C94CC010C94CC016026F92585
:10009000F925F925F925F925F925F9256A26F925FE
:1000A000F925F925F925F925F925F9256A26F925EE
:1000B000F925F925F925F925F925F9257226F925D6
:1000C000F925F925F925F925F925F9258626F925B2
:1000D000F925F925F925F925F925F9257226F925B6
:1000E000F925F925F925F925F925F9252826F925F0
:1000F000F925F925F925F925F925F9253526F925D3
:10010000F925F925F925F925F925F9252126F925D6
:10011000F925F925F925F925F925F925B326F92534
:10012000F925F925F925F925F925F9251526F925C2
:10013000F925F925F925F925F925F9253E26F92589
:10014000F925F925F925F925F925F9255726F92560
:10015000F925F925F925F925F925F9255726F92550
:10016000F925F925F925F925F925F9255726F92540
:10017000F925F925F925F925F925F9255726F92530
:10018000F925F925F925F925F925F9250C26F9256B
:10019000F925F925F925F925F925F9251126F92556
:1001A000F925F925F925F925F925F9250C26F9254B
:1001B000F925F925F925F925F925F9251126F92536
:1001C000F925F925F925F925F925F9259126F925A6
:1001D000F925F925F925F925F925F925CF25F92559
:1001E000F925F925F925F925F925F925CF25F92549
:1001F000F925F925F925F925F925F925E425F92524
:10020000F925F925F925F925F925F925AD26F92549
:10021000F925F925F925F925F925F925AD26084A05
:10022000D73B3BCE016E84BCBFFDC12F3D6C74310A
:100230009ABD56833DDA3D00C77F11BED9E4BB4C61
:100240003E916BAAAABE000000803F6E616E0069FD
:100250006E660000407A10F35A00A0724E18090032
:1002600010A5D4E80000E87648170000E40B54021B
:100270000000CA9A3B000000E1F505000080969856
:1002800000000040420F000000A0860100000010A6
:100290002700000000E803000000006400000000E8
:1002A000000A00000000000100000000002C76D8C9
:1002B00088DC674F0823DFC1DFAE59E1B1B796E5AF
:1002C000E3E453C63AE651997696E8E6C28426EB13
:1002D000898C9B62ED407C6FFCEFBC9C9F40F2BA26
:1002E000A56FA5F490055A2AF75C936B6CF9676DBE
:1002F000C11BFCE0E40D47FEF520E6B500D0ED9013
:100300002E0300943577050080841E080000204EDF
:100310000A000000C80C333333330F986E12831178
:1003200041EF8D2114893BE65516CFFEE6DB18D14F
:10033000844B381BF77C1D901DA4BBE42420328421
:10034000725E228100C9F124ECA1E53D2763646956
:100350006E6F70737578585B000011241FBECFEF6D
:10036000D0E4DEBFCDBF11E0A0E0B1E0EEE7F8E6FB
:1003700000E00BBF02C007900D92A038B107D9F77B
:1003800016E0A0E8B1E001C01D92A838B107E1F77E
:100390000E9416090C945B2B0C94000088E4809357
:1003A000800189E080938101109282011092840182
:1003B0001092830110928601109287011092880199
:1003C000109289010895A0E0B0E0BC01CD010E9427
:1003D000C52E26EA3BE944EC50E40E94A72F20E01A
:1003E00030E040E058E30E94A72F0895A0E0B0E07D
:1003F000BC01CD0120E038E140E050E00E94E13353
:100400009B01AC018FE056954795379527958A95C6
:10041000D1F7C9010895DF93CF9300D0CDB7DEB7F0
:100420008091800161E0AE014F5F5F4F0E943827ED
:1004300020E089819A8197FD06C0822F0F900F904E
:10044000CF91DF91089521E0822F0F900F90CF91EF
:10045000DF9108958430D0F420918301309184019C
:10046000A901436851608130F1F0813088F0823019
:1004700029F1833019F4A9014368516750688091CC
:10048000800161E00E94E42681E0089580E0089503
:10049000A9014368516450688091800161E00E9425
:1004A000E42681E00895A901436851655068809170
:1004B000800161E00E94E42681E00895A90143687B
:1004C000516650688091800161E00E94E42681E0DD
:1004D0000895AF92BF92CF92DF92EF92FF920F9367
:1004E0001F93DF93CF9300D0CDB7DEB7843008F0F1
:1004F00066C02091830130918401A9014368516055
:10050000813009F470C0813008F469C0823009F488
:1005100079C0833019F4A90143685167506880910C
:10052000800161E00E94E4266091810170E080E03A
:1005300090E00E94C52E5B016C0120E030E04AE7AC
:1005400055E40E94A72F7B018C0120E030E040E8B9
:100550005FE30E94282E88230CF451C0C801B70124
:1005600020E03FEF4FE757E40E949C2F18160CF055
:100570003EC0C601B50120E030E040E251E40E94F7
:10058000A72F0E94992ECB01672B39F020E931E08B
:10059000F9013197F1F70197D9F78091800160E077
:1005A000AE014F5F5F4F0E94382729813A8100904A
:1005B000820102C0369527950A94E2F702C020E036
:1005C00030E0C9010F900F90CF91DF911F910F91F3
:1005D000FF90EF90DF90CF90BF90AF900895A9016A
:1005E000436851649BCFA9014368516597CFC80107
:1005F000B7010E94992ECB010197F1F7CECF61E0B0
:1006000070E0F9CFA9014368516688CFFF920F933C
:100610001F93DF93CF9300D0CDB7DEB78C01F62EBA
:100620008091800161E0AE014F5F5F4F0E943827EB
:1006300089819A8197FD27C010E0F3E0FF15D0F083
:100640008091830190918401AC014368516021E065
:10065000F21689F1F21658F1E2E0FE1681F1FF166A
:1006600019F4AC014368516750688091800161E0E2
:100670000E94E426812F0F900F90CF91DF911F9160
:100680000F91FF9008958091800160E0A8010E9481
:100690003827F801808191810090820102C09695EF
:1006A00087950A94E2F79183808311E0C6CFAC016D
:1006B00043685164D9CFAC0143685165D5CFAC01D3
:1006C00043685166D1CF0F931F93DF93CF9300D030
:1006D000CDB7DEB78C018091800161E0AE014F5F44
:1006E0005F4F0E94382789819A8197FD3EC02091F3
:1006F0008501E22FF0E0EA57FE4F8081882319F54B
:1007000010E08AE08083243040F58091830190914D
:100710008401AC0143685160213009F47EC021306E
:1007200008F06EC0AC01436851645068809180014C
:1007300061E00E94E426812F0F900F90CF91DF910E
:100740001F910F9108958150808310E0E22FF0E017
:10075000EA57FE4F80818823A1F2812F0F900F90DE
:10076000CF91DF911F910F9108954091850150E045
:10077000440F551F46575E4F8091800160E00E94F4
:10078000382720918501E22FF0E0EE0FFF1FE6579A
:10079000FE4F808191810090820102C096958795DD
:1007A0000A94E2F7918380832F5F209385012430A0
:1007B00060F2109285011092860180918A019091D9
:1007C0008B01F801918380831092870180918C01C5
:1007D00090918D01938382831092880180918E0184
:1007E00090918F019583848310928901809190016B
:1007F000909191019783868311E020918501A6CF86
:10080000223039F0233009F090CFAC0143685167B2
:100810008CCFAC014368516688CFAC014368516509
:1008200084CF81B1806C81B982B18F7382B9209AF3
:10083000289821982998E8E6F0E0808182608083FA
:10084000ECE6F0E0808182608083089589EF87BDC7
:1008500014BC15BC16BC84B5826084BD85B58460AB
:1008600085BD82E080936E00089589EF8093B30088
:10087000E0EBF0E01082A1EBB0E01C921092B2002D
:1008800083E08C9380818260808382E0809370001B
:1008900008951F920F920FB60F9211248F939F937A
:1008A000199B0AC080911E0290911F028C509E4F8E
:1008B00090931F0280931E029F918F910F900FBE05
:1008C0000F901F9018951F920F920FB60F92112440
:1008D0002F933F938F939F9319991AC08091B200E1
:1008E00020911E0230911F0290E0880F991F820F05
:1008F000931F90931F0280931E02109224029F91D7
:100900008F913F912F910F900FBE0F901F901895D0
:100910008091B20090E0909581959F4F880F991F2C
:1009200090931F0280931E02EACF0898ECE7F0E054
:100930001082808180648083EAE7F0E01082808109
:1009400087608083808180688083808188608083E5
:1009500008951F920F920FB60F9211248F939F93B9
:10096000809178009091790090932A0280932902D7
:100970009F918F910F900FBE0F901F9018951F920F
:100980000F920FB60F9211248F939F93809125029F
:100990008F5F80932502809126028F5F80932602CD
:1009A000809125028530A1F0809126028A3F49F48A
:1009B00082B190E4892782B981E080932802109265
:1009C00026029F918F910F900FBE0F901F90189548
:1009D00081E08093270210922502E6CFEAE7F0E05B
:1009E000808180648083089581E080932402289A26
:1009F00085E38A95F1F72898809124028823E1F70E
:100A000060911E0270911F02882777FD8095982FB4
:100A10000E94C72E28E23EE74CE85CE30E94A72F25
:100A2000609320027093210280932202909323020C
:100A30000895EF92FF920F931F93DF93CF9300D00F
:100A4000CDB7DEB7CE01019660E00E940603882391
:100A500071F16091F8017091F9018091FA01909122
:100A6000FB0126E636E646E65FE30E94A72F7B0100
:100A70008C0189819A810E94E3012AE939E949EFD1
:100A800050E40E94A72F2DEC3CEC4CEC5DE30E945F
:100A9000A72F9B01AC01C801B7010E94622D609392
:100AA000F8017093F9018093FA019093FB010F9084
:100AB0000F90CF91DF911F910F91FF90EF900895CC
:100AC000EF92FF920F931F937C0100D000D000D0D3
:100AD000EDB7FEB7319604E911E0ADB7BEB7129697
:100AE0001C930E93119780E091E09383828375832A
:100AF00064830E94AF2C8DB79EB706960FB6F8940C
:100B00009EBF0FBE8DBFC701B8010E94462C1F912A
:100B10000F91FF90EF900895EF92FF920F931F9324
:100B20007C0100D000D000D0EDB7FEB7319604E9CB
:100B300011E0ADB7BEB712961C930E93119784E0E7
:100B400091E093838283758364830E94AF2C8DB779
:100B50009EB706960FB6F8949EBF0FBE8DBFC70115
:100B6000B8010E94462C1F910F91FF90EF900895BD
:100B70004F925F926F927F928F929F92AF92BF92AD
:100B8000CF92DF92EF92FF920F931F93CF93DF9359
:100B90002C013A014B01CB01BA010E94942E5B015A
:100BA0006C01C401B30120E030E040E050E00E945D
:100BB000282E88230CF450C0EDB7FEB738970FB637
:100BC000F894FEBF0FBEEDBFEDB6FEB60894E11C73
:100BD000F11C84E991E09283818387E091E0F70141
:100BE00093838283B582A4828CE99FEFA89E8001C3
:100BF000A99E100DB89E100D1124C401B30120E070
:100C000030E048EC52E40E94A72F0E94942E060F79
:100C1000171FF701178306830E94AF2C8DB79EB76D
:100C200008960FB6F8949EBF0FBE8DBFC20164E94F
:100C300071E00E94462CDF91CF911F910F91FF90A0
:100C4000EF90DF90CF90BF90AF909F908F907F906C
:100C50006F905F904F9008958DB79EB708970FB62D
:100C6000F8949EBF0FBE8DBFEDB6FEB60894E11C92
:100C7000F11C84E991E0EDB7FEB79283818387E0B0
:100C800091E0F70193838283B582A48284E690E0A9
:100C9000A89E8001A99E100DB89E100D1124C401BC
:100CA000B30120E030E048EC52E40E94A72F0E94FC
:100CB000942E061B170BADCF0E94F519549A559A26
:100CC000569A8BE290E064E00E94451A8BE290E035
:100CD00065E00E94451A8BE290E066E00E94451AAA
:100CE0000E94261A60912C0170912D0180E00E94D3
:100CF000751A60912C0170912D0181E00E94751A86
:100D000060912E0170912F0182E00E94751A089562
:100D1000F89485B7806885BF85B7806885BF14BEA5
:100D200081B1806C81B982B18F7382B9209A289881
:100D30002198299880916800826080936800809152
:100D40006C00826080936C0060E072EC81E090E067
:100D50000E94DE1D8EE091E00E94F51C789461E017
:100D600040E951E0169A20E030E0CA010197F1F71E
:100D70002F5F3F4F83E128383807B9F7169820E0F6
:100D800030E0CA010197F1F72F5F3F4F83E1283828
:100D90003807B9F7615030F70E9468230E9459194B
:100DA0000E94D61329EF27BD14BC15BC16BC84B510
:100DB000826084BD85B5846085BD92E090936E00AD
:100DC0002093B3001092B0001092B1001092B200C4
:100DD00083E08093B1008091B00082608093B00086
:100DE000909370000E94F519549A559A569A8BE286
:100DF00090E064E00E94451A8BE290E065E00E947A
:100E0000451A8BE290E066E00E94451A0E94261A7D
:100E100060912C0170912D0180E00E94751A609103
:100E20002C0170912D0181E00E94751A60912E01B4
:100E300070912F0182E00E94751A0E94CE010898DD
:100E400010927C0080917C00806480937C001092E2
:100E50007A0080917A00876080937A0080917A008E
:100E6000806880937A0080917A00886080937A000D
:100E70001092920108958F929F92AF92BF92CF925B
:100E8000DF92EF92FF920F931F93DF93CF9300D0E7
:100E9000CDB7DEB786E490E10E94C21F80912702A1
:100EA000813009F47CC0F0902802A1E0FA1679F0B4
:100EB0000F900F90CF91DF911F910F91FF90EF90C6
:100EC000DF90CF90BF90AF909F908F9008958DB797
:100ED0009EB70E970FB6F8949EBF0FBE8DBFEDB7AD
:100EE000FEB7319604E911E0ADB7BEB712961C9378
:100EF0000E9311978CE191E0938382838091950208
:100F000090919602958384838091970290919802A4
:100F1000978386838091990290919A029187808726
:100F20008091140290911502A0911602B0911702BF
:100F300082879387A487B5870E94AF2C8DB79EB711
:100F40000E960FB6F8949EBF0FBE8DBFC8010E94CB
:100F5000F51CF0922402289A85E38A95F1F72898E7
:100F6000809124028823E1F760911E0270911F0294
:100F7000882777FD8095982F0E94C72E28E23EE7AC
:100F80004CE85CE30E94A72F60932002709321023B
:100F900080932202909323021092280289CFCE01DF
:100FA000019660E00E940603882371F16091F801C8
:100FB0007091F9018091FA019091FB0126E636E6E5
:100FC00046E65FE30E94A72F7B018C0189819A810D
:100FD0000E94E3012AE939E949EF50E40E94A72F72
:100FE0002DEC3CEC4CEC5DE30E94A72F9B01AC0187
:100FF000C801B7010E94622D6093F8017093F90156
:101000008093FA019093FB0180917A008064809331
:101010007A00E0902902F0902A026091FC01709120
:10102000FD018091FE019091FF0126E636E646E63D
:101030005FE30E94A72F5B016C0100E010E0C80194
:10104000B7010E94C52E2CE53FE84AEE50E40E940D
:10105000A72F20E030E040E85AE30E94A72F9B0131
:10106000AC01C601B5010E94622D28E431EE4AE6CA
:1010700050E40E94612D6093FC017093FD01809308
:10108000FE019093FF010E946B150E9423150E94A0
:1010900084110E942112E0905902F0905A020091AE
:1010A0005B0210915C02E0920C02F0920D02009340
:1010B0000E0210930F02A0905D02B0905E02C090ED
:1010C0005F02D0906002A0921002B0921102C09212
:1010D0001202D09213028091610290916202A0915B
:1010E0006302B09164028093140290931502A0935E
:1010F0001602B09317021092270280902B02909054
:101100002C0288EC881691040CF067C02091000234
:10111000309101024091020250910302C801B701CF
:101120000E94622D6093000270930102809302027C
:10113000909303022091040230910502409106022F
:1011400050910702C601B5010E94622D609304020E
:10115000709305028093060290930702C4010196E2
:1011600090932C0280932B024C0198EC89169104E9
:1011700009F099CE60910002709101028091020203
:101180009091030220E030E048E453E40E942C2ECA
:101190006093000270930102809302029093030215
:1011A00060910402709105028091060290910702FD
:1011B00020E030E048E453E40E942C2E60930402C7
:1011C00070930502809306029093070289EC90E0E9
:1011D00090932C0280932B0266CE209100023091D6
:1011E00001024091020250910302C801B7010E941E
:1011F000612D60930C0270930D0280930E02909308
:101200000F02209104023091050240910602509194
:101210000702C601B5010E94612D60931002709310
:10122000110280931202909313029FCF0E948806AE
:101230000E943B07FDCF2F923F924F925F926F9299
:101240007F928F929F92AF92BF92CF92DF92EF9256
:10125000FF920F931F93DF93CF93CDB7DEB7C454A4
:10126000D0400FB6F894DEBF0FBECDBF198200D0BC
:1012700000D000D0EDB7FEB7319654E9452E51E0CD
:10128000552EADB7BEB712965C924E92119784E080
:1012900091E09383828341E0E42EF12CF582E48295
:1012A0000E94AF2CEDB7FEB736960FB6F894FEBF8E
:1012B0000FBEEDBFCE01019625969FAF8EAF25974D
:1012C000CE010196B2010E94462C00D000D000D081
:1012D000EDB7FEB73196ADB7BEB712965C924E929F
:1012E000119700E011E013830283F582E4820E94EB
:1012F000AF2CEDB7FEB736960FB6F894FEBF0FBE13
:10130000EDBFCE010196B2010E94462C00D000D064
:1013100000D0EDB7FEB73196ADB7BEB712965C926E
:101320004E9211971383028382E090E09583848329
:101330000E94AF2CEDB7FEB736960FB6F894FEBFFD
:101340000FBEEDBFCE010196B2010E94462C609106
:101350001C0270911D02882777FD8095982F0E94AE
:10136000C72E20E030E04AE754E40E94612D20E0DF
:1013700030E04AEF54E40E942C2E3B014C010E94C5
:10138000942E5B016C01C401B30120E030E040E029
:1013900050E00E94282E88230CF4BCC1ADB7BEB724
:1013A00018970FB6F894BEBF0FBEADBFEDB6FEB630
:1013B0000894E11CF11C12965C924E921197E7E0A2
:1013C000F1E02396FFAFEEAF2397D7011396FC937E
:1013D000EE9312971596BC92AE9214978CE99FEFFC
:1013E000A89E8001A99E100DB89E100D1124C40165
:1013F000B30120E030E048EC52E40E94A72F0E94A5
:10140000942E060F171FF701178306830E94AF2C37
:101410008DB79EB708960FB6F8949EBF0FBE8DBFCE
:1014200034E9432E31E0532ECE010196B2010E94E1
:10143000462C6091180270911902882777FD8095DB
:10144000982F0E94C72E20E030E04AEF53E40E941C
:10145000612D20E030E849E055E40E942C2E3B014C
:101460004C010E94942E5B016C01C401B30120E089
:1014700030E040E050E00E94282E87FDDAC0ADB792
:10148000BEB718970FB6F894BEBF0FBEADBF0DB76D
:101490001EB70F5F1F4F12965C924E9211972396C4
:1014A0008EAD9FAD2397F80193838283B582A4828A
:1014B000C401B30120E030E048EC52E40E94A72FC1
:1014C0000E94942E2CE93FEFD901AA9E9001AB9E79
:1014D000300DBA9E300D1124620F731FF80177830F
:1014E00066830E94AF2C8DB79EB708960FB6F8940E
:1014F0009EBF0FBE8DBF04E911E0CE010196B80179
:101500000E94462C60911A0270911B02882777FD79
:101510008095982F0E94C72E20E030E04AEF53E4D8
:101520000E94612D20E030E849E055E40E942C2E15
:101530003B014C010E94942E5B016C01C401B3017C
:1015400020E030E040E050E00E94282E88230CF498
:10155000AFC08DB79EB708970FB6F8949EBF0FBE69
:101560008DBFEDB6FEB60894E11CF11CADB7BEB759
:1015700012961C930E93119723968EAD9FAD2397D1
:10158000F70193838283B582A4828CE99FEFA89EA2
:101590008001A99E100DB89E100D1124C401B30145
:1015A00020E030E048EC52E40E94A72F0E94942EE5
:1015B000060F171FD70117961C930E9316970E94BC
:1015C000AF2CEDB7FEB738960FB6F894FEBF0FBE3E
:1015D000EDBFCE01019664E971E00E94462C25968C
:1015E000EEADFFAD259701900020E9F731978AE035
:1015F00090E091838083CE0101960E94F51CCC5B24
:10160000DF4F0FB6F894DEBF0FBECDBFCF91DF9195
:101610001F910F91FF90EF90DF90CF90BF90AF9010
:101620009F908F907F906F905F904F903F902F9002
:101630000895ADB7BEB718970FB6F894BEBF0FBEEA
:10164000ADBFEDB6FEB60894E11CF11C12965C929B
:101650004E92119723968EAD9FAD2397F7019383FA
:101660008283B582A48284E690E0A89E8001A99E30
:10167000100DB89E100D1124C401B30120E030E01C
:1016800048EC52E40E94A72F0E94942E061B170BD1
:10169000D70117961C930E9316970E94AF2CEDB7A7
:1016A000FEB738960FB6F894FEBF0FBEEDBF23CF3E
:1016B0008DB79EB708970FB6F8949EBF0FBE8DBF2B
:1016C000EDB6FEB60894E11CF11CADB7BEB712969C
:1016D0001C930E93119723968EAD9FAD2397F70120
:1016E00093838283B582A48284E690E0A89E8001E1
:1016F000A99E100DB89E100D1124C401B30120E065
:1017000030E048EC52E40E94A72F0E94942E061B62
:10171000170B50CF8DB79EB708970FB6F8949EBFA2
:101720000FBE8DBFEDB6FEB60894E11CF11CADB73F
:10173000BEB712965C924E921197E7E0F1E02396C5
:10174000FFAFEEAF2397D7011396FC93EE9312975A
:101750001596BC92AE92149784E690E0A89E800104
:10176000A99E100DB89E100D1124C401B30120E0F4
:1017700030E048EC52E40E94A72F0E94942E061BF2
:10178000170B41CE2F923F924F925F926F927F92B2
:101790008F929F92AF92BF92CF92DF92EF92FF9281
:1017A0000F931F93DF93CF93CDB7DEB7C854D040CC
:1017B0000FB6F894DEBF0FBECDBF198200D000D0A7
:1017C00000D0EDB7FEB7319674E9472E71E0572E81
:1017D000ADB7BEB712965C924E92119784E091E03D
:1017E0009383828384E090E0958384830E94AF2C6E
:1017F000EDB7FEB736960FB6F894FEBF0FBEEDBF3D
:101800001E010894211C311CC101B2010E94462C0A
:1018100000D000D000D00DB71EB70F5F1F4FADB77F
:10182000BEB712965C924E92119760E0E62E61E090
:10183000F62EF801F382E28260910C0270910D02A3
:1018400080910E0290910F020E94942ED80115965D
:101850007C936E9314970E94AF2CEDB7FEB736962B
:101860000FB6F894FEBF0FBEEDBFC101B2010E94DA
:10187000462C00D000D000D00DB71EB70F5F1F4F11
:10188000ADB7BEB712965C924E921197F801F382F3
:10189000E282609110027091110280911202909187
:1018A00013020E94942ED80115967C936E93149780
:1018B0000E94AF2CEDB7FEB736960FB6F894FEBF78
:1018C0000FBEEDBFC101B2010E94462C00D000D076
:1018D00000D00DB71EB70F5F1F4FADB7BEB7129642
:1018E0005C924E921197F801F382E28260911402A9
:1018F0007091150280911602909117020E94942E09
:10190000D80115967C936E9314970E94AF2CEDB777
:10191000FEB736960FB6F894FEBF0FBEEDBFC101FD
:10192000B2010E94462C2DB73EB7285030400FB66A
:10193000F8943EBF0FBE2DBFEDB7FEB73196ADB7E1
:10194000BEB712965C924E92119727E031E0338336
:10195000228315821482178216820E94AF2C8DB7C3
:101960009EB708960FB6F8949EBF0FBE8DBFC101FB
:10197000B2010E94462CADB7BEB718970FB6F894C7
:10198000BEBF0FBEADBFEDB7FEB7319612965C92EB
:101990004E92119727E031E033832283158214821F
:1019A000178216820E94AF2C8DB79EB708960FB68D
:1019B000F8949EBF0FBE8DBFC101B2010E94462C9C
:1019C000ADB7BEB718970FB6F894BEBF0FBEADBF88
:1019D000EDB7FEB7319612965C924E92119727E0C2
:1019E00031E03383228315821482178216820E948B
:1019F000AF2C8DB79EB708960FB6F8949EBF0FBE5A
:101A00008DBFC101B2010E94462CC1010E94F51C8C
:101A10001982ADB7BEB718970FB6F894BEBF0FBE08
:101A2000ADBFEDB7FEB7319612965C924E9211970C
:101A300027E031E0338322831582148217821682D5
:101A40000E94AF2C8DB79EB708960FB6F8949EBF34
:101A50000FBE8DBFC101B2010E94462C6090FC01F7
:101A60007090FD018090FE019090FF01C401B301D0
:101A70000E94942E5B016C0129967FAF6EAF29976F
:101A8000C401B30120E030E040E050E00E94282E85
:101A900088230CF42FC28DB79EB708970FB6F89421
:101AA0009EBF0FBE8DBFEDB6FEB60894E11CF11CC3
:101AB000ADB7BEB712965C924E92119727E031E017
:101AC000F70133832283B582A4828CE99FEF2996A4
:101AD000AEADBFAD2997A89F8001A99F100DB89FFB
:101AE000100D1124C401B30120E030E048EC52E4B1
:101AF0000E94A72F0E94942E060F171FF70117832D
:101B000006830E94AF2C2DB73EB7285F3F4F0FB61C
:101B1000F8943EBF0FBE2DBFC10164E971E00E9481
:101B2000462C8DB79EB708970FB6F8949EBF0FBE90
:101B30008DBFEDB7FEB73196ADB7BEB712965C92CA
:101B40004E92119727E031E033832283158214826D
:101B5000178216820E94AF2C8DB79EB708960FB6DB
:101B6000F8949EBF0FBE8DBFC101B2010E94462CEA
:101B7000ADB7BEB718970FB6F894BEBF0FBEADBFD6
:101B8000EDB7FEB7319612965C924E92119727E010
:101B900031E03383228315821482178216820E94D9
:101BA000AF2C8DB79EB708960FB6F8949EBF0FBEA8
:101BB0008DBFC101B2010E94462CADB7BEB71897C8
:101BC0000FB6F894BEBF0FBEADBFEDB7FEB73196EE
:101BD00012965C924E92119727E031E03383228374
:101BE00015821482178216820E94AF2C8DB79EB781
:101BF00008960FB6F8949EBF0FBE8DBFC101B2010B
:101C00000E94462C6090140270901502809016027B
:101C100090901702C401B3010E94942E5B016C01E5
:101C200027967FAF6EAF2797C401B30120E030E065
:101C300040E050E00E94282E88230CF4F5C18DB7B7
:101C40009EB708970FB6F8949EBF0FBE8DBFEDB636
:101C5000FEB60894E11CF11CADB7BEB712965C92BB
:101C60004E92119727E031E0F70133832283B5824A
:101C7000A4828CE99FEF2796AEADBFAD2797A89FB2
:101C80008001A99F100DB89F100D1124C401B3014C
:101C900020E030E048EC52E40E94A72F0E94942EEE
:101CA000060F171FF701178306830E94AF2C2DB76D
:101CB0003EB7285F3F4F0FB6F8943EBF0FBE2DBF13
:101CC00004E911E0C101B8010E94462C6090200295
:101CD000709021028090220290902302C401B301EF
:101CE0000E94942E5B016C0125967FAF6EAF259705
:101CF000C401B30120E030E040E050E00E94282E13
:101D000088230CF45DC18DB79EB708970FB6F89481
:101D10009EBF0FBE8DBFEDB6FEB60894E11CF11C50
:101D2000ADB7BEB712961C930E93119727E031E022
:101D3000F70133832283B582A4828CE99FEF259635
:101D4000AEADBFAD2597A89F8001A99F100DB89F8C
:101D5000100D1124C401B30120E030E048EC52E43E
:101D60000E94A72F0E94942E060F171FF7011783BA
:101D700006830E94AF2C2DB73EB7285F3F4F0FB6AA
:101D8000F8943EBF0FBE2DBF04E911E0C101B801B8
:101D90000E94462C6090F8017090F9018090FA0141
:101DA0009090FB01C401B3010E94942E5B016C0171
:101DB00023967FAF6EAF2397C401B30120E030E0DC
:101DC00040E050E00E94282E88230CF4C5C08DB757
:101DD0009EB708970FB6F8949EBF0FBE8DBFEDB6A5
:101DE000FEB60894E11CF11CADB7BEB712961C9369
:101DF0000E93119727E031E0F70133832283B582F8
:101E0000A4828CE99FEF2396AEADBFAD2397A89F28
:101E10008001A99F100DB89F100D1124C401B301BA
:101E200020E030E048EC52E40E94A72F0E94942E5C
:101E3000060F171FF701178306830E94AF2C2DB7DB
:101E40003EB7285F3F4F0FB6F8943EBF0FBE2DBF81
:101E5000C10164E971E00E94462C8DB79EB70897D6
:101E60000FB6F8949EBF0FBE8DBFEDB7FEB731968B
:101E7000ADB7BEB712965C924E92119727E031E053
:101E80003383228315821482178216820E94AF2C1C
:101E90008DB79EB708960FB6F8949EBF0FBE8DBF44
:101EA000C101B2010E94462CF10101900020E9F726
:101EB00031978AE090E091838083C1010E94F51CF4
:101EC000C85BDF4F0FB6F894DEBF0FBECDBFCF911A
:101ED000DF911F910F91FF90EF90DF90CF90BF9017
:101EE000AF909F908F907F906F905F904F903F90BA
:101EF0002F900895ADB7BEB718970FB6F894BEBF30
:101F00000FBEADBFEDB6FEB60894E11CF11C1296F3
:101F10005C924E92119727E031E0F70133832283E0
:101F2000B582A48284E690E02996AEADBFAD299734
:101F3000A89F8001A99F100DB89F100D1124C40106
:101F4000B30120E030E048EC52E40E94A72F0E9449
:101F5000942E061B170BD2CD8DB79EB708970FB6E0
:101F6000F8949EBF0FBE8DBFEDB6FEB60894E11C7F
:101F7000F11CADB7BEB712961C930E93119727E0D4
:101F800031E0F70133832283B582A48284E690E0B6
:101F90002396AEADBFAD2397A89F8001A99F100DDA
:101FA000B89F100D1124C401B30120E030E048ECCB
:101FB00052E40E94A72F0E94942E061B170B3ACFC3
:101FC0008DB79EB708970FB6F8949EBF0FBE8DBF12
:101FD000EDB6FEB60894E11CF11CADB7BEB7129683
:101FE0001C930E93119727E031E0F701338322838E
:101FF000B582A48284E690E02596AEADBFAD25976C
:10200000A89F8001A99F100DB89F100D1124C40135
:10201000B30120E030E048EC52E40E94A72F0E9478
:10202000942E061B170BA2CEADB7BEB718970FB6EE
:10203000F894BEBF0FBEADBFEDB6FEB60894E11C6E
:10204000F11C12965C924E92119727E031E0F70155
:1020500033832283B582A48284E690E02796AEADD6
:10206000BFAD2797A89F8001A99F100DB89F100DA5
:102070001124C401B30120E030E048EC52E40E9496
:10208000A72F0E94942E061B170B0CCECF93DF9325
:10209000EB014F5F5F4F79F08730910509F44BC03A
:1020A000883091055CF08A3C910599F08B3C910554
:1020B00011F40E941B09DF91CF91089582309105A0
:1020C00069F00697C1F7888580939301DF91CF91DE
:1020D00008950E94C20BDF91CF9108952C813D811C
:1020E0004E815F81CA01B901660F771F881F991F52
:1020F000660F771F881F991F660F771F881F991F0C
:10210000660F771F881F991F620F731F841F951F0B
:1021100022E030E040E050E00E9422342A5B3A4F57
:10212000309319022093180280E0B9010E94751AB9
:10213000DF91CF910895288539854A855B85CA014D
:10214000B901660F771F881F991F660F771F881FB9
:10215000991F660F771F881F991F660F771F881FAB
:10216000991F620F731F841F951F22E030E040E02B
:1021700050E00E9422342A5B3A4F30931B02209396
:102180001A024C815D816E817F8177FD22C0DB0167
:10219000CA01880F991FAA1FBB1F880F991FAA1F6A
:1021A000BB1F840F951FA61FB71F88519C4F90938C
:1021B0001D0280931C0281E0B9010E94751A609192
:1021C0001C0270911D0282E00E94751ADF91CF916E
:1021D000089540E050E060E070E0D9CFEF92FF92C8
:1021E0000F931F93FC0180912D0290912E02A091DC
:1021F0002F02B091300280839183A283B3838091B8
:10220000310290913202A0913302B0913402FB016D
:1022100080839183A283B3838091350290913602AB
:10222000A0913702B0913802FA0180839183A28392
:10223000B3838091390290913A02A0913B02B09110
:102240003C02F90180839183A283B38380913D0294
:1022500090913E02A0913F02B0914002F80180832C
:102260009183A283B3838091410290914202A09115
:102270004302B0914402F70180839183A283B38328
:1022800081E01F910F91FF90EF900895CF92DF9220
:10229000EF92FF920F931F938C017B016A01609173
:1022A000950270919602882777FD8095982F0E945D
:1022B000C72EF801608371838283938360919702B4
:1022C00070919802882777FD8095982F0E94C72EDD
:1022D000F701608371838283938360919902709187
:1022E0009A02882777FD8095982F0E94C72EF601C5
:1022F000608371838283938380E01F910F91FF90AD
:10230000EF90DF90CF9008956091390270913A027A
:1023100080913B0290913C0220913E0130913F011F
:1023200040914001509141010E94612D609339021A
:1023300070933A0280933B0290933C0260913D027D
:1023400070913E0280913F029091400220914201A3
:102350003091430140914401509145010E94612D0B
:1023600060933D0270933E0280933F02909340023F
:102370006091410270914202809143029091440227
:102380002091460130914701409148015091490107
:102390000E94612D60934102709342028093430238
:1023A000909344026091950270919602882777FD80
:1023B0008095982F0E94C72E20914A0130914B01A1
:1023C00040914C0150914D010E94612D0E94942E2C
:1023D00070939602609395026091970270919802B3
:1023E000882777FD8095982F0E94C72E20914E0157
:1023F00030914F0140915001509151010E94612D47
:102400000E94942E709398026093970260919902B3
:1024100070919A02882777FD8095982F0E94C72E89
:102420002091520130915301409154015091550136
:102430000E94612D0E94942E70939A0260939902DB
:1024400008952F923F924F925F926F927F928F9258
:102450009F92AF92BF92CF92DF92EF92FF920F9333
:102460001F93DF93CF93CDB7DEB764970FB6F89481
:10247000DEBF0FBECDBF8091310290913202A0919C
:102480003302B09134028D879E87AF87B88B20913D
:102490002D0230912E0240912F0250913002CA013C
:1024A000B9010E94A72F7B018C016D857E858F85E8
:1024B00098899B01AC010E94A72FA80197010E9457
:1024C000622D0E940E306D837E838F8398872FE666
:1024D00032E143E85AE30E94282E882344F48FE631
:1024E00092E1A3E8BAE38D839E83AF83B887A0907F
:1024F0003502B0903602C0903702D0903802C60143
:10250000B501A60195010E94A72F9B01AC01C8014E
:10251000B7010E94622D0E940E3069837A838B83FB
:102520009C832FE632E143E85AE30E94282E882359
:1025300044F48FE692E1A3E8BAE389839A83AB83FC
:10254000BC836091990270919A02882777FD8095EB
:10255000982F0E94C72E7B018C016091950270918B
:102560009602882777FD8095982F0E94C72E9B01A1
:10257000AC01C801B7010E94D52D7B018C0120E080
:1025800030E040E050E00E94282E88230CF403C184
:10259000C801B7012BED3FE049EC50E40E949C2FAD
:1025A000181654F4C801B7012BED3FE049EC50E494
:1025B0000E94612D7B018C01C801B70121EE3EE232
:1025C00045E652E40E94A72F609361027093620275
:1025D000809363029093640220905A0130905B01D3
:1025E00040905C0150905D0180915E0190915F018F
:1025F000A0916001B091610189879A87AB87BC8700
:102600006090560170905701809058019090590148
:10261000C601B5012D813E814F8158850E94D52D7F
:102620007B018C0160E070E080E89FE3A4019301EE
:102630000E94612D698B7A8B8B8B9C8B60913D0204
:1026400070913E0280913F02909140029058A20109
:1026500091010E94A72F29853A854B855C850E94B0
:10266000A72F20915D0230915E0240915F02509150
:1026700060020E94622DA40193010E94A72F5B01BA
:102680006C0117FB109517F91095C801B70121EEE1
:102690003EE245E652E40E94A72F29893A894B89F8
:1026A0005C890E94A72F9B01AC01C601B5010E9465
:1026B000622D60935D0270935E0280935F0290933F
:1026C00060026D857E858F85988929813A814B814D
:1026D0005C810E94D52D5B016C01209141023091FB
:1026E000420240914302509144025058C201B1014C
:1026F0000E94A72F9B01AC0169857A858B859C85FB
:102700000E94A72F2091590230915A0240915B02FA
:1027100050915C020E94622D9B01AC01C401B30187
:102720000E94A72F7B018C01C601B50121EE3EE27C
:1027300045E652E40E94A72F9B01AC0169897A8982
:102740008B899C890E94A72F9B01AC01C801B7010E
:102750000E94622D6093590270935A0280935B022B
:1027600090935C0264960FB6F894DEBF0FBECDBFA7
:10277000CF91DF911F910F91FF90EF90DF90CF905D
:10278000BF90AF909F908F907F906F905F904F9091
:102790003F902F900895C801B7012BED3FE049EC21
:1027A00050E40E94622D7B018C01F2CE80E090E02B
:1027B0000E9421338A3F09F0089581E090E00E9451
:1027C00029330E94C52E60933201709333018093A8
:1027D00034019093350185E090E00E9429330E94F6
:1027E000C52E609336017093370180933801909322
:1027F000390189E090E00E9429330E94C52E609340
:102800003A0170933B0180933C0190933D018DE030
:1028100090E00E9429330E94C52E60933E01709380
:102820003F01809340019093410181E190E00E943B
:1028300029330E94C52E6093420170934301809317
:1028400044019093450185E190E00E9429330E9464
:10285000C52E609346017093470180934801909381
:10286000490188E190E00E9429330E94C52E6093BF
:102870004A0170934B0180934C0190934D018DE17F
:1028800090E00E9429330E94C52E60934E01709300
:102890004F01809350019093510181E290E00E949A
:1028A00029330E94C52E6093520170935301809387
:1028B0005401909355010895609132017091330154
:1028C00080913401909135010E94992EAB01BC0199
:1028D00081E090E00E942F336091360170913701C2
:1028E00080913801909139010E94992EAB01BC0171
:1028F00085E090E00E942F3360913A0170913B0196
:1029000080913C0190913D010E94992EAB01BC0148
:1029100089E090E00E942F3360913E0170913F0169
:1029200080914001909141010E94992EAB01BC0120
:102930008DE090E00E942F3360914201709143013D
:1029400080914401909145010E94992EAB01BC01F8
:1029500081E190E00E942F33609146017091470120
:1029600080914801909149010E94992EAB01BC01D0
:1029700085E190E00E942F3360914A0170914B01F4
:1029800080914C0190914D010E94992EAB01BC01A8
:1029900089E190E00E942F3360914E0170914F01C8
:1029A00080915001909151010E94992EAB01BC0180
:1029B0008DE190E00E942F3360915201709153019C
:1029C00080915401909155010E94992EAB01BC0158
:1029D00081E290E00E942F330895DF93CF930F920E
:1029E000CDB7DEB7198288E669E1AE014F5F5F4F70
:1029F0000E94602789810F90CF91DF910895EF9217
:102A0000FF920F931F93982F8B01F42EE22E88E6EE
:102A1000692FA8010E94602721E030E002C0220F48
:102A2000331FFA94E2F72150F801808190E002C050
:102A300095958795EA94E2F7282320831F910F91BB
:102A4000FF90EF900895DF93CF93CDB7DEB728972F
:102A50000FB6F894DEBF0FBECDBF19828CE062E0E6
:102A6000AE014F5F5F4F0E946027898180FD09C0E2
:102A700028960FB6F894DEBF0FBECDBFCF91DF9181
:102A800008958CE063E047E09E012E5F3F4F0E9477
:102A90007D27888583FDECCF9B8180E02A8130E013
:102AA000822B932B90939602809395029D8180E0D8
:102AB0002C8130E0822B932B909398028093970285
:102AC0009F8180E02E8130E0822B932B90939A029D
:102AD00080939902CDCF2F923F924F925F926F9247
:102AE0007F928F929F92AF92BF92CF92DF92EF929E
:102AF000FF920F931F93DF93CF93CDB7DEB72E973F
:102B00000FB6F894DEBF0FBECDBF88E66BE34EE094
:102B10009E012F5F3F4F0E947D27998180E02A818F
:102B2000C22EDD24C82AD92AD0924602C09245027C
:102B30009B8180E02C81A22EBB24A82AB92AB092C6
:102B40004802A09247029D8180E02E81822E992426
:102B5000882A992A90924A02809249023F8120E075
:102B6000688570E0622B732B70934C0260934B026C
:102B7000398520E04A85642E7724622A732A709270
:102B80004E0260924D023B8520E04C85442E552438
:102B9000422A532A5092500240924F023D8520E033
:102BA0004E85242E3324222A332A30925202209238
:102BB0005102882777FD8095982F0E94C72E20E02C
:102BC00030E04AEA53E40E942C2E28EB3EE142E139
:102BD00052E40E94622D60935302709354028093DA
:102BE00055029093560280915702833009F4C2C077
:102BF000823009F4A7C0813009F0D4C00F2EF0E074
:102C0000EF2EF0E0FF2EF0E00F2FF6E41F2FF02D57
:102C1000B601882777FD8095982F0E94C72EA801BE
:102C200097010E942C2E60932D0270932E028093A8
:102C30002F0290933002B501882777FD8095982F59
:102C40000E94C72EA80197010E942C2E609331028A
:102C5000709332028093330290933402B401882738
:102C600077FD8095982F0E94C72EA80197010E949A
:102C70002C2E609335027093360280933702909326
:102C8000380280915802882309F067C00F2EF0E0C7
:102C9000EF2EF0E0FF2EF3E00F2FF3E41F2FF02DC7
:102CA000B301882777FD8095982F0E94C72EA80131
:102CB00097010E942C2E6093390270933A02809300
:102CC0003B0290933C02B201882777FD8095982FB4
:102CD0000E94C72EA80197010E942C2E60933D02EE
:102CE00070933E0280933F0290934002B101882787
:102CF00077FD8095982F0E94C72EA80197010E940A
:102D00002C2E609341027093420280934302909371
:102D100044022E960FB6F894DEBF0FBECDBFCF9102
:102D2000DF911F910F91FF90EF90DF90CF90BF90B8
:102D3000AF909F908F907F906F905F904F903F905B
:102D40002F9008950F2EF0E0EF2EF0E0FF2EF0E828
:102D50000F2FF5E41F2FF02D5BCF8130B1F40F2E34
:102D6000F0E0EF2EF0E0FF2EF3E80F2FF2E41F2F3C
:102D7000F02D96CF0F2EF0E0EF2EF0E0FF2EF0E0DA
:102D80000F2FF5E41F2FF02D43CF8230C1F40F2E0B
:102D9000F3E3EF2EF3E3FF2EF3E00F2FF2E41F2F08
:102DA000F02D7ECF8823C1F40F2EF0E0EF2EF0E05F
:102DB000FF2EF0E80F2FF6E41F2FF02D29CF8330E0
:102DC000B1F40F2EF3E3EF2EF3E3FF2EF3E80F2F12
:102DD000F1E41F2FF02D64CF0F2EF0E0EF2EF0E086
:102DE000FF2EF0E80F2FFFE31F2FF02D11CF0F2E36
:102DF000F0E0EF2EF0E0FF2EF0E80F2FFFE31F2FA3
:102E0000F02D4ECF0F931F93CF93DF9300E010E090
:102E1000C0E9D1E00E946B1520E030E0CE010197BF
:102E2000F1F72F5F3F4F83E128383807B9F70F5F7D
:102E30001F4F083C110571F7DF91CF911F910F9142
:102E4000089588E66BE641E00E94FB26089588E637
:102E50006BE640E00E94FB260895EF92FF920F93ED
:102E60001F93DF93CF9300D00F92CDB7DEB77C01D5
:102E70008CE06AE040E00E94FB2600E41CE9C80107
:102E80000197F1F78CE06AE04FE00E94FB26C80151
:102E90000197F1F78CE060E143E09E012F5F3F4F27
:102EA0000E947D27698170E060587040882777FD17
:102EB0008095982F0E94C72E20E030E040E85BE329
:102EC0000E94A72F20E030E040E85FE30E94622DDF
:102ED000F70160837183828393836A8170E0605815
:102EE0007040882777FD8095982F0E94C72E20E09C
:102EF00030E040E85BE30E94A72F20E030E040E8AC
:102F00005FE30E94622DF701648375838683978354
:102F10006B8170E060587040882777FD8095982F0E
:102F20000E94C72E20E030E040E85BE30E94A72F1C
:102F300020E030E040E85FE30E94622DF701608707
:102F40007187828793878CE06AE040E00E94FB26CD
:102F5000C8010197F1F7409130014295407F80917F
:102F60003101482B8CE06AE00E94FB26C8010197E2
:102F7000F1F70F900F900F90CF91DF911F910F916C
:102F8000FF90EF900895482F88E669E10E94FB26A4
:102F90000895DF93CF930F92CDB7DEB7198288E6FD
:102FA0006BE1AE014F5F5F4F0E946027898190E027
:102FB00095958795959587959595879583700F90AD
:102FC000CF91DF910895DF93CF930F92CDB7DEB706
:102FD000198288E66AE1AE014F5F5F4F0E94602769
:102FE000898187700F90CF91DF910895EF92FF92C2
:102FF0000F931F93DF93CF930F92CDB7DEB7F82EC9
:10300000E62E042F122F198288E66F2DAE014F5F36
:103010005F4F0E94602721E030E002C0220F331F83
:103020000A95E2F72150622F70E0012E02C0660F70
:10303000771F0A94E2F7898190E0012E02C09595EE
:1030400087950A94E2F7422F4823609546232E2164
:10305000822F90E002C0880F991F1A95E2F7482B43
:10306000498388E66F2D0E94FB260F90CF91DF9158
:103070001F910F91FF90EF900895DF93CF930F92E0
:10308000CDB7DEB7198288E66BE1AE014F5F5F4FC7
:103090000E946027898190E0959587959595879501
:1030A0009595879583700F90CF91DF9108951F9329
:1030B000DF93CF930F92CDB7DEB7182F198288E632
:1030C0006AE1AE014F5F5F4F0E946027177019835E
:1030D00088E66AE1412F0E94FB260F90CF91DF9195
:1030E0001F9108951F93DF93CF930F92CDB7DEB753
:1030F000182F198288E66CE1AE014F5F5F4F0E9486
:1031000060271370110F110F110F898190E09595B1
:10311000879595958795959587958370182B198335
:1031200088E66CE1412F0E94FB260F90CF91DF9142
:103130001F9108951F93DF93CF930F92CDB7DEB702
:10314000182F198288E66BE1AE014F5F5F4F0E9436
:1031500060271370110F110F110F898190E0959561
:10316000879595958795959587958370182B1983E5
:1031700088E66BE1412F0E94FB260F90CF91DF91F3
:103180001F9108950F931F93DF93CF930F92CDB7A5
:10319000DEB788E669E140E00E94FB26198288E6F6
:1031A0006AE18E010F5F1F4FA8010E9460271982FC
:1031B00088E66AE140E00E94FB26198288E66BE11E
:1031C000A8010E946027498150E055954795559583
:1031D00047955595479543704860498388E66BE16C
:1031E0000E94FB26198288E66CE1A8010E946027F4
:1031F000498150E055954795559547955595479583
:103200004370498388E66CE10E94FB26198288E6B8
:1032100069E1A8010E946027198288E66AE1A80195
:103220000E946027198288E66BE1A8010E9460274E
:10323000898190E095958795959587959595879542
:10324000837080935802198288E66BE1A8010E947E
:103250006027898190E095958795959587959595B7
:103260008795837089838093570288E66BE640E0F8
:103270000E94FB2688E66BE140E10E94FB2688E67F
:103280006CE140E10E94FB2688E667E342E20E948F
:10329000FB2688E668E341E00E94FB2688E66BE6B1
:1032A00041E00E94FB260F90CF91DF911F910F917B
:1032B00008958F929F92AF92BF92CF92DF92EF923A
:1032C000FF920F931F93DF93CF9300D000D0CDB721
:1032D000DEB7198288E665E77E010894E11CF11CDF
:1032E000A7010E9460278981813791F080E00F90CB
:1032F0000F900F900F90CF91DF911F910F91FF9042
:10330000EF90DF90CF90BF90AF909F908F900895F7
:103310000E94C21812E0C12ED12CCC0EDD1EB3E0EB
:10332000AB2EB12CAC0EBD1EA4E08A2E912C8C0EBF
:103330009D1E00E911E088E667E342E20E94FB2659
:1033400088E668E341E00E94FB2688E667E3A60181
:103350000E94602788E664E2A5010E94602788E653
:1033600068E3A4010E946027198288E660E0A70153
:103370000E9460278A81823279F140E020E030E0CB
:10338000C8010197F1F72F5F3F4F8FE120343807D5
:10339000B9F7442381F28CE060E0A7010E94602726
:1033A0008981883409F0A2CF20E030E040E951E083
:1033B000CA010197F1F72F5F3F4F83E0283E38079E
:1033C000B9F785E692E00E942D1788E665E7A70128
:1033D0000E94602781E08BCF8B81882371F640E0CB
:1033E0008C81813059F641E0C9CF80ED97E0909310
:1033F000BA028093B9029093BC028093BB0290936F
:10340000BE028093BD029093C0028093BF0290934E
:10341000C2028093C1029093C4028093C30290932E
:10342000C6028093C5029093C8028093C70290930E
:10343000CA028093C9029093CC028093CB0210926F
:10344000CD021092CE021092CF0208951092850004
:103450001092840080E49CE9909389008093880016
:1034600088EE93E090938B0080938A001092800006
:10347000E1E8F0E010828081886080838081826052
:10348000808386E080936F0008959C018091CD0237
:103490008930F8F4E091CD02F0E0EE0FFF1FE55621
:1034A000FD4F31832083E091CD02F0E0E155FD4FE7
:1034B0006083E091CD02F0E0EE0FFF1FE754FD4F77
:1034C000118210828091CD028F5F8093CD0281E0C6
:1034D000089580E008959C01220F331FC9010895CB
:1034E0009C0136952795C9010895E82F8091CD025A
:1034F000E81748F4F0E0EE0FFF1FE754FD4F660FAA
:10350000771F718360830895A82F8091CD02A8173B
:10351000C0F46623B9F0B0E0FD01EE0FFF1FE556E1
:10352000FD4F0190F081E02DA155BD4F81E090E06D
:103530000C9002C0880F991F0A94E2F72081282B73
:1035400020830895B0E0FD01EE0FFF1FE556FD4F0B
:103550000190F081E02DA155BD4F81E090E00C90ED
:1035600002C0880F991F0A94E2F7809520812823D2
:10357000208308958091CD02882309F408958091D5
:10358000CD02882381F0E0919B02F0919C0281E0C2
:1035900090E00090AF0202C0880F991F0A94E2F7F2
:1035A0002081282B20838091B9029091BA029093B8
:1035B0008B0080938A0081E08093CE028093CF02BB
:1035C00008951F920F920FB60F920BB60F9211240F
:1035D0002F938F939F93EF93FF938091CD02882336
:1035E00061F4FF91EF919F918F912F910F900BBEFE
:1035F0000F900FBE0F901F9018958091CD028823D9
:1036000081F0E0919B02F0919C0281E090E00090BB
:10361000AF0202C0880F991F0A94E2F72081282B7D
:1036200020838091B9029091BA0290938B0080938D
:103630008A0081E08093CE028093CF02D2CF1F9286
:103640000F920FB60F920BB60F9211242F933F9348
:103650004F935F936F937F938F939F93AF93BF939A
:10366000EF93FF938091CF028823A1F18091CE0246
:10367000882309F04BC09091CE028091CD0298171B
:10368000E0F5E091CE02F0E0EE0FFF1FE754FD4FB2
:1036900080819181892B09F059C0E091CE02F0E040
:1036A000EE0FFF1FE754FD4F0190F081E02D3097A2
:1036B00011F4E8EEF3E08091840090918500E80F2A
:1036C000F91FF0938B00E0938A008091CE028F5F08
:1036D0008093CE02FF91EF91BF91AF919F918F9117
:1036E0007F916F915F914F913F912F910F900BBE02
:1036F0000F900FBE0F901F9018958091CD028823D8
:1037000059F51092CE021092CF02E4CFA091CE02D2
:10371000A1508091CD02A81708F0ADCFB0E0FD0117
:10372000EE0FFF1FE556FD4F0190F081E02DA155F2
:10373000BD4F81E090E00C9002C0880F991F0A9461
:10374000E2F7809520812823208395CF8091CE02B7
:1037500061E00E94841AA1CF8091CD02815060E087
:103760000E94841ACECFAF92BF92CF92DF92EF9297
:10377000FF920F931F937B018C01EE0CFF1C001F27
:10378000111FEE0CFF1C001F111FEE0CFF1C001F71
:10379000111FEE0CFF1C001F111F60E078E689E886
:1037A00099E09701A8010E94003459016A01089428
:1037B000A108B108C108D10860E074E284EF90E08C
:1037C0009701A8010E940034F901B90161507040CD
:1037D000CB01880F991F9B01220F331F220F331F2C
:1037E000220F331F820F931FA0E0B0E08A159B05C4
:1037F000AC05BD0579F186017501E81AF90A0A0BD5
:103800001B0BCF01880F991F9F01220F331F220F1F
:10381000331F220F331F820F931FA0E0B0E08A15E1
:103820009B05AC05BD05D1F0A6019501281B390B00
:103830004A0B5B0B2E153F054007510708F4BF01EB
:10384000CB011F910F91FF90EF90DF90CF90BF9031
:10385000AF900895EE24FF248701D3CF20E030E01D
:1038600040E050E0E7CF982F8091C00085FFFCCF6B
:103870009093C6000895E0915303F0E0E05FFC4FA1
:10388000808380915303803418F01092530308957D
:10389000809153038F5F809353030895982F8091F5
:1038A000C80085FFFCCF9093CE000895E091D70328
:1038B000F0E0EC56FC4F80838091D703803418F001
:1038C0001092D70308958091D7038F5F8093D70319
:1038D0000895DB012C91FC01E20FF11D40838C91D6
:1038E000803410F01C9208958C918F5F8C93089512
:1038F000CF93DF93DC01EB01FA0198818081981767
:1039000099F08881A80FB11D9C918881803428F09E
:103910001882892FDF91CF91089588818F5F8883E6
:10392000892FDF91CF91089590E0892FDF91CF917A
:1039300008958091C00087FFFCCF8091C600089554
:103940008091C80087FFFCCF8091CE0008959091B0
:1039500050038091510320E0981321E0822F0895B5
:103960009091D4038091D50320E0981321E0822F19
:10397000089590915003809151039817A9F0E09118
:103980005003F0E0E053FD4FE0818091500380341C
:1039900020F0109250038E2F0895809150038F5F76
:1039A000809350038E2F0895E0E08E2F089590911C
:1039B000D4038091D5039817A9F0E091D403F0E0E7
:1039C000EC5AFC4FE0818091D403803420F01092B7
:1039D000D4038E2F08958091D4038F5F8093D403F6
:1039E0008E2F0895E0E08E2F0895FC019081992399
:1039F00051F031968091C00085FFFCCF9093C600B6
:103A000090819923B1F70895FC019081992351F099
:103A100031968091C80085FFFCCF9093CE009081B5
:103A20009923B1F708951F920F920FB60F920BB61C
:103A30000F9211248F93EF93FF938091C600E09132
:103A40005103F0E0E053FD4F8083809151038034B7
:103A500060F010925103FF91EF918F910F900BBE88
:103A60000F900FBE0F901F901895809151038F5F9C
:103A700080935103F0CF1F920F920FB60F920BB6A7
:103A80000F9211248F93EF93FF938091CE00E091DA
:103A9000D503F0E0EC5AFC4F80838091D50380344D
:103AA00060F01092D503FF91EF918F910F900BBEB4
:103AB0000F900FBE0F901F9018958091D5038F5FC8
:103AC0008093D503F0CF1F920F920FB60F920BB6D3
:103AD0000F9211248F939F93EF93FF939091520332
:103AE00080915303981711F1E0915203F0E0E05FE9
:103AF000FC4FE08180915203803488F01092520391
:103B0000EE23A1F0E093C600FF91EF919F918F917A
:103B10000F900BBE0F900FBE0F901F9018958091C5
:103B200052038F5F80935203EE2361F78091C100AF
:103B30008F7D8093C100E8CFDC018C91882381F0D8
:103B4000E091D703F0E0EC56FC4F80838091D703DF
:103B5000803460F01092D70311968C91882381F7FE
:103B60008091C90080628093C90008958091D70335
:103B70008F5F8093D7031196F0CFDC018C9188235F
:103B800081F0E0915303F0E0E05FFC4F808380918F
:103B90005303803460F01092530311968C91882364
:103BA00081F78091C10080628093C1000895809167
:103BB00053038F5F809353031196F0CFAF92BF9260
:103BC000CF92DF92EF92FF920F931F937B018C01B4
:103BD000EE0CFF1C001F111FEE0CFF1C001F111F1D
:103BE000EE0CFF1C001F111FEE0CFF1C001F111F0D
:103BF00060E078E689E899E09701A8010E94003426
:103C000059016A010894A108B108C108D10860E00F
:103C100074E284EF90E09701A8010E940034F9015A
:103C2000B90161507040CB01880F991F9B01220F91
:103C3000331F220F331F220F331F820F931FA0E069
:103C4000B0E0A816B906CA06DB06E9F186017501DF
:103C5000E81AF90A0A0B1B0BCF01880F991F9F0165
:103C6000220F331F220F331F220F331F820F931F88
:103C7000A0E0B0E0A816B906CA06DB0641F1A6012D
:103C80009501281B390B4A0B5B0B2E153F0540078E
:103C9000510708F4BF0188E18093C1008EE0809352
:103CA000C2007093C5006093C4008091C100806819
:103CB0008093C1001F910F91FF90EF90DF90CF9004
:103CC000BF90AF900895EE24FF248701C5CF20E078
:103CD00030E040E050E0D9CFAF92BF92CF92DF9278
:103CE000EF92FF920F931F937B018C01EE0CFF1C50
:103CF000001F111FEE0CFF1C001F111FEE0CFF1CFC
:103D0000001F111FEE0CFF1C001F111F60E078E662
:103D100089E899E09701A8010E94003459016A01DD
:103D20000894A108B108C108D10860E074E284EFEA
:103D300090E09701A8010E940034F901B901615097
:103D40007040CB01880F991F9B01220F331F220F58
:103D5000331F220F331F820F931FA0E0B0E0A8167D
:103D6000B906CA06DB06E9F186017501E81AF90A07
:103D70000A0B1B0BCF01880F991F9F01220F331FC6
:103D8000220F331F220F331F820F931FA0E0B0E0DA
:103D9000A816B906CA06DB0641F1A6019501281B43
:103DA000390B4A0B5B0B2E153F054007510708F4F2
:103DB000BF0188E18093C9008EE08093CA007093B0
:103DC000CD006093CC008091C90080688093C900C9
:103DD0001F910F91FF90EF90DF90CF90BF90AF9029
:103DE0000895EE24FF248701C5CF20E030E040E0B5
:103DF00050E0D9CFCF93DF93EC010E94A71C88231A
:103E000019F4DF91CF9108950E94B91C982F209149
:103E1000CD05E22FF0E0E852FC4F8083E22FEF5F08
:103E20002E2FE093CD058A3011F0E33651F78091C3
:103E3000CC058823B1F481E09A30B9F081E0809319
:103E4000CC05F0E0E852FC4F1082E22FF0E0E8529F
:103E5000FC4F10821092CD051092D803DF91CF91C4
:103E600008951092CC0580E0E7CFF0E0E852FC4FD7
:103E70001082882351F388ED93E0FE01099520918B
:103E8000CD05E3CF8F929F92AF92BF92CF92DF92F8
:103E9000EF92FF920F931F93DF93CF9300D000D048
:103EA000CDB7DEB7162F072F6A0119821A821B823F
:103EB0001C8262E671E00E94412CAC01009709F47B
:103EC0005EC081E04436580709F459C0812F902F15
:103ED0009C018901EE24FF2486E6882E81E0982E3D
:103EE0005E010894A11CB11C0FC080E090E062E666
:103EF00071E00E94412CAC01009779F10C5F1F4FDB
:103F000091E04436590749F100D000D000D0EDB718
:103F1000FEB73196ADB7BEB712965C934E9311972C
:103F200093828282B582A4820E94E02C89819A8148
:103F3000AB81BC81F80180839183A283B383089411
:103F4000E11CF11C8DB79EB706960FB6F8949EBF84
:103F50000FBE8DBFEC14FD0441F6C7010F900F900A
:103F60000F900F90CF91DF911F910F91FF90EF90E5
:103F7000DF90CF90BF90AF909F908F900895EE24E8
:103F8000FF24EBCFCF92DF92EF92FF920F931F931C
:103F9000CF93DF938C010E94A71C882349F4DF9103
:103FA000CF911F910F91FF90EF90DF90CF900895E8
:103FB0000E94B91C982F2091CD05E22FF0E0E85225
:103FC000FC4F8083E22FEF5F2E2FE093CD058A30E8
:103FD00011F0E33621F78091CC058823A1F481E02C
:103FE0009A30A9F081E08093CC05F0E0E852FC4FD4
:103FF0001082E22FF0E0E852FC4F10821092CD05C3
:104000001092D803CCCF1092CC0580E0E9CFF0E03D
:10401000E852FC4F1082882361F388ED93E06CE353
:1040200074E044E650E00E94421F7C01D0903C04C2
:10403000C0903D0480913E0490913F04E701219798
:104040001C161D06D4F5E0E4F4E02D2D3C2DAC014A
:10405000C901DA0120E030E040E050E0B701660F2E
:10406000771F660F771F685C7B4F04C08191919129
:10407000A191B191280F391F4A1F5B1FE617F7075F
:10408000A9F7CC0FDD1FCC0FDD1FC45CDB4F88818F
:104090009981AA81BB8182179307A407B50719F0FC
:1040A000EE24EA94FE2C8D2D9C2D6CE374E0A70188
:1040B000F80109952091CD059CCF20E030E040E04B
:1040C00050E0DFCF8F929F92AF92BF92CF92DF925C
:1040D000EF92FF920F931F93DF93CF93CDB7DEB78D
:1040E00064970FB6F894DEBF0FBECDBF4C015A01E6
:1040F0006B018BE0E82EF12CEC0EFD1ED701EAE6F9
:10410000F1E083E001900D928150E1F7C701B90120
:104110000E94462C002349F0F70101900020E9F7A6
:1041200031978AE090E0918380838DB79EB708979E
:104130000FB6F8949EBF0FBE8DBFEDB7FEB7319698
:104140008E010F5F1F4FADB7BEB712961C930E9333
:104150001197F382E282A482B582C682D7820E943E
:10416000AF2C8DB79EB708960FB6F8949EBF0FBEC2
:104170008DBFC4010E94F51CC8010E94F51C649605
:104180000FB6F894DEBF0FBECDBFCF91DF911F9168
:104190000F91FF90EF90DF90CF90BF90AF909F90E6
:1041A0008F9008958F929F92AF92BF92CF92DF929D
:1041B000EF92FF920F931F93DF93CF93CDB7DEB7AC
:1041C00064970FB6F894DEBF0FBECDBF4C015A0105
:1041D0006B019BE0E92EF12CEC0EFD1ED701EAE607
:1041E000F1E083E001900D928150E1F7C701B90140
:1041F0000E94462C002349F0F70101900020E9F7C6
:1042000031978AE090E0918380838DB79EB70897BD
:104210000FB6F8949EBF0FBE8DBFEDB7FEB73196B7
:104220008E010F5F1F4FADB7BEB712961C930E9352
:104230001197F382E282A482B582C682D7820E945D
:10424000AF2C8DB79EB708960FB6F8949EBF0FBEE1
:104250008DBFC4010E94F51CC8010E94F51C649624
:104260000FB6F894DEBF0FBECDBFCF91DF911F9187
:104270000F91FF90EF90DF90CF90BF90AF909F9005
:104280008F900895EF92FF920F931F93DF93CF9338
:10429000CDB7DEB72A970FB6F894DEBF0FBECDBFFD
:1042A0007C012223B9F5ADB7BEB718970FB6F894C5
:1042B000BEBF0FBEADBFEDB7FEB731968E010F5F2B
:1042C0001F4F12961C930E93119784E791E09383EE
:1042D000828344835583668377830E94AF2C8DB796
:1042E0009EB708960FB6F8949EBF0FBE8DBFC7014C
:1042F0000E94F51CC8010E94F51C2A960FB6F8947E
:10430000DEBF0FBECDBFCF91DF911F910F91FF9008
:10431000EF9008958DB79EB708970FB6F8949EBF9B
:104320000FBE8DBFEDB7FEB731968E010F5F1F4FE9
:10433000ADB7BEB712961C930E9311978DE691E020
:10434000C6CF0F931F93DF93CF93CDB7DEB72A97D6
:104350000FB6F894DEBF0FBECDBF2DB73EB72850C5
:1043600030400FB6F8943EBF0FBE2DBFEDB7FEB77D
:1043700031968E010F5F1F4FADB7BEB712961C93DB
:104380000E9311972AE731E0338322836483758388
:10439000868397830E94AF2C2DB73EB7285F3F4F8F
:1043A0000FB6F8943EBF0FBE2DBFC8010E94F51C8A
:1043B0002A960FB6F894DEBF0FBECDBFCF91DF9126
:1043C0001F910F9108950F931F93DF93CF93CDB754
:1043D000DEB72A970FB6F894DEBF0FBECDBF00D070
:1043E00000D000D0EDB7FEB731968E010F5F1F4FA2
:1043F000ADB7BEB712961C930E9311972DE731E01F
:1044000033832283958384830E94AF2C8DB79EB71C
:1044100006960FB6F8949EBF0FBE8DBFC8010E94CE
:10442000F51C2A960FB6F894DEBF0FBECDBFCF9114
:10443000DF911F910F91089594B1906B94B92698D4
:1044400090E59CBD882319F08CB580628CBD6130ED
:1044500049F1613068F48CB58CBD403191F0413147
:10446000A0F44430E1F1483049F1423071F108954F
:104470006230E1F0633089F78CB58C608CBD4031DF
:1044800071F78CB581608CBD0895403421F14038BE
:1044900089F0403261F78DB581608DBD8CB5826049
:1044A0008CBD08958CB584608CBDD7CF8CB58860E9
:1044B0008CBDD3CF8CB583608CBD08958DB58160E4
:1044C0008DBD8CB581608CBD08958DB581608DBD2D
:1044D0008CB58CBD08958CB582608CBD08958CB56B
:1044E00081608CBD8CB58CBD08958EBD0DB407FE6A
:1044F000FDCF8EB50895482F662369F09C01F90120
:1045000080818EBD0DB407FEFDCF8EB531968E2F06
:10451000841B8617A8F30895482F662369F09C0131
:10452000F9019FEF9EBD0DB407FEFDCF8EB58193BF
:104530008E2F841B8617B0F3089591E09093130695
:104540008093F005109211061092120608952091A2
:10455000EF0530E08091EE05281B3109C90108956F
:104560004091EE058091EF05481760F4E42FF0E0EC
:10457000E253FA4F8081282F30E04F5F4093EE05E1
:10458000C90108952FEF3FEFC9010895E091EE05AD
:104590008091EF05E81740F4F0E0E253FA4F808194
:1045A000E82FF0E0CF010895EFEFFFEFCF0108957E
:1045B00008959C014091160650911706411551052A
:1045C00011F19091EE058091EF059817E0F0161625
:1045D000170694F490E0A0E0B0E0E0E0F0E0A25331
:1045E000BA4FE20FF31F80818C939F5FE92FF0E0B9
:1045F000DF01E617F7079CF31092EE056093EF05D5
:10460000CB01FA0109950895E0911406F091150681
:10461000309729F01092110610921206099508950C
:10462000909317068093160608959093150680932D
:1046300014060895DF93CF930F92CDB7DEB7898329
:10464000809113068823F9F0809112068032A0F43D
:1046500080911106E82FF0E0EF50FA4F9981908396
:104660008F5F809311068093120621E030E0C9012C
:104670000F90CF91DF91089520E030E0C9010F90B5
:10468000CF91DF910895CE01019661E00E945825F7
:1046900021E030E0C9010F90CF91DF9108950F9391
:1046A000082F8091F00561EF75E04091120621E03E
:1046B0000E94F22410921106109212061092130614
:1046C0000F9108950E948E2408950E9481240895D8
:1046D0001092EE051092EF0510921106109212063C
:1046E0000E94652484E093E20E94882589ED92E28D
:1046F0000E9483250895AF92BF92CF92DF92EF92EE
:10470000FF920F931F93DF93CF930F92CDB7DEB736
:104710006C017B01809113068823F1F1611571050D
:1047200071F100E010E05E010894A11CB11C17C0FB
:1047300080911206803260F480911106E82FF0E03B
:10474000EF50FA4F90838F5F80931106809312068B
:104750000F5F1F4F0E151F0590F480911306F60191
:10476000E00FF11F90819983882311F7C50161E063
:104770000E9458250F5F1F4F0E151F0570F3C701CC
:104780000F90CF91DF911F910F91FF90EF90DF90ED
:10479000CF90BF90AF900895C6010E945825EFCFEB
:1047A0000F938091F00561EF75E04091120621E0D2
:1047B00001E00E94F224109211061092120610924B
:1047C00013060F910895AF92BF92CF92DF92EF92AE
:1047D000FF920F931F93182FF62E0023B1F181E063
:1047E000809313061093F005043008F045C060E094
:1047F000E0E00023C9F00150802F880F880F880F58
:1048000059016A0104C0D694C794B794A7948A95B5
:10481000D2F7E03270F7E62FF0E0EF50FA4FA082C7
:104820006F5FE62F002339F760931106E0931206BD
:10483000812F61EF75E04E2F21E00E94F22410924B
:10484000110610921206109213064F2D413208F0F5
:1048500040E2812F6EEC75E02E2D0E94A124109273
:10486000EE058093EF051F910F91FF90EF90DF9081
:10487000CF90BF90AF90089503E0B9CF1F93182F4A
:104880001092EE051092EF0510921106109212068A
:104890000E94652484E093E20E94882589ED92E2DB
:1048A0000E948325812F0E948A241F910895242F1E
:1048B000462F613208F040E26EEC75E00E94A124C0
:1048C0001092EE058093EF0508951092180681E08E
:1048D00080931A0610921B0687B18C7F87B988B126
:1048E000836088B9E9EBF0E080818E7F80838081EE
:1048F0008D7F808388E48093B80085E48093BC003A
:104900000895ECEBF0E080818A7B808388B18C7F16
:1049100088B90895880F8093BA0008959B01AC016F
:1049200060E074E284EF90E00E9400342051304057
:104930004040504056954795379527952093B800AD
:104940000895382F4132E8F5809118068823E1F761
:1049500091E09093180620931A068FEF80938506B6
:10496000109240064150409341064F5F90931906C4
:1049700080911906330F832B8093190680911B06B3
:10498000813011F185EE8093BC0080911806813052
:10499000E1F380914006841710F4409140064423CF
:1049A00071F020E030E0FB01E20FF31FD901A05EBF
:1049B000B94F8C9180832F5F3F4F2417A0F3842F32
:1049C000089540E0842F089510921B0680911906E7
:1049D0008093BB008091BC0083FDF8CF85EC809371
:1049E000BC00D3CF0F93982F522F413208F04BC009
:1049F000809118068823E1F782E0809318060093DF
:104A00001A068FEF80938506109240064093410668
:104A1000442371F020E030E0F901E05EF94FDB0162
:104A2000A20FB31F8C9180832F5F3F4F2417A0F3F9
:104A30001092190680911906990F892B80931906F7
:104A400080911B06813011F185EE8093BC005523C7
:104A500079F4809185068F3F99F0809185068032A8
:104A600019F180918506803309F184E00F91089552
:104A7000809118068230E1F3809185068F3F69F7B7
:104A800080E00F91089581E00F91089510921B0628
:104A9000809119068093BB008091BC0083FDF8CF04
:104AA00085EC8093BC00D3CF82E0E0CF83E0DECF03
:104AB000AC018091630690E0860F911D81970CF503
:104AC00080911806843011F082E00895662391F0F9
:104AD00020E030E080916306F901EE5BF94FE80FCA
:104AE000F11DDA01A20FB31F8C9180832F5F3F4F1E
:104AF000261780F380916306860F8093630680E01B
:104B0000089581E0089590931F0680931E060895EE
:104B100090931D0680931C060895882321F485E850
:104B20008093BC00089585EC8093BC00089585EDCA
:104B30008093BC008091BC0084FDFCCF10921806CD
:104B4000089585EC8093BC001092180608951F927A
:104B50000F920FB60F920BB60F9211242F933F9323
:104B60004F935F936F937F938F939F93AF93BF9375
:104B7000EF93FF938091B90090E0A0E0B0E0887FD0
:104B80009070A070B070FC01893C910590F5EA5BD3
:104B9000FF4FEE0FFF1F0590F491E02D099484E084
:104BA000809318061092620610926306E0911C062C
:104BB000F0911D06099580916306882329F481E010
:104BC000809363061092420690916206E92FF0E00E
:104BD000EE5BF94F80818093BB009F5F90936206EC
:104BE00090916206809163069817D8F485EC8093C3
:104BF000BC00FF91EF91BF91AF919F918F917F91F9
:104C00006F915F914F913F912F910F900BBE0F903D
:104C10000FBE0F901F90189580918406803208F483
:104C2000AAC085E88093BC00E4CF809140069091B3
:104C3000BB00E82FF0E0E05EF94F90838F5F809338
:104C400040069091400680914106981750F7CECFCC
:104C500080E38093850685ED8093BC008091BC0045
:104C600084FDFCCF10921806C4CF88E3809385069C
:104C700085EC8093BC0010921806BBCF8091400653
:104C80009091BB00E82FF0E0E05EF94F90838F5FDA
:104C90008093400680911A06882309F47CC085ED34
:104CA0008093BC008091BC0084FDFCCFDBCF83E00F
:104CB000809318061092840685EC8093BC0099CFEF
:104CC0001092850685ED8093BC008091BC0084FD28
:104CD000FCCFC8CF809119068093BB0085EC8093F0
:104CE000BC0087CF9091400680914106981708F448
:104CF0005BC080911A06882309F44DC085ED80932E
:104D0000BC008091BC0084FDFCCFACCF80E28093DE
:104D1000850685ED8093BC008091BC0084FDFCCFAE
:104D2000A1CF85EC8093BC00109218068091840678
:104D3000803230F4E0918406F0E0EC59F94F1082B3
:104D400060918406E0911E06F0911F0684E696E0CD
:104D500070E00995109284064CCF85EC8093BC00DE
:104D60001092180646CF85ED8093BC008091BC0060
:104D700084FDFCCF77CF809184069091BB00E82F13
:104D8000F0E0EC59F94F90838F5F8093840685ECB7
:104D90008093BC002ECF81E080931B0684EA809331
:104DA000BC001092180625CF90914006E92FF0E044
:104DB000E05EF94F80818093BB009F5F9093400637
:104DC00085EC8093BC0015CFFF920F931F93162F95
:104DD000F42E052F0E949D22812F0E941A23802FDE
:104DE0000E941A238F2D0E941A230E94D0231F9104
:104DF0000F91FF9008950F931F93162F042F0E9479
:104E00009D22812F0E941A23802F0E941A230E9424
:104E1000D0231F910F910895EF92FF920F931F934C
:104E2000CF93DF93F62E142F022FE32E442339F471
:104E3000DF91CF911F910F91FF90EF9008950E9405
:104E40009D228F2D0E941A23802F9E2D9C01E90107
:104E500089910E941A239E01201B2117C8F30E94EA
:104E6000D023DF91CF911F910F91FF90EF90089584
:104E7000EF92FF920F931F93E82EF62E8A010E9465
:104E80009D228F2D0E941A230E94D0238E2D62E036
:104E900041E00E9457240E94B022F82EF80180833E
:104EA00091830E94B0223F2D20E0280F391FF80186
:104EB0003183208381E01F910F91FF90EF9008953F
:104EC000EF92FF920F931F93182F062F7A010E94E3
:104ED0009D22802F0E941A230E94D023812F61E0FF
:104EE00041E00E9457240E94B022F701808381E0B4
:104EF0001F910F91FF90EF900895DF92EF92FF9234
:104F00000F931F93CF93DF93082F162FF42EE22ECB
:104F1000D32E0E949D22812F0E941A230E94D0230B
:104F2000802F6F2D41E00E945724FF2059F08E2DD5
:104F30009D2D9C01E9010E94B02289939E012E19AA
:104F40002F15C8F380E0DF91CF911F910F91FF9053
:104F5000EF90DF9008952F923F924F925F926F9261
:104F60007F928F929F92AF92BF92CF92DF92EF92F9
:104F7000FF920F931F93DF93CF93CDB7DEB7619767
:104F80000FB6F894DEBF0FBECDBF3C017F876E87A2
:104F90006A01FC0117821682838181FD03C06FEFD5
:104FA0007FEF6FC39E012F5F3F4F398B288BF3013B
:104FB0002381EE85FF8523FD859123FF8191FF8766
:104FC000EE87882309F45AC3853251F4EE85FF85B4
:104FD00023FD859123FF8191FF87EE87853229F498
:104FE00090E0B3010E94832CE2CF982F10E0882438
:104FF00099241032B0F49B3269F09C3228F490323C
:1050000051F0933271F40BC09D3239F0903349F472
:10501000116028C01260146025C0186023C01061A0
:1050200021C017FD2AC0892F80538A3078F416FFDB
:1050300006C0FAE09F9E902C1124980E13C03AE00F
:10504000839E802C1124880E10620CC09E3221F4A5
:1050500016FD14C3106406C09C3611F4106802C01B
:10506000983659F4EE85FF8523FD959123FF9191A4
:10507000FF87EE87992309F0BCCF892F85548330B1
:1050800020F4812F8061905E07C0892F8556833080
:1050900008F09FC1812F8F7E86FD02C076E0972E9B
:1050A0006FE3F62EF822953619F4F0E4FF2A07C0D4
:1050B000963619F420E8F22A02C091109A94F7FE6D
:1050C0000AC03BE3391518F45CE3B52E02C0B92CD5
:1050D000B39427E009C047E0491520F4BB2447E01A
:1050E000942EF7CF292DBB24C60104969D878C876B
:1050F000F6016081718182819381AE014F5F5F4FC4
:105100000B2D0E945E2B6C010981202E332400FFA1
:1051100004C003FD02C01DE209C0F1FE02C01BE293
:1051200005C0F2FC02C010E001C010E2C1018C70A9
:105130009070892BB9F1112311F483E001C084E050
:10514000881510F088240AC0881AF3FC07C080E292
:1051500090E0B3010E94832C8A94C9F7112329F0AF
:10516000812F90E0B3010E94832C23FE03C00BE447
:1051700012E00EC00FE412E00BC0E114F10409F0DC
:10518000805290E0B3010E94832C0F5F1F4F05C037
:10519000EF2CFF24F0E1EF22FF24F8018491882313
:1051A00061F714C1F7FE12C0BC0C24FE04C08A8152
:1051B000813309F4BA941B141CF0BB24B3942DC0A2
:1051C000F8E0FB1550F538E0B32E27C0F6FC25C0FB
:1051D000892D90E08C159D054CF02CEFC2162FEF19
:1051E000D20624F030E8F32A01C09A94992049F0BD
:1051F000E2E0F0E0EC0FFD1FE90DF11D808180334E
:10520000A1F3F7FE0AC0B92CB394892D90E0C8161B
:10521000D90614F0992401C09C18F7FC03C025E0BE
:1052200030E009C01C141D041CF021E030E003C074
:1052300096012F5F3F4F112311F02F5F3F4F9920B1
:1052400029F0892D90E00196280F391F882D90E0D4
:105250002817390714F0882401C0821A4F2C5524CE
:10526000C20189709070892B39F008C080E290E00B
:10527000B3010E94832C8A948820C1F7112329F05E
:10528000812F90E0B3010E94832C43FE07C008C029
:1052900080E390E0B3010E94832C8A948820C1F7B8
:1052A000F7FE46C08601D7FE02C000E010E076019E
:1052B0000894E11CF11CE01AF10A41E050E04C0FA7
:1052C0005D1FE40EF51E26014B185108892D90E054
:1052D000AA24BB24A81AB90A5FEF0F3F150729F4C7
:1052E0008EE290E0B3010E94832CC016D10634F008
:1052F000401651061CF4F701808101C080E3015083
:1053000010400894E11CF11C0A151B052CF090E0DC
:10531000B3010E94832CE0CF0C151D0539F49A814E
:10532000963318F4953311F424FE81E390E04BC0DA
:105330008A81813309F00F7E90E0B3010E94832CB3
:105340009920A1F08EE290E0B3010E94832C12E03C
:10535000E1E0F0E0EC0FFD1FE10FF11D1F5F808128
:1053600090E0B3010E94832C9A9491F744FC03C00F
:1053700085E690E002C085E490E0B3010E94832CB2
:10538000D7FC05C0C114D10441F404FF06C0D09479
:10539000C194D108D3948DE201C08BE290E0B301B7
:1053A0000E94832C80E305C08F5F26EF3FEFC20E83
:1053B000D31E3AE0C316D104BCF790E0B3010E94BB
:1053C000832CC601C096B3010E94832CCC84DD845B
:1053D00052C1933631F0933799F0933509F059C0A3
:1053E00023C0F601808189835E010894A11CB11C51
:1053F00022E030E0C20ED31E21E0E22EF12C12C0DA
:10540000F601A080B18016FD03C06FEF7FEF02C0F0
:10541000692D70E022E030E0C20ED31EC5010E946B
:10542000512C7C011F7713C0F601A080B18016FDBE
:1054300003C06FEF7FEF02C0692D70E022E030E023
:10544000C20ED31EC5010E94362C7C01106813FFCA
:1054500007C01BC080E290E0B3010E94832C8A94B5
:10546000882D90E0E816F906A8F30FC0F50117FDA6
:10547000859117FF81915F0190E0B3010E94832C19
:1054800081108A940894E108F108E114F10471F79D
:10549000F2C0943611F0993689F517FF08C0F6016D
:1054A000208131814281538184E090E00AC0F6017D
:1054B000808191819C01442737FD4095542F82E0E3
:1054C00090E0C80ED91E9FE6F92EF12257FF09C0C1
:1054D00050954095309521953F4F4F4F5F4F90E845
:1054E000F92ACA01B901AE014F5F5F4F2AE030E0EF
:1054F0000E94032DE82EE889EE1A41C0953721F469
:105500001F7E2AE030E01CC0197F9F3661F0903783
:1055100020F4983509F0B2C00FC0903739F09837B1
:1055200009F0ACC004C028E030E00AC0106114FDEE
:10553000146020E130E004C014FD166020E132E088
:1055400017FF08C0F601608171818281938144E078
:1055500050E008C0F60180819181BC0180E090E0BC
:1055600042E050E0C40ED51EAE014F5F5F4F0E9477
:10557000032DE82E5889E51A8FE7F82EF122F6FE62
:105580000BC08EEFF822E91438F4F4FE07C0F2FCE9
:1055900005C09FEEF92202C01E2D01C0192DF4FE98
:1055A0000DC0FE01EE0DF11D8081803319F4E9EE8E
:1055B000FE2208C01F5FF2FE05C003C08F2D867853
:1055C00009F01F5F0F2DF3FC14C0F0FE0FC018157B
:1055D00010F09E2C0BC09E2C980C911A182D06C012
:1055E00080E290E0B3010E94832C1F5F1815C0F386
:1055F00004C0181510F4811A01C0882404FF0FC0DC
:1056000080E390E0B3010E94832C02FF1DC001FDE6
:1056100003C088E790E00EC088E590E00BC0802FC3
:10562000867891F001FF02C08BE201C080E2F7FCB6
:105630008DE290E0B3010E94832C06C080E390E0ED
:10564000B3010E94832C9A94E914C0F3EA94E1E038
:10565000F0E0EC0FFD1FEE0DF11D808190E0B30135
:105660000E94832CEE2091F706C080E290E0B30107
:105670000E94832C8A948820C1F799CCF30166811B
:105680007781CB0161960FB6F894DEBF0FBECDBF18
:10569000CF91DF911F910F91FF90EF90DF90CF900E
:1056A000BF90AF909F908F907F906F905F904F9042
:1056B0003F902F900895F8940C943D34283008F0D2
:1056C00027E03327DA01990F311D87FD916000969D
:1056D0006105710539F432602E5F3D9330E32A9500
:1056E000E1F708959F3F30F080387105610509F0BA
:1056F0003C5F3C5F3D93913008F08068911DDF93E3
:10570000CF931F930F93FF92EF92192F987F969547
:10571000E92F96959695E90FFF27E355FD4F9927B9
:105720003327EE24FF24A701E7010590089407948E
:1057300028F4360FE71EF81E491F511D660F771F0C
:10574000881F991F0694A1F70590079428F4E70E87
:10575000F81E491F561FC11D770F881F991F661F0E
:105760000694A1F70590079428F4F80E491F561FD8
:10577000C71FD11D880F991F661F771F0694A1F7B9
:105780000590079420F4490F561FC71FD81F990F83
:10579000661F771F881F0694A9F7849110951770CC
:1057A00041F0D695C79557954795F794E7941A9584
:1057B000C1F7E3E5F2E06894159015913591659194
:1057C000959105907FE27395E118F10A430B560B12
:1057D000C90BD009C0F7E10CF11E431F561FC91FAA
:1057E000D01D7EF4703311F48A95E6CFE894015011
:1057F00030F0080F0AF40027021708F4202F239531
:10580000022F7A3328F079E37D932A95E9F710C0C7
:105810007D932A9589F60694979567953795179500
:105820001794E118F10A430B560BC90BD00998F0F5
:1058300023957E9173957A3308F070E37C9320135F
:10584000B8F77E9170617D9330F0839571E37D931D
:1058500070E32A95E1F71124EF90FF900F911F91CB
:10586000CF91DF91992787FD90950895FC010590D0
:10587000615070400110D8F7809590958E0F9F1F52
:10588000089546E856E00E945C2C0895FB01DC0177
:105890000D900020E9F7119701900D920020E1F79B
:1058A0000895FC016150704001900110D8F7809577
:1058B00090958E0F9F1F0895FA01A191B0810097D6
:1058C00019F41097E1F0CD01DC01CD010D9000201D
:1058D00011F4C00113C0FB012191222319F02015FE
:1058E000D9F7F3CFFB012191201519F41E921196DF
:1058F00006C02223C1F70D900020A1F7D001FA01C4
:10590000A193B08308950F931F93CF93DF938C01DE
:10591000EB018B8181FF1BC082FF0DC02E813F8177
:105920008C819D812817390764F4E881F9810193FE
:10593000F983E88306C0E885F985802F0995892BCE
:1059400031F48E819F8101969F838E8302C00FEF79
:105950001FEFC801DF91CF911F910F9108950F9311
:105960001F93DF93CF93CDB7DEB72E970FB6F89482
:10597000DEBF0FBECDBF0D891E8986E08C831A83E2
:1059800009838FEF9FE79E838D839E01275E3F4FA4
:10599000CE0101966F89788DA9010E94AB272F81D6
:1059A0003885020F131FF80110822E960FB6F89457
:1059B000DEBF0FBECDBFCF91DF911F910F91089534
:1059C000DF93CF93CDB7DEB72E970FB6F894DEBF37
:1059D0000FBECDBF85E08C838B899C899A83898398
:1059E0009E01295E3F4FCE0101966D897E89A901F6
:1059F0000E94FE312E960FB6F894DEBF0FBECDBFCB
:105A0000CF91DF910895FA01AA27283051F1203172
:105A100081F1E8946F936E7F6E5F7F4F8F4F9F4F42
:105A2000AF4FB1E03ED0B4E03CD0670F781F891F84
:105A30009A1FA11D680F791F8A1F911DA11D6A0F52
:105A4000711D811D911DA11D20D009F468943F9105
:105A50002AE0269F11243019305D3193DEF6CF0104
:105A60000895462F4770405D4193B3E00FD0C9F7CA
:105A7000F6CF462F4F70405D4A3318F0495D31FD37
:105A80004052419302D0A9F7EACFB4E0A69597958A
:105A9000879577956795BA95C9F700976105710560
:105AA00008959B01AC010A2E0694579547953795AA
:105AB0002795BA95C9F7620F731F841F951FA01D04
:105AC00008955058BB27AA270ED0FCC1EDD130F065
:105AD000F2D120F031F49F3F11F41EF4BDC10EF459
