:100000000C9415010C9434010C9434010C943401BB
:100010000C9434010C9434010C9434010C9434018C
:100020000C9434010C9434010C9434010C9434017C
:100030000C9434010C947A060C94B8060C94340198
:100040000C9434010C9434010C9434010C9434015C
:100050000C94AC080C94FC080C9434010C943401FE
:100060000C9434010C9434010C94860F0C943401DC
:100070000C94D4080C9434010C9434010C94340185
:100080000C9434010C9434010C9434013F10D80FBB
:10009000D80FD80FD80FD80FD80FD80F4910D80FB6
:1000A000D80FD80FD80FD80FD80FD80F4910D80FA6
:1000B000D80FD80FD80FD80FD80FD80F5110D80F8E
:1000C000D80FD80FD80FD80FD80FD80F6510D80F6A
:1000D000D80FD80FD80FD80FD80FD80F5110D80F6E
:1000E000D80FD80FD80FD80FD80FD80F0710D80FA8
:1000F000D80FD80FD80FD80FD80FD80F1410D80F8B
:10010000D80FD80FD80FD80FD80FD80F0010D80F8E
:10011000D80FD80FD80FD80FD80FD80F9210D80FEC
:10012000D80FD80FD80FD80FD80FD80FF40FD80F7B
:10013000D80FD80FD80FD80FD80FD80F1D10D80F41
:10014000D80FD80FD80FD80FD80FD80F3610D80F18
:10015000D80FD80FD80FD80FD80FD80F3610D80F08
:10016000D80FD80FD80FD80FD80FD80F3610D80FF8
:10017000D80FD80FD80FD80FD80FD80F3610D80FE8
:10018000D80FD80FD80FD80FD80FD80FEB0FD80F24
:10019000D80FD80FD80FD80FD80FD80FF00FD80F0F
:1001A000D80FD80FD80FD80FD80FD80FEB0FD80F04
:1001B000D80FD80FD80FD80FD80FD80FF00FD80FEF
:1001C000D80FD80FD80FD80FD80FD80F7010D80F5E
:1001D000D80FD80FD80FD80FD80FD80FAE0FD80F11
:1001E000D80FD80FD80FD80FD80FD80FAE0FD80F01
:1001F000D80FD80FD80FD80FD80FD80FC30FD80FDC
:10020000D80FD80FD80FD80FD80FD80F8C10D80F01
:10021000D80FD80FD80FD80FD80FD80F8C10636411
:10022000696E6F70737578585B0011241FBECFEF35
:10023000D0E4DEBFCDBF11E0A0E0B1E0EEE3FDE22F
:1002400000E00BBF02C007900D92A631B107D9F7AD
:1002500015E0A6E1B1E001C01D92AF32B107E1F7B0
:100260000E947A010C948A110C94000081B1806C78
:1002700081B982B18F7382B9089508958DE391E0B9
:100280000E945B0B0895F89485B7806885BF85B799
:10029000806885BF14BE81B1806C81B982B18F73D3
:1002A00082B960E072EC81E090E00E94770980E022
:1002B00091E00E948E08789461E040E951E0169A3E
:1002C00020E030E0CA010197F1F72F5F3F4F83E153
:1002D00028383807B9F7169820E030E0CA010197AE
:1002E000F1F72F5F3F4F83E128383807B9F76150A6
:1002F00030F70895F89485B7806885BF85B7806822
:1003000085BF14BE81B1806C81B982B18F7382B90F
:1003100060E072EC81E090E00E94770980E091E07B
:100320000E948E08789461E040E951E0169A20E03E
:1003300030E0CA010197F1F72F5F3F4F83E1283882
:100340003807B9F7169820E030E0CA010197F1F7B5
:100350002F5F3F4F83E128383807B9F7615030F7F6
:100360008DE391E00E945B0BFBCFEF92FF920F9326
:100370001F93FC018091160190911701A091180123
:10038000B091190180839183A283B38380911A0174
:1003900090911B01A0911C01B0911D01FB01808374
:1003A0009183A283B38380911E0190911F01A0913C
:1003B0002001B0912101FA0180839183A283B3834C
:1003C0008091220190912301A0912401B0912501F7
:1003D000F90180839183A283B38380912601909158
:1003E0002701A0912801B0912901F8018083918310
:1003F000A283B38380912A0190912B01A0912C01BB
:10040000B0912D01F70180839183A283B38381E0B2
:100410001F910F91FF90EF9008952F923F924F926E
:100420005F926F927F928F929F92AF92BF92CF9284
:10043000DF92EF92FF920F931F93DF93CF93CDB78D
:10044000DEB72E970FB6F894DEBF0FBECDBF88E69D
:100450006BE34EE09E012F5F3F4F0E945C1199813C
:1004600080E02A81C22EDD24C82AD92AD0922F0109
:10047000C0922E019B8180E02C81A22EBB24A82A51
:10048000B92AB0923101A09230019D8180E02E8185
:10049000822E9924882A992A9092330180923201DF
:1004A0003F8120E0688570E0622B732B70933501EB
:1004B00060933401398520E04A85642E7724622ACE
:1004C000732A70923701609236013B8520E04C859B
:1004D000442E5524422A532A509239014092380121
:1004E0003D8520E04E85242E3324222A332A309263
:1004F0003B0120923A01882777FD8095982F0E9432
:10050000AB1220E030E04AEA53E40E94411228EBAB
:100510003EE142E152E40E94DD1160933C017093A0
:100520003D0180933E0190933F01809140018330D3
:1005300009F4C2C0823009F4A7C0813009F0D4C0E8
:100540000F2EF0E0EF2EF0E0FF2EF0E00F2FF6E49C
:100550001F2FF02DB601882777FD8095982F0E94D8
:10056000AB12A80197010E9441126093160170938B
:1005700017018093180190931901B501882777FD21
:100580008095982F0E94AB12A80197010E944112FA
:1005900060931A0170931B0180931C0190931D01BD
:1005A000B401882777FD8095982F0E94AB12A8018F
:1005B00097010E94411260931E0170931F01809366
:1005C00020019093210180914101882309F067C0A7
:1005D0000F2EF0E0EF2EF0E0FF2EF3E00F2FF3E40C
:1005E0001F2FF02DB301882777FD8095982F0E944B
:1005F000AB12A80197010E944112609322017093EF
:1006000023018093240190932501B201882777FD6F
:100610008095982F0E94AB12A80197010E94411269
:1006200060932601709327018093280190932901FC
:10063000B101882777FD8095982F0E94AB12A80101
:1006400097010E94411260932A0170932B018093BD
:100650002C0190932D012E960FB6F894DEBF0FBE9D
:10066000CDBFCF91DF911F910F91FF90EF90DF9061
:10067000CF90BF90AF909F908F907F906F905F9042
:100680004F903F902F9008950F2EF0E0EF2EF0E066
:10069000FF2EF0E80F2FF5E41F2FF02D5BCF8130F8
:1006A000B1F40F2EF0E0EF2EF0E0FF2EF3E80F2F65
:1006B000F2E41F2FF02D96CF0F2EF0E0EF2EF0E09A
:1006C000FF2EF0E00F2FF5E41F2FF02D43CF8230E7
:1006D000C1F40F2EF3E3EF2EF3E3FF2EF3E00F2F21
:1006E000F2E41F2FF02D7ECF8823C1F40F2EF0E00F
:1006F000EF2EF0E0FF2EF0E80F2FF6E41F2FF02D85
:1007000029CF8330B1F40F2EF3E3EF2EF3E3FF2E66
:10071000F3E80F2FF1E41F2FF02D64CF0F2EF0E040
:10072000EF2EF0E0FF2EF0E80F2FFFE31F2FF02D4C
:1007300011CF0F2EF0E0EF2EF0E0FF2EF0E80F2F9C
:10074000FFE31F2FF02D4ECF88E66BE641E00E94BD
:10075000DA10089588E66BE640E00E94DA1008950A
:10076000482F88E669E10E94DA100895DF93CF935D
:100770000F92CDB7DEB7198288E669E1AE014F5F0F
:100780005F4F0E943F1189810F90CF91DF910895B3
:10079000EF92FF920F931F93982F8B01F42EE22E6E
:1007A00088E6692FA8010E943F1121E030E002C0D5
:1007B000220F331FFA94E2F72150F801808190E074
:1007C00002C095958795EA94E2F7282320831F912C
:1007D0000F91FF90EF900895DF93CF930F92CDB7D5
:1007E000DEB7198288E66BE1AE014F5F5F4F0E9472
:1007F0003F11898190E09595879595958795959579
:10080000879583700F90CF91DF910895DF93CF93F9
:100810000F92CDB7DEB7198288E66AE1AE014F5F6D
:100820005F4F0E943F11898187700F90CF91DF91B8
:100830000895EF92FF920F931F93DF93CF930F9240
:10084000CDB7DEB7F82EE62E042F122F198288E6D8
:100850006F2DAE014F5F5F4F0E943F1121E030E0EE
:1008600002C0220F331F0A95E2F72150622F70E079
:10087000012E02C0660F771F0A94E2F7898190E08B
:10088000012E02C0959587950A94E2F7422F4823DE
:10089000609546232E21822F90E002C0880F991F79
:1008A0001A95E2F7482B498388E66F2D0E94DA10EB
:1008B0000F90CF91DF911F910F91FF90EF900895CE
:1008C000DF93CF930F92CDB7DEB7198288E66BE145
:1008D000AE014F5F5F4F0E943F11898190E0959577
:1008E0008795959587959595879583700F90CF916E
:1008F000DF9108951F93DF93CF930F92CDB7DEB7AB
:10090000182F198288E66AE1AE014F5F5F4F0E949F
:100910003F111770198388E66AE1412F0E94DA10AF
:100920000F90CF91DF911F9108951F93DF93CF9385
:100930000F92CDB7DEB7182F198288E66CE1AE01B1
:100940004F5F5F4F0E943F111370110F110F110F76
:10095000898190E09595879595958795959587954B
:100960008370182B198388E66CE1412F0E94DA10FE
:100970000F90CF91DF911F9108951F93DF93CF9335
:100980000F92CDB7DEB7182F198288E66BE1AE0162
:100990004F5F5F4F0E943F111370110F110F110F26
:1009A000898190E0959587959595879595958795FB
:1009B0008370182B198388E66BE1412F0E94DA10AF
:1009C0000F90CF91DF911F9108950F931F93DF93A5
:1009D000CF930F92CDB7DEB788E669E140E00E9481
:1009E000DA10198288E66AE18E010F5F1F4FA801B5
:1009F0000E943F11198288E66AE140E00E94DA1005
:100A0000198288E66BE1A8010E943F11498150E0FC
:100A10005595479555954795559547954370486029
:100A2000498388E66BE10E94DA10198288E66CE15E
:100A3000A8010E943F11498150E055954795559571
:100A40004795559547954370498388E66CE10E9428
:100A5000DA10198288E669E1A8010E943F11198223
:100A600088E66AE1A8010E943F11198288E66BE1DD
:100A7000A8010E943F11898190E0959587959595F1
:100A8000879595958795837080934101198288E6B3
:100A90006BE1A8010E943F11898190E095958795AF
:100AA0009595879595958795837089838093400167
:100AB00088E66BE640E00E94DA1088E66BE140E1F0
:100AC0000E94DA1088E66CE140E10E94DA1088E6C4
:100AD0006BE641E00E94DA100F90CF91DF911F91F9
:100AE0000F910895DF93CF930F92CDB7DEB71982A0
:100AF00088E665E7AE014F5F5F4F0E943F11898135
:100B0000883629F080E00F90CF91DF9108950E9400
:100B1000E50481E00F90CF91DF91089580ED97E09B
:100B200090936101809360019093630180936201CF
:100B300090936501809364019093670180936601AF
:100B4000909369018093680190936B0180936A018F
:100B500090936D0180936C0190936F0180936E016F
:100B6000909371018093700190937301809372014F
:100B700010927401109275011092760108951092EE
:100B800085001092840080E49CE990938900809312
:100B9000880088EE93E090938B0080938A001092F7
:100BA0008000E1E8F0E010828081886080838081AD
:100BB0008260808386E080936F0008959C0180911D
:100BC00074018930F8F4E0917401F0E0EE0FFF1F3A
:100BD000EE5BFE4F31832083E0917401F0E0EA5A2E
:100BE000FE4F6083E0917401F0E0EE0FFF1FE05ACA
:100BF000FE4F11821082809174018F5F8093740187
:100C000081E0089580E008959C01220F331FC901FF
:100C100008959C0136952795C9010895E82F809184
:100C20007401E81748F4F0E0EE0FFF1FE05AFE4FA2
:100C3000660F771F718360830895A82F80917401D8
:100C4000A817C0F46623B9F0B0E0FD01EE0FFF1F56
:100C5000EE5BFE4F0190F081E02DAA5ABE4F81E07D
:100C600090E00C9002C0880F991F0A94E2F720814F
:100C7000282B20830895B0E0FD01EE0FFF1FEE5BEF
:100C8000FE4F0190F081E02DAA5ABE4F81E090E026
:100C90000C9002C0880F991F0A94E2F7809520817A
:100CA00028232083089580917401882309F40895EE
:100CB00080917401882381F0E0914201F091430119
:100CC00081E090E00090560102C0880F991F0A94BD
:100CD000E2F72081282B20838091600190916101AF
:100CE00090938B0080938A0081E0809375018093BC
:100CF000760108951F920F920FB60F920BB60F92C6
:100D000011242F938F939F93EF93FF9380917401FE
:100D1000882361F4FF91EF919F918F912F910F9014
:100D20000BBE0F900FBE0F901F901895809174010D
:100D3000882381F0E0914201F091430181E090E04D
:100D40000090560102C0880F991F0A94E2F7208193
:100D5000282B2083809160019091610190938B00FA
:100D600080938A0081E08093750180937601D2CFD1
:100D70001F920F920FB60F920BB60F9211242F9362
:100D80003F934F935F936F937F938F939F93AF9313
:100D9000BF93EF93FF93809176018823A1F1809117
:100DA0007501882309F04BC0909175018091740101
:100DB0009817E0F5E0917501F0E0EE0FFF1FE05AA3
:100DC000FE4F80819181892B09F059C0E091750116
:100DD000F0E0EE0FFF1FE05AFE4F0190F081E02D92
:100DE000309711F4E8EEF3E0809184009091850053
:100DF000E80FF91FF0938B00E0938A008091750152
:100E00008F5F80937501FF91EF91BF91AF919F919B
:100E10008F917F916F915F914F913F912F910F90A3
:100E20000BBE0F900FBE0F901F901895809174010C
:100E3000882359F51092750110927601E4CFA091A4
:100E40007501A15080917401A81708F0ADCFB0E0F2
:100E5000FD01EE0FFF1FEE5BFE4F0190F081E02DD4
:100E6000AA5ABE4F81E090E00C9002C0880F991FF3
:100E70000A94E2F7809520812823208395CF8091E2
:100E8000750161E00E941D06A1CF8091740181501F
:100E900060E00E941D06CECFAF92BF92CF92DF924C
:100EA000EF92FF920F931F937B018C01EE0CFF1CBE
:100EB000001F111FEE0CFF1C001F111FEE0CFF1C6A
:100EC000001F111FEE0CFF1C001F111F60E078E6D1
:100ED00089E899E09701A8010E947B1659016A01EF
:100EE0000894A108B108C108D10860E074E284EF59
:100EF00090E09701A8010E947B16F901B9016150A9
:100F00007040CB01880F991F9B01220F331F220FC6
:100F1000331F220F331F820F931FA0E0B0E08A150A
:100F20009B05AC05BD0579F186017501E81AF90A42
:100F30000A0B1B0BCF01880F991F9F01220F331F34
:100F4000220F331F220F331F820F931FA0E0B0E048
:100F50008A159B05AC05BD05D1F0A6019501281B9E
:100F6000390B4A0B5B0B2E153F054007510708F460
:100F7000BF01CB011F910F91FF90EF90DF90CF90B9
:100F8000BF90AF900895EE24FF248701D3CF20E0D7
:100F900030E040E050E0E7CF982F8091C00085FF1F
:100FA000FCCF9093C6000895E091FA01F0E0E95477
:100FB000FE4F80838091FA01803418F01092FA017C
:100FC00008958091FA018F5F8093FA010895982F18
:100FD0008091C80085FFFCCF9093CE000895E091EA
:100FE0007E02F0E0E55CFD4F808380917E028034DC
:100FF00018F010927E02089580917E028F5F809398
:101000007E020895DB012C91FC01E20FF11D40836B
:101010008C91803410F01C9208958C918F5F8C938A
:101020000895CF93DF93DC01EB01FA019881808171
:10103000981799F08881A80FB11D9C918881803400
:1010400028F01882892FDF91CF91089588818F5FD2
:101050008883892FDF91CF91089590E0892FDF91C8
:10106000CF9108958091C00087FFFCCF8091C6008A
:1010700008958091C80087FFFCCF8091CE0008952D
:101080009091F7018091F80120E0981321E0822FE0
:10109000089590917B0280917C0220E0981321E0DA
:1010A000822F08959091F7018091F8019817A9F087
:1010B000E091F701F0E0E958FE4FE0818091F701FF
:1010C000803420F01092F7018E2F08958091F7015F
:1010D0008F5F8093F7018E2F0895E0E08E2F0895A3
:1010E00090917B0280917C029817A9F0E0917B029D
:1010F000F0E0E550FE4FE08180917B02803420F0EB
:1011000010927B028E2F089580917B028F5F8093D7
:101110007B028E2F0895E0E08E2F0895FC019081D0
:10112000992351F031968091C00085FFFCCF9093B8
:10113000C60090819923B1F70895FC01908199230D
:1011400051F031968091C80085FFFCCF9093CE007E
:1011500090819923B1F708951F920F920FB60F92C5
:101160000BB60F9211248F93EF93FF938091C600DB
:10117000E091F801F0E0E958FE4F80838091F8019A
:10118000803460F01092F801FF91EF918F910F90F1
:101190000BBE0F900FBE0F901F9018958091F80115
:1011A0008F5F8093F801F0CF1F920F920FB60F92CE
:1011B0000BB60F9211248F93EF93FF938091CE0083
:1011C000E0917C02F0E0E550FE4F808380917C024C
:1011D000803460F010927C02FF91EF918F910F901C
:1011E0000BBE0F900FBE0F901F90189580917C0240
:1011F0008F5F80937C02F0CF1F920F920FB60F92F9
:101200000BB60F9211248F939F93EF93FF939091BE
:10121000F9018091FA01981711F1E091F901F0E0DC
:10122000E954FE4FE0818091F901803488F01092FA
:10123000F901EE23A1F0E093C600FF91EF919F9199
:101240008F910F900BBE0F900FBE0F901F901895AF
:101250008091F9018F5F8093F901EE2361F780910E
:10126000C1008F7D8093C100E8CFDC018C91882381
:1012700081F0E0917E02F0E0E55CFD4F808380919B
:101280007E02803460F010927E0211968C91882349
:1012900081F78091C90080628093C9000895809190
:1012A0007E028F5F80937E021196F0CFDC018C91DD
:1012B000882381F0E091FA01F0E0E954FE4F808349
:1012C0008091FA01803460F01092FA0111968C91AD
:1012D000882381F78091C10080628093C1000895C6
:1012E0008091FA018F5F8093FA011196F0CFAF924F
:1012F000BF92CF92DF92EF92FF920F931F937B01E9
:101300008C01EE0CFF1C001F111FEE0CFF1C001FB8
:10131000111FEE0CFF1C001F111FEE0CFF1C001F05
:10132000111F60E078E689E899E09701A8010E9422
:101330007B1659016A010894A108B108C108D108B7
:1013400060E074E284EF90E09701A8010E947B16B0
:10135000F901B90161507040CB01880F991F9B01C1
:10136000220F331F220F331F220F331F820F931FB1
:10137000A0E0B0E0A816B906CA06DB06E9F18601CE
:101380007501E81AF90A0A0B1B0BCF01880F991F88
:101390009F01220F331F220F331F220F331F820F93
:1013A000931FA0E0B0E0A816B906CA06DB0641F11B
:1013B000A6019501281B390B4A0B5B0B2E153F0527
:1013C0004007510708F4BF0188E18093C1008EE017
:1013D0008093C2007093C5006093C4008091C100E7
:1013E00080688093C1001F910F91FF90EF90DF9074
:1013F000CF90BF90AF900895EE24FF248701C5CF12
:1014000020E030E040E050E0D9CFAF92BF92CF92E1
:10141000DF92EF92FF920F931F937B018C01EE0CF2
:10142000FF1C001F111FEE0CFF1C001F111FEE0CF4
:10143000FF1C001F111FEE0CFF1C001F111F60E09E
:1014400078E689E899E09701A8010E947B16590186
:101450006A010894A108B108C108D10860E074E2EB
:1014600084EF90E09701A8010E947B16F901B90171
:1014700061507040CB01880F991F9B01220F331FD1
:10148000220F331F220F331F820F931FA0E0B0E003
:10149000A816B906CA06DB06E9F186017501E81A45
:1014A000F90A0A0B1B0BCF01880F991F9F01220F0E
:1014B000331F220F331F220F331F820F931FA0E011
:1014C000B0E0A816B906CA06DB0641F1A6019501EF
:1014D000281B390B4A0B5B0B2E153F0540075107A4
:1014E00008F4BF0188E18093C9008EE08093CA00B0
:1014F0007093CD006093CC008091C9008068809388
:10150000C9001F910F91FF90EF90DF90CF90BF9097
:10151000AF900895EE24FF248701C5CF20E030E08E
:1015200040E050E0D9CFCF93DF93EC010E94400818
:10153000882319F4DF91CF9108950E945208982FC3
:1015400020917404E22FF0E0E158FD4F8083E22FF8
:10155000EF5F2E2FE09374048A3011F0E33651F7D9
:10156000809173048823B1F481E09A30B9F081E06E
:1015700080937304F0E0E158FD4F1082E22FF0E019
:10158000E158FD4F10821092740410927F02DF9197
:10159000CF9108951092730480E0E7CFF0E0E15816
:1015A000FD4F1082882351F38FE792E0FE010995E9
:1015B00020917404E3CF8F929F92AF92BF92CF920B
:1015C000DF92EF92FF920F931F93DF93CF9300D0A0
:1015D00000D0CDB7DEB7162F072F6A0119821A8205
:1015E0001B821C826EE071E00E948D11AC0100979D
:1015F00009F45EC081E04031580709F459C0812FD9
:10160000902F9C018901EE24FF2482E1882E81E045
:10161000982E5E010894A11CB11C0FC080E090E0E0
:101620006EE071E00E948D11AC01009779F10C5FC2
:101630001F4F91E04031590749F100D000D000D050
:10164000EDB7FEB73196ADB7BEB712965C934E9329
:10165000119793828282B582A4820E94B9118981F6
:101660009A81AB81BC81F80180839183A283B3838B
:101670000894E11CF11C8DB79EB706960FB6F8943E
:101680009EBF0FBE8DBFEC14FD0441F6C7010F9045
:101690000F900F900F90CF91DF911F910F91FF90BE
:1016A000EF90DF90CF90BF90AF909F908F90089574
:1016B000EE24FF24EBCFCF92DF92EF92FF920F93B5
:1016C0001F93CF93DF938C010E944008882349F435
:1016D000DF91CF911F910F91FF90EF90DF90CF900E
:1016E00008950E945208982F20917404E22FF0E090
:1016F000E158FD4F8083E22FEF5F2E2FE0937404BB
:101700008A3011F0E33621F7809173048823A1F425
:1017100081E09A30A9F081E080937304F0E0E15811
:10172000FD4F1082E22FF0E0E158FD4F1082109241
:10173000740410927F02CCCF1092730480E0E9CF42
:10174000F0E0E158FD4F1082882361F38FE792E0CB
:1017500063EE72E044E650E00E94DB0A7C01D09028
:10176000E302C090E4028091E5029091E602E70175
:1017700021971C161D06D4F5E7EEF2E02D2D3C2D29
:10178000AC01C901DA0120E030E040E050E0B701EF
:10179000660F771F660F771F61527D4F04C08191DE
:1017A0009191A191B191280F391F4A1F5B1FE61734
:1017B000F707A9F7CC0FDD1FCC0FDD1FCD51DD4F93
:1017C00088819981AA81BB8182179307A407B507F5
:1017D00019F0EE24EA94FE2C8D2D9C2D63EE72E020
:1017E000A701F8010995209174049CCF20E030E016
:1017F00040E050E0DFCF94B1906B94B9269890E52B
:101800009CBD882319F08CB580628CBD613049F194
:10181000613068F48CB58CBD403191F04131A0F459
:101820004430E1F1483049F1423071F108956230BD
:10183000E1F0633089F78CB58C608CBD403171F775
:101840008CB581608CBD0895403421F1403889F019
:10185000403261F78DB581608DBD8CB582608CBDE5
:1018600008958CB584608CBDD7CF8CB588608CBD55
:10187000D3CF8CB583608CBD08958DB581608DBD4F
:101880008CB581608CBD08958DB581608DBD8CB5A2
:101890008CBD08958CB582608CBD08958CB5816037
:1018A0008CBD8CB58CBD08958EBD0DB407FEFDCFEB
:1018B0008EB50895482F662369F09C01F901808157
:1018C0008EBD0DB407FEFDCF8EB531968E2F841BD5
:1018D0008617A8F30895482F662369F09C01F90143
:1018E0009FEF9EBD0DB407FEFDCF8EB581938E2F69
:1018F000841B8617B0F3089591E09093BA04809307
:1019000097041092B8041092B90408952091960497
:1019100030E080919504281B3109C9010895409158
:10192000950480919604481760F4E42FF0E0EB589A
:10193000FB4F8081282F30E04F5F40939504C90111
:1019400008952FEF3FEFC9010895E091950480912C
:101950009604E81740F4F0E0EB58FB4F8081E82F45
:10196000F0E0CF010895EFEFFFEFCF010895089564
:101970009C014091BD045091BE044115510511F1E7
:1019800090919504809196049817E0F0161617062A
:1019900094F490E0A0E0B0E0E0E0F0E0AB58BB4FA2
:1019A000E20FF31F80818C939F5FE92FF0E0DF014E
:1019B000E617F7079CF31092950460939604CB0109
:1019C000FA0109950895E091BB04F091BC043097A9
:1019D00029F01092B8041092B904099508959093D3
:1019E000BE048093BD0408959093BC048093BB040F
:1019F0000895DF93CF930F92CDB7DEB7898380919F
:101A0000BA048823F9F08091B9048032A0F480915F
:101A1000B804E82FF0E0E856FB4F998190838F5F80
:101A20008093B8048093B90421E030E0C9010F909D
:101A3000CF91DF91089520E030E0C9010F90CF9160
:101A4000DF910895CE01019661E00E94370F21E0F9
:101A500030E0C9010F90CF91DF9108950F93082FC7
:101A60008091970468E974E04091B90421E00E94F4
:101A7000D10E1092B8041092B9041092BA040F91CA
:101A800008950E946D0E08950E94600E08951092B0
:101A90009504109296041092B8041092B9040E9412
:101AA000440E83EE9CE00E94670F88EB9CE00E944E
:101AB000620F0895AF92BF92CF92DF92EF92FF92A2
:101AC0000F931F93DF93CF930F92CDB7DEB76C01C7
:101AD0007B018091BA048823F1F16115710571F1E0
:101AE00000E010E05E010894A11CB11C17C08091B9
:101AF000B904803260F48091B804E82FF0E0E85631
:101B0000FB4F90838F5F8093B8048093B9040F5F7D
:101B10001F4F0E151F0590F48091BA04F601E00FD7
:101B2000F11F90819983882311F7C50161E00E941C
:101B3000370F0F5F1F4F0E151F0570F3C7010F9072
:101B4000CF91DF911F910F91FF90EF90DF90CF9099
:101B5000BF90AF900895C6010E94370FEFCF0F934B
:101B60008091970468E974E04091B90421E001E0B4
:101B70000E94D10E1092B8041092B9041092BA04C7
:101B80000F910895AF92BF92CF92DF92EF92FF92A2
:101B90000F931F93182FF62E0023B1F181E080934D
:101BA000BA0410939704043008F045C060E0E0E008
:101BB0000023C9F00150802F880F880F880F59012A
:101BC0006A0104C0D694C794B794A7948A95D2F7B3
:101BD000E03270F7E62FF0E0E856FB4FA0826F5F2F
:101BE000E62F002339F76093B804E093B904812FFE
:101BF00068E974E04E2F21E00E94D10E1092B804E3
:101C00001092B9041092BA044F2D413208F040E20C
:101C1000812F65E774E02E2D0E94800E10929504AE
:101C2000809396041F910F91FF90EF90DF90CF90DB
:101C3000BF90AF90089503E0B9CF1F93182F109273
:101C40009504109296041092B8041092B9040E9460
:101C5000440E83EE9CE00E94670F88EB9CE00E949C
:101C6000620F812F0E94690E1F910895242F462F25
:101C7000613208F040E265E774E00E94800E109245
:101C800095048093960408951092BF0481E0809398
:101C9000C1041092C20487B18C7F87B988B1836078
:101CA00088B9E9EBF0E080818E7F808380818D7F31
:101CB000808388E48093B80085E48093BC00089515
:101CC000ECEBF0E080818A7B808388B18C7F88B9DF
:101CD0000895880F8093BA0008959B01AC0160E0DD
:101CE00074E284EF90E00E947B1620513040404027
:101CF000504056954795379527952093B8000895FD
:101D0000382F4132E8F58091BF048823E1F791E054
:101D10009093BF042093C1048FEF80932C05109201
:101D2000E70441504093E8044F5F9093C0048091D2
:101D3000C004330F832B8093C0048091C204813090
:101D400011F185EE8093BC008091BF048130E1F3F6
:101D50008091E704841710F44091E704442371F064
:101D600020E030E0FB01E20FF31FD901A953BB4F84
:101D70008C9180832F5F3F4F2417A0F3842F089509
:101D800040E0842F08951092C2048091C004809393
:101D9000BB008091BC0083FDF8CF85EC8093BC0034
:101DA000D3CF0F93982F522F413208F04BC0809120
:101DB000BF048823E1F782E08093BF040093C1044D
:101DC0008FEF80932C051092E7044093E80444239E
:101DD00071F020E030E0F901E953FB4FDB01A20F85
:101DE000B31F8C9180832F5F3F4F2417A0F3109275
:101DF000C0048091C004990F892B8093C004809106
:101E0000C204813011F185EE8093BC00552379F432
:101E100080912C058F3F99F080912C05803219F12B
:101E200080912C05803309F184E00F910895809111
:101E3000BF048230E1F380912C058F3F69F780E089
:101E40000F91089581E00F9108951092C20480913E
:101E5000C0048093BB008091BC0083FDF8CF85EC6B
:101E60008093BC00D3CF82E0E0CF83E0DECFAC0133
:101E700080910A0590E0860F911D81970CF5809165
:101E8000BF04843011F082E00895662391F020E0D1
:101E900030E080910A05F901E751FB4FE80FF11D91
:101EA000DA01A20FB31F8C9180832F5F3F4F26175B
:101EB00080F380910A05860F80930A0580E00895DB
:101EC00081E008959093C6048093C504089590938B
:101ED000C4048093C3040895882321F485E8809383
:101EE000BC00089585EC8093BC00089585ED809337
:101EF000BC008091BC0084FDFCCF1092BF0408950B
:101F000085EC8093BC001092BF0408951F920F923D
:101F10000FB60F920BB60F9211242F933F934F934E
:101F20005F936F937F938F939F93AF93BF93EF9341
:101F3000FF938091B90090E0A0E0B0E0887F9070BE
:101F4000A070B070FC01893C910590F5EA5BFF4FF1
:101F5000EE0FFF1F0590F491E02D099484E080932B
:101F6000BF041092090510920A05E091C304F09194
:101F7000C404099580910A05882329F481E080939F
:101F80000A051092E90490910905E92FF0E0E75164
:101F9000FB4F80818093BB009F5F909309059091D8
:101FA000090580910A059817D8F485EC8093BC0048
:101FB000FF91EF91BF91AF919F918F917F916F9121
:101FC0005F914F913F912F910F900BBE0F900FBEDD
:101FD0000F901F90189580912B05803208F4AAC0AD
:101FE00085E88093BC00E4CF8091E7049091BB002A
:101FF000E82FF0E0E953FB4F90838F5F8093E70475
:102000009091E7048091E804981750F7CECF80E3D1
:1020100080932C0585ED8093BC008091BC0084FDED
:10202000FCCF1092BF04C4CF88E380932C0585ECCD
:102030008093BC001092BF04BBCF8091E7049091C5
:10204000BB00E82FF0E0E953FB4F90838F5F809354
:10205000E7048091C104882309F47CC085ED809356
:10206000BC008091BC0084FDFCCFDBCF83E080937B
:10207000BF0410922B0585EC8093BC0099CF109281
:102080002C0585ED8093BC008091BC0084FDFCCFC5
:10209000C8CF8091C0048093BB0085EC8093BC00C6
:1020A00087CF9091E7048091E804981708F45BC00B
:1020B0008091C104882309F44DC085ED8093BC0054
:1020C0008091BC0084FDFCCFACCF80E280932C05D6
:1020D00085ED8093BC008091BC0084FDFCCFA1CF36
:1020E00085EC8093BC001092BF0480912B05803258
:1020F00030F4E0912B05F0E0E55FFA4F108260913B
:102100002B05E091C504F091C6048BE095E070E0EA
:10211000099510922B054CCF85EC8093BC00109252
:10212000BF0446CF85ED8093BC008091BC0084FD48
:10213000FCCF77CF80912B059091BB00E82FF0E08A
:10214000E55FFA4F90838F5F80932B0585EC80933A
:10215000BC002ECF81E08093C20484EA8093BC004F
:102160001092BF0425CF9091E704E92FF0E0E953E6
:10217000FB4F80818093BB009F5F9093E70485ECC9
:102180008093BC0015CFFF920F931F93162FF42E50
:10219000052F0E947C0C812F0E94F90C802F0E9439
:1021A000F90C8F2D0E94F90C0E94AF0D1F910F9119
:1021B000FF9008950F931F93162F042F0E947C0CFD
:1021C000812F0E94F90C802F0E94F90C0E94AF0D04
:1021D0001F910F910895EF92FF920F931F93CF934A
:1021E000DF93F62E142F022FE32E442339F4DF91D0
:1021F000CF911F910F91FF90EF9008950E947C0C5A
:102200008F2D0E94F90C802F9E2D9C01E901899150
:102210000E94F90C9E01201B2117C8F30E94AF0DEC
:10222000DF91CF911F910F91FF90EF900895EF9262
:10223000FF920F931F93E82EF62E8A010E947C0CCA
:102240008F2D0E94F90C0E94AF0D8E2D62E041E0AF
:102250000E94360E0E948F0CF82EF8018083918325
:102260000E948F0C3F2D20E0280F391FF801318389
:10227000208381E01F910F91FF90EF900895EF92DE
:10228000FF920F931F93182F062F7A010E947C0C48
:10229000802F0E94F90C0E94AF0D812F61E041E078
:1022A0000E94360E0E948F0CF701808381E01F91FF
:1022B0000F91FF90EF900895DF92EF92FF920F93AE
:1022C0001F93CF93DF93082F162FF42EE22ED32ED9
:1022D0000E947C0C812F0E94F90C0E94AF0D802F70
:1022E0006F2D41E00E94360EFF2059F08E2D9D2D5E
:1022F0009C01E9010E948F0C89939E012E192F15D4
:10230000C8F380E0DF91CF911F910F91FF90EF9084
:10231000DF900895F8940C949D164DE255E00E94CC
:1023200092110895FA01A191B081009719F41097C4
:10233000E1F0CD01DC01CD010D90002011F4C001D0
:1023400013C0FB012191222319F02015D9F7F3CFF7
:10235000FB012191201519F41E92119606C022232B
:10236000C1F70D900020A1F7D001FA01A193B0832D
:102370000895DF93CF93CDB7DEB72E970FB6F894BD
:10238000DEBF0FBECDBF85E08C838B899C899A838D
:1023900089839E01295E3F4FCE0101966D897E891A
:1023A000A9010E94E6142E960FB6F894DEBF0FBE68
:1023B000CDBFCF91DF9108955058BB27AA270ED0EB
:1023C0001CC10DD130F012D120F031F49F3F11F437
:1023D0001EF402C10EF4E095E7FBF8C0E92F1ED110
:1023E00080F3BA17620773078407950718F071F432
:1023F0009EF536C10EF4E0950B2EBA2FA02D0B01E1
:10240000B90190010C01CA01A0011124FF27591B39
:1024100099F0593F50F4503E68F11A16F040A22F3F
:10242000232F342F4427585FF3CF469537952795B0
:10243000A795F0405395C9F77EF41F16BA0B620BAF
:10244000730B840BBAF09150A1F0FF0FBB1F661FF6
:10245000771F881FC2F70EC0BA0F621F731F841F39
:1024600048F4879577956795B795F7959E3F08F05F
:10247000B3CF9395880F08F09927EE0F979587951E
:1024800008950CD0BAC0B2D040F0A9D030F021F4F9
:102490005F3F19F09BC05111E4C09EC0BFD098F3BC
:1024A0009923C9F35523B1F3951B550BBB27AA27D5
:1024B00062177307840738F09F5F5F4F220F331F47
:1024C000441FAA1FA9F333D00E2E3AF0E0E830D013
:1024D00091505040E695001CCAF729D0FE2F27D016
:1024E000660F771F881FBB1F261737074807AB07E4
:1024F000B0E809F0BB0B802DBF01FF2793585F4F59
:102500002AF09E3F510568F061C0ABC05F3FECF31D
:10251000983EDCF3869577956795B795F7959F5F1D
:10252000C9F7880F911D9695879597F90895E1E071
:10253000660F771F881FBB1F621773078407BA07D0
:1025400020F0621B730B840BBA0BEE1F88F7E0952B
:102550000895E89409C097FB3EF490958095709596
:1025600061957F4F8F4F9F4F9923A9F0F92F96E9DF
:10257000BB279395F695879577956795B795F11154
:10258000F8CFFAF4BB0F11F460FF1BC06F5F7F4FF1
:102590008F4F9F4F16C0882311F096E911C0772303
:1025A00021F09EE8872F762F05C0662371F096E80C
:1025B000862F70E060E02AF09A95660F771F881FDB
:1025C000DAF7880F9695879597F9089597F99F6799
:1025D00080E870E060E008959FEF80EC08950024AB
:1025E0000A941616170618060906089500240A9478
:1025F00012161306140605060895092E0394000CFE
:1026000011F4882352F0BB0F40F4BF2B11F460FF8C
:1026100004C06F5F7F4F8F4F9F4F089557FD9058B5
:10262000440F551F59F05F3F71F04795880F97FB96
:10263000991F61F09F3F79F0879508951216130650
:102640001406551FF2CF4695F1DF08C0161617067F
:102650001806991FF1CF86957105610508940895B4
:10266000E894BB2766277727CB0197F90895FC01EB
:1026700020FD08C023FD05C022FF02C073836283D2
:10268000518340830895EF92FF920F931F9344FF6D
:1026900002C033E011C046FF02C034E00DC0DB01D0
:1026A000FC01AA0FBB1FEE1FFF1F1094D1F76A0F8A
:1026B0007B1F8E1F9F1F31E0660F771F881F991F9A
:1026C0003150D1F77B018C01E20EF11C011D111D6F
:1026D000A8019701B701CA011F910F91FF90EF90D8
:1026E00008950F931F93CF93DF938C01C8010E942D
:1026F0001C16EC0197FD08C00E940916892BB1F742
:10270000CE01B8010E945E16CE01DF91CF911F91DC
:102710000F910895AF92BF92CF92DF92EF92FF9206
:102720000F931F93CF93DF93EC01C62E5A01122F04
:102730000E941C16AC018B3219F08D3251F41068D6
:10274000CA9409F46DC0CE010E941C16AC0197FD1D
:1027500067C06DEFD62ED1228D2D807301F54033E9
:10276000F1F4CA9409F447C0CE010E941C16AC01D2
:1027700097FD41C082E0D82A483711F0483559F416
:1027800080E4D82ACA94B9F1CE010E941C16AC018B
:1027900099232CF430C0D6FC02C080E1D82AEE2464
:1027A000FF248701242F2053283088F0D4FC09C04F
:1027B0002A3068F0D6FE05C02F7D822F81518630E9
:1027C00028F0CA01BE010E945E1612C02750C8013F
:1027D000B7014D2D0E9443137B018C0182E0D82A62
:1027E000CA9461F0CE010E941C16AC0197FFDACFAB
:1027F000D1FC04C015C0EE24FF248701D7FE08C019
:1028000010950095F094E094E11CF11C011D111D40
:10281000C501B801A7012D2D0E94371381E001C029
:1028200080E0DF91CF911F910F91FF90EF90DF90AB
:10283000CF90BF90AF9008956F927F928F929F92AA
:10284000AF92BF92CF92DF92EF92FF920F931F93BE
:10285000DF93CF93CDB7DEB7A0970FB6F894DEBF66
:102860000FBECDBF6C01A62E8A017901FE01319603
:1028700080E2DF011D928A95E9F770E030E060E0C8
:1028800040E050E04F01A1E0B0E0F6018381F701A4
:1028900083FD259183FF21917F01222309F47EC0CE
:1028A0002E3519F44115510569F1872F90E08417F1
:1028B000950744F42D3551F12D3221F4332329F4B9
:1028C00031E021C0332309F4622F322F832F869504
:1028D00086958695F401E80FF11D832F87703D01E1
:1028E00002C0660C771C8A95E2F720812629208396
:1028F000361711F430E007C0361710F43F5FE6CF0B
:102900003150E4CF71E04F5F5F4FBFCF332319F0F9
:102910008E8180628E83772359F0FE0131969E016D
:102920002F5D3F4F808180958193E217F307D1F7A8
:10293000BB24B3944E010894811C911CC6010E94D3
:102940001C16AC0197FD22C0869586958695F401EC
:10295000E80FF11D808190E09A012770307002C06D
:10296000959587952A95E2F780FD05C0CA01B601C5
:102970000E945E160BC00115110519F0D8014D9388
:102980008D01AA94BB24AA20C9F602C0BB2031F451
:102990000115110529F0F801108202C0EE24FF2470
:1029A000C701A0960FB6F894DEBF0FBECDBFCF9182
:1029B000DF911F910F91FF90EF90DF90CF90BF902C
:1029C000AF909F908F907F906F9008956F927F92BD
:1029D0008F929F92AF92BF92CF92DF92EF92FF922F
:1029E0000F931F93CF93DF935C016B013A01FC01BE
:1029F000178216828824EAC0812F90E00E9409166F
:102A0000892B21F0C5010E947113E0C0153249F4F1
:102A1000F601F3FC6591F3FE61916F01653269F493
:102A200015E2C5010E941C1697FDDCC0181709F4B9
:102A3000CDC0B5010E945E16DAC06A3219F0162FB9
:102A400000E006C0F3FC1591F3FE11916F0101E067
:102A500099240FC00260692D70E080E090E040E2B0
:102A60000E944313962EF601F3FC1591F3FE11918B
:102A70006F01212F20532A3068F301FD03C09924F0
:102A80009A9403C0992009F4B2C0183621F01C367C
:102A900099F4F6010BC0F601F3FC6591F3FE619128
:102AA000683619F06F01162F07C008600460F3FC48
:102AB0001591F3FE11916F01112309F498C08EE175
:102AC00092E0612F70E00E941116892B09F48FC0EB
:102AD000802F00FF03C0EE24FF2407C0F301E08035
:102AE000F18022E030E0620E731E1E3651F4F501D3
:102AF0004681578160E070E0C701202F0E943713A4
:102B000065C0133691F481FD02C099249394C501E8
:102B10000E941C1697FD66C0E114F10419F0F7013C
:102B200081937F019A9499F74FC01B3559F4C501E1
:102B3000692DA70196010E941C146C01009709F0F1
:102B400043C03DC0C5010E94711397FD4BC01F36A5
:102B500059F1103728F4143629F1193639F527C000
:102B6000133719F0153711F51DC0C5010E941C1649
:102B7000EC0197FD11C00E940916892B29F0CE01A6
:102B8000B5010E945E1608C0E114F10419F0F701C6
:102B9000C1937F019A9449F7E114F104A9F0F70178
:102BA000108212C0006203C0006101C00064C50150
:102BB000692DA701202F0E948A13882329F4F5018B
:102BC0008381807379F413C000FF8394F501F3804F
:102BD000F601F3FC1591F3FE11916F01112309F039
:102BE0000BCF05C0882019F42FEF3FEF02C0282D2E
:102BF00030E0C901DF91CF911F910F91FF90EF90CD
:102C0000DF90CF90BF90AF909F908F907F906F900C
:102C1000089591116DC0803219F089508550D0F718
:102C20000895FC010590061621F00020D9F7C00197
:102C300008953197CF010895CF93DF93EC014B8135
:102C400040FF1AC046FF0AC04F7B4B838E819F8195
:102C500001969F838E838A81282F2BC042FF13C049
:102C6000E881F9818081282F332727FD30952115B0
:102C7000310529F440624B832FEF3FEF1BC03196A3
:102C8000F983E88311C0EA85FB85CE0109959C0193
:102C900097FF0AC09B812F5F3F4F11F080E201C078
:102CA00080E1892B8B83E8CF8E819F8101969F8362
:102CB0008E8330E0C901DF91CF9108959C01FB0123
:102CC000838180FF11C086FD0FC09FEF2F3F390722
:102CD00059F0228380648F7D838386819781019759
:102CE0009783868330E002C02FEF3FEFC90108953C
:102CF000992788270895A1E21A2EAA1BBB1BFD0164
:102D00000DC0AA1FBB1FEE1FFF1FA217B307E407CA
:102D1000F50720F0A21BB30BE40BF50B661F771F22
:102D2000881F991F1A9469F7609570958095909502
:0E2D30009B01AC01BD01CF010895F894FFCFC7
:102D3E0068656C6C6F20776F726C640D0A002C00E6
:062D4E000A00256C640080
:00000001FF
