:100000000C945B020C947A020C947A020C947A029F
:100010000C9450060C9418050C947A020C947A02F5
:100020000C947A020C94FE040C947A020C947A02DA
:100030000C947A020C948D1D0C94CB1D0C947A02B6
:100040000C94AD050C9440060C947A020C947A0240
:100050000C94BF1F0C940F200C947A020C947A021B
:100060000C9475050C947A020C946C2F0C947A0203
:100070000C94E71F0C947A020C947A020C947A0286
:100080000C94012C0C947A020C947A022530BE2F29
:10009000BE2FBE2FBE2FBE2FBE2FBE2F2F30BE2F86
:1000A000BE2FBE2FBE2FBE2FBE2FBE2F2F30BE2F76
:1000B000BE2FBE2FBE2FBE2FBE2FBE2F3730BE2F5E
:1000C000BE2FBE2FBE2FBE2FBE2FBE2F4B30BE2F3A
:1000D000BE2FBE2FBE2FBE2FBE2FBE2F3730BE2F3E
:1000E000BE2FBE2FBE2FBE2FBE2FBE2FED2FBE2F79
:1000F000BE2FBE2FBE2FBE2FBE2FBE2FFA2FBE2F5C
:10010000BE2FBE2FBE2FBE2FBE2FBE2FE62FBE2F5F
:10011000BE2FBE2FBE2FBE2FBE2FBE2F7830BE2FBC
:10012000BE2FBE2FBE2FBE2FBE2FBE2FDA2FBE2F4B
:10013000BE2FBE2FBE2FBE2FBE2FBE2F0330BE2F11
:10014000BE2FBE2FBE2FBE2FBE2FBE2F1C30BE2FE8
:10015000BE2FBE2FBE2FBE2FBE2FBE2F1C30BE2FD8
:10016000BE2FBE2FBE2FBE2FBE2FBE2F1C30BE2FC8
:10017000BE2FBE2FBE2FBE2FBE2FBE2F1C30BE2FB8
:10018000BE2FBE2FBE2FBE2FBE2FBE2FD12FBE2FF4
:10019000BE2FBE2FBE2FBE2FBE2FBE2FD62FBE2FDF
:1001A000BE2FBE2FBE2FBE2FBE2FBE2FD12FBE2FD4
:1001B000BE2FBE2FBE2FBE2FBE2FBE2FD62FBE2FBF
:1001C000BE2FBE2FBE2FBE2FBE2FBE2F5630BE2F2E
:1001D000BE2FBE2FBE2FBE2FBE2FBE2F942FBE2FE1
:1001E000BE2FBE2FBE2FBE2FBE2FBE2F942FBE2FD1
:1001F000BE2FBE2FBE2FBE2FBE2FBE2FA92FBE2FAC
:10020000BE2FBE2FBE2FBE2FBE2FBE2F7230BE2FD1
:10021000BE2FBE2FBE2FBE2FBE2FBE2F7230084A5C
:10022000D73B3BCE016E84BCBFFDC12F3D6C74310A
:100230009ABD56833DDA3D00C77F11BED9E4BB4C61
:100240003E916BAAAABE000000803F6E616E0069FD
:100250006E660053454E54494E454C00454158008A
:100260004541590045415A00454758004547590006
:1002700045475A00454D5800454D5900454D5A00D7
:100280004B50004B49004B44004341524D415F42AB
:100290004941530057494E475F464C4150535F42D6
:1002A000494153004D4F544F525F52455455524EA1
:1002B0005F484F4D455F504F57455200524554558A
:1002C000524E5F484F4D455F44495354414E43455C
:1002D00000414C5048415F4341524D415F504944B9
:1002E00000414C5048415F4341524D415F5345529C
:1002F000564F00414C5048415F57494E47535F535A
:100300004552564F00414C5048415F4553430041D0
:100310004C5048415F50554D505F534F46545F53CA
:10032000544152540050554D505F445554595F4309
:1003300059434C4500535445505045525F4D415828
:100340005F4359434C4553004D4F544F525F4D410D
:10035000585F54454D504552415455524500435500
:100360005252454E545F44495200414C5048415FFF
:1003700053454E534F52530053025C0260026402D5
:1003800068026C027002740278027C0280028302AE
:10039000860289029402A402BC02D102E102F302A5
:1003A00005030F032503350348035E036A03310287
:1003B00000407A10F35A00A0724E18090010A5D41C
:1003C000E80000E87648170000E40B54020000CA79
:1003D0009A3B000000E1F5050000809698000000BF
:1003E00040420F000000A08601000000102700001E
:1003F0000000E803000000006400000000000A00A4
:10040000000000000100000000002C76D888DC67A6
:100410004F0823DFC1DFAE59E1B1B796E5E3E453FE
:10042000C63AE651997696E8E6C28426EB898C9B1B
:1004300062ED407C6FFCEFBC9C9F40F2BAA56FA5BB
:10044000F490055A2AF75C936B6CF9676DC11BFC3D
:10045000E0E40D47FEF520E6B500D0ED902E030058
:10046000943577050080841E080000204E0A0000A5
:1004700000C80C333333330F986E12831141EF8D64
:100480002114893BE65516CFFEE6DB18D1844B38A4
:100490001BF77C1D901DA4BBE424203284725E22D5
:1004A0008100C9F124ECA1E53D276364696E6F709A
:1004B000737578585B0011241FBECFEFD0E4DEBF08
:1004C000CDBF12E0A0E0B1E0EEE1FCE700E00BBF41
:1004D00002C007900D92A634B107D9F719E0A6E43F
:1004E000B2E001C01D92A134B107E1F70E948C1265
:1004F0000C9420350C94000088E48093460289E037
:10050000809347021092480210924A0210924902C8
:1005100010924C0210924D0210924E0210924F0215
:100520000895A0E0B0E0BC01CD010E94913826EA18
:100530003BE944EC50E40E94733920E030E040E0B5
:1005400058E30E9473390895A0E0B0E0BC01CD01EA
:1005500020E038E140E050E00E94A53D9B01AC0165
:100560008FE056954795379527958A95D1F7C9011C
:100570000895DF93CF9300D0CDB7DEB780914602C8
:1005800061E0AE014F5F5F4F0E94FD3020E0898146
:100590009A8197FD06C0822F0F900F90CF91DF9127
:1005A000089521E0822F0F900F90CF91DF91089551
:1005B0008430D0F42091490230914A02A901436865
:1005C00051608130F1F0813088F0823029F1833040
:1005D00019F4A9014368516750688091460261E0AF
:1005E0000E94A93081E0089580E00895A901436840
:1005F000516450688091460261E00E94A93081E018
:100600000895A9014368516550688091460261E0F0
:100610000E94A93081E00895A9014368516650689D
:100620008091460261E00E94A93081E00895AF9276
:10063000BF92CF92DF92EF92FF920F931F93DF93BF
:10064000CF9300D0CDB7DEB7843008F066C02091DC
:10065000490230914A02A90143685160813009F48E
:1006600070C0813008F469C0823009F479C08330E9
:1006700019F4A9014368516750688091460261E00E
:100680000E94A9306091470270E080E090E00E94F3
:1006900091385B016C0120E030E04AE755E40E94AC
:1006A00073397B018C0120E030E040E85FE30E9479
:1006B000F43788230CF451C0C801B70120E03FEFA4
:1006C0004FE757E40E94683918160CF03EC0C60187
:1006D000B50120E030E040E251E40E9473390E940D
:1006E0006538CB01672B39F020E931E0F90131970A
:1006F000F1F70197D9F78091460260E0AE014F5FB4
:100700005F4F0E94FD3029813A810090480202C06B
:10071000369527950A94E2F702C020E030E0C9013F
:100720000F900F90CF91DF911F910F91FF90EF905D
:10073000DF90CF90BF90AF900895A90143685164B6
:100740009BCFA9014368516597CFC801B7010E94AB
:100750006538CB010197F1F7CECF61E070E0F9CFBA
:10076000A9014368516688CFFF920F931F93DF93CF
:10077000CF9300D0CDB7DEB78C01F62E8091460224
:1007800061E0AE014F5F5F4F0E94FD3089819A8129
:1007900097FD27C010E0F3E0FF15D0F080914902EB
:1007A00090914A02AC014368516021E0F21689F150
:1007B000F21658F1E2E0FE1681F1FF1619F4AC01D1
:1007C0004368516750688091460261E00E94A930F9
:1007D000812F0F900F90CF91DF911F910F91FF907C
:1007E00008958091460260E0A8010E94FD30F80162
:1007F000808191810090480202C0969587950A9465
:10080000E2F79183808311E0C6CFAC014368516465
:10081000D9CFAC0143685165D5CFAC01436851666F
:10082000D1CF0F931F93DF93CF9300D0CDB7DEB717
:100830008C018091460261E0AE014F5F5F4F0E94E4
:10084000FD3089819A8197FD3EC020914B02E22FB5
:10085000F0E0E45BFD4F8081882319F510E08AE029
:100860008083243040F58091490290914A02AC0186
:1008700043685160213009F47EC0213008F06EC019
:10088000AC014368516450688091460261E00E9467
:10089000A930812F0F900F90CF91DF911F910F9171
:1008A00008958150808310E0E22FF0E0E45BFD4F7B
:1008B00080818823A1F2812F0F900F90CF91DF913B
:1008C0001F910F91089540914B0250E0440F551F26
:1008D000405B5D4F8091460260E00E94FD302091B8
:1008E0004B02E22FF0E0EE0FFF1FE05BFD4F808137
:1008F00091810090480202C0969587950A94E2F78C
:10090000918380832F5F20934B02243060F21092FA
:100910004B0210924C028091500290915102F801CA
:100920009183808310924D028091520290915302E4
:100930009383828310924E028091540290915502CB
:100940009583848310924F028091560290915702B2
:100950009783868311E020914B02A6CF223039F095
:10096000233009F090CFAC01436851678CCFAC01C4
:100970004368516688CFAC014368516584CF81B12B
:10098000806C81B982B18F7382B9209A289821989E
:1009900029983E9A46980A98129A0B98139AE8E674
:1009A000F0E0808182608083ECE6F0E0808182600C
:1009B0008083089589EF87BD18BC14BC15BC16BC94
:1009C00084B5826084BD85B5836085BD86E08093F3
:1009D0006E00089589EF8093B300E0EBF0E01082A1
:1009E000A1EBB0E01C921092B20083E08C93808166
:1009F0008260808382E08093700008951F920F923E
:100A00000FB60F9211248F939F93199B0AC0809168
:100A10002203909123038C509E4F90932303809345
:100A200022039F918F910F900FBE0F901F901895EA
:100A30001F920F920FB60F9211242F933F938F9313
:100A40009F9319991AC08091B2002091220330918E
:100A5000230390E0880F991F820F931F9093230325
:100A600080932203109224039F918F913F912F91A5
:100A70000F900FBE0F901F9018958091B20090E0DC
:100A8000909581959F4F880F991F90932303809392
:100A90002203EACFECE7F0E080818E7F8083EAE7F3
:100AA000F0E08081806480830895ECE7F0E080814D
:100AB00081608083EAE7F0E080818064808308952C
:100AC00008980998ECE7F0E01082808180648083C8
:100AD000EAE7F0E01082808187608083808180680F
:100AE000808380818860808308951F920F920FB663
:100AF0000F9211248F939F9380913203882389F062
:100B00008091780090917900909338038093370317
:100B1000109232039F918F910F900FBE0F901F90F4
:100B20001895809178009091790090932D0380938F
:100B30002C0380917C00816080937C0080917A00FE
:100B4000806480937A0081E0809332039F918F913B
:100B50000F900FBE0F901F9018951F920F920FB617
:100B60000F9211242F938F939F93809139038111BA
:100B7000469A809125038F5F8093250380912603F9
:100B80008F5F80932603809127039091280301961D
:100B90009093280380932703809129038F5F80938C
:100BA000290380912503843109F457C080912603DD
:100BB000843609F44CC080912903853009F441C082
:100BC0008091270390912803019779F18091270361
:100BD000909128038436910511F18091270390911B
:100BE0002803845F914041F09F918F912F910F9046
:100BF0000FBE0F901F901895109228031092270394
:100C000080913B03882381F3815080933B039F9124
:100C10008F912F910F900FBE0F901F90189580917C
:100C20003A03882331F11798D8CF80913A0388236B
:100C300031F480913B03882311F41798C7CF179A9A
:100C4000C5CF81E08093310310922903B9CF81E0B1
:100C500080932B0310922603AECF81E080932A036A
:100C600080932E0380932F038093300310922503EB
:100C70009DCF80913B03882309F4AFCF1798ADCF68
:100C80001F920F920FB60F9211248F938091390308
:100C9000811146988F910F900FBE0F901F9018955D
:100CA0001F920F920FB60F9211248F93029904C0D6
:100CB0008091D101882389F4039909C08091D101E1
:100CC000813029F01092400381E08093D1018F910F
:100CD0000F900FBE0F901F90189510924003109226
:100CE000D101EACF109228031092270381E080936C
:100CF0003B030895109228031092270380933B032F
:100D00000895AF92BF92CF92DF92EF92FF920F932E
:100D10001F93809124038823B1F56091CD017091D8
:100D2000CE018091CF019091D001E0902203F0900C
:100D300023032AE939E949E55FE30E9473395B013E
:100D40006C010027F7FC0095102FC801B7010E9425
:100D500093382AE939E949E15EE30E94733928E2D0
:100D60003EE74CE85CE30E9473399B01AC01C6018D
:100D7000B5010E942E376093CD017093CE01809310
:100D8000CF019093D00181E080932403289A85E3DA
:100D90008A95F1F728981F910F91FF90EF90DF90BF
:100DA000CF90BF90AF9008952F923F924F925F9255
:100DB0006F927F928F929F92AF92BF92CF92DF926B
:100DC000EF92FF920F931F930091E7021091E802B8
:100DD0002091E9023091EA020093FC021093FD0297
:100DE0002093FE023093FF0240E0242E43E0342E95
:100DF0004091C9015091CA016091CB017091CC0121
:100E0000C1010E943B1B6AE070E080E090E00E941C
:100E1000C8242B013C016BE070E080E090E00E9470
:100E2000C8244B015C016CE070E080E090E00E941F
:100E3000C8246B017C01C101B301A20195018401A9
:100E40000E94491B6FE070E080E090E00E94DB248C
:100E500070936302609362026DE070E080E090E066
:100E60000E94DB2470935F0260935E026EE070E08C
:100E700080E090E00E94DB24709361026093600246
:100E80001F910F91FF90EF90DF90CF90BF90AF90A8
:100E90009F908F907F906F905F904F903F902F909A
:100EA000089560E170E080E090E00E94C824209105
:100EB000CD013091CE014091CF015091D0010E94DF
:100EC000683918163CF488EE93E09093630280939F
:100ED000620208956FE070E080E090E00E94DB2401
:100EE00070936302609362026DE070E080E090E0D6
:100EF0000E94DB244091E7025091E8026091E902F0
:100F00007091EA0280E093E00E94631B08950F93C2
:100F10001F93DF93CF93CDB7DEB7C054D0400FB649
:100F2000F894DEBF0FBECDBF19828E010F5F1F4F39
:100F3000C80161E070E00E94182BC80141E050E058
:100F400060E070E00E94E52AC80142E050E060E005
:100F500070E00E94E52A60915C0270915D02882732
:100F600077FD8095982F0E94933820E030E04AE783
:100F700054E40E942D3720E030E048EC52E40E9417
:100F8000733920E030E04AE754E40E94F837AB01BF
:100F9000BC01C8010E94442B609158027091590213
:100FA000882777FD8095982F0E94933820E030E0C5
:100FB0004AE754E40E942D3720E030E048EC52E448
:100FC0000E94733920E030E04AE754E40E94F83789
:100FD000AB01BC01C8010E94442B60915A02709180
:100FE0005B02882777FD8095982F0E94933820E038
:100FF00030E04AE754E40E942D3720E030E048EC2E
:1010000052E40E94733920E030E04AE754E40E9441
:10101000F837AB01BC01C8010E94442BF8010190D4
:101020000020E9F731978AE090E091838083C8013E
:101030000E94A11FC05CDF4F0FB6F894DEBF0FBE49
:10104000CDBFCF91DF911F910F910895CF92DF9285
:10105000EF92FF920F931F93DF93CF93CDB7DEB73D
:10106000C054D0400FB6F894DEBF0FBECDBF19827A
:101070006E010894C11CD11CC60164E070E00E949E
:10108000182B6091E3027091E4028091E502909147
:10109000E6020E946038AB01BC01662757FD6095EF
:1010A000762FC6010E94E52A6091DF027091E0026E
:1010B0008091E1029091E2020E946038AB01BC0194
:1010C000662757FD6095762FC6010E94E52AC60166
:1010D00040E050E060E070E00E94442B6091E70245
:1010E0007091E8028091E9029091EA020E946038D2
:1010F000AB01BC01662757FD6095762FC6010E94A3
:10110000E52AC60140E050E060E070E00E94442B18
:10111000C60140E050E060E070E00E94442BC60150
:101120000E94A11F198260913C0370913D03809140
:101130003E0390913F030E9491387B018C016091A6
:1011400043037091440380914503909146030E94AC
:1011500091389B01AC01C801B7010E94F83720E02B
:1011600030E048EC52E40E947339AB01BC01C60187
:101170000E94442B4091CF025091D0026091D10245
:101180007091D202C6010E94442BC60140E050E09B
:1011900060E070E00E94442BC60140E050E060E057
:1011A00070E00E94442BC60140E050E060E070E037
:1011B0000E94442B4091FC025091FD026091FE027E
:1011C0007091FF02C6010E94442B4091CD015091C5
:1011D000CE016091CF017091D001C6010E94442BD5
:1011E0004091CB025091CC026091CD027091CE0221
:1011F000C6010E94442B4091330350913403609107
:10120000350370913603C6010E94442BF60101900C
:101210000020E9F731978AE090E091838083C6014E
:101220000E94A11FC05CDF4F0FB6F894DEBF0FBE57
:10123000CDBFCF91DF911F910F91FF90EF90DF9085
:10124000CF9008950F931F93DF93CF93CDB7DEB761
:10125000C054D0400FB6F894DEBF0FBECDBF198288
:101260008E010F5F1F4FC80163E070E00E94182BD2
:101270004091210350E060E070E0C8010E94E52A3F
:10128000C80140E050E060E070E00E94E52AC8013B
:1012900040E050E060E070E00E94E52AC80140E0D4
:1012A00050E060E070E00E94E52AC80140E050E0B4
:1012B00060E070E00E94E52AC80140E050E060E094
:1012C00070E00E94E52AC80140E050E060E070E074
:1012D0000E94E52A4091ED025091EE026091EF02EA
:1012E0007091F002C8010E94E52A4091F1025091EC
:1012F000F2026091F3027091F402C8010E94E52AA3
:101300004091200350E060E070E0C8010E94E52AAF
:10131000C80140E050E060E070E00E94E52AC801AA
:1013200040E050E060E070E00E94E52AC80140E043
:1013300050E060E070E00E94E52A4091390350E0FF
:1013400060E070E0C8010E94E52AC80140E050E07A
:1013500060E070E00E94E52AF80101900020E9F7C2
:1013600031978AE090E091838083C8010E94A11F99
:10137000C05CDF4F0FB6F894DEBF0FBECDBFCF917C
:10138000DF911F910F910895BF92CF92DF92EF925C
:10139000FF920F931F93CF93DF93EC018B01BB243C
:1013A000B394B092FB024F5F5F4F81F16EE070E04B
:1013B00080E090E00E94DB246B017C016DE070E036
:1013C00080E090E00E94DB24CA36D10509F4A3C076
:1013D000CB36D1052CF1C438D10509F44FC1C5383D
:1013E000D1050CF057C0CF36D10509F4B4C0C338CD
:1013F000D10509F41FC1CB36D10541F40E94472520
:101400001092280310922703B0923B03DF91CF91F3
:101410001F910F91FF90EF90DF90CF90BF900895B4
:10142000C630D10509F40FC1C730D1050CF041C059
:10143000C430D10509F498C0C530D1050CF0DFC027
:10144000229721F7F8012085318542855385DA01FD
:10145000C901880F991FAA1FBB1F880F991FAA1FB8
:10146000BB1F820F931FA41FB51F9B01280F391F9D
:10147000CB01845D9E4F821793073CF0CB018C52C9
:101480009140821793070CF4C90190935F028093F7
:101490005E02BCCFCA3CD10509F446C0CB3CD105A5
:1014A0000CF0F6C0C93CD10509F0B0CF0E9422096A
:1014B000ADCFC636D105D9F1C736D1050CF0F5C090
:1014C000279709F0A3CFF801248135814681578100
:1014D000DA01C901880F991FAA1FBB1F880F991F26
:1014E000AA1FBB1F820F931FA41FB51F9601280FB1
:1014F000391FC601845D9E4F821793073CF0C601D9
:101500008C529140821793070CF4C90190936102A9
:10151000809360027BCF0E94B8261092280310921D
:101520002703B0923B0372CF0E9426086FCF80E062
:1015300091E00E94A11F82E080936402B092200398
:101540000E94D4061092280310922703B0923B0306
:101550001092FB025BCFB092CA0210922803109245
:101560002703B0923B0352CF109264028EE794E0BF
:1015700090935D0280935C02909363028093620279
:1015800082E06EE774E00E94211DB0922103609119
:10159000E7027091E8028091E9029091EA0220E06E
:1015A00030E044E353E40E942D377B018C016093CB
:1015B000FC027093FD028093FE029093FF0220E0F4
:1015C00030E040E050E00E94F437882384F4C80102
:1015D000B70120E030E044EB53E40E942E376093E3
:1015E000FC027093FD028093FE029093FF02109222
:1015F00028031092270381E080933B0307CF83E009
:101600008093640288EE93E090935D0280935C0285
:10161000909363028093620282E068EE73E00E941E
:10162000211D109221031092280310922703B092DB
:101630003B03ECCEB092390310922803109227039B
:10164000B0923B03E3CEF801648175818681978176
:1016500097FD70C0660F771F881F991F660F771F51
:10166000881F991F660F771F881F991FCB0182580B
:101670009B4F9093630280936202C8CE469810926B
:1016800039031092280310922703B0923B03BECE79
:10169000CB3CD10539F0CE3CD10509F0B7CE0E9444
:1016A000E326B4CE0E948707B1CEC736D10531F10B
:1016B000C936D10509F0AACEF80164817581868109
:1016C000978120853185428553850E946826F801DF
:1016D00084819581A681B7818D309105A105B105E1
:1016E00011F10E97A105B10509F081CFF8018085B0
:1016F0009185909361028093600279CF84E191E0BB
:101700000E94A11F10926402109220038EE794E0C1
:101710009093630280936202109228031092270331
:10172000B0923B0373CE8085918590935F02809346
:101730005E025DCF60E070E080E090E08BCFEF92E2
:10174000FF920F931F930E94A11C569A579A3C9A9E
:101750008BE290E066E00E94F11C8BE290E067E093
:101760000E94F11C88E290E064E00E94F11C0E945B
:10177000D21C6DE070E080E090E00E94DB24162F28
:10178000072F6EE070E080E090E00E94DB24F62EF0
:10179000E72E80E0612F702F0E94211D81E06F2DC8
:1017A0007E2D0E94211D82E068EE73E00E94211DC3
:1017B00010935E0200935F02109358020093590247
:1017C000F0926002E0926102F0925A02E0925B02B3
:1017D00088EE93E0909363028093620290935D029F
:1017E00080935C021F910F91FF90EF900895982FC6
:1017F000029B18C01092350281E080934003992328
:1018000091F080914003882369F0A895809131037D
:101810008823B9F3109231030E944A2A8091400331
:10182000882399F7089508950F931F938BE291E011
:101830000E94A11F81E08093400310924303109205
:10184000440310924503109246038091400388237D
:1018500069F0A895809131038823B9F30E944A2A40
:101860001092310380914003882399F7109235023A
:1018700081E080934003809140038823F1F0A89594
:10188000809131038823B9F30E944A2A809143034F
:1018900090914403A0914503B09146030196A11D88
:1018A000B11D8093430390934403A0934503B093E9
:1018B000460380914003882311F78DB79EB70897A0
:1018C0000FB6F8949EBF0FBE8DBFEDB7FEB7319631
:1018D00006E612E0ADB7BEB712961C930E931197B1
:1018E0008FE491E09383828380914303909144033A
:1018F000A0914503B091460384839583A683B78363
:101900000E947B368DB79EB708960FB6F8949EBF9F
:101910000FBE8DBFC8010E94A11F209143033091CB
:101920004403409145035091460367E170E080E035
:1019300090E00E9468260E94B8261F910F9108959A
:101940006F927F928F929F92AF92BF92CF92DF92CF
:10195000EF92FF920F931F93DF93CF9300D0CDB7F9
:10196000DEB76AE170E080E090E00E94C8245B018D
:101970006C01CE01019660E00E94B4038823D1F18E
:10198000C601B5012091CB023091CC024091CD022D
:101990005091CE020E9473393B014C0189819A819A
:1019A0000E9491027B018C0160E070E080E89FE37F
:1019B000A60195010E942D375B016C01C801B7019A
:1019C0002AE939E949EF50E40E9473399B01AC01DF
:1019D000C601B5010E9473399B01AC01C401B3017A
:1019E0000E942E376093CB027093CC028093CD027D
:1019F0009093CE020F900F90CF91DF911F910F9196
:101A0000FF90EF90DF90CF90BF90AF909F908F901E
:101A10007F906F9008952F923F924F925F926F92B6
:101A20007F928F929F92AF92BF92CF92DF92EF926E
:101A3000FF920F931F93DF93CF93CDB7DEB7289715
:101A40000FB6F894DEBF0FBECDBF8091CA028823C7
:101A500009F4A89584EC99E00E946E228091EB0233
:101A60009091EC02892B29F18091470390914803D2
:101A7000892B09F499C080912A03813009F4CAC0E6
:101A800028960FB6F894DEBF0FBECDBFCF91DF9181
:101A90001F910F91FF90EF90DF90CF90BF90AF908C
:101AA0009F908F907F906F905F904F903F902F907E
:101AB000089580912A03813009F4CCC080912B03D2
:101AC000813009F458C280912E03813009F476C028
:101AD00020916402223009F453C310923A0380919A
:101AE0002F03813009F44CC280913003813041F6DC
:101AF0001092300365E170E080E090E00E94C8241D
:101B00003B014C01E8B4A7B466E170E080E090E0EE
:101B10000E94DB241B012C01FF240027F7FC009509
:101B2000102FC801B7010E9493389B01AC01C4017A
:101B3000B3010E9473396D837E838F83988760E041
:101B400070E080E89FE3A40193010E942D377B01A0
:101B50008C01BB24CC24DD24C601B5010E94913840
:101B60009B01AC01C801B7010E9473397B018C0154
:101B7000C201B1010E9493389B01AC01C801B701B9
:101B80000E94733920E030E048EC52E40E94F837BC
:101B90009B01AC016D817E818F8198850E942E37DB
:101BA0000E94653868BD6CCF81E791E00E94A11F5B
:101BB00080912A03813009F063CF2CC02091640208
:101BC000233009F48ACF10922E038091FB028130DA
:101BD00009F4E3C2223009F4F6C28091F90290912F
:101BE000FA0201969093FA028093F90284369105E5
:101BF00009F4CCC28855924009F06CCF89E592E097
:101C00009093FA028093F90282E0809364020E942A
:101C1000D4065ECF0E9469160E94271340904703A6
:101C2000509048030894411C511C50924803409224
:101C30004703C20162E370E00E94C43D892B09F4AE
:101C4000F7C2FCED4F16F5E05F0609F454C310929D
:101C50002A0316CF0E94332C69837A838B839C835B
:101C60000E94262C2091F5023091F6024091F70255
:101C70005091F8027B018C01E21AF30A040B150B58
:101C8000E092F102F092F2020093F3021093F40258
:101C90006093F5027093F6028093F7029093F80236
:101CA0000E94A00C80917C008E7F80937C008091AC
:101CB0007A00806480937A006AE170E080E090E0CE
:101CC0000E94C8241B012C0160912C0370912D03EC
:101CD00080E090E00E94913820E030E44CE955E447
:101CE0000E94733920E030E040E85AE30E947339E3
:101CF00020E030E44CE155E40E942D372DEC3CEC23
:101D00004CEC5CE30E9473395B016C0169E170E0AB
:101D100080E090E00E94DB2461307105810591052F
:101D200009F4B1C260E070E080E89FE3A201910194
:101D30000E942D373B014C01C201B1012091CF021D
:101D40003091D0024091D1025091D2020E94733959
:101D50007B018C01C401B301A60195010E94733976
:101D60009B01AC01C801B7010E942E376093CF02DE
:101D70007093D0028093D1029093D202E090370307
:101D8000F0903803C201B101209133033091340344
:101D900040913503509136030E9473395B016C0109
:101DA00000E010E0C801B7010E94913820E030E067
:101DB0004AEF53E40E94733920E030E040E85AE3F0
:101DC0000E94733920E030E040E050E40E942E375A
:101DD0009B01AC01C401B3010E9473399B01AC01AA
:101DE000C601B5010E942E3760933303709334030C
:101DF00080933503909336030E94B1160E946916B2
:101E00000E94A6156091C9017091CA018091CB0111
:101E10009091CC010E94FB13E0907503F090760343
:101E20000091770310917803E092DF02F092E002D4
:101E30000093E1021093E202A0907903B0907A033C
:101E4000C0907B03D0907C03A092E302B092E402A6
:101E5000C092E502D092E60280917D0390917E03CC
:101E6000A0917F03B09180038093E7029093E802F2
:101E7000A093E902B093EA0210922A03409047032C
:101E80005090480328EC421651040CF4A1C1209153
:101E9000D3023091D4024091D5025091D602C801AC
:101EA000B7010E942D376093DF027093E0028093A8
:101EB000E1029093E2022091D7023091D802409142
:101EC000D9025091DA02C601B5010E942D37609304
:101ED000E3027093E4028093E5029093E60238EC0B
:101EE0004316510409F4D4C12091D3023091D40295
:101EF0004091D5025091D6026091DF027091E002CC
:101F00008091E1029091E2020E942D376093DF02FE
:101F10007093E0028093E1029093E2022091D70255
:101F20003091D8024091D9025091DA026091E302D7
:101F30007091E4028091E5029091E6020E942D37B3
:101F40006093E3027093E4028093E5029093E602CB
:101F50000E94332CE980FA800B811C816E197F0965
:101F6000800B910B6093ED027093EE028093EF0271
:101F70009093F002A3CD0E94810610922B03A3CD73
:101F800010922F0362E170E080E090E00E94C8248C
:101F90007B018C016091580270915902882777FD6E
:101FA0008095982F0E9493389B01AC01C801B7011E
:101FB0000E9473395B016C0160E070E080E89FE390
:101FC000A80197010E942D377B018C0160915E0270
:101FD00070915F02882777FD8095982F0E94933833
:101FE0009B01AC01C801B7010E9473399B01AC0190
:101FF000C601B5010E942E370E9460389B01AC01DA
:10200000709359026093580280E0B9010E94211D2B
:1020100063E170E080E090E00E94C8247B018C01C5
:1020200060915A0270915B02882777FD8095982F06
:102030000E9493389B01AC01C801B7010E9473391B
:102040005B016C0160E070E080E89FE3A80197010C
:102050000E942D377B018C016091600270916102BA
:10206000882777FD8095982F0E9493389B01AC01BB
:10207000C801B7010E9473399B01AC01C601B501CB
:102080000E942E370E9460389B01AC0170935B0266
:1020900060935A0281E0B9010E94211D809164027F
:1020A000833009F421CD64E170E080E090E00E948B
:1020B000C8241B012C0168E170E080E090E00E94E0
:1020C000DB24E0903303F09034030091350310914A
:1020D00036030E949338A80197010E94F4378823A1
:1020E00084F4C801B70120E030E040E050E00E94F5
:1020F000F437882331F08EE794E090936302809365
:10210000620260915C0270915D02882777FD809584
:10211000982F0E9493389B01AC01C201B1010E942B
:1021200073395B016C0160E070E080E89FE3A2011D
:1021300091010E942D377B018C01609162027091A8
:102140006302882777FD8095982F0E9493389B0122
:10215000AC01C801B7010E9473399B01AC01C601F3
:10216000B5010E942E370E9460389B01AC0170932C
:102170005D0260935C0282E0B9010E94211DB4CC33
:102180000E94510781E080933A03A9CC88EE93E046
:1021900090936302809362029DCC1092FB02109296
:1021A000FA021092F902223009F094CC80912003B7
:1021B000882331F78EE794E0909363028093620264
:1021C000109264028ACC8091F9029091FA020ECDAD
:1021D0002091D3023091D4024091D5025091D60281
:1021E000C801B7010E942E376093D3027093D402C6
:1021F0008093D5029093D6022091D7023091D802D5
:102200004091D9025091DA02C601B5010E942E37E1
:102210006093D7027093D8028093D9029093DA0228
:10222000C201019690934803809347032C0157CE37
:1022300000D000D000D0EDB7FEB7319606E612E030
:10224000ADB7BEB712961C930E93119782E991E039
:1022500093838283C20162E370E00E94C43D758370
:1022600064830E947B36EDB7FEB736960FB6F894BE
:10227000FEBF0FBEEDBFC8010E94A11F40904703E3
:1022800050904803DECCD7FAD094D7F8D0944ACDFA
:102290006091D3027091D4028091D5029091D602C0
:1022A00020E030E048E453E40E94F8376093D30222
:1022B0007093D4028093D5029093D6026091D70296
:1022C0007091D8028091D9029091DA0220E030E03A
:1022D00048E453E40E94F8376093D7027093D80221
:1022E0008093D9029093DA0289EC90E090934803AE
:1022F000809347032DCE8DE991E00E94A11F0E949B
:1023000076131092EC021092EB0210924803109296
:1023100047039DCCCF92DF92EF92FF920F931F93D2
:10232000F89485B7806885BF85B7806885BF14BE7F
:1023300028E288E190E00FB6F894A89580936000B9
:102340000FBE2093600081B1806C81B982B18F7320
:1023500082B9209A2898219829983E9A46980A98F6
:10236000129A0B98139A809168008260809368009B
:1023700080916C00826080936C0060E072EC81E080
:1023800090E00E948A2086EB91E00E94A11F789441
:1023900061E040E951E0169A20E030E0CA0101977F
:1023A000F1F72F5F3F4F83E128383807B9F71698C8
:1023B00020E030E0CA010197F1F72F5F3F4F83E142
:1023C00028383807B9F7615030F7169A0E942D2D3A
:1023D0000E949F1A0E94852799EF97BD18BC14BCD4
:1023E00015BC16BC84B5826084BD85B5836085BD8F
:1023F00086E080936E009093B3001092B00010922C
:10240000B1001092B20083E0D82ED092B10080913A
:10241000B00082608093B00002E0C02EC0927000D5
:102420000E947C020898099810927C0080917C00A0
:10243000806480937C0010927A0080917A0087609B
:1024400080937A0080917A00806880937A008091EE
:102450007A00886080937A000E94A11C569A579A4D
:102460003C9A8BE290E066E00E94F11C8BE290E0E7
:1024700067E00E94F11C88E290E064E00E94F11C99
:102480000E94D21C6DE070E080E090E00E94DB24AE
:10249000162F072F6EE070E080E090E00E94DB24B2
:1024A000F62EE72E80E0612F702F0E94211D81E023
:1024B0006F2D7E2D0E94211D82E068EE73E00E9448
:1024C000211D10935E0200935F0210935802009347
:1024D0005902F0926002E0926102F0925A02E09298
:1024E0005B0288EE93E09093630280936202909384
:1024F0005D0280935C020E94E82BD09264021092ED
:10250000280310922703C0923B031F910F91FF9065
:10251000EF90DF90CF9008950E948A110E940B0DDA
:10252000FDCFEF92FF920F931F93FC01809149031F
:1025300090914A03A0914B03B0914C038083918307
:10254000A283B38380914D0390914E03A0914F03DA
:10255000B0915003FB0180839183A283B383809168
:10256000510390915203A0915303B0915403FA0187
:1025700080839183A283B383809155039091560306
:10258000A0915703B0915803F90180839183A283EE
:10259000B3838091590390915A03A0915B03B0914A
:1025A0005C03F80180839183A283B38380915D03F0
:1025B00090915E03A0915F03B0916003F701808367
:1025C0009183A283B38381E01F910F91FF90EF90DD
:1025D0000895CF92DF92EF92FF920F931F938C0199
:1025E0007B016A016091B1037091B203882777FD86
:1025F0008095982F0E949338F801608371838283BD
:1026000093836091B3037091B403882777FD80951D
:10261000982F0E949338F70160837183828393839C
:102620006091B5037091B603882777FD8095982F48
:102630000E949338F601608371838283938380E0E4
:102640001F910F91FF90EF90DF90CF900895209110
:10265000B1033091B2038091050290910602821776
:10266000930724F430930602209305028091070219
:10267000909108022817390724F430930802209318
:1026800007022091B3033091B40380910902909125
:102690000A028217930724F430930A022093090256
:1026A00080910B0290910C022817390724F4309383
:1026B0000C0220930B022091B5033091B603809158
:1026C0000D0290910E028217930724F430930E02AC
:1026D00020930D0280910F02909110022817390764
:1026E00024F43093100220930F0208950F931F9348
:1026F000DF93CF93CDB7DEB7E2970FB6F894DEBF86
:102700000FBECDBF209107023091080280910502D3
:1027100090910602280F391F37FD64C0C9019595B5
:102720008795BC018093F7019093F80120910B02EB
:1027300030910C028091090290910A02280F391FF2
:1027400037FD56C0C90195958795AC018093F90175
:102750009093FA0120910F023091100280910D02A6
:1027600090910E02280F391F37FD3FC035952795F0
:102770002093FB013093FC018DB79EB70A970FB6EB
:10278000F8949EBF0FBE8DBFEDB7FEB731968E0198
:102790000F5F1F4FADB7BEB712961C930E931197E4
:1027A00082ED91E0938382836483758346835783AC
:1027B000208731870E947B368DB79EB70A960FB669
:1027C000F8949EBF0FBE8DBFC8010E94A11FE29664
:1027D0000FB6F894DEBF0FBECDBFCF91DF911F9132
:1027E0000F9108952F5F3F4F99CF2F5F3F4FBECF7F
:1027F0002F5F3F4FA7CF2F923F924F925F926F92E2
:102800007F928F929F92AF92BF92CF92DF92EF9280
:10281000FF920F931F93DF93CF93CDB7DEB76497EB
:102820000FB6F894DEBF0FBECDBF6D877E878F8752
:10283000988B80914D0390914E03A0914F03B091DE
:10284000500389879A87AB87BC87209149033091D1
:102850004A0340914B0350914C03CA01B9010E94B5
:1028600073397B018C0169857A858B859C859B01F9
:10287000AC010E947339A80197010E942E370E9473
:10288000DA396D837E838F8398872FE632E143E8C0
:102890005AE30E94F437882344F48FE692E1A3E8D8
:1028A000BAE38D839E83AF83B887A0905103B09025
:1028B0005203C0905303D0905403C601B501A60142
:1028C00095010E9473399B01AC01C801B7010E94B8
:1028D0002E370E94DA3969837A838B839C832FE6B3
:1028E00032E143E85AE30E94F437882344F48FE648
:1028F00092E1A3E8BAE389839A83AB83BC836091B6
:10290000C7037091C803882777FD8095982F0E9490
:1029100093387B018C016091C3037091C4038827B5
:1029200077FD8095982F0E9493389B01AC01C801D8
:10293000B7010E94A1377B018C0120E030E040E02C
:1029400050E00E94F43788230CF4F5C0C801B701A9
:102950002BED3FE049EC50E40E946839181654F41E
:10296000C801B7012BED3FE049EC50E40E942D3740
:102970007B018C01C801B70121EE3EE245E652E43D
:102980000E94733960937D0370937E0380937F036D
:102990009093800320900102309002024090030245
:1029A000509004026090FD017090FE018090FF0144
:1029B00090900002C601B5012D813E814F8158855E
:1029C0000E94A1377B018C0160E070E080E89FE30A
:1029D000A40193010E942D37698B7A8B8B8B9C8B82
:1029E0006091BB037091BC038091BD039091BE03C5
:1029F0009058A20191010E9473392D853E854F8523
:102A000058890E9473392091790330917A0340915B
:102A10007B0350917C030E942E37A40193010E94F6
:102A200073395B016C0117FB109517F91095C801FC
:102A3000B70121EE3EE245E652E40E94733929894E
:102A40003A894B895C890E9473399B01AC01C601AC
:102A5000B5010E942E376093790370937A038093B7
:102A60007B0390937C0369857A858B859C8529817E
:102A70003A814B815C810E94A1375B016C012091FE
:102A8000BF033091C0034091C1035091C20350581D
:102A9000C201B1010E9473392D853E854F85588949
:102AA0000E9473392091750330917603409177032A
:102AB000509178030E942E379B01AC01C401B301F1
:102AC0000E9473397B018C01C601B50121EE3EE203
:102AD00045E652E40E9473399B01AC0169897A8909
:102AE0008B899C890E9473399B01AC01C801B70195
:102AF0000E942E376093750370937603809377035B
:102B00009093780364960FB6F894DEBF0FBECDBFE6
:102B1000CF91DF911F910F91FF90EF90DF90CF90B9
:102B2000BF90AF909F908F907F906F905F904F90ED
:102B30003F902F900895C801B7012BED3FE049EC7D
:102B400050E40E942E377B018C0100CFEF92FF9260
:102B50000F931F93E0905503F09056030091570395
:102B60001091580364E070E080E090E00E94C82477
:102B70009B01AC01C801B7010E942D376093B703D8
:102B80007093B8038093B9039093BA03E09059030C
:102B9000F0905A0300915B0310915C0365E070E0D4
:102BA00080E090E00E94C8249B01AC01C801B701FD
:102BB0000E942D376093BB037093BC038093BD03C9
:102BC0009093BE03E0905D03F0905E0300915F037D
:102BD0001091600366E070E080E090E00E94C824FD
:102BE0009B01AC01C801B7010E942D376093BF0360
:102BF0007093C0038093C1039093C2030091B1030B
:102C00001091B20367E070E080E090E00E94DB2466
:102C1000061B170B1093C4030093C3030091B30367
:102C20001091B40368E070E080E090E00E94DB2443
:102C3000061B170B1093C6030093C5030091B50341
:102C40001091B60369E070E080E090E00E94DB2420
:102C5000061B170B1093C8030093C7031F910F9116
:102C6000FF90EF900895DF93CF930F92CDB7DEB72B
:102C7000198288E669E1AE014F5F5F4F0E942531FE
:102C800089810F90CF91DF910895EF92FF920F937A
:102C90001F93982F8B01F42EE22E88E6692FA8014E
:102CA0000E94253121E030E002C0220F331FFA9448
:102CB000E2F72150F801808190E002C09595879558
:102CC000EA94E2F7282320831F910F91FF90EF9061
:102CD0000895DF93CF93CDB7DEB728970FB6F8945A
:102CE000DEBF0FBECDBF19828CE062E0AE014F5F48
:102CF0005F4F0E942531898180FD09C028960FB65B
:102D0000F894DEBF0FBECDBFCF91DF9108958CE068
:102D100063E047E09E012E5F3F4F0E94423188856D
:102D200083FDECCF9B8180E02A8130E0822B932BC6
:102D30009093B2038093B1039D8180E02C8130E0B9
:102D4000822B932B9093B4038093B3039F8180E0F5
:102D50002E8130E0822B932B9093B6038093B503A2
:102D6000CDCF2F923F924F925F926F927F928F9230
:102D70009F92AF92BF92CF92DF92EF92FF920F930A
:102D80001F93DF93CF93CDB7DEB72E970FB6F8948E
:102D9000DEBF0FBECDBF88E66BE34EE09E012F5F26
:102DA0003F4F0E944231998180E02A81C22EDD246A
:102DB000C82AD92AD0926203C09261039B8180E025
:102DC0002C81A22EBB24A82AB92AB0926403A09217
:102DD00063039D8180E02E81822E9924882A992A7E
:102DE00090926603809265033F8120E0688570E0E1
:102DF000622B732B7093680360936703398520E01F
:102E00004A85642E7724622A732A70926A0360923C
:102E100069033B8520E04C85442E5524422A532AE1
:102E200050926C0340926B033D8520E04E85242E2A
:102E30003324222A332A30926E0320926D0388278E
:102E400077FD8095982F0E94933820E030E04AEA81
:102E500053E40E94F83728EB3EE142E152E40E943D
:102E60002E3760936F037093700380937103909378
:102E7000720380917303833009F4C2C0823009F475
:102E8000A7C0813009F0D4C00F2EF0E0EF2EF0E0A3
:102E9000FF2EF0E00F2FF6E41F2FF02DB60188274C
:102EA00077FD8095982F0E949338A80197010E9482
:102EB000F8376093490370934A0380934B039093D0
:102EC0004C03B501882777FD8095982F0E94933891
:102ED000A80197010E94F83760934D0370934E0349
:102EE00080934F0390935003B401882777FD80951A
:102EF000982F0E949338A80197010E94F837609399
:102F00005103709352038093530390935403809121
:102F10007403882309F067C00F2EF0E0EF2EF0E075
:102F2000FF2EF3E00F2FF3E41F2FF02DB3018827BE
:102F300077FD8095982F0E949338A80197010E94F1
:102F4000F83760935503709356038093570390931B
:102F50005803B201882777FD8095982F0E949338F7
:102F6000A80197010E94F8376093590370935A03A0
:102F700080935B0390935C03B101882777FD809574
:102F8000982F0E949338A80197010E94F837609308
:102F90005D0370935E0380935F03909360032E96AE
:102FA0000FB6F894DEBF0FBECDBFCF91DF911F915A
:102FB0000F91FF90EF90DF90CF90BF90AF909F90D8
:102FC0008F907F906F905F904F903F902F900895DB
:102FD0000F2EF0E0EF2EF0E0FF2EF0E80F2FF5E4DB
:102FE0001F2FF02D5BCF8130B1F40F2EF0E0EF2ECC
:102FF000F0E0FF2EF3E80F2FF2E41F2FF02D96CF15
:103000000F2EF0E0EF2EF0E0FF2EF0E00F2FF5E4B2
:103010001F2FF02D43CF8230C1F40F2EF3E3EF2E9C
:10302000F3E3FF2EF3E00F2FF2E41F2FF02D7ECFFE
:103030008823C1F40F2EF0E0EF2EF0E0FF2EF0E831
:103040000F2FF6E41F2FF02D29CF8330B1F40F2E70
:10305000F3E3EF2EF3E3FF2EF3E80F2FF1E41F2F3E
:10306000F02D64CF0F2EF0E0EF2EF0E0FF2EF0E811
:103070000F2FFFE31F2FF02D11CF0F2EF0E0EF2EBB
:10308000F0E0FF2EF0E80F2FFFE31F2FF02D4ECFC3
:103090000F931F93CF93DF9300E010E0C0E9D1E0DE
:1030A0000E94B11620E030E0CE010197F1F72F5FCA
:1030B0003F4F83E128383807B9F70F5F1F4F083CAF
:1030C000110571F7DF91CF911F910F91089588E657
:1030D0006BE641E00E94C030089588E66BE640E070
:1030E0000E94C0300895EF92FF920F931F93DF93D9
:1030F000CF9300D00F92CDB7DEB77C018CE06AE0B1
:1031000040E00E94C03000E41CE9C8010197F1F7DB
:103110008CE06AE04FE00E94C030C8010197F1F7EF
:103120008CE060E143E09E012F5F3F4F0E944231FF
:10313000698170E060587040882777FD8095982FEE
:103140000E94933820E030E040E85BE30E9473394E
:1031500020E030E040E85FE30E942E37F701608313
:103160007183828393836A8170E0605870408827FE
:1031700077FD8095982F0E94933820E030E040E85A
:103180005BE30E94733920E030E040E85FE30E9497
:103190002E37F70164837583868397836B8170E094
:1031A00060587040882777FD8095982F0E9493384B
:1031B00020E030E040E85BE30E94733920E030E03B
:1031C00040E85FE30E942E37F701608771878287AE
:1031D00093878CE06AE040E00E94C030C80101970C
:1031E000F1F74091DD014295407F8091DE01482B4F
:1031F0008CE06AE00E94C030C8010197F1F70F909F
:103200000F900F90CF91DF911F910F91FF90EF9052
:103210000895482F88E669E10E94C0300895DF9341
:10322000CF930F92CDB7DEB7198288E66BE1AE017E
:103230004F5F5F4F0E942531898190E0959587957A
:10324000959587959595879583700F90CF91DF9190
:103250000895DF93CF930F92CDB7DEB7198288E63A
:103260006AE1AE014F5F5F4F0E942531898187700F
:103270000F90CF91DF910895EF92FF920F931F93DC
:10328000DF93CF930F92CDB7DEB7F82EE62E042F43
:10329000122F198288E66F2DAE014F5F5F4F0E949B
:1032A000253121E030E002C0220F331F0A95E2F7FA
:1032B0002150622F70E0012E02C0660F771F0A9422
:1032C000E2F7898190E0012E02C0959587950A94D6
:1032D000E2F7422F4823609546232E21822F90E06B
:1032E00002C0880F991F1A95E2F7482B498388E698
:1032F0006F2D0E94C0300F90CF91DF911F910F91E1
:10330000FF90EF900895DF93CF930F92CDB7DEB784
:10331000198288E66BE1AE014F5F5F4F0E94253155
:10332000898190E095958795959587959595879551
:1033300083700F90CF91DF9108951F93DF93CF9308
:103340000F92CDB7DEB7182F198288E66AE1AE0179
:103350004F5F5F4F0E9425311770198388E66AE13D
:10336000412F0E94C0300F90CF91DF911F9108959F
:103370001F93DF93CF930F92CDB7DEB7182F19822B
:1033800088E66CE1AE014F5F5F4F0E9425311370FC
:10339000110F110F110F898190E0959587959595E3
:1033A0008795959587958370182B198388E66CE12E
:1033B000412F0E94C0300F90CF91DF911F9108954F
:1033C0001F93DF93CF930F92CDB7DEB7182F1982DB
:1033D00088E66BE1AE014F5F5F4F0E9425311370AD
:1033E000110F110F110F898190E095958795959593
:1033F0008795959587958370182B198388E66BE1DF
:10340000412F0E94C0300F90CF91DF911F910895FE
:103410000F931F93DF93CF930F92CDB7DEB788E65C
:1034200069E140E00E94C030198288E66AE18E01BD
:103430000F5F1F4FA8010E942531198288E66AE1BB
:1034400040E00E94C030198288E66BE1A8010E942A
:103450002531498150E055954795559547955595A6
:10346000479543704860498388E66BE10E94C0300D
:10347000198288E66CE1A8010E942531498150E05B
:10348000559547955595479555954795437049836B
:1034900088E66CE10E94C030198288E669E1A801E3
:1034A0000E942531198288E66AE1A8010E9425312F
:1034B000198288E66BE1A8010E942531898190E09C
:1034C0009595879595958795959587958370809324
:1034D0007403198288E66BE1A8010E942531898175
:1034E00090E09595879595958795959587958370A7
:1034F00089838093730388E66BE640E00E94C030C6
:1035000088E66BE140E10E94C03088E66CE140E172
:103510000E94C03088E667E342E20E94C03088E63D
:1035200068E341E00E94C03088E66BE641E00E941B
:10353000C0300F90CF91DF911F910F9108958F921E
:103540009F92AF92BF92CF92DF92EF92FF920F9332
:103550001F93DF93CF9300D000D0CDB7DEB7198291
:1035600088E665E77E010894E11CF11CA7010E9432
:1035700025318981813791F080E00F900F900F9075
:103580000F90CF91DF911F910F91FF90EF90DF90FF
:10359000CF90BF90AF909F908F9008950E94081A8F
:1035A00082E0C82ED12CCC0EDD1E03E0A02EB12C63
:1035B000AC0EBD1E14E0812E912C8C0E9D1E00E9D8
:1035C00011E088E667E342E20E94C03088E668E3E3
:1035D00041E00E94C03088E667E3A6010E942531E1
:1035E00088E664E2A5010E94253188E668E3A4012B
:1035F0000E942531198288E660E0A7010E942531EA
:103600008A81823279F140E020E030E0C801019700
:10361000F1F72F5F3F4F8FE120343807B9F744238C
:1036200081F28CE060E0A7010E9425318981883415
:1036300009F0A2CF20E030E040E951E0CA01019753
:10364000F1F72F5F3F4F83E0283E3807B9F781E855
:1036500093E00E94731888E665E7A7010E94253170
:1036600081E08BCF8B81882371F640E08C818130A3
:1036700059F641E0C9CF0F931F93FC01448F558F3A
:10368000668F778F008F118F228F338F1F910F914D
:103690000895CF92DF92EF92FF920F931F93FC0158
:1036A0004487558766877787008B118B228B338BF6
:1036B000C48AD58AE68AF78A1F910F91FF90EF900E
:1036C000DF90CF9008956F927F928F929F92AF92EA
:1036D000BF92CF92DF92EF92FF920F931F93CF93FF
:1036E000DF93EC019A01AB01688D798D8A8D9B8DFA
:1036F0000E942D373B014C0120E030E040E050E0DB
:103700000E94683988230CF4F8C060E070E084EB14
:1037100093E4A40193010E942D377B018C01640185
:103720005301C601B501A80197010E946839181616
:103730000CF0D2C0E882F9820A831B830F2EF0E0DE
:103740006F2EF0E07F2EF0E88F2EFFEB9F2EF02DF6
:10375000A80197016C8D7D8D8E8D9F8D0E94733990
:10376000A40193010E9473392C813D814E815F81B8
:103770000E942E377B018C016C837D838E839F8317
:1037800020E030E044E353E40E946839181654F016
:10379000C801B70120E030E044E353EC0E94F43765
:1037A000882344F480E090E0A4E3B3E48C839D8319
:1037B000AE83BF8361E170E080E090E00E94C824A6
:1037C0007B018C01288539854A855B850E94733988
:1037D0005B016C0160E070E080E89FE3A801970165
:1037E0000E942D37288139814A815B810E9473397B
:1037F0002C8D3D8D4E8D5F8D0E94F8379B01AC0165
:10380000C601B5010E942E375B016C01688779877C
:103810008A879B876C857D858E859F8528813981E8
:103820004A815B810E9473397B018C0168897989A7
:103830008A899B892C813D814E815F810E947339E9
:103840009B01AC01C801B7010E942E377B018C019E
:10385000C601B5012C893D894E895F890E94733963
:103860009B01AC01C801B7010E942E377B018C017E
:1038700020E030E048EC52E40E946839181654F019
:10388000C801B70120E030E048EC52EC0E94F43768
:10389000882354F40F2EF0E0EF2EF0E0FF2EF8EC2A
:1038A0000F2FF2E41F2FF02DC801B701A4019301DF
:1038B0000E9473390E946038CB01DF91CF911F9134
:1038C0000F91FF90EF90DF90CF90BF90AF909F90BF
:1038D0008F907F906F900895A882B982CA82DB8210
:1038E0000F2EF0E06F2EF0E07F2EF0E88F2EFFE33A
:1038F0009F2EF02DA60195012DCFC401B30120E02C
:1039000030E044EB53E40E942E375B016C018401EC
:10391000730107CFCF93DF93FC01848D958DA68D26
:10392000B78D20E2EF0119922A95E9F7408F518F68
:10393000628F738F848F958FA68FB78FDF91CF9112
:10394000089580ED97E09093EE038093ED039093BC
:10395000F0038093EF039093F2038093F10390932D
:10396000F4038093F3039093F6038093F50390930D
:10397000F8038093F7039093FA038093F9039093ED
:10398000FC038093FB039093FE038093FD039093CD
:1039900000048093FF03109201041092020410921D
:1039A00003040895109285001092840080E49CE93D
:1039B000909389008093880088EE93E090938B0029
:1039C00080938A0010928000E1E8F0E0108280810C
:1039D0008860808380818260808386E080936F002E
:1039E00008959C01809101048930F8F4E09101046C
:1039F000F0E0EE0FFF1FE153FC4F31832083E09195
:103A00000104F0E0ED51FC4F6083E0910104F0E02F
:103A1000EE0FFF1FE351FC4F1182108280910104D1
:103A20008F5F8093010481E0089580E008959C01F8
:103A3000220F331FC90108959C0136952795C901AE
:103A40000895E82F80910104E81748F4F0E0EE0FA4
:103A5000FF1FE351FC4F660F771F7183608308954A
:103A6000A82F80910104A817C0F46623B9F0B0E034
:103A7000FD01EE0FFF1FE153FC4F0190F081E02D9F
:103A8000AD51BC4F81E090E00C9002C0880F991FAF
:103A90000A94E2F72081282B20830895B0E0FD01ED
:103AA000EE0FFF1FE153FC4F0190F081E02DAD516F
:103AB000BC4F81E090E00C9002C0880F991F0A94DF
:103AC000E2F78095208128232083089580910104C6
:103AD000882309F4089580910104882381F0E091FE
:103AE000CF03F091D00381E090E00090E30302C0A7
:103AF000880F991F0A94E2F72081282B2083809158
:103B0000ED039091EE0390938B0080938A0081E007
:103B1000809302048093030408951F920F920FB6BE
:103B20000F920BB60F9211242F938F939F93EF93C5
:103B3000FF9380910104882361F4FF91EF919F919D
:103B40008F912F910F900BBE0F900FBE0F901F9073
:103B5000189580910104882381F0E091CF03F091C2
:103B6000D00381E090E00090E30302C0880F991F2A
:103B70000A94E2F72081282B20838091ED03909115
:103B8000EE0390938B0080938A0081E0809302047F
:103B900080930304D2CF1F920F920FB60F920BB6F1
:103BA0000F9211242F933F934F935F936F937F93C3
:103BB0008F939F93AF93BF93EF93FF9380910304F1
:103BC0008823A1F180910204882309F04BC09091D1
:103BD0000204809101049817E0F5E0910204F0E0FE
:103BE000EE0FFF1FE351FC4F80819181892B09F07B
:103BF00059C0E0910204F0E0EE0FFF1FE351FC4FCB
:103C00000190F081E02D309711F4E8EEF3E080911F
:103C1000840090918500E80FF91FF0938B00E093EA
:103C20008A00809102048F5F80930204FF91EF91DC
:103C3000BF91AF919F918F917F916F915F914F91C4
:103C40003F912F910F900BBE0F900FBE0F901F90C2
:103C5000189580910104882359F51092020410925E
:103C60000304E4CFA0910204A15080910104A8179D
:103C700008F0ADCFB0E0FD01EE0FFF1FE153FC4FA8
:103C80000190F081E02DAD51BC4F81E090E00C90AF
:103C900002C0880F991F0A94E2F78095208128239B
:103CA000208395CF8091020461E00E94301DA1CF56
:103CB00080910104815060E00E94301DCECFAF9210
:103CC000BF92CF92DF92EF92FF920F931F937B01EF
:103CD0008C01EE0CFF1C001F111FEE0CFF1C001FBF
:103CE000111FEE0CFF1C001F111FEE0CFF1C001F0C
:103CF000111F60E078E689E899E09701A8010E9429
:103D0000D73D59016A010894A108B108C108D1083A
:103D100060E074E284EF90E09701A8010E94D73D33
:103D2000F901B90161507040CB01880F991F9B01C7
:103D3000220F331F220F331F220F331F820F931FB7
:103D4000A0E0B0E08A159B05AC05BD0579F18601C0
:103D50007501E81AF90A0A0B1B0BCF01880F991F8E
:103D60009F01220F331F220F331F220F331F820F99
:103D7000931FA0E0B0E08A159B05AC05BD05D1F00E
:103D8000A6019501281B390B4A0B5B0B2E153F052D
:103D90004007510708F4BF01CB011F910F91FF901D
:103DA000EF90DF90CF90BF90AF900895EE24FF2466
:103DB0008701D3CF20E030E040E050E0E7CF982FFC
:103DC0008091C00085FFFCCF9093C6000895E091DC
:103DD0008704F0E0EC5BFB4F8083809187048034A4
:103DE00018F0109287040895809187048F5F809364
:103DF00087040895982F8091C80085FFFCCF909389
:103E0000CE000895E0910B05F0E0E853FB4F80836E
:103E100080910B05803418F010920B050895809165
:103E20000B058F5F80930B050895DB012C91FC013E
:103E3000E20FF11D40838C91803410F01C920895A4
:103E40008C918F5F8C930895CF93DF93DC01EB010E
:103E5000FA0198818081981799F08881A80FB11D87
:103E60009C918881803428F01882892FDF91CF912E
:103E7000089588818F5F8883892FDF91CF9108957E
:103E800090E0892FDF91CF9108958091C00087FF46
:103E9000FCCF8091C60008958091C80087FFFCCFB9
:103EA0008091CE000895909184048091850420E053
:103EB000981321E0822F08959091080580910905BB
:103EC00020E0981321E0822F08959091840480913E
:103ED00085049817A9F0E0918404F0E0EC5FFB4FB3
:103EE000E08180918404803420F0109284048E2F2D
:103EF0000895809184048F5F809384048E2F0895A9
:103F0000E0E08E2F0895909108058091090598179B
:103F1000A9F0E0910805F0E0E857FB4FE0818091BF
:103F20000805803420F0109208058E2F08958091A6
:103F300008058F5F809308058E2F0895E0E08E2F8F
:103F40000895FC019081992351F031968091C00031
:103F500085FFFCCF9093C60090819923B1F7089517
:103F6000FC019081992351F031968091C80085FF22
:103F7000FCCF9093CE0090819923B1F708951F92C2
:103F80000F920FB60F920BB60F9211248F93EF93EF
:103F9000FF938091C600E0918504F0E0EC5FFB4F59
:103FA000808380918504803460F010928504FF91B5
:103FB000EF918F910F900BBE0F900FBE0F901F903F
:103FC0001895809185048F5F80938504F0CF1F92B0
:103FD0000F920FB60F920BB60F9211248F93EF939F
:103FE000FF938091CE00E0910905F0E0E857FB4F88
:103FF000808380910905803460F010920905FF915B
:10400000EF918F910F900BBE0F900FBE0F901F90EE
:104010001895809109058F5F80930905F0CF1F9255
:104020000F920FB60F920BB60F9211248F939F939E
:10403000EF93FF939091860480918704981711F174
:10404000E0918604F0E0EC5BFB4FE0818091860418
:10405000803488F010928604EE23A1F0E093C6002D
:10406000FF91EF919F918F910F900BBE0F900FBE1C
:104070000F901F901895809186048F5F809386041F
:10408000EE2361F78091C1008F7D8093C100E8CF5E
:10409000DC018C91882381F0E0910B05F0E0E8537E
:1040A000FB4F808380910B05803460F010920B05EC
:1040B00011968C91882381F78091C900806280934A
:1040C000C900089580910B058F5F80930B051196B1
:1040D000F0CFDC018C91882381F0E0918704F0E03F
:1040E000EC5BFB4F808380918704803460F01092FA
:1040F000870411968C91882381F78091C10080629A
:104100008093C1000895809187048F5F8093870416
:104110001196F0CFAF92BF92CF92DF92EF92FF92C3
:104120000F931F937B018C01EE0CFF1C001F111FCE
:10413000EE0CFF1C001F111FEE0CFF1C001F111FB7
:10414000EE0CFF1C001F111F60E078E689E899E083
:104150009701A8010E94D73D59016A010894A1085E
:10416000B108C108D10860E074E284EF90E09701E3
:10417000A8010E94D73DF901B90161507040CB01FF
:10418000880F991F9B01220F331F220F331F220F0D
:10419000331F820F931FA0E0B0E0A816B906CA062D
:1041A000DB06E9F186017501E81AF90A0A0B1B0B17
:1041B000CF01880F991F9F01220F331F220F331F3A
:1041C000220F331F820F931FA0E0B0E0A816B9069C
:1041D000CA06DB0641F1A6019501281B390B4A0BE3
:1041E0005B0B2E153F054007510708F4BF0188E11E
:1041F0008093C1008EE08093C2007093C5006093ED
:10420000C4008091C10080688093C1001F910F910C
:10421000FF90EF90DF90CF90BF90AF900895EE2485
:10422000FF248701C5CF20E030E040E050E0D9CF47
:10423000AF92BF92CF92DF92EF92FF920F931F93B4
:104240007B018C01EE0CFF1C001F111FEE0CFF1CEC
:10425000001F111FEE0CFF1C001F111FEE0CFF1C96
:10426000001F111F60E078E689E899E09701A80136
:104270000E94D73D59016A010894A108B108C108FC
:10428000D10860E074E284EF90E09701A8010E94F9
:10429000D73DF901B90161507040CB01880F991FDA
:1042A0009B01220F331F220F331F220F331F820F58
:1042B000931FA0E0B0E0A816B906CA06DB06E9F134
:1042C00086017501E81AF90A0A0B1B0BCF01880F4A
:1042D000991F9F01220F331F220F331F220F331FFD
:1042E000820F931FA0E0B0E0A816B906CA06DB064D
:1042F00041F1A6019501281B390B4A0B5B0B2E15CA
:104300003F054007510708F4BF0188E18093C900C9
:104310008EE08093CA007093CD006093CC008091B2
:10432000C90080688093C9001F910F91FF90EF90A2
:10433000DF90CF90BF90AF900895EE24FF248701C7
:10434000C5CF20E030E040E050E0D9CFCF93DF93FD
:10435000EC010E94531F882319F4DF91CF91089537
:104360000E94651F982F20910107E22FF0E0E45F83
:10437000FA4F8083E22FEF5F2E2FE09301078A3000
:1043800011F0E33651F7809100078823B1F481E002
:104390009A30B9F081E080930007F0E0E45FFA4FD3
:1043A0001082E22FF0E0E45FFA4F108210920107D2
:1043B00010920C05DF91CF9108951092000780E0D4
:1043C000E7CFF0E0E45FFA4F1082882351F38CE0EE
:1043D00095E0FE01099520910107E3CF8F929F920E
:1043E000AF92BF92CF92DF92EF92FF920F931F9303
:1043F000DF93CF9300D000D0CDB7DEB7162F072FB5
:104400006A0119821A821B821C8261E172E00E9499
:104410000D36AC01009709F45EC082E043315807C5
:1044200009F459C0812F902F9C018901EE24FF24AB
:1044300085E1882E82E0982E5E010894A11CB11CB3
:104440000FC080E090E061E172E00E940D36AC01A7
:10445000009779F10C5F1F4F92E04331590749F102
:1044600000D000D000D0EDB7FEB73196ADB7BEB7E3
:1044700012965C934E93119793828282B582A482A6
:104480000E94AC3689819A81AB81BC81F80180831E
:104490009183A283B3830894E11CF11C8DB79EB76E
:1044A00006960FB6F8949EBF0FBE8DBFEC14FD04A8
:1044B00041F6C7010F900F900F900F90CF91DF91B1
:1044C0001F910F91FF90EF90DF90CF90BF90AF9032
:1044D0009F908F900895EE24FF24EBCFCF92DF9230
:1044E000EF92FF920F931F93CF93DF938C010E9463
:1044F000531F882349F4DF91CF911F910F91FF90B3
:10450000EF90DF90CF9008950E94651F982F209123
:104510000107E22FF0E0E45FFA4F8083E22FEF5FC4
:104520002E2FE09301078A3011F0E33621F78091B6
:1045300000078823A1F481E09A30A9F081E08093FC
:104540000007F0E0E45FFA4F1082E22FF0E0E45F52
:10455000FA4F10821092010710920C05CCCF1092E6
:10456000000780E0E9CFF0E0E45FFA4F1082882393
:1045700061F38CE095E060E775E044E650E00E946E
:10458000EE217C01D0907005C0907105809172057C
:1045900090917305E70121971C161D06D4F5E4E7F9
:1045A000F5E02D2D3C2DAC01C901DA0120E030E011
:1045B00040E050E0B701660F771F660F771F645920
:1045C0007A4F04C081919191A191B191280F391F27
:1045D0004A1F5B1FE617F707A9F7CC0FDD1FCC0FAB
:1045E000DD1FC059DA4F88819981AA81BB8182176A
:1045F0009307A407B50719F0EE24EA94FE2C8D2D3D
:104600009C2D60E775E0A701F8010995209101074D
:104610009CCF20E030E040E050E0DFCF8F929F92CF
:10462000AF92BF92CF92DF92EF92FF920F931F93C0
:10463000DF93CF93CDB7DEB764970FB6F894DEBFA4
:104640000FBECDBF4C015A016B018BE0E82EF12C5F
:10465000EC0EFD1ED701E9E1F2E083E001900D923E
:104660008150E1F7C701B9010E941236002349F0D9
:10467000F70101900020E9F731978AE090E09183FB
:1046800080838DB79EB708970FB6F8949EBF0FBE74
:104690008DBFEDB7FEB731968E010F5F1F4FADB7DF
:1046A000BEB712961C930E931197F382E282A482F6
:1046B000B582C682D7820E947B368DB79EB7089698
:1046C0000FB6F8949EBF0FBE8DBFC4010E94A11FFC
:1046D000C8010E94A11F64960FB6F894DEBF0FBEFA
:1046E000CDBFCF91DF911F910F91FF90EF90DF90A1
:1046F000CF90BF90AF909F908F9008958F929F9290
:10470000AF92BF92CF92DF92EF92FF920F931F93DF
:10471000DF93CF93CDB7DEB764970FB6F894DEBFC3
:104720000FBECDBF4C015A016B019BE0E92EF12C6D
:10473000EC0EFD1ED701E9E1F2E083E001900D925D
:104740008150E1F7C701B9010E941236002349F0F8
:10475000F70101900020E9F731978AE090E091831A
:1047600080838DB79EB708970FB6F8949EBF0FBE93
:104770008DBFEDB7FEB731968E010F5F1F4FADB7FE
:10478000BEB712961C930E931197F382E282A48215
:10479000B582C682D7820E947B368DB79EB70896B7
:1047A0000FB6F8949EBF0FBE8DBFC4010E94A11F1B
:1047B000C8010E94A11F64960FB6F894DEBF0FBE19
:1047C000CDBFCF91DF911F910F91FF90EF90DF90C0
:1047D000CF90BF90AF909F908F900895EF92FF92EF
:1047E0000F931F93DF93CF93CDB7DEB72A970FB602
:1047F000F894DEBF0FBECDBF7C012223B9F5ADB763
:10480000BEB718970FB6F894BEBF0FBEADBFEDB7D9
:10481000FEB731968E010F5F1F4F12961C930E93B9
:10482000119783E292E09383828344835583668366
:1048300077830E947B368DB79EB708960FB6F894A3
:104840009EBF0FBE8DBFC7010E94A11FC8010E945D
:10485000A11F2A960FB6F894DEBF0FBECDBFCF9131
:10486000DF911F910F91FF90EF9008958DB79EB744
:1048700008970FB6F8949EBF0FBE8DBFEDB7FEB779
:1048800031968E010F5F1F4FADB7BEB712961C93C6
:104890000E9311978CE192E0C6CF0F931F93DF9395
:1048A000CF93CDB7DEB72A970FB6F894DEBF0FBE11
:1048B000CDBF2DB73EB7285030400FB6F8943EBF5D
:1048C0000FBE2DBFEDB7FEB731968E010F5F1F4FA4
:1048D000ADB7BEB712961C930E93119729E232E042
:1048E0003383228364837583868397830E947B3618
:1048F0002DB73EB7285F3F4F0FB6F8943EBF0FBEAF
:104900002DBFC8010E94A11F2A960FB6F894DEBFE2
:104910000FBECDBFCF91DF911F910F9108950F93DF
:104920001F93DF93CF93CDB7DEB72A970FB6F894D6
:10493000DEBF0FBECDBF00D000D000D0EDB7FEB7B8
:1049400031968E010F5F1F4FADB7BEB712961C9305
:104950000E9311972CE232E0338322839583848374
:104960000E947B368DB79EB706960FB6F8949EBF11
:104970000FBE8DBFC8010E94A11F2A960FB6F894E2
:10498000DEBF0FBECDBFCF91DF911F910F91089574
:10499000E5EFF7E0E60FF71FE081F0E0EE0FFF1F15
:1049A000EE0FFF1FE259F84F208131814281538180
:1049B000B901CA010895E5EFF7E0E60FF71FE081BE
:1049C000F0E0EE0FFF1FEE0FFF1FEE54F84F608177
:1049D0007181828193810895CF92DF92EF92FF924D
:1049E0000F931F93CF93DF930AED17E055EFC52E7A
:1049F00057E0D52E42E0E42E47E0F42E1FC0E6013A
:104A0000E881F0E0EE0FFF1FEE0FFF1FEE54F84FAE
:104A1000E70188819981AA81BB8180839183A283E8
:104A2000B3830F5F1F4F0894C11CD11CC4E0D0E0BA
:104A3000EC0EFD1EE7E0053F1E0701F1D8018C9149
:104A40008823E9F6F6018081C82FD0E0CC0FDD1F66
:104A5000CC0FDD1FC259D84FD7016D917D918D913B
:104A60009C910E94933820E030E44CE156E40E948F
:104A7000F837688379838A839B83D3CFDF91CF9183
:104A80001F910F91FF90EF90DF90CF9008951092BB
:104A900002071092030710920407109205078CE991
:104AA00093E1A0E0B0E08093060790930707A093FE
:104AB0000807B09309078CE396EFAFEFBFEF809341
:104AC0000A0790930B07A0930C07B0930D078CE790
:104AD00095E1A0E0B0E080930E0790930F07A093BC
:104AE0001007B093110782E796E5A0E0B0E080934D
:104AF000120790931307A0931407B09315078AE148
:104B000095EFAFEFBFEF8093160790931707A09331
:104B10001807B093190782E093E0A0E0B0E080931B
:104B20001A0790931B07A0931C07B0931D0781E5FC
:104B300090E0A0E0B0E080931E0790931F07A09341
:104B40002007B09321078BE091E0A0E0B0E08093D4
:104B5000220790932307A0932407B093250784E8A6
:104B60009FEFAFEFBFEF8093260790932707A093A7
:104B70002807B093290788E893E1A0E0B0E080938C
:104B80002A0790932B07A0932C07B0932D0728EEAC
:104B900033E040E050E020932E0730932F074093FE
:104BA000300750933107109232071092330710925A
:104BB0003407109235078CED95E0A0E0B0E08093CB
:104BC000360790933707A0933807B093390780933F
:104BD0003A0790933B07A0933C07B0933D0720937F
:104BE0003E0730933F074093400750934107109290
:104BF000420710924307109244071092450788E23B
:104C000093E2A0E0B0E08093460790934707A0931B
:104C10004807B093490780934A0790934B07A093A6
:104C20004C07B0934D0780934E0790934F07A09386
:104C30005007B09351078093520790935307A09366
:104C40005407B09355078093560790935707A09346
:104C50005807B09359078CE195E2A0E0B0E080934B
:104C60006A0790936B07A0936C07B0936D0789E177
:104C700090E0A0E0B0E080935A0790935B07A09388
:104C80005C07B0935D0780E794E9A0E0B0E0809313
:104C90005E0790935F07A0936007B093610781E47C
:104CA00090E0A0E0B0E08093620790936307A09348
:104CB0006407B093650781E090E0A0E0B0E08093E6
:104CC000660790936707A0936807B09369070895F4
:104CD000EF92FF920F931F93CF93DF937B018C0191
:104CE000FB01EE0FFF1FEE0FFF1FEE5FF84F20835B
:104CF000318342835383FB01E652F84F808188233E
:104D000009F5F701EB50F84F6081C62FD0E0CC0FCA
:104D1000DD1FCC0FDD1FC259D84FCA01B9010E9457
:104D2000933820E030E44CE156E40E94F837688381
:104D300079838A839B83DF91CF911F910F91FF909D
:104D4000EF900895F701EB50F84FE081F0E0EE0F9F
:104D5000FF1FEE0FFF1FEE54F84F20833183428375
:104D60005383DF91CF911F910F91FF90EF900895A2
:104D7000EF92FF920F931F93CF93DF93C2E0D7E0A0
:104D8000EE24FF248701D801C701880F991FAA1FAD
:104D9000BB1F880F991FAA1FBB1F49915991699189
:104DA00079910E94F33C0894E11CF11C011D111D36
:104DB00087E0CE36D80739F7DF91CF911F910F9159
:104DC000FF90EF900895CF92DF92EF92FF920F93B2
:104DD0001F93CF93DF9350E1C52E58E0D52E10924C
:104DE0001008C60165E070E00E94182BC60140E083
:104DF00050E060E070E00E94E52A40910207509187
:104E000003076091040770910507C6010E94E52A17
:104E1000C6E0D7E041E0E42EF12C012D112D06C0B3
:104E20000894E11CF11C011D111D249687E0CE366B
:104E3000D807D1F080E198E0B801A7010E94E52AE7
:104E4000488159816A817B8180E198E00E94E52A4E
:104E5000C70183709070039719F780E198E00E9472
:104E6000A11F10921008DCCFF60101900020E9F795
:104E70003197E051F840E05FF74F8CE290E091838A
:104E8000808380E198E00E94A11F10921008E8E75B
:104E9000F3E06591749180E198E00E94FB3501E0B8
:104EA00010E0CCE2D0E0F60101900020E9F7319764
:104EB000E051F840E05FF74FD183C08380E198E094
:104EC0000E94A11F0B31A0F4F801EE0FFF1FE8585C
:104ED000FC4F6591749180E198E00E94FB350F5F73
:104EE0001F4F0B311105F9F680E198E00E94A11FD8
:104EF0008FE292E00E94A11FDF91CF911F910F914D
:104F0000FF90EF90DF90CF900895CF92DF92EF92D5
:104F1000FF920F931F93CF93DF9380E090E00E9466
:104F2000ED3C6A3F71058105910509F0E4C002E09E
:104F300017E0C0E0D0E0CE01880F991F880F991FBD
:104F40000E94ED3CD8016D937D938D939D938D01CF
:104F50002196CB31D10579F791E09093DA07109241
:104F6000F5071092DB071092F6071092DC0790937A
:104F7000F7071092DD0722E02093F8071092DE0772
:104F800083E08093F9071092DF0744E04093FA072B
:104F90001092E00735E03093FB079093E107909380
:104FA000FC079093E2072093FD079093E30780931B
:104FB000FE071092E40786E08093FF071092E50752
:104FC00067E0609300081092E60758E050930108EC
:104FD0009093E707409302089093E8073093030803
:104FE0009093E907809304081092EA0729E0209340
:104FF00005081092EB078AE0809306081092EC07F0
:105000008BE0809307081092ED078CE080930808EE
:105010001092EE078DE0809309081092EF078EE062
:1050200080930A089093F00760930B089093F10720
:1050300050930C089093F2078FE080930D089093A3
:10504000F30720930E081092F40780E180930F0875
:105050000AED17E0F5EFCF2EF7E0DF2EE2E0EE2EBF
:10506000E7E0FE2E1FC0D601EC91F0E0EE0FFF1F2F
:10507000EE0FFF1FEE54F84FE70188819981AA8156
:10508000BB8180839183A283B3830F5F1F4F0894FA
:10509000C11CD11CC4E0D0E0EC0EFD1EE7E0053FD2
:1050A0001E0701F1E80188818823E9F6F601808175
:1050B000C82FD0E0CC0FDD1FCC0FDD1FC259D84F59
:1050C000D7016D917D918D919C910E94933820E044
:1050D00030E44CE156E40E94F837688379838A8390
:1050E0009B83D3CFDF91CF911F910F91FF90EF90D2
:1050F000DF90CF900895109202071092030710924C
:105100000407109205078CE993E1A0E0B0E08093DA
:10511000060790930707A0930807B09309078CE34D
:1051200096EFAFEFBFEF80930A0790930B07A09322
:105130000C07B0930D078CE795E1A0E0B0E08093F9
:105140000E0790930F07A0931007B093110782E703
:1051500096E5A0E0B0E08093120790931307A09328
:105160001407B09315078AE195EFAFEFBFEF809377
:10517000160790931707A0931807B093190782E0BA
:1051800093E0A0E0B0E080931A0790931B07A093F0
:105190001C07B0931D0781E590E0A0E0B0E080938C
:1051A0001E0790931F07A0932007B09321078BE061
:1051B00091E0A0E0B0E08093220790932307A093B2
:1051C0002407B093250784E89FEFAFEFBFEF8093EC
:1051D000260790932707A0932807B093290788E80C
:1051E00093E1A0E0B0E080932A0790932B07A0936F
:1051F0002C07B0932D0728EE33E040E050E02093D9
:105200002E0730932F0740933007509331071092A9
:1052100032071092330710923407109235078CED45
:1052200095E0A0E0B0E08093360790933707A09315
:105230003807B093390780933A0790933B07A093C0
:105240003C07B0933D0720933E0730933F074093C0
:105250004007509341071092420710924307109263
:1052600044071092450788E293E2A0E0B0E0809303
:10527000460790934707A0934807B0934907809348
:105280004A0790934B07A0934C07B0934D07809328
:105290004E0790934F07A0935007B0935107809308
:1052A000520790935307A0935407B09355078093E8
:1052B000560790935707A0935807B09359078CE16E
:1052C00095E2A0E0B0E080936A0790936B07A0930B
:1052D0006C07B0936D0789E190E0A0E0B0E08093A7
:1052E0005A0790935B07A0935C07B0935D0780E734
:1052F00094E9A0E0B0E080935E0790935F07A093ED
:105300006007B093610781E490E0A0E0B0E0809393
:10531000620790936307A0936407B093650781E0E9
:1053200090E0A0E0B0E08093660790936707A093B9
:105330006807B093690710CE94B1906B94B9269822
:1053400090E59CBD882319F08CB580628CBD6130DE
:1053500049F1613068F48CB58CBD403191F0413138
:10536000A0F44430E1F1483049F1423071F1089540
:105370006230E1F0633089F78CB58C608CBD4031D0
:1053800071F78CB581608CBD0895403421F14038AF
:1053900089F0403261F78DB581608DBD8CB582603A
:1053A0008CBD08958CB584608CBDD7CF8CB58860DA
:1053B0008CBDD3CF8CB583608CBD08958DB58160D5
:1053C0008DBD8CB581608CBD08958DB581608DBD1E
:1053D0008CB58CBD08958CB582608CBD08958CB55C
:1053E00081608CBD8CB58CBD08958EBD0DB407FE5B
:1053F000FDCF8EB50895482F662369F09C01F90111
:1054000080818EBD0DB407FEFDCF8EB531968E2FF7
:10541000841B8617A8F30895482F662369F09C0122
:10542000F9019FEF9EBD0DB407FEFDCF8EB58193B0
:105430008E2F841B8617B0F308953D9A3F9A549A95
:10544000559A459847985C985D980895459847986F
:105450005C985D9808959C0180913502813061F0DF
:105460008091740881508093740887FF0895822F7B
:105470008150809374080895809174088F5F8093A1
:105480007408992787FD9095821793077CF31092F3
:105490007408089590917408913071F192308CF1F4
:1054A0009230A1F0933019F1459847985C985D9837
:1054B00080913502813091F0892F8150809374085A
:1054C00087FF089583E0809374080895459847986E
:1054D0005C9A5D9A80913502813071F7892F8F5FD8
:1054E0008093740884306CF3109274080895459A80
:1054F00047985C985D9ADCCF4598479A5C9A5D988E
:10550000D7CF992389F6459A479A5C985D98D0CF72
:1055100090917408933009F449C09430DCF09530D0
:10552000D9F195306CF1963009F44AC0973009F4FE
:1055300042C0459847985C985D98809135028130CB
:10554000A9F4892F8F5F809374088830A4F010929B
:1055500074080895913029F19230BCF0459847982D
:105560005C9A5D9880913502813059F3892F815082
:105570008093740887FF089587E0809374080895E6
:105580004598479A5C985D98EDCF992391F6459898
:1055900047985C985D9AE6CF459A479A5C985D98E3
:1055A000E1CF459847985C9A5D9ADCCF4598479A39
:1055B0005C9A5D98D7CF459A47985C985D9AD2CF10
:1055C000459A47985C985D98CDCFEF92FF920F93E4
:1055D0001F937C018DB79EB708970FB6F8949EBFB6
:1055E0000FBE8DBFEDB7FEB7319605E718E0ADB73A
:1055F000BEB712961C930E93119786E392E09383A5
:10560000828344835583668377830E947B368DB77C
:105610009EB708960FB6F8949EBF0FBE8DBFC70108
:10562000B8010E9412361F910F91FF90EF900895DC
:10563000EF92FF920F931F937C0100D000D000D017
:10564000EDB7FEB7319605E718E0ADB7BEB71296D5
:105650001C930E9311978BE392E09383828375835F
:1056600064830E947B368DB79EB706960FB6F8947A
:105670009EBF0FBE8DBFC701B8010E9412361F9199
:105680000F91FF90EF9008954F925F926F927F92EB
:105690008F929F92AF92BF92CF92DF92EF92FF9242
:1056A0000F931F93CF93DF932C013A014B01CB0152
:1056B000BA010E9460385B016C01C401B30120E0B3
:1056C00030E040E050E00E94F43788230CF450C0F2
:1056D000EDB7FEB738970FB6F894FEBF0FBEEDBF1B
:1056E000EDB6FEB60894E11CF11C85E798E09283C4
:1056F00081838EE392E0F70193838283B582A48253
:105700008CE99FEFA89E8001A99E100DB89E100DF8
:105710001124C401B30120E030E048EC52E40E94BF
:1057200073390E946038060F171FF701178306832D
:105730000E947B368DB79EB708960FB6F8949EBF31
:105740000FBE8DBFC20165E778E00E941236DF917F
:10575000CF911F910F91FF90EF90DF90CF90BF906E
:10576000AF909F908F907F906F905F904F90089533
:105770008DB79EB708970FB6F8949EBF0FBE8DBF2A
:10578000EDB6FEB60894E11CF11C85E798E0EDB794
:10579000FEB7928381838EE392E0F7019383828345
:1057A000B582A48284E690E0A89E8001A99E100D97
:1057B000B89E100D1124C401B30120E030E048EC84
:1057C00052E40E9473390E946038061B170BADCF5C
:1057D000109295001092940089EF90E090939900B8
:1057E0008093980010929000E1E9F0E010828081AF
:1057F0008260808380818360808382E080937100F7
:1058000008951F920F920FB60F9211248F939F93BA
:10581000AF93BF9380917F0890918008A0918108F9
:10582000B09182080196A11DB11D80937F089093CD
:105830008008A0938108B0938208BF91AF919F9197
:105840008F910F900FBE0F901F901895F894209194
:105850007F083091800840918108509182087894A7
:10586000B901CA010895EF92FF920F931F93F89424
:1058700060917F08709180088091810890918208E2
:10588000E0909400F090950078942AEF30E040E0AA
:1058900050E00E94A53D9B01AC0100E010E02E0D00
:1058A0003F1D401F511F220F331F441F551F220F42
:1058B000331F441F551FB901CA011F910F91FF905B
:1058C000EF90089591E09093CC088093A9081092EE
:1058D000CA081092CB0808952091A80830E0809162
:1058E000A708281B3109C90108954091A708809194
:1058F000A808481760F4E42FF0E0E957F74F8081DB
:10590000282F30E04F5F4093A708C90108952FEF7B
:105910003FEFC9010895E091A7088091A808E81712
:1059200040F4F0E0E957F74F8081E82FF0E0CF0135
:105930000895EFEFFFEFCF01089508959C01409186
:10594000CF085091D0084115510511F19091A70849
:105950008091A8089817E0F01616170694F490E0C6
:10596000A0E0B0E0E0E0F0E0A957B74FE20FF31F8E
:1059700080818C939F5FE92FF0E0DF01E617F70746
:105980009CF31092A7086093A808CB01FA0109952F
:105990000895E091CD08F091CE08309729F010924B
:1059A000CA081092CB08099508959093D008809367
:1059B000CF0808959093CE088093CD080895DF9383
:1059C000CF930F92CDB7DEB789838091CC0888231F
:1059D000F9F08091CB088032A0F48091CA08E82FBA
:1059E000F0E0E655F74F998190838F5F8093CA0866
:1059F0008093CB0821E030E0C9010F90CF91DF9177
:105A0000089520E030E0C9010F90CF91DF91089513
:105A1000CE01019661E00E941D2F21E030E0C90116
:105A20000F90CF91DF9108950F93082F8091A908CF
:105A30006AEA78E04091CB0821E00E94B72E1092EC
:105A4000CA081092CB081092CC080F9108950E94BA
:105A5000532E08950E94462E08951092A708109282
:105A6000A8081092CA081092CB080E942A2E89EC2E
:105A70009CE20E944D2F8EE99CE20E94482F0895DF
:105A8000AF92BF92CF92DF92EF92FF920F931F934C
:105A9000DF93CF930F92CDB7DEB76C017B0180917E
:105AA000CC088823F1F16115710571F100E010E077
:105AB0005E010894A11CB11C17C08091CB088032F4
:105AC00060F48091CA08E82FF0E0E655F74F908324
:105AD0008F5F8093CA088093CB080F5F1F4F0E150E
