:100000000C9435020C9454020C9454020C94540237
:100010000C9454020C94EE040C9454020C9454026C
:100020000C9454020C94D4040C9454020C94540276
:100030000C9454020C94921B0C94D01B0C945402FC
:100040000C944A050C94CD050C9454020C94540263
:100050000C94C41D0C94141E0C9454020C94540261
:100060000C9434050C9454020C943F2C0C945402C0
:100070000C94EC1D0C9454020C9454020C945402F5
:100080000C94D4280C9454020C945402F82C912C07
:10009000912C912C912C912C912C912C022D912C06
:1000A000912C912C912C912C912C912C022D912CF6
:1000B000912C912C912C912C912C912C0A2D912CDE
:1000C000912C912C912C912C912C912C1E2D912CBA
:1000D000912C912C912C912C912C912C0A2D912CBE
:1000E000912C912C912C912C912C912CC02C912CF9
:1000F000912C912C912C912C912C912CCD2C912CDC
:10010000912C912C912C912C912C912CB92C912CDF
:10011000912C912C912C912C912C912C4B2D912C3C
:10012000912C912C912C912C912C912CAD2C912CCB
:10013000912C912C912C912C912C912CD62C912C92
:10014000912C912C912C912C912C912CEF2C912C69
:10015000912C912C912C912C912C912CEF2C912C59
:10016000912C912C912C912C912C912CEF2C912C49
:10017000912C912C912C912C912C912CEF2C912C39
:10018000912C912C912C912C912C912CA42C912C74
:10019000912C912C912C912C912C912CA92C912C5F
:1001A000912C912C912C912C912C912CA42C912C54
:1001B000912C912C912C912C912C912CA92C912C3F
:1001C000912C912C912C912C912C912C292D912CAE
:1001D000912C912C912C912C912C912C672C912C61
:1001E000912C912C912C912C912C912C672C912C51
:1001F000912C912C912C912C912C912C7C2C912C2C
:10020000912C912C912C912C912C912C452D912C51
:10021000912C912C912C912C912C912C452D084AAC
:10022000D73B3BCE016E84BCBFFDC12F3D6C74310A
:100230009ABD56833DDA3D00C77F11BED9E4BB4C61
:100240003E916BAAAABE000000803F6E616E0069FD
:100250006E660053454E54494E454C00454158008A
:100260004541590045415A00454758004547590006
:1002700045475A00454D5800454D5900454D5A00D7
:100280004B50004B49004B44004341524D415F42AB
:100290004941530057494E475F464C4150535F42D6
:1002A000494153004D4F544F525F52455455524EA1
:1002B0005F484F4D455F504F57455200524554558A
:1002C000524E5F484F4D455F44495354414E43455C
:1002D00000414C5048415F4341524D415F504944B9
:1002E00000414C5048415F4341524D415F5345529C
:1002F000564F00414C5048415F57494E47535F535A
:100300004552564F00414C5048415F4553430041D0
:100310004C5048415F50554D505F534F46545F53CA
:10032000544152540050554D505F445554595F4309
:1003300059434C450053025C026002640268026C3F
:10034000027002740278027C0280028302860289B3
:10035000029402A402BC02D102E102F30205030FDF
:1003600003250300407A10F35A00A0724E180900CA
:1003700010A5D4E80000E87648170000E40B54020A
:100380000000CA9A3B000000E1F505000080969845
:1003900000000040420F000000A086010000001095
:1003A0002700000000E803000000006400000000D7
:1003B000000A00000000000100000000002C76D8B8
:1003C00088DC674F0823DFC1DFAE59E1B1B796E59E
:1003D000E3E453C63AE651997696E8E6C28426EB02
:1003E000898C9B62ED407C6FFCEFBC9C9F40F2BA15
:1003F000A56FA5F490055A2AF75C936B6CF9676DAD
:10040000C11BFCE0E40D47FEF520E6B500D0ED9001
:100410002E0300943577050080841E080000204ECE
:100420000A000000C80C333333330F986E12831167
:1004300041EF8D2114893BE65516CFFEE6DB18D13E
:10044000844B381BF77C1D901DA4BBE42420328410
:10045000725E228100C9F124ECA1E53D2763646945
:100460006E6F70737578585B000011241FBECFEF5C
:10047000D0E4DEBFCDBF11E0A0E0B1E0E4ECF5E7F1
:1004800000E00BBF02C007900D92AA3FB107D9F759
:1004900018E0AAEFB1E001C01D92A83BB107E1F757
:1004A0000E9491100C94F3310C94000088E4809326
:1004B000FA0189E08093FB011092FC011092FE0189
:1004C0001092FD011092000210920102109202029D
:1004D000109203020895A0E0B0E0BC01CD010E949B
:1004E000643526EA3BE944EC50E40E94463620E0BD
:1004F00030E040E058E30E9446360895A0E0B0E0C6
:10050000BC01CD0120E038E140E050E00E94783AA3
:100510009B01AC018FE056954795379527958A95B5
:10052000D1F7C9010895DF93CF9300D0CDB7DEB7DF
:100530008091FA0161E0AE014F5F5F4F0E94D02DC4
:1005400020E089819A8197FD06C0822F0F900F903D
:10055000CF91DF91089521E0822F0F900F90CF91DE
:10056000DF9108958430D0F42091FD013091FE0197
:10057000A901436851608130F1F0813088F0823008
:1005800029F1833019F4A9014368516750688091BB
:10059000FA0161E00E947C2D81E0089580E00895D9
:1005A000A9014368516450688091FA0161E00E949A
:1005B0007C2D81E00895A9014368516550688091C0
:1005C000FA0161E00E947C2D81E00895A901436851
:1005D000516650688091FA0161E00E947C2D81E0B3
:1005E0000895AF92BF92CF92DF92EF92FF920F9356
:1005F0001F93DF93CF9300D0CDB7DEB7843008F0E0
:1006000066C02091FD013091FE01A901436851604F
:10061000813009F470C0813008F469C0823009F477
:1006200079C0833019F4A9014368516750688091FB
:10063000FA0161E00E947C2D6091FB0170E080E096
:1006400090E00E9464355B016C0120E030E04AE7F5
:1006500055E40E9446367B018C0120E030E040E802
:100660005FE30E94C73488230CF451C0C801B7016E
:1006700020E03FEF4FE757E40E943B3618160CF09E
:100680003EC0C601B50120E030E040E251E40E94E6
:1006900046360E943835CB01672B39F020E931E02E
:1006A000F9013197F1F70197D9F78091FA0160E0EC
:1006B000AE014F5F5F4F0E94D02D29813A8100909B
:1006C000FC0102C0369527950A94E2F702C020E0AB
:1006D00030E0C9010F900F90CF91DF911F910F91E2
:1006E000FF90EF90DF90CF90BF90AF900895A90159
:1006F000436851649BCFA9014368516597CFC801F6
:10070000B7010E943835CB010197F1F7CECF61E0F8
:1007100070E0F9CFA9014368516688CFFF920F932B
:100720001F93DF93CF9300D0CDB7DEB78C01F62EA9
:100730008091FA0161E0AE014F5F5F4F0E94D02DC2
:1007400089819A8197FD27C010E0F3E0FF15D0F072
:100750008091FD019091FE01AC014368516021E060
:10076000F21689F1F21658F1E2E0FE1681F1FF1659
:1007700019F4AC014368516750688091FA0161E057
:100780000E947C2D812F0F900F90CF91DF911F91B0
:100790000F91FF9008958091FA0160E0A8010E94F6
:1007A000D02DF801808191810090FC0102C09695C6
:1007B00087950A94E2F79183808311E0C6CFAC015C
:1007C00043685164D9CFAC0143685165D5CFAC01C2
:1007D00043685166D1CF0F931F93DF93CF9300D01F
:1007E000CDB7DEB78C018091FA0161E0AE014F5FB9
:1007F0005F4F0E94D02D89819A8197FD3EC0209144
:10080000FF01E22FF0E0E050FE4F8081882319F5D0
:1008100010E08AE08083243040F58091FD019091C2
:10082000FE01AC0143685160213009F47EC02130E3
:1008300008F06EC0AC014368516450688091FA01C1
:1008400061E00E947C2D812F0F900F90CF91DF915E
:100850001F910F9108958150808310E0E22FF0E006
:10086000E050FE4F80818823A1F2812F0F900F90DE
:10087000CF91DF911F910F9108954091FF0150E0BA
:10088000440F551F4C5F5D4F8091FA0160E00E945C
:10089000D02D2091FF01E22FF0E0EE0FFF1FEC5F63
:1008A000FD4F808191810090FC0102C09695879553
:1008B0000A94E2F7918380832F5F2093FF01243015
:1008C00060F21092FF011092000280910402909158
:1008D0000502F80191838083109201028091060243
:1008E0009091070293838283109202028091080202
:1008F00090910902958384831092030280910A02E9
:1009000090910B029783868311E02091FF01A6CF7F
:10091000223039F0233009F090CFAC0143685167A1
:100920008CCFAC014368516688CFAC0143685165F8
:1009300084CF81B1806C81B982B18F7382B9209AE2
:100940002898219829983E9A4698E8E6F0E0808118
:1009500082608083ECE6F0E080818260808308958D
:1009600089EF87BD18BC14BC15BC16BC84B5826069
:1009700084BD85B5836085BD86E080936E00089553
:1009800089EF8093B300E0EBF0E01082A1EBB0E0E0
:100990001C921092B20083E08C93808182608083ED
:1009A00082E08093700008951F920F920FB60F920D
:1009B00011248F939F93199B0AC08091D602909126
:1009C000D7028C509E4F9093D7028093D6029F916E
:1009D0008F910F900FBE0F901F9018951F920F923E
:1009E0000FB60F9211242F933F938F939F931999D2
:1009F0001AC08091B2002091D6023091D70290E0C7
:100A0000880F991F820F931F9093D7028093D6026D
:100A10001092D8029F918F913F912F910F900FBE0E
:100A20000F901F9018958091B20090E0909581955D
:100A30009F4F880F991F9093D7028093D602EACFD9
:100A40000898ECE7F0E01082808180648083EAE718
:100A5000F0E010828081876080838081806880835D
:100A600080818860808308951F920F920FB60F9245
:100A700011248F939F9380917800909179009093A7
:100A8000E0028093DF029F918F910F900FBE0F9035
:100A90001F9018951F920F920FB60F9211242F934B
:100AA0008F939F938091E4028111469A8091D9029D
:100AB0008F5F8093D9028091DA028F5F8093DA0290
:100AC0008091DB029091DC0201969093DC0280938E
:100AD000DB028091D902843109F44CC08091DA02A2
:100AE000843609F441C08091DB029091DC020197C9
:100AF00079F18091DB029091DC028436910511F14D
:100B00008091DB029091DC02845F914041F09F91E3
:100B10008F912F910F900FBE0F901F9018951092EC
:100B2000DC021092DB028091E602882381F381507F
:100B30008093E6029F918F912F910F900FBE0F909F
:100B40001F9018958091E502882301F11798D8CF5E
:100B50008091E502882331F48091E602882311F424
:100B60001798C7CF179AC5CF81E08093DE02109205
:100B7000DA02B9CF81E08093DD028093E1028093B5
:100B8000E2028093E3021092D902A8CF8091E6029C
:100B9000882309F4B5CF1798B3CF1F920F920FB6E1
:100BA0000F9211248F938091E402811146988F91C6
:100BB0000F900FBE0F901F9018951092DC021092AC
:100BC000DB0281E08093E60208951092DC0210922D
:100BD000DB028093E6020895EAE7F0E0808180641A
:100BE00080830895AF92BF92CF92DF92EF92FF92EF
:100BF0000F931F938091D8028823B1F560918701EC
:100C0000709188018091890190918A01E090D602CB
:100C1000F090D7022AE939E949E55FE30E944636B8
:100C20005B016C010027F7FC0095102FC801B7018C
:100C30000E9466352AE939E949E15EE30E944636B9
:100C400028E23EE74CE85CE30E9446369B01AC019B
:100C5000C601B5010E940134609387017093880139
:100C60008093890190938A0181E08093D802289A29
:100C700085E38A95F1F728981F910F91FF90EF90E7
:100C8000DF90CF90BF90AF900895EF92FF920F93B7
:100C90001F93DF93CF9300D0CDB7DEB7CE0101967F
:100CA00060E00E948E03882371F160917F02709151
:100CB0008002809181029091820226E636E646E625
:100CC0005FE30E9446367B018C0189819A810E94F4
:100CD0006B022AE939E949EF50E40E9446362DECCF
:100CE0003CEC4CEC5DE30E9446369B01AC01C80134
:100CF000B7010E94013460937F0270938002809359
:100D00008102909382020F900F90CF91DF911F91FB
:100D10000F91FF90EF9008952F923F924F925F9224
:100D20006F927F928F929F92AF92BF92CF92DF92FB
:100D3000EF92FF920F931F9300919B0210919C02E0
:100D400020919D0230919E020093B0021093B10257
:100D50002093B2023093B30244EB242E42E0342EAF
:100D600040918301509184016091850170918601C9
:100D7000C1010E9440196AE070E080E090E00E94AA
:100D8000CD222B013C016BE070E080E090E00E94FE
:100D9000CD224B015C016CE070E080E090E00E94AD
:100DA000CD226B017C01C101B301A2019501840137
:100DB0000E944E196FE070E080E090E00E94E02217
:100DC00070931102609310027093170260931602E1
:100DD0006DE070E080E090E00E94E02270931302EA
:100DE000609312026EE070E080E090E00E94E022EA
:100DF00070931502609314026091100270911102B9
:100E000082E00E94261B1F910F91FF90EF90DF90D0
:100E1000CF90BF90AF909F908F907F906F905F909A
:100E20004F903F902F900895EF92FF920F931F9352
:100E300060E170E080E090E00E94CD222091870187
:100E4000309188014091890150918A010E943B367E
:100E500018160CF44FC06FE070E080E090E00E9444
:100E6000E0229B01AC017093110260931002709319
:100E700017026093160282E0B9010E94261B6DE002
:100E800070E080E090E00E94E0227B018C014091C4
:100E90009B0250919C0260919D0270919E0284EB96
:100EA00092E00E9468199C01220F331F220F331F0A
:100EB000280F391FC901AA2797FDA095BA2F8E0DBB
:100EC0009F1DA01FB11F9701245D3E4F28173907B2
:100ED0004CF430931302209312021F910F91FF9054
:100EE000EF90089597012C523140281739078CF75D
:100EF0009C01EFCF88EE93E0909311028093100253
:100F0000909317028093160282E068EE73E00E94CD
:100F1000261B1F910F91FF90EF9008952F923F9203
:100F20004F925F926F927F928F929F92AF92BF92F9
:100F3000CF92DF92EF92FF920F931F93DF93CF93A5
:100F400000D000D0CDB7DEB780917E02882309F4AF
:100F5000A89585E99DE00E94732080919F02909161
:100F6000A002892B19F18091E7029091E802892B68
:100F700009F497C08091DD02813009F4C8C00F9058
:100F80000F900F900F90CF91DF911F910F91FF90D5
:100F9000EF90DF90CF90BF90AF909F908F907F9019
:100FA0006F905F904F903F902F9008958091DD0259
:100FB000813009F4CCC08091DE02813009F4E7C1B0
:100FC0008091E102813009F476C08091180282306C
:100FD00009F4BCC21092E5028091E202813009F46A
:100FE000DBC18091E302813051F61092E30265E1AA
:100FF00070E080E090E00E94CD223B014C01E8B41B
:10100000A7B466E170E080E090E00E94E0221B015E
:101010002C01FF240027F7FC0095102FC801B70111
:101020000E9466359B01AC01C401B3010E944636A3
:1010300069837A838B839C8360E070E080E89FE320
:10104000A40193010E9400347B018C01BB24CC24B9
:10105000DD24C601B5010E9464359B01AC01C801C5
:10106000B7010E9446367B018C01C201B1010E948A
:1010700066359B01AC01C801B7010E94463620E0ED
:1010800030E048EC52E40E94CB349B01AC01698112
:101090007A818B819C810E9401340E94383568BD21
:1010A0006ECF80E091E00E94A61D8091DD0281302C
:1010B00009F065CF2CC090911802933009F48ACFC3
:1010C0001092E1028091AF02813009F445C2923062
:1010D00009F465C28091AD029091AE0201969093A1
:1010E000AE028093AD028436910509F48DC2885515
:1010F000924009F06ACF89E592E09093AE02809326
:10110000AD0282E0809318020E948C065ECF0E949E
:101110006E140E942C114090E7025090E80208944F
:10112000411C511C5092E8024092E702C20162E366
:1011300070E00E94973A892B09F47AC2FCED4F16B1
:10114000F5E05F0609F4D2C21092DD0218CF0E94CA
:1011500006293B014C010E94F9282091A9023091F7
:10116000AA024091AB025091AC027B018C01E21AC1
:10117000F30A040B150BE092A502F092A60200936D
:10118000A7021093A8026093A9027093AA02809309
:10119000AB029093AC020E94450680917A00806475
:1011A00080937A00E090DF02F090E0026091830289
:1011B00070918402809185029091860226E636E63F
:1011C00046E65FE30E9446365B016C0100E010E0FA
:1011D000C801B7010E9464352CE53FE84AEE50E4AF
:1011E0000E94463620E030E040E85AE30E9446364E
:1011F0009B01AC01C601B5010E94013428E431EE27
:101200004AE650E40E9400346093830270938402A3
:1012100080938502909386020E94B6140E946E14F9
:101220000E94AB13609183017091840180918501CC
:10123000909186010E940012E0901503F090160331
:101240000091170310911803E0929302F092940218
:101250000093950210939602A0901903B0901A0380
:10126000C0901B03D0901C03A0929702B0929802EA
:10127000C0929902D0929A0280911D0390911E0310
:10128000A0911F03B091200380939B0290939C0236
:10129000A0939D02B0939E021092DD024090E7025F
:1012A0005090E80228EC421651040CF47DC12091C4
:1012B0008702309188024091890250918A02C801C8
:1012C000B7010E940034609393027093940280935C
:1012D00095029093960220918B0230918C0240915E
:1012E0008D0250918E02C601B5010E9400346093B8
:1012F0009702709398028093990290939A0288ECD7
:101300004816510409F4BFC1209187023091880228
:101310004091890250918A026091930270919402E7
:1013200080919502909196020E94003460939302FE
:1013300070939402809395029093960220918B0271
:1013400030918C0240918D0250918E0260919702F3
:10135000709198028091990290919A020E940034B3
:1013600060939702709398028093990290939A02E7
:101370000E94062966197709880999096093A102D4
:101380007093A2028093A3029093A40214CE0E94B1
:10139000F2051092DE0214CE1092E20262E170E0D9
:1013A00080E090E00E94CD227B018C0160910C02D4
:1013B00070910D02882777FD8095982F0E946635E1
:1013C0009B01AC01C801B7010E9446365B016C016C
:1013D00060E070E080E89FE3A80197010E9400347C
:1013E0007B018C016091120270911302882777FDB6
:1013F0008095982F0E9466359B01AC01C801B7010A
:101400000E9446369B01AC01C601B5010E94013421
:101410000E9433359B01AC0170930D0260930C0266
:1014200080E0B9010E94261B63E170E080E090E05B
:101430000E94CD227B018C0160910E0270910F02FF
:10144000882777FD8095982F0E9466359B01AC0117
:10145000C801B7010E9446365B016C0160E070E094
:1014600080E89FE3A80197010E9400347B018C0172
:101470006091140270911502882777FD8095982F4E
:101480000E9466359B01AC01C801B7010E94463637
:101490009B01AC01C601B5010E9401340E943335A5
:1014A0009B01AC0170930F0260930E0281E0B901C1
:1014B0000E94261B80911802833009F492CD64E1CA
:1014C00070E080E090E00E94CD227B018C01609171
:1014D000100270911102882777FD8095982F0E9445
:1014E00066359B01AC01C801B7010E9446365B011D
:1014F0006C0160E070E080E89FE3A80197010E9422
:1015000000347B018C0160911602709117028827CC
:1015100077FD8095982F0E9466359B01AC01C8012C
:10152000B7010E9446369B01AC01C601B5010E947D
:1015300001340E9433359B01AC017093110260931A
:10154000100282E0B9010E94261B4BCD0E941407B5
:1015500081E08093E50240CD1092AF021092AE027E
:101560001092AD02923009F035CD8091D4028823DB
:1015700069F78EE794E090931102809310029093A4
:1015800017028093160282E06EE774E00E94261B29
:10159000109218028091AD029091AE02A4CD80917C
:1015A000AD029091AE029FCD2091870230918802CA
:1015B0004091890250918A02C801B7010E9401340A
:1015C00060938702709388028093890290938A02C5
:1015D00020918B0230918C0240918D0250918E02AD
:1015E000C601B5010E94013460938B0270938C0296
:1015F00080938D0290938E02C20101969093E8022F
:101600008093E7022C017BCE88EE93E09093110249
:1016100080931002909317028093160282E068EE86
:1016200073E00E94261B8091AD029091AE025FCDC7
:1016300000D000D000D0EDB7FEB731960AE112E03D
:10164000ADB7BEB712961C930E93119781E291E04D
:1016500093838283C20162E370E00E94973A7583AC
:1016600064830E944E33EDB7FEB736960FB6F894FA
:10167000FEBF0FBEEDBFC8010E94A61D4090E7024D
:101680005090E8025BCD6091870270918802809152
:10169000890290918A0220E030E048E453E40E94FD
:1016A000CB34609387027093880280938902909371
:1016B0008A0260918B0270918C0280918D029091D0
:1016C0008E0220E030E048E453E40E94CB34609383
:1016D0008B0270938C0280938D0290938E0289EC22
:1016E00090E09093E8028093E70242CE8CE291E092
:1016F0000E94A61D0E947B111092A00210929F02D0
:101700001092E8021092E7021FCD0F931F93DF9310
:10171000CF93CDB7DEB7C054D0400FB6F894DEBF3C
:101720000FBECDBF19828E010F5F1F4FC80161E050
:1017300070E00E94EB27C80141E050E060E070E0FB
:101740000E94B827C80142E050E060E070E00E94CB
:10175000B8276091100270911102882777FD80955B
:10176000982F0E94663520E030E04AE754E40E945A
:10177000003420E030E048EC52E40E94463620E09D
:1017800030E04AE754E40E94CB34AB01BC01C8010D
:101790000E94172860910C0270910D02882777FD36
:1017A0008095982F0E94663520E030E04AE754E4A7
:1017B0000E94003420E030E048EC52E40E944636BB
:1017C00020E030E04AE754E40E94CB34AB01BC0196
:1017D000C8010E94172860910E0270910F0288279D
:1017E00077FD8095982F0E94663520E030E04AE72B
:1017F00054E40E94003420E030E048EC52E40E94BF
:10180000463620E030E04AE754E40E94CB34AB0196
:10181000BC01C8010E941728F80101900020E9F7D7
:1018200031978AE090E091838083C8010E94A61DD1
:10183000C05CDF4F0FB6F894DEBF0FBECDBFCF91B7
:10184000DF911F910F9108950F931F93DF93CF9313
:10185000CDB7DEB7C054D0400FB6F894DEBF0FBE90
:10186000CDBF19828E010F5F1F4FC80164E070E089
:101870000E94EB27609193027091940280919502EF
:10188000909196020E943335AB01BC01662757FD4B
:101890006095762FC8010E94B827609197027091D9
:1018A00098028091990290919A020E943335AB017F
:1018B000BC01662757FD6095762FC8010E94B827A6
:1018C00060919B0270919C0280919D0290919E027A
:1018D0000E943335AB01BC01662757FD6095762F1A
:1018E000C8010E94B827C80140E050E060E070E005
:1018F0000E941728C80140E050E060E070E00E94BC
:101900001728C80140E050E060E070E00E9417280E
:10191000C8010E94A61D1982C80140E050E060E0A5
:1019200070E00E94172840918302509184026091D8
:10193000850270918602C8010E941728C80140E004
:1019400050E060E070E00E941728C80140E050E0DD
:1019500060E070E00E941728C80140E050E060E0BD
:1019600070E00E9417284091B0025091B10260913E
:10197000B2027091B302C8010E94172840918701FA
:10198000509188016091890170918A01C8010E947B
:10199000172840917F0250918002609181027091DE
:1019A0008202C8010E941728C80140E050E060E0B0
:1019B00070E00E941728F80101900020E9F73197A4
:1019C0008AE090E091838083C8010E94A61DC05CDC
:1019D000DF4F0FB6F894DEBF0FBECDBFCF91DF91C2
:1019E0001F910F9108950F931F93DF93CF93CDB75E
:1019F000DEB7C054D0400FB6F894DEBF0FBECDBFE7
:101A000019828E010F5F1F4FC80163E070E00E94D2
:101A1000EB274091D50250E060E070E0C8010E94E1
:101A2000B827C80140E050E060E070E00E94B827AD
:101A3000C80140E050E060E070E00E94B827C801B3
:101A400040E050E060E070E00E94B827C80140E04C
:101A500050E060E070E00E94B827C80140E050E02C
:101A600060E070E00E94B827C80140E050E060E00C
:101A700070E00E94B8274091A1025091A2026091AB
:101A8000A3027091A402C8010E94B8274091A50248
:101A90005091A6026091A7027091A802C8010E940D
:101AA000B8274091D40250E060E070E0C8010E9485
:101AB000B827C80140E050E060E070E00E94B8271D
:101AC000C80140E050E060E070E00E94B827C80123
:101AD00040E050E060E070E00E94B8274091E402EE
:101AE00050E060E070E0C8010E94B827C80140E003
:101AF00050E060E070E00E94B827F80101900020FB
:101B0000E9F731978AE090E091838083C8010E94D1
:101B1000A61DC05CDF4F0FB6F894DEBF0FBECDBF71
:101B2000CF91DF911F910F910895BF92CF92DF92D5
:101B3000EF92FF920F931F93CF93DF93EC016B0112
:101B4000BB24B394B092AF024F5F5F4F81F16EE060
:101B500070E080E090E00E94E0227B018C016DE06B
:101B600070E080E090E00E94E022CA36D10509F4DE
:101B7000A4C0CB36D1052CF1C438D10509F432C14B
:101B8000C538D1050CF057C0CF36D10509F4B5C022
:101B9000C338D10509F4FFC0CB36D10541F40E940A
:101BA0004C231092DC021092DB02B092E602DF912D
:101BB000CF911F910F91FF90EF90DF90CF90BF904A
:101BC0000895C630D10509F4EFC0C730D1050CF037
:101BD00041C0C430D10509F499C0C530D1050CF01D
:101BE000BFC0229721F7F6012085318542855385B4
:101BF000DA01C901880F991FAA1FBB1F880F991FFF
:101C0000AA1FBB1F820F931FA41FB51F9B01280F84
:101C1000391FCB01845D9E4F821793073CF0CB01A7
:101C20008C529140821793070CF4C90190931302D0
:101C300080931202BCCFCA3CD10509F447C0CB3C0B
:101C4000D1050CF0D9C0C93CD10509F0B0CF0E9434
:101C5000F30CADCFC636D105E1F1C736D1050CF096
:101C6000D8C0279709F0A3CFB701F60124813581A9
:101C700046815781DA01C901880F991FAA1FBB1F2E
:101C8000880F991FAA1FBB1F820F931FA41FB51F88
:101C90009B01280F391FCB01845D9E4F821793074C
:101CA0003CF0CB018C529140821793070CF4C90190
:101CB00090931502809314027ACF0E94912410927F
:101CC000DC021092DB02B092E60271CF0E94240C7B
:101CD0006ECF85E491E00E94A61D82E080931802F9
:101CE000B092D4020E948C061092DC021092DB02A9
:101CF000B092E6021092AF025ACFB0927E021092DA
:101D0000DC021092DB02B092E60251CF1092180270
:101D10008EE794E090931102809310029093170243
:101D20008093160282E06EE774E00E94261BB09258
:101D3000D50280919B0290919C02A0919D02B0914E
:101D40009E028093B0029093B102A093B202B0932E
:101D5000B3021092DC021092DB02B092E60227CFAF
:101D600083E08093180288EE93E0909311028093B1
:101D70001002909317028093160282E068EE73E0DF
:101D80000E94261B1092D5021092DC021092DB02F8
:101D9000B092E6020CCFB092E4021092DC021092F4
:101DA000DB02B092E60203CFF60184819581A68121
:101DB000B781B7FD5CC0880F991FAA1FBB1F880F92
:101DC000991FAA1FBB1F880F991FAA1FBB1F8258EC
:101DD0009B4F9093170280931602F60180858093A3
:101DE0001902E5CE46981092E4021092DC0210929D
:101DF000DB02B092E602DBCECB3CD10539F0CE3C23
:101E0000D10509F0D4CE0E94BC24D1CE0E94850B0E
:101E1000CECEC736D105B1F0C936D10509F0C7CE4F
:101E2000F60164817581868197812085318542859F
:101E300053850E9441241092DC021092DB02B09282
:101E4000E602B5CE89E591E00E94A61D1092180227
:101E50001092D4028EE794E09093170280931602BA
:101E60001092DC021092DB02B092E602A0CE80E07B
:101E700090E0A0E0B0E09FCFEF92FF920F931F930E
:101E80000E94A61A569A579A3C9A8BE290E066E016
:101E90000E94F61A8BE290E067E00E94F61A88E250
:101EA00090E064E00E94F61A0E94D71A6DE070E09C
:101EB00080E090E00E94E022162F072F6EE070E095
:101EC00080E090E00E94E022F62EE72E80E0612F75
:101ED000702F0E94261B81E06F2D7E2D0E94261BF5
:101EE00082E068EE73E00E94261B109312020093BA
:101EF000130210930C0200930D02F0921402E09270
:101F00001502F0920E02E0920F0288EE93E0909399
:101F100017028093160290931102809310021F9172
:101F20000F91FF90EF900895CF92DF92EF92FF9282
:101F30000F931F93F89485B7806885BF85B7806835
:101F400085BF14BE28E288E190E00FB6F894A8950A
:101F5000809360000FBE2093600081B1806C81B9D6
:101F600082B18F7382B9209A2898219829983E9A35
:101F700046988091680082608093680080916C0030
:101F8000826080936C0060E072EC81E090E00E94DF
:101F90008F1E80E791E00E94A61D789461E040E9E1
:101FA00051E0169A20E030E0CA010197F1F72F5F67
:101FB0003F4F83E128383807B9F7169820E030E022
:101FC000CA010197F1F72F5F3F4F83E128383807A7
:101FD000B9F7615030F7169A0E94002A0E94A4189F
:101FE0000E945E2599EF97BD18BC14BC15BC16BCA9
:101FF00084B5826084BD85B5836085BD86E08093AD
:102000006E009093B3001092B0001092B100109245
:10201000B20093E0D92ED092B1008091B0008260DE
:102020008093B00082E0C82EC09270000E945602D9
:10203000089810927C0080917C00806480937C00E2
:1020400010927A0080917A00876080937A00809164
:102050007A00806880937A0080917A00886080930B
:102060007A000E94A61A569A579A3C9A8BE290E000
:1020700066E00E94F61A8BE290E067E00E94F61A92
:1020800088E290E064E00E94F61A0E94D71A6DE0A0
:1020900070E080E090E00E94E022162F072F6EE0B3
:1020A00070E080E090E00E94E022F62EE72E80E0D3
:1020B000612F702F0E94261B81E06F2D7E2D0E94C4
:1020C000261B82E068EE73E00E94261B109312022A
:1020D0000093130210930C0200930D02F09214026D
:1020E000E0921502F0920E02E0920F0288EE93E069
:1020F000909317028093160290931102809310021E
:102100000E94BB28D09218021092DC021092DB02CF
:10211000C092E6021F910F91FF90EF90DF90CF9059
:1021200008950E94940F0E948E07FDCFEF92FF92B8
:102130000F931F93FC018091E9029091EA02A09114
:10214000EB02B091EC0280839183A283B3838091F0
:10215000ED029091EE02A091EF02B091F002FB012E
:1021600080839183A283B3838091F1029091F202E4
:10217000A091F302B091F402FA0180839183A283CB
:10218000B3838091F5029091F602A091F702B0918D
:10219000F802F90180839183A283B3838091F902CD
:1021A0009091FA02A091FB02B091FC02F8018083A9
:1021B0009183A283B3838091FD029091FE02A0914E
:1021C000FF02B0910003F70180839183A283B38360
:1021D00081E01F910F91FF90EF900895CF92DF92D1
:1021E000EF92FF920F931F938C017B016A01609124
:1021F000510370915203882777FD8095982F0E9494
:102200006635F80160837183828393836091530301
:1022100070915403882777FD8095982F0E9466352A
:10222000F70160837183828393836091550370917A
:102230005603882777FD8095982F0E946635F60112
:10224000608371838283938380E01F910F91FF905D
:10225000EF90DF90CF900895209151033091520379
:102260008091BE019091BF018217930724F43093AF
:10227000BF012093BE018091C0019091C101281738
:10228000390724F43093C1012093C00120915303F6
:10229000309154038091C2019091C301821793073A
:1022A00024F43093C3012093C2018091C401909122
:1022B000C5012817390724F43093C5012093C401C0
:1022C00020915503309156038091C6019091C7012A
:1022D0008217930724F43093C7012093C60180919D
:1022E000C8019091C9012817390724F43093C90116
:1022F0002093C80108950F931F93DF93CF93CDB719
:10230000DEB7E2970FB6F894DEBF0FBECDBF2091C7
:10231000C0013091C1018091BE019091BF01280F91
:10232000391F37FD64C0C90195958795BC0180931D
:10233000B0019093B1012091C4013091C501809109
:10234000C2019091C301280F391F37FD56C0C90142
:1023500095958795AC018093B2019093B30120913C
:10236000C8013091C9018091C6019091C701280F21
:10237000391F37FD3FC0359527952093B401309321
:10238000B5018DB79EB70A970FB6F8949EBF0FBEE2
:102390008DBFEDB7FEB731968E010F5F1F4FADB702
:1023A000BEB712961C930E9311978BE891E093831E
:1023B00082836483758346835783208731870E9495
:1023C0004E338DB79EB70A960FB6F8949EBF0FBED8
:1023D0008DBFC8010E94A61DE2960FB6F894DEBF1D
:1023E0000FBECDBFCF91DF911F910F9108952F5F49
:1023F0003F4F99CF2F5F3F4FBECF2F5F3F4FA7CFAC
:102400002F923F924F925F926F927F928F929F9204
:10241000AF92BF92CF92DF92EF92FF920F931F93F2
:10242000DF93CF93CDB7DEB764970FB6F894DEBFD6
:102430000FBECDBF6D877E878F87988B8091ED0211
:102440009091EE02A091EF02B091F00289879A87F5
:10245000AB87BC872091E9023091EA024091EB0200
:102460005091EC02CA01B9010E9446367B018C01F1
:1024700069857A858B859C859B01AC010E944636D7
:10248000A80197010E9401340E94AD366D837E83BE
:102490008F8398872FE632E143E85AE30E94C734DE
:1024A000882344F48FE692E1A3E8BAE38D839E8308
:1024B000AF83B887A090F102B090F202C090F3020F
:1024C000D090F402C601B501A60195010E944636DE
:1024D0009B01AC01C801B7010E9401340E94AD36D6
:1024E00069837A838B839C832FE632E143E85AE346
:1024F0000E94C734882344F48FE692E1A3E8BAE34C
:1025000089839A83AB83BC8360916703709168036E
:10251000882777FD8095982F0E9466357B018C0176
:102520006091630370916403882777FD8095982FED
:102530000E9466359B01AC01C801B7010E9474344A
:102540007B018C0120E030E040E050E00E94C73485
:1025500088230CF4F5C0C801B7012BED3FE049EC2E
:1025600050E40E943B36181654F4C801B7012BED15
:102570003FE049EC50E40E9400347B018C01C8012B
:10258000B70121EE3EE245E652E40E9446366093F2
:102590001D0370931E0380931F03909320032090CC
:1025A000BA013090BB014090BC015090BD016090D9
:1025B000B6017090B7018090B8019090B901C60142
:1025C000B5012D813E814F8158850E9474347B0175
:1025D0008C0160E070E080E89FE3A40193010E9419
:1025E0000034698B7A8B8B8B9C8B60915B03709131
:1025F0005C0380915D0390915E039058A20191016C
:102600000E9446362D853E854F8558890E94463664
:102610002091190330911A0340911B0350911C0320
:102620000E940134A40193010E9446365B016C01B3
:1026300017FB109517F91095C801B70121EE3EE27E
:1026400045E652E40E94463629893A894B895C89DD
:102650000E9446369B01AC01C601B5010E940134BF
:102660006093190370931A0380931B0390931C03C8
:1026700069857A858B859C8529813A814B815C812E
:102680000E9474345B016C0120915F033091600300
:1026900040916103509162035058C201B1010E9400
:1026A00046362D853E854F8558890E9446362091B5
:1026B00015033091160340911703509118030E949F
:1026C00001349B01AC01C401B3010E9446367B0179
:1026D0008C01C601B50121EE3EE245E652E40E94BE
:1026E00046369B01AC0169897A898B899C890E9455
:1026F00046369B01AC01C801B7010E9401346093CA
:102700001503709316038093170390931803649630
:102710000FB6F894DEBF0FBECDBFCF91DF911F91F2
:102720000F91FF90EF90DF90CF90BF90AF909F9070
:102730008F907F906F905F904F903F902F90089573
:10274000C801B7012BED3FE049EC50E40E94013491
:102750007B018C0100CFEF92FF920F931F93E090CB
:10276000F502F090F6020091F7021091F80264E091
:1027700070E080E090E00E94CD229B01AC01C80196
:10278000B7010E94003460935703709358038093FD
:10279000590390935A03E090F902F090FA020091E5
:1027A000FB021091FC0265E070E080E090E00E9486
:1027B000CD229B01AC01C801B7010E940034609397
:1027C0005B0370935C0380935D0390935E03E090E2
:1027D000FD02F090FE020091FF021091000366E0FE
:1027E00070E080E090E00E94CD229B01AC01C80126
:1027F000B7010E94003460935F037093600380937D
:10280000610390936203009151031091520367E0BA
:1028100070E080E090E00E94E022061B170B10930E
:10282000640300936303009153031091540368E021
:1028300070E080E090E00E94E022061B170B1093EE
:10284000660300936503009155031091560369E0F8
:1028500070E080E090E00E94E022061B170B1093CE
:102860006803009367031F910F91FF90EF90089505
:10287000DF93CF930F92CDB7DEB7198288E669E177
:10288000AE014F5F5F4F0E94F82D89810F90CF916D
:10289000DF910895EF92FF920F931F93982F8B0172
:1028A000F42EE22E88E6692FA8010E94F82D21E07F
:1028B00030E002C0220F331FFA94E2F72150F801F2
:1028C000808190E002C095958795EA94E2F72823ED
:1028D00020831F910F91FF90EF900895DF93CF9386
:1028E000CDB7DEB728970FB6F894DEBF0FBECDBFC9
:1028F00019828CE062E0AE014F5F5F4F0E94F82DBD
:10290000898180FD09C028960FB6F894DEBF0FBEFE
:10291000CDBFCF91DF9108958CE063E047E09E0149
:102920002E5F3F4F0E94152E888583FDECCF9B8143
:1029300080E02A8130E0822B932B90935203809386
:1029400051039D8180E02C8130E0822B932B90936A
:102950005403809353039F8180E02E8130E0822BCB
:10296000932B9093560380935503CDCF2F923F9294
:102970004F925F926F927F928F929F92AF92BF928F
:10298000CF92DF92EF92FF920F931F93DF93CF933B
:10299000CDB7DEB72E970FB6F894DEBF0FBECDBF12
:1029A00088E66BE34EE09E012F5F3F4F0E94152E9D
:1029B000998180E02A81C22EDD24C82AD92AD092AA
:1029C0000203C09201039B8180E02C81A22EBB24D4
:1029D000A82AB92AB0920403A09203039D8180E043
:1029E0002E81822E9924882A992A90920603809219
:1029F00005033F8120E0688570E0622B732B7093A4
:102A0000080360930703398520E04A85642E772404
:102A1000622A732A70920A03609209033B8520E0C0
:102A20004C85442E5524422A532A50920C0340923E
:102A30000B033D8520E04E85242E3324222A332AA1
:102A400030920E0320920D03882777FD8095982FF2
:102A50000E94663520E030E04AEA53E40E94CB341D
:102A600028EB3EE142E152E40E94013460930F03FF
:102A700070931003809311039093120380911303BA
:102A8000833009F4C2C0823009F4A7C0813009F054
:102A9000D4C00F2EF0E0EF2EF0E0FF2EF0E00F2F6D
:102AA000F6E41F2FF02DB601882777FD8095982F2B
:102AB0000E946635A80197010E94CB346093E90219
:102AC0007093EA028093EB029093EC02B5018827A1
:102AD00077FD8095982F0E946635A80197010E9486
:102AE000CB346093ED027093EE028093EF029093EB
:102AF000F002B401882777FD8095982F0E946635F3
:102B0000A80197010E94CB346093F1027093F20206
:102B10008093F3029093F40280911403882309F0C8
:102B200067C00F2EF0E0EF2EF0E0FF2EF3E00F2F46
:102B3000F3E41F2FF02DB301882777FD8095982FA0
:102B40000E946635A80197010E94CB346093F5027C
:102B50007093F6028093F7029093F802B2018827EF
:102B600077FD8095982F0E946635A80197010E94F5
:102B7000CB346093F9027093FA028093FB02909336
:102B8000FC02B101882777FD8095982F0E94663559
:102B9000A80197010E94CB346093FD027093FE025E
:102BA0008093FF02909300032E960FB6F894DEBF39
:102BB0000FBECDBFCF91DF911F910F91FF90EF908E
:102BC000DF90CF90BF90AF909F908F907F906F904D
:102BD0005F904F903F902F9008950F2EF0E0EF2ED2
:102BE000F0E0FF2EF0E80F2FF5E41F2FF02D5BCF64
:102BF0008130B1F40F2EF0E0EF2EF0E0FF2EF3E87D
:102C00000F2FF2E41F2FF02D96CF0F2EF0E0EF2EB6
:102C1000F0E0FF2EF0E00F2FF5E41F2FF02D43CF53
:102C20008230C1F40F2EF3E3EF2EF3E3FF2EF3E037
:102C30000F2FF2E41F2FF02D7ECF8823C1F40F2E2B
:102C4000F0E0EF2EF0E0FF2EF0E80F2FF6E41F2F5C
:102C5000F02D29CF8330B1F40F2EF3E3EF2EF3E301
:102C6000FF2EF3E80F2FF1E41F2FF02D64CF0F2E6E
:102C7000F0E0EF2EF0E0FF2EF0E80F2FFFE31F2F24
:102C8000F02D11CF0F2EF0E0EF2EF0E0FF2EF0E848
:102C90000F2FFFE31F2FF02D4ECF0F931F93CF93D6
:102CA000DF9300E010E0C0E9D1E00E94B61420E01C
:102CB00030E0CE010197F1F72F5F3F4F83E12838D5
:102CC0003807B9F70F5F1F4F083C110571F7DF9107
:102CD000CF911F910F91089588E66BE641E00E9425
:102CE000932D089588E66BE640E00E94932D0895A9
:102CF000EF92FF920F931F93DF93CF9300D00F9229
:102D0000CDB7DEB77C018CE06AE040E00E94932DF5
:102D100000E41CE9C8010197F1F78CE06AE04FE09C
:102D20000E94932DC8010197F1F78CE060E143E028
:102D30009E012F5F3F4F0E94152E698170E0605801
:102D40007040882777FD8095982F0E94663520E097
:102D500030E040E85BE30E94463620E030E040E8A7
:102D60005FE30E940134F701608371838283938360
:102D70006A8170E060587040882777FD8095982FB1
:102D80000E94663520E030E040E85BE30E94463672
:102D900020E030E040E85FE30E940134F701648303
:102DA0007583868397836B8170E0605870408827B5
:102DB00077FD8095982F0E94663520E030E040E84E
:102DC0005BE30E94463620E030E040E85FE30E948B
:102DD0000134F70160877187828793878CE06AE00E
:102DE00040E00E94932DC8010197F1F740919601B0
:102DF0004295407F80919701482B8CE06AE00E94C9
:102E0000932DC8010197F1F70F900F900F90CF917C
:102E1000DF911F910F91FF90EF900895482F88E662
:102E200069E10E94932D0895DF93CF930F92CDB760
:102E3000DEB7198288E66BE1AE014F5F5F4F0E94FB
:102E4000F82D898190E0959587959595879595952D
:102E5000879583700F90CF91DF910895DF93CF9383
:102E60000F92CDB7DEB7198288E66AE1AE014F5FF7
:102E70005F4F0E94F82D898187700F90CF91DF916D
:102E80000895EF92FF920F931F93DF93CF930F92CA
:102E9000CDB7DEB7F82EE62E042F122F198288E662
:102EA0006F2DAE014F5F5F4F0E94F82D21E030E0A3
:102EB00002C0220F331F0A95E2F72150622F70E003
:102EC000012E02C0660F771F0A94E2F7898190E015
:102ED000012E02C0959587950A94E2F7422F482368
:102EE000609546232E21822F90E002C0880F991F03
:102EF0001A95E2F7482B498388E66F2D0E94932D9F
:102F00000F90CF91DF911F910F91FF90EF90089557
:102F1000DF93CF930F92CDB7DEB7198288E66BE1CE
:102F2000AE014F5F5F4F0E94F82D898190E095952B
:102F30008795959587959595879583700F90CF91F7
:102F4000DF9108951F93DF93CF930F92CDB7DEB734
:102F5000182F198288E66AE1AE014F5F5F4F0E9429
:102F6000F82D1770198388E66AE1412F0E94932D8E
:102F70000F90CF91DF911F9108951F93DF93CF930F
:102F80000F92CDB7DEB7182F198288E66CE1AE013B
:102F90004F5F5F4F0E94F82D1370110F110F110F2B
:102FA000898190E0959587959595879595958795D5
:102FB0008370182B198388E66CE1412F0E94932DB2
:102FC0000F90CF91DF911F9108951F93DF93CF93BF
:102FD0000F92CDB7DEB7182F198288E66BE1AE01EC
:102FE0004F5F5F4F0E94F82D1370110F110F110FDB
:102FF000898190E095958795959587959595879585
:103000008370182B198388E66BE1412F0E94932D62
:103010000F90CF91DF911F9108950F931F93DF932E
:10302000CF930F92CDB7DEB788E669E140E00E940A
:10303000932D198288E66AE18E010F5F1F4FA80168
:103040000E94F82D198288E66AE140E00E94932DE3
:10305000198288E66BE1A8010E94F82D498150E0B1
:1030600055954795559547955595479543704860B3
:10307000498388E66BE10E94932D198288E66CE112
:10308000A8010E94F82D498150E055954795559526
:103090004795559547954370498388E66CE10E94B2
:1030A000932D198288E669E1A8010E94F82D198202
:1030B00088E66AE1A8010E94F82D198288E66BE192
:1030C000A8010E94F82D898190E0959587959595A6
:1030D000879595958795837080931403198288E668
:1030E0006BE1A8010E94F82D898190E09595879564
:1030F000959587959595879583708983809313031C
:1031000088E66BE640E00E94932D88E66BE140E1A3
:103110000E94932D88E66CE140E10E94932D88E6A1
:1031200067E342E20E94932D88E668E341E00E9453
:10313000932D88E66BE641E00E94932D0F90CF918E
:10314000DF911F910F9108958F929F92AF92BF923E
:10315000CF92DF92EF92FF920F931F93DF93CF9363
:1031600000D000D0CDB7DEB7198288E665E77E01D2
:103170000894E11CF11CA7010E94F82D8981813778
:1031800091F080E00F900F900F900F90CF91DF9112
:103190001F910F91FF90EF90DF90CF90BF90AF9075
:1031A0009F908F9008950E940D1882E0C82ED12C18
:1031B000CC0EDD1E03E0A02EB12CAC0EBD1E14E023
:1031C000812E912C8C0E9D1E00E911E088E667E3AC
:1031D00042E20E94932D88E668E341E00E94932D2D
:1031E00088E667E3A6010E94F82D88E664E2A5015F
:1031F0000E94F82D88E668E3A4010E94F82D198248
:1032000088E660E0A7010E94F82D8A81823279F178
:1032100040E020E030E0C8010197F1F72F5F3F4F19
:103220008FE120343807B9F7442381F28CE060E065
:10323000A7010E94F82D8981883409F0A2CF20E0EF
:1032400030E040E951E0CA010197F1F72F5F3F4FAD
:1032500083E0283E3807B9F781E293E00E947816B0
:1032600088E665E7A7010E94F82D81E08BCF8B816E
:10327000882371F640E08C81813059F641E0C9CF56
:103280000F931F93FC01448F558F668F778F008FAC
:10329000118F228F338F1F910F910895CF92DF925C
:1032A000EF92FF920F931F93FC0144875587668727
:1032B0007787008B118B228B338BC48AD58AE68A61
:1032C000F78A1F910F91FF90EF90DF90CF900895B4
:1032D0006F927F928F929F92AF92BF92CF92DF9226
:1032E000EF92FF920F931F93CF93DF93EC019A011C
:1032F000AB01688D798D8A8D9B8D0E9400343B01D6
:103300004C0120E030E040E050E00E943B36882352
:103310000CF4F8C060E070E084EB93E4A401930146
:103320000E9400347B018C0164015301C601B50188
:10333000A80197010E943B3618160CF0D2C0E88213
:10334000F9820A831B830F2EF0E06F2EF0E07F2EB0
:10335000F0E88F2EFFEB9F2EF02DA80197016C8DCA
:103360007D8D8E8D9F8D0E944636A40193010E9413
:1033700046362C813D814E815F810E9401347B0164
:103380008C016C837D838E839F8320E030E044E357
:1033900053E40E943B36181654F0C801B70120E0F0
:1033A00030E044E353EC0E94C734882344F480E0C7
:1033B00090E0A4E3B3E48C839D83AE83BF8361E19B
:1033C00070E080E090E00E94CD227B018C01288596
:1033D00039854A855B850E9446365B016C0160E059
:1033E00070E080E89FE3A80197010E9400342881E3
:1033F00039814A815B810E9446362C8D3D8D4E8DF0
:103400005F8D0E94CB349B01AC01C601B5010E94C7
:1034100001345B016C01688779878A879B876C859B
:103420007D858E859F85288139814A815B810E94B7
:1034300046367B018C01688979898A899B892C8130
:103440003D814E815F810E9446369B01AC01C801DF
:10345000B7010E9401347B018C01C601B5012C89A2
:103460003D894E895F890E9446369B01AC01C801A7
:10347000B7010E9401347B018C0120E030E048EC70
:1034800052E40E943B36181654F0C801B70120E000
:1034900030E048EC52EC0E94C734882354F40F2EDD
:1034A000F0E0EF2EF0E0FF2EF8EC0F2FF2E41F2FEC
:1034B000F02DC801B701A40193010E9446360E9475
:1034C0003335CB01DF91CF911F910F91FF90EF909A
:1034D000DF90CF90BF90AF909F908F907F906F9034
:1034E0000895A882B982CA82DB820F2EF0E06F2E87
:1034F000F0E07F2EF0E88F2EFFE39F2EF02DA60147
:1035000095012DCFC401B30120E030E044EB53E43A
:103510000E9401345B016C018401730107CFCF93DA
:10352000DF93FC01848D958DA68DB78D20E2EF0190
:1035300019922A95E9F7408F518F628F738F848F8C
:10354000958FA68FB78FDF91CF91089580ED97E08B
:1035500090938E0380938D039093900380938F03B9
:103560009093920380939103909394038093930399
:103570009093960380939503909398038093970379
:1035800090939A038093990390939C0380939B0359
:1035900090939E0380939D039093A00380939F0339
:1035A0001092A1031092A2031092A3030895109207
:1035B00085001092840080E49CE9909389008093B8
:1035C000880088EE93E090938B0080938A0010929D
:1035D0008000E1E8F0E01082808188608083808153
:1035E0008260808386E080936F0008959C018091C3
:1035F000A1038930F8F4E091A103F0E0EE0FFF1F82
:10360000E159FC4F31832083E091A103F0E0ED57B5
:10361000FC4F6083E091A103F0E0EE0FFF1FE35742
:10362000FC4F118210828091A1038F5F8093A103D0
:1036300081E0089580E008959C01220F331FC901A5
:1036400008959C0136952795C9010895E82F80912A
:10365000A103E81748F4F0E0EE0FFF1FE357FC4F1B
:10366000660F771F718360830895A82F8091A1034F
:10367000A817C0F46623B9F0B0E0FD01EE0FFF1FFC
:10368000E159FC4F0190F081E02DAD57BC4F81E036
:1036900090E00C9002C0880F991F0A94E2F72081F5
:1036A000282B20830895B0E0FD01EE0FFF1FE159A4
:1036B000FC4F0190F081E02DAD57BC4F81E090E0D0
:1036C0000C9002C0880F991F0A94E2F78095208120
:1036D0002823208308958091A103882309F4089565
:1036E0008091A103882381F0E0916F03F091700332
:1036F00081E090E00090830302C0880F991F0A9434
:10370000E2F72081282B208380918D0390918E03F6
:1037100090938B0080938A0081E08093A203809332
:10372000A30308951F920F920FB60F920BB60F923C
:1037300011242F938F939F93EF93FF938091A10375
:10374000882361F4FF91EF919F918F912F910F90BA
:103750000BBE0F900FBE0F901F9018958091A10384
:10376000882381F0E0916F03F091700381E090E095
:103770000090830302C0880F991F0A94E2F720810A
:10378000282B208380918D0390918E0390938B0042
:1037900080938A0081E08093A2038093A303D2CF19
:1037A0001F920F920FB60F920BB60F9211242F9308
:1037B0003F934F935F936F937F938F939F93AF93B9
:1037C000BF93EF93FF938091A3038823A1F180918E
:1037D000A203882309F04BC09091A2038091A1031A
:1037E0009817E0F5E091A203F0E0EE0FFF1FE3571A
:1037F000FC4F80819181892B09F059C0E091A2038F
:10380000F0E0EE0FFF1FE357FC4F0190F081E02D39
:10381000309711F4E8EEF3E08091840090918500F8
:10382000E80FF91FF0938B00E0938A008091A203C8
:103830008F5F8093A203FF91EF91BF91AF919F9112
:103840008F917F916F915F914F913F912F910F9049
:103850000BBE0F900FBE0F901F9018958091A10383
:10386000882359F51092A2031092A303E4CFA091EC
:10387000A203A1508091A103A81708F0ADCFB0E03A
:10388000FD01EE0FFF1FE159FC4F0190F081E02D8B
:10389000AD57BC4F81E090E00C9002C0880F991F9B
:1038A0000A94E2F7809520812823208395CF809188
:1038B000A20361E00E94351BA1CF8091A10381503A
:1038C00060E00E94351BCECFAF92BF92CF92DF92C5
:1038D000EF92FF920F931F937B018C01EE0CFF1C64
:1038E000001F111FEE0CFF1C001F111FEE0CFF1C10
:1038F000001F111FEE0CFF1C001F111F60E078E677
:1039000089E899E09701A8010E94AA3A59016A0141
:103910000894A108B108C108D10860E074E284EFFE
:1039200090E09701A8010E94AA3AF901B9016150FB
:103930007040CB01880F991F9B01220F331F220F6C
:10394000331F220F331F820F931FA0E0B0E08A15B0
:103950009B05AC05BD0579F186017501E81AF90AE8
:103960000A0B1B0BCF01880F991F9F01220F331FDA
:10397000220F331F220F331F820F931FA0E0B0E0EE
:103980008A159B05AC05BD05D1F0A6019501281B44
:10399000390B4A0B5B0B2E153F054007510708F406
:1039A000BF01CB011F910F91FF90EF90DF90CF905F
:1039B000BF90AF900895EE24FF248701D3CF20E07D
:1039C00030E040E050E0E7CF982F8091C00085FFC5
:1039D000FCCF9093C6000895E0912704F0E0EC51ED
:1039E000FC4F808380912704803418F010922704C4
:1039F0000895809127048F5F809327040895982F5E
:103A00008091C80085FFFCCF9093CE000895E0918F
:103A1000AB04F0E0E859FB4F80838091AB04803425
:103A200018F01092AB0408958091AB048F5F8093DF
:103A3000AB040895DB012C91FC01E20FF11D4083E2
:103A40008C91803410F01C9208958C918F5F8C9330
:103A50000895CF93DF93DC01EB01FA019881808117
:103A6000981799F08881A80FB11D9C9188818034A6
:103A700028F01882892FDF91CF91089588818F5F78
:103A80008883892FDF91CF91089590E0892FDF916E
:103A9000CF9108958091C00087FFFCCF8091C60030
:103AA00008958091C80087FFFCCF8091CE000895D3
:103AB000909124048091250420E0981321E0822F26
:103AC00008959091A8048091A90420E0981321E022
:103AD000822F089590912404809125049817A9F0CD
:103AE000E0912404F0E0EC55FC4FE0818091240447
:103AF000803420F0109224048E2F089580912404A5
:103B00008F5F809324048E2F0895E0E08E2F089518
:103B10009091A8048091A9049817A9F0E091A804B5
:103B2000F0E0E85DFB4FE0818091A804803420F054
:103B30001092A8048E2F08958091A8048F5F80931F
:103B4000A8048E2F0895E0E08E2F0895FC01908147
:103B5000992351F031968091C00085FFFCCF90935E
:103B6000C60090819923B1F70895FC0190819923B3
:103B700051F031968091C80085FFFCCF9093CE0024
:103B800090819923B1F708951F920F920FB60F926B
:103B90000BB60F9211248F93EF93FF938091C60081
:103BA000E0912504F0E0EC55FC4F808380912504E2
:103BB000803460F010922504FF91EF918F910F9067
:103BC0000BBE0F900FBE0F901F901895809125048B
:103BD0008F5F80932504F0CF1F920F920FB60F9244
:103BE0000BB60F9211248F93EF93FF938091CE0029
:103BF000E091A904F0E0E85DFB4F80838091A90487
:103C0000803460F01092A904FF91EF918F910F9092
:103C10000BBE0F900FBE0F901F9018958091A904B6
:103C20008F5F8093A904F0CF1F920F920FB60F926F
:103C30000BB60F9211248F939F93EF93FF93909164
:103C4000260480912704981711F1E0912604F0E0F2
:103C5000EC51FC4FE08180912604803488F0109272
:103C60002604EE23A1F0E093C600FF91EF919F910F
:103C70008F910F900BBE0F900FBE0F901F90189555
:103C8000809126048F5F80932604EE2361F7809154
:103C9000C1008F7D8093C100E8CFDC018C91882327
:103CA00081F0E091AB04F0E0E859FB4F8083809114
:103CB000AB04803460F01092AB0411968C91882391
:103CC00081F78091C90080628093C9000895809136
:103CD000AB048F5F8093AB041196F0CFDC018C9125
:103CE000882381F0E0912704F0E0EC51FC4F8083C1
:103CF00080912704803460F01092270411968C91F3
:103D0000882381F78091C10080628093C10008956B
:103D1000809127048F5F809327041196F0CFAF9294
:103D2000BF92CF92DF92EF92FF920F931F937B018E
:103D30008C01EE0CFF1C001F111FEE0CFF1C001F5E
:103D4000111FEE0CFF1C001F111FEE0CFF1C001FAB
:103D5000111F60E078E689E899E09701A8010E94C8
:103D6000AA3A59016A010894A108B108C108D1080A
:103D700060E074E284EF90E09701A8010E94AA3A03
:103D8000F901B90161507040CB01880F991F9B0167
:103D9000220F331F220F331F220F331F820F931F57
:103DA000A0E0B0E0A816B906CA06DB06E9F1860174
:103DB0007501E81AF90A0A0B1B0BCF01880F991F2E
:103DC0009F01220F331F220F331F220F331F820F39
:103DD000931FA0E0B0E0A816B906CA06DB0641F1C1
:103DE000A6019501281B390B4A0B5B0B2E153F05CD
:103DF0004007510708F4BF0188E18093C1008EE0BD
:103E00008093C2007093C5006093C4008091C1008C
:103E100080688093C1001F910F91FF90EF90DF9019
:103E2000CF90BF90AF900895EE24FF248701C5CFB7
:103E300020E030E040E050E0D9CFAF92BF92CF9287
:103E4000DF92EF92FF920F931F937B018C01EE0C98
:103E5000FF1C001F111FEE0CFF1C001F111FEE0C9A
:103E6000FF1C001F111FEE0CFF1C001F111F60E044
:103E700078E689E899E09701A8010E94AA3A5901D9
:103E80006A010894A108B108C108D10860E074E291
:103E900084EF90E09701A8010E94AA3AF901B901C4
:103EA00061507040CB01880F991F9B01220F331F77
:103EB000220F331F220F331F820F931FA0E0B0E0A9
:103EC000A816B906CA06DB06E9F186017501E81AEB
:103ED000F90A0A0B1B0BCF01880F991F9F01220FB4
:103EE000331F220F331F220F331F820F931FA0E0B7
:103EF000B0E0A816B906CA06DB0641F1A601950195
:103F0000281B390B4A0B5B0B2E153F054007510749
:103F100008F4BF0188E18093C9008EE08093CA0055
:103F20007093CD006093CC008091C900806880932D
:103F3000C9001F910F91FF90EF90DF90CF90BF903D
:103F4000AF900895EE24FF248701C5CF20E030E034
:103F500040E050E0D9CFCF93DF93EC010E94581D91
:103F6000882319F4DF91CF9108950E946A1D982F3C
:103F70002091A106E22FF0E0E455FB4F8083E22F71
:103F8000EF5F2E2FE093A1068A3011F0E33651F750
:103F90008091A0068823B1F481E09A30B9F081E0E5
:103FA0008093A006F0E0E455FB4F1082E22FF0E092
:103FB000E455FB4F10821092A1061092AC04DF91E1
:103FC000CF9108951092A00680E0E7CFF0E0E4558D
:103FD000FB4F1082882351F38CEA94E0FE0109958F
:103FE0002091A106E3CF8F929F92AF92BF92CF9282
:103FF000DF92EF92FF920F931F93DF93CF9300D046
:1040000000D0CDB7DEB7162F072F6A0119821A82AA
:104010001B821C826AEC71E00E94E032AC010097C6
:1040200009F45EC081E04C3C580709F459C0812F67
:10403000902F9C018901EE24FF248EEC882E81E0D4
:10404000982E5E010894A11CB11C0FC080E090E086
:104050006AEC71E00E94E032AC01009779F10C5FEC
:104060001F4F91E04C3C590749F100D000D000D0DF
:10407000EDB7FEB73196ADB7BEB712965C934E93CF
:10408000119793828282B582A4820E947F338981B4
:104090009A81AB81BC81F80180839183A283B38331
:1040A0000894E11CF11C8DB79EB706960FB6F894E4
:1040B0009EBF0FBE8DBFEC14FD0441F6C7010F90EB
:1040C0000F900F900F90CF91DF911F910F91FF9064
:1040D000EF90DF90CF90BF90AF909F908F9008951A
:1040E000EE24FF24EBCFCF92DF92EF92FF920F935B
:1040F0001F93CF93DF938C010E94581D882349F4AE
:10410000DF91CF911F910F91FF90EF90DF90CF90B3
:1041100008950E946A1D982F2091A106E22FF0E0D9
:10412000E455FB4F8083E22FEF5F2E2FE093A10633
:104130008A3011F0E33621F78091A0068823A1F49C
:1041400081E09A30A9F081E08093A006F0E0E45588
:10415000FB4F1082E22FF0E0E455FB4F10821092EB
:10416000A1061092AC04CCCF1092A00680E0E9CF5B
:10417000F0E0E455FB4F1082882361F38CEA94E071
:1041800060E175E044E650E00E94F31F7C01D090AE
:104190001005C09011058091120590911305E7015B
:1041A00021971C161D06D4F5E4E1F5E02D2D3C2DDC
:1041B000AC01C901DA0120E030E040E050E0B70195
:1041C000660F771F660F771F645F7A4F04C0819177
:1041D0009191A191B191280F391F4A1F5B1FE617DA
:1041E000F707A9F7CC0FDD1FCC0FDD1FC05FDA4F3B
:1041F00088819981AA81BB8182179307A407B5079B
:1042000019F0EE24EA94FE2C8D2D9C2D60E175E0D2
:10421000A701F80109952091A1069CCF20E030E08C
:1042200040E050E0DFCF8F929F92AF92BF92CF924B
:10423000DF92EF92FF920F931F93DF93CF93CDB74F
:10424000DEB764970FB6F894DEBF0FBECDBF4C014A
:104250005A016B018BE0E82EF12CEC0EFD1ED7010C
:10426000E2EDF1E083E001900D928150E1F7C701AA
:10427000B9010E94E532002349F0F70101900020C6
:10428000E9F731978AE090E0918380838DB79EB7FC
:1042900008970FB6F8949EBF0FBE8DBFEDB7FEB75F
:1042A00031968E010F5F1F4FADB7BEB712961C93AC
:1042B0000E931197F382E282A482B582C682D782DE
:1042C0000E944E338DB79EB708960FB6F8949EBFE6
:1042D0000FBE8DBFC4010E94A61DC8010E94A61D6D
:1042E00064960FB6F894DEBF0FBECDBFCF91DF91BD
:1042F0001F910F91FF90EF90DF90CF90BF90AF9004
:104300009F908F9008958F929F92AF92BF92CF927D
:10431000DF92EF92FF920F931F93DF93CF93CDB76E
:10432000DEB764970FB6F894DEBF0FBECDBF4C0169
:104330005A016B019BE0E92EF12CEC0EFD1ED7011A
:10434000E2EDF1E083E001900D928150E1F7C701C9
:10435000B9010E94E532002349F0F70101900020E5
:10436000E9F731978AE090E0918380838DB79EB71B
:1043700008970FB6F8949EBF0FBE8DBFEDB7FEB77E
:1043800031968E010F5F1F4FADB7BEB712961C93CB
:104390000E931197F382E282A482B582C682D782FD
:1043A0000E944E338DB79EB708960FB6F8949EBF05
:1043B0000FBE8DBFC4010E94A61DC8010E94A61D8C
:1043C00064960FB6F894DEBF0FBECDBFCF91DF91DC
:1043D0001F910F91FF90EF90DF90CF90BF90AF9023
:1043E0009F908F900895EF92FF920F931F93DF930A
:1043F000CF93CDB7DEB72A970FB6F894DEBF0FBEC6
:10440000CDBF7C012223B9F5ADB7BEB718970FB663
:10441000F894BEBF0FBEADBFEDB7FEB731968E01AB
:104420000F5F1F4F12961C930E9311978CED91E026
:104430009383828344835583668377830E944E33BC
:104440008DB79EB708960FB6F8949EBF0FBE8DBF6E
:10445000C7010E94A61DC8010E94A61D2A960FB67C
:10446000F894DEBF0FBECDBFCF91DF911F910F91AA
:10447000FF90EF9008958DB79EB708970FB6F89408
:104480009EBF0FBE8DBFEDB7FEB731968E010F5F99
:104490001F4FADB7BEB712961C930E93119785EDC3
:1044A00091E0C6CF0F931F93DF93CF93CDB7DEB7C5
:1044B0002A970FB6F894DEBF0FBECDBF2DB73EB71B
:1044C000285030400FB6F8943EBF0FBE2DBFEDB759
:1044D000FEB731968E010F5F1F4FADB7BEB7129674
:1044E0001C930E93119722EE31E033832283648371
:1044F0007583868397830E944E332DB73EB7285F1E
:104500003F4F0FB6F8943EBF0FBE2DBFC8010E94AB
:10451000A61D2A960FB6F894DEBF0FBECDBFCF9171
:10452000DF911F910F9108950F931F93DF93CF9306
:10453000CDB7DEB72A970FB6F894DEBF0FBECDBF5A
:1045400000D000D000D0EDB7FEB731968E010F5FDE
:104550001F4FADB7BEB712961C930E93119725EE61
:1045600031E033832283958384830E944E338DB759
:104570009EB706960FB6F8949EBF0FBE8DBFC801BA
:104580000E94A61D2A960FB6F894DEBF0FBECDBFBF
:10459000CF91DF911F910F910895E1E7F7E0E60FCA
:1045A000F71FE081F0E0EE0FFF1FEE0FFF1FE2505C
:1045B000F94F2081318142815381B901CA010895A7
:1045C000E1E7F7E0E60FF71FE081F0E0EE0FFF1FF5
:1045D000EE0FFF1FE65CF84F60817181828193814D
:1045E0000895CF92DF92EF92FF920F931F93CF9394
:1045F000DF930AE517E051E7C52E57E0D52E42EAD2
:10460000E42E46E0F42E1FC0E601E881F0E0EE0F54
:10461000FF1FEE0FFF1FE65CF84FE70188819981CD
:10462000AA81BB8180839183A283B3830F5F1F4FD5
:104630000894C11CD11CC4E0D0E0EC0EFD1EE7E0E4
:1046400001371E0701F1D8018C918823E9F6F601A4
:104650008081C82FD0E0CC0FDD1FCC0FDD1FC250F2
:10466000D94FD7016D917D918D919C910E946635B6
:1046700020E030E44CE156E40E94CB346883798337
:104680008A839B83D3CFDF91CF911F910F91FF90AE
:10469000EF90DF90CF9008951092A2061092A3069B
:1046A0001092A4061092A5068CE993E1A0E0B0E078
:1046B0008093A6069093A706A093A806B093A90698
:1046C0008CE396EFAFEFBFEF8093AA069093AB0613
:1046D000A093AC06B093AD068CE795E1A0E0B0E006
:1046E0008093AE069093AF06A093B006B093B10648
:1046F00082E796E5A0E0B0E08093B2069093B3061F
:10470000A093B406B093B5068AE195EFAFEFBFEF83
:104710008093B6069093B706A093B806B093B906F7
:1047200082E093E0A0E0B0E08093BA069093BB06ED
:10473000A093BC06B093BD0681E590E0A0E0B0E098
:104740008093BE069093BF06A093C006B093C106A7
:104750008BE091E0A0E0B0E08093C2069093C306A6
:10476000A093C406B093C50684E89FEFAFEFBFEFF8
:104770008093C6069093C706A093C806B093C90657
:1047800088E893E1A0E0B0E08093CA069093CB065E
:10479000A093CC06B093CD0688EE93E0A0E0B0E005
:1047A0008093CE069093CF06A093D006B093D10607
:1047B0001092D2061092D3061092D4061092D5060B
:1047C0008CED95E0A0E0B0E08093D6069093D706FC
:1047D000A093D806B093D9068093DA069093DB06AF
:1047E000A093DC06B093DD068093DE069093DF068F
:1047F000A093E006B093E10680E291EAA7E0B0E082
:104800008093E2069093E306A093E406B093E50656
:1048100088E293E2A0E0B0E08093E6069093E7069A
:10482000A093E806B093E9068093EA069093EB061E
:10483000A093EC06B093ED068093EE069093EF06FE
:10484000A093F006B093F1068093F2069093F306DE
:10485000A093F406B093F5068093F6069093F706BE
:10486000A093F806B093F90689E190E0A0E0B0E0EB
:104870008093FA069093FB06A093FC06B093FD0686
:104880000895EF92FF920F931F93CF93DF937B01D5
:104890008C01FB01EE0FFF1FEE0FFF1FEE55F94FCE
:1048A0002083318342835383FB01E65AF84F808192
:1048B000882309F5F701EF58F84F6081C62FD0E043
:1048C000CC0FDD1FCC0FDD1FC250D94FCA01B9017B
:1048D0000E94663520E030E44CE156E40E94CB347F
:1048E000688379838A839B83DF91CF911F910F9196
:1048F000FF90EF900895F701EF58F84FE081F0E056
:10490000EE0FFF1FEE0FFF1FE65CF84F2083318391
:1049100042835383DF91CF911F910F91FF90EF90CE
:104920000895EF92FF920F931F93CF93DF93C2EA04
:10493000D6E0EE24FF248701D801C701880F991F14
:10494000AA1FBB1F880F991FAA1FBB1F499159910E
:10495000699179910E94C6390894E11CF11C011DEE
:10496000111D86E0CE3FD80739F7DF91CF911F9117
:104970000F91FF90EF900895CF92DF92EF92FF9208
:104980000F931F93CF93DF9358E8C52E57E0D52E92
:1049900010928807C60165E070E00E94EB27C6010F
:1049A00040E050E060E070E00E94B8274091A2062D
:1049B0005091A3066091A4067091A506C6010E94BD
:1049C000B827C6EAD6E041E0E42EF12C012D112DE6
:1049D00006C00894E11CF11C011D111D249686E0FF
:1049E000CE3FD807D1F088E897E0B801A7010E9430
:1049F000B827488159816A817B8188E897E00E94C5
:104A0000B827C70183709070039719F788E897E07B
:104A10000E94A61D10928807DCCFF60101900020AD
:104A2000E9F73197E858F740E857F84F8CE290E003
:104A30009183808388E897E00E94A61D10928807E2
:104A4000E5E3F3E06591749188E897E00E94CE3247
:104A500001E010E0CCE2D0E0F60101900020E9F79F
:104A60003197E858F740E857F84FD183C08388E87A
:104A700097E00E94A61D0731A0F4F801EE0FFF1F7A
:104A8000EB5CFC4F6591749188E897E00E94CE3210
:104A90000F5F1F4F07311105F9F688E897E00E9474
:104AA000A61D88EE91E00E94A61DDF91CF911F9177
:104AB0000F91FF90EF90DF90CF900895CF92DF920B
:104AC000EF92FF920F931F93CF93DF9380E090E0DC
:104AD0000E94C0396A3F71058105910509F0D2C075
:104AE00002EA16E0C0E0D0E0CE01880F991F880FDF
:104AF000991F0E94C039D8016D937D938D939D932A
:104B00008D012196C731D10579F791E090935A072D
:104B10001092710710925B071092720710925C0757
:104B20009093730710925D0722E020937407109210
:104B30005E0783E08093750710925F0744E040931F
:104B400076071092600735E03093770790936107FE
:104B50009093780790936207209379079093630767
:104B600080937A071092640726E020937B071092C7
:104B7000650757E050937C071092660788E08093A2
:104B80007D079093670740937E0790936807309363
:104B90007F07909369072093800710926A0789E046
:104BA0008093810710926B078AE0809382071092AE
:104BB0006C078BE08093830710926D078CE08093E5
:104BC000840710926E078DE08093850710926F071F
:104BD0008EE08093860790937007509387070AE5CD
:104BE00017E0F1E7CF2EF7E0DF2EE2EAEE2EE6E067
:104BF000FE2E1FC0D601EC91F0E0EE0FFF1FEE0F6E
:104C0000FF1FE65CF84FE70188819981AA81BB818B
:104C100080839183A283B3830F5F1F4F0894C11CCD
:104C2000D11CC4E0D0E0EC0EFD1EE7E001371E070A
:104C300001F1E80188818823E9F6F6018081C82F17
:104C4000D0E0CC0FDD1FCC0FDD1FC250D94FD701F4
:104C50006D917D918D919C910E94663520E030E4AC
:104C60004CE156E40E94CB34688379838A839B832A
:104C7000D3CFDF91CF911F910F91FF90EF90DF90F5
:104C8000CF9008951092A2061092A3061092A40647
:104C90001092A5068CE993E1A0E0B0E08093A6060F
:104CA0009093A706A093A806B093A9068CE396EF6D
:104CB000AFEFBFEF8093AA069093AB06A093AC062C
:104CC000B093AD068CE795E1A0E0B0E08093AE062E
:104CD0009093AF06A093B006B093B10682E796E535
:104CE000A0E0B0E08093B2069093B306A093B40620
:104CF000B093B5068AE195EFAFEFBFEF8093B606AC
:104D00009093B706A093B806B093B90682E093E0FB
:104D1000A0E0B0E08093BA069093BB06A093BC06D7
:104D2000B093BD0681E590E0A0E0B0E08093BE06C0
:104D30009093BF06A093C006B093C1068BE091E0AC
:104D4000A0E0B0E08093C2069093C306A093C4068F
:104D5000B093C50684E89FEFAFEFBFEF8093C60620
:104D60009093C706A093C806B093C90688E893E15C
:104D7000A0E0B0E08093CA069093CB06A093CC0647
:104D8000B093CD0688EE93E0A0E0B0E08093CE062D
:104D90009093CF06A093D006B093D1061092D2067E
:104DA0001092D3061092D4061092D5068CED95E0A1
:104DB000A0E0B0E08093D6069093D706A093D806E3
:104DC000B093D9068093DA069093DB06A093DC06B5
:104DD000B093DD068093DE069093DF06A093E00695
:104DE000B093E10680E291EAA7E0B0E08093E206AA
:104DF0009093E306A093E406B093E50688E293E27D
:104E0000A0E0B0E08093E6069093E706A093E80662
:104E1000B093E9068093EA069093EB06A093EC0624
:104E2000B093ED068093EE069093EF06A093F00604
:104E3000B093F1068093F2069093F306A093F406E4
:104E4000B093F5068093F6069093F706A093F806C4
:104E5000B093F90689E190E0A0E0B0E08093FA0613
:104E60009093FB06A093FC06B093FD064ECE94B142
:104E7000906B94B9269890E59CBD882319F08CB569
:104E800080628CBD613049F1613068F48CB58CBDB5
:104E9000403191F04131A0F44430E1F1483049F122
:104EA000423071F108956230E1F0633089F78CB5DA
:104EB0008C608CBD403171F78CB581608CBD0895DC
:104EC000403421F1403889F0403261F78DB581607E
:104ED0008DBD8CB582608CBD08958CB584608CBD11
:104EE000D7CF8CB588608CBDD3CF8CB583608CBD9B
:104EF00008958DB581608DBD8CB581608CBD0895A0
:104F00008DB581608DBD8CB58CBD08958CB58260EA
:104F10008CBD08958CB581608CBD8CB58CBD089519
:104F20008EBD0DB407FEFDCF8EB50895482F6623C4
:104F300069F09C01F90180818EBD0DB407FEFDCFA3
:104F40008EB531968E2F841B8617A8F30895482FAF
:104F5000662369F09C01F9019FEF9EBD0DB407FE29
:104F6000FDCF8EB581938E2F841B8617B0F30895E5
:104F7000EF92FF920F931F937C018DB79EB7089716
:104F80000FB6F8949EBF0FBE8DBFEDB7FEB731963A
:104F90000CEE17E0ADB7BEB712961C930E931197A7
:104FA0008AEE91E09383828344835583668377837B
:104FB0000E944E338DB79EB708960FB6F8949EBFE9
:104FC0000FBE8DBFC701B8010E94E5321F910F913E
:104FD000FF90EF900895EF92FF920F931F937C0143
:104FE00000D000D000D0EDB7FEB731960CEE17E040
:104FF000ADB7BEB712961C930E9311978FEE91E04A
:1050000093838283758364830E944E338DB79EB7EA
:1050100006960FB6F8949EBF0FBE8DBFC701B801AC
:105020000E94E5321F910F91FF90EF9008954F92EB
:105030005F926F927F928F929F92AF92BF92CF9228
:10504000DF92EF92FF920F931F93CF93DF932C0188
:105050003A014B01CB01BA010E9433355B016C016F
:10506000C401B30120E030E040E050E00E94C734CA
:1050700088230CF450C0EDB7FEB738970FB6F894FC
:10508000FEBF0FBEEDBFEDB6FEB60894E11CF11CED
:105090008CEE97E09283818382EF91E0F701938316
:1050A0008283B582A4828CE99FEFA89E8001A99E8D
:1050B000100DB89E100D1124C401B30120E030E0A2
:1050C00048EC52E40E9446360E943335060F171F03
:1050D000F701178306830E944E338DB79EB708965B
:1050E0000FB6F8949EBF0FBE8DBFC2016CEE77E085
:1050F0000E94E532DF91CF911F910F91FF90EF90C9
:10510000DF90CF90BF90AF909F908F907F906F90E7
:105110005F904F9008958DB79EB708970FB6F8949B
:105120009EBF0FBE8DBFEDB6FEB60894E11CF11C0C
:105130008CEE97E0EDB7FEB79283818382EF91E02A
:10514000F70193838283B582A48284E690E0A89ECF
:105150008001A99E100DB89E100D1124C401B30149
:1051600020E030E048EC52E40E9446360E9433359D
:10517000061B170BADCF109295001092940089EF8B
:1051800090E0909399008093980010929000E1E94C
:10519000F0E01082808182608083808183608083E0
:1051A00082E08093710008951F920F920FB60F92C4
:1051B00011248F939F93AF93BF938091F6079091A3
:1051C000F707A091F807B091F9070196A11DB11D4D
:1051D0008093F6079093F707A093F807B093F90729
:1051E000BF91AF919F918F910F900FBE0F901F9025
:1051F0001895F8942091F6073091F7074091F80739
:105200005091F9077894B901CA010895EF92FF927D
:105210000F931F93F8946091F6077091F7078091B0
:10522000F8079091F907E0909400F0909500789439
:105230002AEF30E040E050E00E94783A9B01AC0158
:1052400000E010E02E0D3F1D401F511F220F331FA5
:10525000441F551F220F331F441F551FB901CA0198
:105260001F910F91FF90EF90089591E09093430864
:1052700080932008109241081092420808952091CE
:105280001F0830E080911E08281B3109C9010895CC
:1052900040911E0880911F08481760F4E42FF0E049
:1052A000E250F84F8081282F30E04F5F40931E0876
:1052B000C90108952FEF3FEFC9010895E0911E083D
:1052C00080911F08E81740F4F0E0E250F84F808129
:1052D000E82FF0E0CF010895EFEFFFEFCF01089541
:1052E00008959C0140914608509147084115510589
:1052F00011F190911E0880911F089817E0F0161682
:10530000170694F490E0A0E0B0E0E0E0F0E0A250F6
:10531000B84FE20FF31F80818C939F5FE92FF0E07D
:10532000DF01E617F7079CF310921E0860931F0831
:10533000CB01FA0109950895E0914408F0914508E0
:10534000309729F01092410810924208099508956B
:10535000909347088093460808959093450880935A
:1053600044080895DF93CF930F92CDB7DEB78983BA
:10537000809143088823F9F0809142088032A0F49C
:1053800080914108E82FF0E0EF5DF74F998190831D
:105390008F5F809341088093420821E030E0C9018B
:1053A0000F90CF91DF91089520E030E0C9010F9078
:1053B000CF91DF910895CE01019661E00E94F02B1C
:1053C00021E030E0C9010F90CF91DF9108950F9354
:1053D000082F8091200861E278E04091420821E0A6
:1053E0000E948A2B109241081092420810924308A2
:1053F0000F9108950E94262B08950E94192B08955D
:1054000010921E0810921F08109241081092420834
:105410000E94FD2A8CE999E20E94202C81E799E202
:105420000E941B2C0895AF92BF92CF92DF92EF9211
:10543000FF920F931F93DF93CF930F92CDB7DEB7F9
:105440006C017B01809143088823F1F1611571059E
:1054500071F100E010E05E010894A11CB11C17C0BE
:1054600080914208803260F480914108E82FF0E09A
:10547000EF5DF74F90838F5F8093410880934208E0
:105480000F5F1F4F0E151F0590F480914308F60122
:10549000E00FF11F90819983882311F7C50161E026
:1054A0000E94F02B0F5F1F4F0E151F0570F3C701F1
:1054B0000F90CF91DF911F910F91FF90EF90DF90B0
:1054C000CF90BF90AF900895C6010E94F02BEFCF10
:1054D0000F938091200861E278E04091420821E03A
:1054E00001E00E948A2B109241081092420810920B
:1054F00043080F910895AF92BF92CF92DF92EF923F
:10550000FF920F931F93182FF62E0023B1F181E025
:105510008093430810932008043008F045C060E0F1
:10552000E0E00023C9F00150802F880F880F880F1A
:1055300059016A0104C0D694C794B794A7948A9578
:10554000D2F7E03270F7E62FF0E0EF5DF74FA08280
:105550006F5FE62F002339F760934108E09342081C
:10556000812F61E278E04E2F21E00E948A2B109279
:10557000410810924208109243084F2D413208F022
:1055800040E2812F6EEF77E02E2D0E94392B109292
:105590001E0880931F081F910F91FF90EF90DF90DE
:1055A000CF90BF90AF90089503E0B9CF1F93182F0D
:1055B00010921E0810921F08109241081092420883
:1055C0000E94FD2A8CE999E20E94202C81E799E251
:1055D0000E941B2C812F0E94222B1F910895242FA3
:1055E000462F613208F040E26EEF77E00E94392BDF
:1055F00010921E0880931F0808951092480881E0B9
:1056000080934A0810924B0887B18C7F87B988B184
:10561000836088B9E9EBF0E080818E7F80838081B0
:105620008D7F808388E48093B80085E48093BC00FC
:105630000895ECEBF0E080818A7B808388B18C7FD9
:1056400088B90895880F8093BA0008959B01AC0132
:1056500060E074E284EF90E00E94AA3A205130406A
:105660004040504056954795379527952093B80070
:105670000895382F4132E8F5809148088823E1F7F2
:1056800091E09093480820934A088FEF8093B508E3
:10569000109270084150409371084F5F90934908F1
:1056A00080914908330F832B8093490880914B08E0
:1056B000813011F185EE8093BC00809148088130E3
:1056C000E1F380917008841710F44091700844232E
:1056D00071F020E030E0FB01E20FF31FD901A05B85
:1056E000B74F8C9180832F5F3F4F2417A0F3842FF7
:1056F000089540E0842F089510924B088091490846
:105700008093BB008091BC0083FDF8CF85EC809333
:10571000BC00D3CF0F93982F522F413208F04BC0CB
:10572000809148088823E1F782E08093480800933D
:105730004A088FEF8093B508109270084093710863
:10574000442371F020E030E0F901E05BF74FDB012A
:10575000A20FB31F8C9180832F5F3F4F2417A0F3BC
:105760001092490880914908990F892B8093490824
:1057700080914B08813011F185EE8093BC00552358
:1057800079F48091B5088F3F99F08091B508803207
:1057900019F18091B508803309F184E00F910895E3
:1057A000809148088230E1F38091B5088F3F69F716
:1057B00080E00F91089581E00F91089510924B08B9
:1057C000809149088093BB008091BC0083FDF8CF95
:1057D00085EC8093BC00D3CF82E0E0CF83E0DECFC6
:1057E000AC018091930890E0860F911D81970CF594
:1057F00080914808843011F082E00895662391F08A
:1058000020E030E080919308F901EE58F74FE80F5F
:10581000F11DDA01A20FB31F8C9180832F5F3F4FE0
:10582000261780F380919308860F8093930880E079
:10583000089581E0089590934F0880934E0808954D
:1058400090934D0880934C080895882321F485E8AF
:105850008093BC00089585EC8093BC00089585ED8D
:105860008093BC008091BC0084FDFCCF109248085E
:10587000089585EC8093BC001092480808951F920B
:105880000F920FB60F920BB60F9211242F933F93E6
:105890004F935F936F937F938F939F93AF93BF9338
:1058A000EF93FF938091B90090E0A0E0B0E0887F93
:1058B0009070A070B070FC01893C910590F5EA5B96
:1058C000FF4FEE0FFF1F0590F491E02D099484E047
:1058D000809348081092920810929308E0914C0827
:1058E000F0914D08099580919308882329F481E06F
:1058F000809393081092720890919208E92FF0E03B
:10590000EE58F74F80818093BB009F5F9093920881
:1059100090919208809193089817D8F485EC809321
:10592000BC00FF91EF91BF91AF919F918F917F91BB
:105930006F915F914F913F912F910F900BBE0F9000
:105940000FBE0F901F9018958091B408803208F414
:10595000AAC085E88093BC00E4CF80917008909144
:10596000BB00E82FF0E0E05BF74F90838F5F809300
:1059700070089091700880917108981750F7CECFF9
:1059800080E38093B50885ED8093BC008091BC00D6
:1059900084FDFCCF10924808C4CF88E38093B508FB
:1059A00085EC8093BC0010924808BBCF80917008B2
:1059B0009091BB00E82FF0E0E05BF74F90838F5FA2
:1059C0008093700880914A08882309F47CC085ED93
:1059D0008093BC008091BC0084FDFCCFDBCF83E0D2
:1059E000809348081092B40885EC8093BC0099CF4E
:1059F0001092B50885ED8093BC008091BC0084FDB9
:105A0000FCCFC8CF809149088093BB0085EC809380
:105A1000BC0087CF9091700880917108981708F4A6
:105A20005BC080914A08882309F44DC085ED8093BE
:105A3000BC008091BC0084FDFCCFACCF80E28093A1
:105A4000B50885ED8093BC008091BC0084FDFCCF3F
:105A5000A1CF85EC8093BC00109248088091B408D7
:105A6000803230F4E091B408F0E0EC56F74F108249
:105A70006091B408E0914E08F0914F0884E998E0F5
:105A800070E009951092B4084CCF85EC8093BC006F
:105A90001092480846CF85ED8093BC008091BC00F1
:105AA00084FDFCCF77CF8091B4089091BB00E82FA4
:105AB000F0E0EC56F74F90838F5F8093B40885EC4D
:105AC0008093BC002ECF81E080934B0884EA8093C2
:105AD000BC001092480825CF90917008E92FF0E0A3
