:100000000C944C000C946B000C946B000C946B00E3
:100010000C946B000C946B000C946B000C946B00B4
:100020000C946B000C946B000C946B000C946B00A4
:100030000C946B000C946B000C946B000C946B0094
:100040000C946B000C946B000C946B000C946B0084
:100050000C944A020C949A020C946B000C946B0062
:100060000C946B000C946B000C946B000C946B0064
:100070000C9472020C946B000C946B000C946B004B
:100080000C946B000C946B000C946B006364696EB1
:100090006F70737578585B0011241FBECFEFD0E4EA
:1000A000DEBFCDBF11E0A0E0B1E0E6EAF2E100E0A2
:1000B0000BBF02C007900D92A631B107D9F714E02B
:1000C000A6E1B1E001C01D92A631B107E1F70E949F
:1000D000B0000C9499050C94000081B1806C81B93A
:1000E00082B18F7382B908950895169A20E030E0A6
:1000F00040E951E0CA010197F1F72F5F3F4F81E0DE
:10010000243F3807B9F7169820E030E040E951E085
:10011000CA010197F1F72F5F3F4F81E0243F380775
:10012000B9F784E790E00E94F9040895F89485B740
:10013000806885BF85B7806885BF14BE81B1806C3B
:1001400081B982B18F7382B960E072EC81E090E096
:100150000E94150380E091E00E942C02789408959B
:10016000CF93DF93F89485B7806885BF85B78068A3
:1001700085BF14BE81B1806C81B982B18F7382B9A1
:1001800060E072EC81E090E00E94150380E091E075
:100190000E942C027894C0E9D1E0169A20E030E069
:1001A000CE010197F1F72F5F3F4F81E0243F3807E1
:1001B000B9F7169820E030E0CE010197F1F72F5FF4
:1001C0003F4F81E0243F3807B9F784E790E00E9471
:1001D000F904E3CFAF92BF92CF92DF92EF92FF92FA
:1001E0000F931F937B018C01EE0CFF1C001F111F4E
:1001F000EE0CFF1C001F111FEE0CFF1C001F111F37
:10020000EE0CFF1C001F111F60E078E689E899E002
:100210009701A8010E942F0959016A010894A108B9
:10022000B108C108D10860E074E284EF90E0970162
:10023000A8010E942F09F901B90161507040CB015A
:10024000880F991F9B01220F331F220F331F220F8C
:10025000331F820F931FA0E0B0E08A159B05AC0509
:10026000BD0579F186017501E81AF90A0A0B1B0B25
:10027000CF01880F991F9F01220F331F220F331FB9
:10028000220F331F820F931FA0E0B0E08A159B0559
:10029000AC05BD05D1F0A6019501281B390B4A0B11
:1002A0005B0B2E153F054007510708F4BF01CB013A
:1002B0001F910F91FF90EF90DF90CF90BF90AF9084
:1002C0000895EE24FF248701D3CF20E030E040E002
:1002D00050E0E7CF982F8091C00085FFFCCF90932E
:1002E000C6000895E0919901F0E0EA5AFE4F80833C
:1002F00080919901803418F01092990108958091AD
:1003000099018F5F809399010895982F8091C8007B
:1003100085FFFCCF9093CE000895E0911D02F0E0A0
:10032000E652FE4F808380911D02803418F01092B7
:100330001D02089580911D028F5F80931D02089514
:10034000DB012C91FC01E20FF11D40838C91803484
:1003500010F01C9208958C918F5F8C930895CF9329
:10036000DF93DC01EB01FA0198818081981799F005
:100370008881A80FB11D9C918881803428F0188253
:10038000892FDF91CF91089588818F5F8883892F8E
:10039000DF91CF91089590E0892FDF91CF9108955B
:1003A0008091C00087FFFCCF8091C60008958091A6
:1003B000C80087FFFCCF8091CE00089590919601F0
:1003C0008091970120E0981321E0822F0895909169
:1003D0001A0280911B0220E0981321E0822F0895D9
:1003E00090919601809197019817A9F0E09196015C
:1003F000F0E0EA5EFE4FE08180919601803420F0CB
:10040000109296018E2F0895809196018F5F8093B0
:1004100096018E2F0895E0E08E2F089590911A0294
:1004200080911B029817A9F0E0911A02F0E0E656BD
:10043000FE4FE08180911A02803420F010921A025F
:100440008E2F089580911A028F5F80931A028E2F4B
:100450000895E0E08E2F0895FC019081992351F0DA
:1004600031968091C00085FFFCCF9093C6009081AB
:100470009923B1F70895FC019081992351F03196A9
:100480008091C80085FFFCCF9093CE009081992386
:10049000B1F708951F920F920FB60F920BB60F92FD
:1004A00011248F93EF93FF938091C600E091970101
:1004B000F0E0EA5EFE4F808380919701803460F027
:1004C00010929701FF91EF918F910F900BBE0F90BB
:1004D0000FBE0F901F901895809197018F5F8093AA
:1004E0009701F0CF1F920F920FB60F920BB60F929B
:1004F00011248F93EF93FF938091CE00E0911B0224
:10050000F0E0E656FE4F808380911B02803460F05D
:1005100010921B02FF91EF918F910F900BBE0F90E5
:100520000FBE0F901F90189580911B028F5F8093D4
:100530001B02F0CF1F920F920FB60F920BB60F92C5
:1005400011248F939F93EF93FF9390919801809143
:100550009901981711F1E0919801F0E0EA5AFE4FE5
:10056000E08180919801803488F010929801EE2308
:10057000A1F0E093C600FF91EF919F918F910F90B2
:100580000BBE0F900FBE0F901F9018958091980191
:100590008F5F80939801EE2361F78091C1008F7D7A
:1005A0008093C100E8CFDC018C91882381F0E09139
:1005B0001D02F0E0E652FE4F808380911D028034E0
:1005C00060F010921D0211968C91882381F7809122
:1005D000C90080628093C900089580911D028F5FD9
:1005E00080931D021196F0CFDC018C91882381F05D
:1005F000E0919901F0E0EA5AFE4F808380919901E1
:10060000803460F01092990111968C91882381F7C3
:100610008091C10080628093C1000895809199010A
:100620008F5F809399011196F0CFAF92BF92CF92D6
:10063000DF92EF92FF920F931F937B018C01EE0CE0
:10064000FF1C001F111FEE0CFF1C001F111FEE0CE2
:10065000FF1C001F111FEE0CFF1C001F111F60E08C
:1006600078E689E899E09701A8010E942F095901CD
:100670006A010894A108B108C108D10860E074E2D9
:1006800084EF90E09701A8010E942F09F901B901B8
:1006900061507040CB01880F991F9B01220F331FBF
:1006A000220F331F220F331F820F931FA0E0B0E0F1
:1006B000A816B906CA06DB06E9F186017501E81A33
:1006C000F90A0A0B1B0BCF01880F991F9F01220FFC
:1006D000331F220F331F220F331F820F931FA0E0FF
:1006E000B0E0A816B906CA06DB0641F1A6019501DD
:1006F000281B390B4A0B5B0B2E153F054007510792
:1007000008F4BF0188E18093C1008EE08093C200AD
:100710007093C5006093C4008091C100806880938D
:10072000C1001F910F91FF90EF90DF90CF90BF908D
:10073000AF900895EE24FF248701C5CF20E030E07C
:1007400040E050E0D9CFAF92BF92CF92DF92EF92CC
:10075000FF920F931F937B018C01EE0CFF1C001F77
:10076000111FEE0CFF1C001F111FEE0CFF1C001FC1
:10077000111FEE0CFF1C001F111F60E078E689E8D6
:1007800099E09701A8010E942F0959016A01089474
:10079000A108B108C108D10860E074E284EF90E0DC
:1007A0009701A8010E942F09F901B9016150704019
:1007B000CB01880F991F9B01220F331F220F331F7C
:1007C000220F331F820F931FA0E0B0E0A816B906D6
:1007D000CA06DB06E9F186017501E81AF90A0A0B77
:1007E0001B0BCF01880F991F9F01220F331F220F70
:1007F000331F220F331F820F931FA0E0B0E0A81613
:10080000B906CA06DB0641F1A6019501281B390B82
:100810004A0B5B0B2E153F054007510708F4BF013B
:1008200088E18093C9008EE08093CA007093CD0068
:100830006093CC008091C90080688093C9001F91AB
:100840000F91FF90EF90DF90CF90BF90AF90089501
:10085000EE24FF248701C5CF20E030E040E050E0E7
:10086000D9CFCF93DF93EC010E94DE01882319F4E6
:10087000DF91CF9108950E94F001982F20911304E9
:10088000E22FF0E0E25EFD4F8083E22FEF5F2E2F3C
:10089000E09313048A3011F0E33651F7809112048B
:1008A0008823B1F481E09A30B9F081E0809312049A
:1008B000F0E0E25EFD4F1082E22FF0E0E25EFD4FDD
:1008C00010821092130410921E02DF91CF910895AE
:1008D0001092120480E0E7CFF0E0E25EFD4F10825C
:1008E000882351F38EE192E0FE01099520911304D3
:1008F000E3CF8F929F92AF92BF92CF92DF92EF920F
:10090000FF920F931F93DF93CF9300D000D0CDB70A
:10091000DEB7162F072F6A0119821A821B821C82EA
:100920006EE071E00E949C05AC01009709F45EC086
:1009300081E04031580709F459C0812F902F9C0164
:100940008901EE24FF2482E1882E81E0982E5E0149
:100950000894A11CB11C0FC080E090E06EE071E033
:100960000E949C05AC01009779F10C5F1F4F91E04C
:100970004031590749F100D000D000D0EDB7FEB7A3
:100980003196ADB7BEB712965C934E931197938292
:100990008282B582A4820E94C80589819A81AB8136
:1009A000BC81F80180839183A283B3830894E11C06
:1009B000F11C8DB79EB706960FB6F8949EBF0FBE7A
:1009C0008DBFEC14FD0441F6C7010F900F900F90FE
:1009D0000F90CF91DF911F910F91FF90EF90DF90DB
:1009E000CF90BF90AF909F908F900895EE24FF24FA
:1009F000EBCFCF92DF92EF92FF920F931F93CF93A3
:100A0000DF938C010E94DE01882349F4DF91CF91AE
:100A10001F910F91FF90EF90DF90CF9008950E946B
:100A2000F001982F20911304E22FF0E0E25EFD4FD9
:100A30008083E22FEF5F2E2FE09313048A3011F0B2
:100A4000E33621F7809112048823A1F481E09A30E3
:100A5000A9F081E080931204F0E0E25EFD4F108285
:100A6000E22FF0E0E25EFD4F10821092130410922C
:100A70001E02CCCF1092120480E0E9CFF0E0E25EDB
:100A8000FD4F1082882361F38EE192E062E872E00C
:100A900044E650E00E9479047C01D0908202C0902C
:100AA00083028091840290918502E70121971C16B0
:100AB0001D06D4F5E6E8F2E02D2D3C2DAC01C90170
:100AC000DA0120E030E040E050E0B701660F771F28
:100AD000660F771F62587D4F04C081919191A1915B
:100AE000B191280F391F4A1F5B1FE617F707A9F7B7
:100AF000CC0FDD1FCC0FDD1FCE57DD4F88819981D4
:100B0000AA81BB8182179307A407B50719F0EE24C9
:100B1000EA94FE2C8D2D9C2D62E872E0A701F8016D
:100B20000995209113049CCF20E030E040E050E094
:100B3000DFCFF8940C94510944E154E00E94A105E0
:100B40000895FA01A191B081009719F41097E1F08E
:100B5000CD01DC01CD010D90002011F4C00113C0C6
:100B6000FB012191222319F02015D9F7F3CFFB01C6
:100B70002191201519F41E92119606C02223C1F767
:100B80000D900020A1F7D001FA01A193B083089540
:100B9000DF93CF93CDB7DEB72E970FB6F894DEBFB5
:100BA0000FBECDBF85E08C838B899C899A83898316
:100BB0009E01295E3F4FCE0101966D897E89A90174
:100BC0000E949A072E960FB6F894DEBF0FBECDBFD7
:100BD000CF91DF910895FC0120FD08C023FD05C0E1
:100BE00022FF02C073836283518340830895EF9292
:100BF000FF920F931F9344FF02C033E011C046FFE2
:100C000002C034E00DC0DB01FC01AA0FBB1FEE1FC8
:100C1000FF1F1094D1F76A0F7B1F8E1F9F1F31E0BB
:100C2000660F771F881F991F3150D1F77B018C0108
:100C3000E20EF11C011D111DA8019701B701CA01A7
:100C40001F910F91FF90EF9008950F931F93CF93F3
:100C5000DF938C01C8010E94D008EC0197FD08C009
:100C60000E94BD08892BB1F7CE01B8010E9412097C
:100C7000CE01DF91CF911F910F910895AF92BF9256
:100C8000CF92DF92EF92FF920F931F93CF93DF9358
:100C9000EC01C62E5A01122F0E94D008AC018B32F3
:100CA00019F08D3251F41068CA9409F46DC0CE0168
:100CB0000E94D008AC0197FD67C06DEFD62ED122FF
:100CC0008D2D807301F54033F1F4CA9409F447C0C7
:100CD000CE010E94D008AC0197FD41C082E0D82A25
:100CE000483711F0483559F480E4D82ACA94B9F14C
:100CF000CE010E94D008AC0199232CF430C0D6FC60
:100D000002C080E1D82AEE24FF248701242F20533B
:100D1000283088F0D4FC09C02A3068F0D6FE05C01F
:100D20002F7D822F8151863028F0CA01BE010E949A
:100D3000120912C02750C801B7014D2D0E94F705B6
:100D40007B018C0182E0D82ACA9461F0CE010E9416
:100D5000D008AC0197FFDACFD1FC04C015C0EE2457
:100D6000FF248701D7FE08C010950095F094E09409
:100D7000E11CF11C011D111DC501B801A7012D2D9C
:100D80000E94EB0581E001C080E0DF91CF911F91CF
:100D90000F91FF90EF90DF90CF90BF90AF900895AC
:100DA0006F927F928F929F92AF92BF92CF92DF927B
:100DB000EF92FF920F931F93DF93CF93CDB7DEB7E0
:100DC000A0970FB6F894DEBF0FBECDBF6C01A62E64
:100DD0008A017901FE01319680E2DF011D928A9538
:100DE000E9F770E030E060E040E050E04F01A1E062
:100DF000B0E0F6018381F70183FD259183FF219106
:100E00007F01222309F47EC02E3519F441155105C6
:100E100069F1872F90E08417950744F42D3551F13F
:100E20002D3221F4332329F431E021C0332309F496
:100E3000622F322F832F869586958695F401E80FD1
:100E4000F11D832F87703D0102C0660C771C8A95C7
:100E5000E2F7208126292083361711F430E007C0FD
:100E6000361710F43F5FE6CF3150E4CF71E04F5FAB
:100E70005F4FBFCF332319F08E8180628E8377233B
:100E800059F0FE0131969E012F5D3F4F8081809584
:100E90008193E217F307D1F7BB24B3944E01089472
:100EA000811C911CC6010E94D008AC0197FD22C094
:100EB000869586958695F401E80FF11D808190E076
:100EC0009A012770307002C0959587952A95E2F7B0
:100ED00080FD05C0CA01B6010E9412090BC00115B0
:100EE000110519F0D8014D938D01AA94BB24AA20B5
:100EF000C9F602C0BB2031F40115110529F0F80133
:100F0000108202C0EE24FF24C701A0960FB6F89409
:100F1000DEBF0FBECDBFCF91DF911F910F91FF902C
:100F2000EF90DF90CF90BF90AF909F908F907F9089
:100F30006F9008956F927F928F929F92AF92BF921F
:100F4000CF92DF92EF92FF920F931F93CF93DF9395
:100F50005C016B013A01FC01178216828824EAC009
:100F6000812F90E00E94BD08892B21F0C5010E94CD
:100F70002506E0C0153249F4F601F3FC6591F3FE55
:100F800061916F01653269F415E2C5010E94D008D4
:100F900097FDDCC0181709F4CDC0B5010E941209F5
:100FA000DAC06A3219F0162F00E006C0F3FC159182
:100FB000F3FE11916F0101E099240FC00260692DC9
:100FC00070E080E090E040E20E94F705962EF60186
:100FD000F3FC1591F3FE11916F01212F20532A305C
:100FE00068F301FD03C099249A9403C0992009F481
:100FF000B2C0183621F01C3699F4F6010BC0F60188
:10100000F3FC6591F3FE6191683619F06F01162FBC
:1010100007C008600460F3FC1591F3FE11916F01A5
:10102000112309F498C08CE890E0612F70E00E94D1
:10103000C508892B09F48FC0802F00FF03C0EE2460
:10104000FF2407C0F301E080F18022E030E0620E6F
:10105000731E1E3651F4F5014681578160E070E041
:10106000C701202F0E94EB0565C0133691F481FD66
:1010700002C099249394C5010E94D00897FD66C0D0
:10108000E114F10419F0F70181937F019A9499F723
:101090004FC01B3559F4C501692DA70196010E9467
:1010A000D0066C01009709F043C03DC0C5010E9405
:1010B000250697FD4BC01F3659F1103728F414361A
:1010C00029F1193639F527C0133719F0153711F5FD
:1010D0001DC0C5010E94D008EC0197FD11C00E94FF
:1010E000BD08892B29F0CE01B5010E94120908C064
:1010F000E114F10419F0F701C1937F019A9449F7C3
:10110000E114F104A9F0F701108212C0006203C0DB
:10111000006101C00064C501692DA701202F0E9454
:101120003E06882329F4F5018381807379F413C086
:1011300000FF8394F501F380F601F3FC1591F3FEB3
:1011400011916F01112309F00BCF05C0882019F40C
:101150002FEF3FEF02C0282D30E0C901DF91CF9182
:101160001F910F91FF90EF90DF90CF90BF90AF90C5
:101170009F908F907F906F90089591116DC08032F5
:1011800019F089508550D0F70895FC010590061696
:1011900021F00020D9F7C00108953197CF010895BB
:1011A000CF93DF93EC014B8140FF1AC046FF0AC08A
:1011B0004F7B4B838E819F8101969F838E838A8193
:1011C000282F2BC042FF13C0E881F9818081282F8E
:1011D000332727FD30952115310529F440624B83D3
:1011E0002FEF3FEF1BC03196F983E88311C0EA85EA
:1011F000FB85CE0109959C0197FF0AC09B812F5F5B
:101200003F4F11F080E201C080E1892B8B83E8CF52
:101210008E819F8101969F838E8330E0C901DF918B
:10122000CF9108959C01FB01838180FF11C086FD51
:101230000FC09FEF2F3F390759F0228380648F7DC5
:1012400083838681978101979783868330E002C0EC
:101250002FEF3FEFC9010895992788270895A1E24C
:101260001A2EAA1BBB1BFD010DC0AA1FBB1FEE1F20
:10127000FF1FA217B307E407F50720F0A21BB30B6B
:10128000E40BF50B661F771F881F991F1A9469F7E7
:1012900060957095809590959B01AC01BD01CF0143
:0612A0000895F894FFCF51
:1012A60068656C6C6F20776F726C640D0A002C0099
:0612B6000A00256C640033
:00000001FF
