:100000000C94B5010C94D4010C94D4010C94D4013B
:100010000C9439060C94D4010C94D4010C94D401A2
:100020000C94D4010C94D4010C94D4010C94D401FC
:100030000C94D4010C947F140C94BB140C94D40134
:100040000C944F060C94D4010C94D4010C94D4015C
:100050000C942E180C947E180C94D4010C94D4019A
:100060000C94D4010C94D4010C94C8030C94D401C6
:100070000C9456180C94D4010C94D4010C94D40113
:100080000C94D4010C94D4010C94D4010D021202EE
:1000900017021C02210226022B0208027A04130412
:1000A0001304130413041304130413048404130427
:1000B0001304130413041304130413048404130417
:1000C0001304130413041304130413048C041304FF
:1000D000130413041304130413041304A0041304DB
:1000E0001304130413041304130413048C041304DF
:1000F0001304130413041304130413044204130419
:100100001304130413041304130413044F041304FB
:100110001304130413041304130413043B041304FF
:10012000130413041304130413041304CD0413045D
:100130001304130413041304130413042F041304EB
:1001400013041304130413041304130458041304B2
:100150001304130413041304130413047104130489
:100160001304130413041304130413047104130479
:100170001304130413041304130413047104130469
:100180001304130413041304130413047104130459
:100190001304130413041304130413042604130494
:1001A0001304130413041304130413042B0413047F
:1001B0001304130413041304130413042604130474
:1001C0001304130413041304130413042B0413045F
:1001D000130413041304130413041304AB041304CF
:1001E000130413041304130413041304E903130482
:1001F000130413041304130413041304E903130472
:10020000130413041304130413041304FE0313044C
:10021000130413041304130413041304C704130472
:10022000130413041304130413041304C704084A27
:10023000D73B3BCE016E84BCBFFDC12F3D6C7431FA
:100240009ABD56833DDA3D00C77F11BED9E4BB4C51
:100250003E916BAAAABE000000803F006E616E0056
:10026000696E660000407A10F35A00A0724E1809B9
:100270000010A5D4E80000E87648170000E40B540D
:10028000020000CA9A3B000000E1F50500008096DC
:100290009800000040420F000000A086010000000E
:1002A000102700000000E8030000000064000000C8
:1002B00000000A00000000000100000000002C7691
:1002C000D888DC674F0823DFC1DFAE59E1B1B796AC
:1002D000E5E3E453C63AE651997696E8E6C2842609
:1002E000EB898C9B62ED407C6FFCEFBC9C9F40F2E5
:1002F000BAA56FA5F490055A2AF75C936B6CF96761
:100300006DC11BFCE0E40D47FEF520E6B500D0ED25
:10031000902E0300943577050080841E080000208D
:100320004E0A000000C80C333333330F986E12832B
:100330001141EF8D2114893BE65516CFFEE6DB18FF
:10034000D1844B381BF77C1D901DA4BBE4242032C4
:1003500084725E228100C9F124ECA1E53D2763642B
:10036000696E6F70737578585B0011241FBECFEFF4
:10037000D0E4DEBFCDBF11E0A0E0B1E0EEE3F8E5F0
:1003800000E00BBF02C007900D92A437B107D9F768
:1003900026E0A4E7B1E001C01D92A131B207E1F768
:1003A0000E948A220C94F0220C94000084B18F6089
:1003B00084B985B1807F85B90895E09174018E2F4D
:1003C000EE0F990BAA0BBB0B8830910580F0289893
:1003D00029982A982B9880910001813089F080918A
:1003E0007401815087FD08C0809374010895FC0159
:1003F000EA5BFF4F0C94B82B87E08093740108955B
:10040000809174018F5F88307CF31092740108959D
:10041000289A29982A982B9ADECF289829982A98E2
:100420002B9AD9CF289829982A9A2B9AD4CF2898F2
:1004300029982A9A2B98CFCF2898299A2A9A2B98CC
:10044000CACF2898299A2A982B98C5CF289A299AF2
:100450002A982B98C0CF289A29982A982B98BBCFF6
:1004600080917401813061F124F1823091F0833008
:1004700061F5289A29982A9A2B9880910001813059
:1004800081F080917401815087FD83E08093740135
:100490000895289A29982A982B9A809100018130F2
:1004A00081F7809174018F5F843084F3109274011E
:1004B000089581110AC02898299A2A9A2B98DDCF8D
:1004C0002898299A2A982B9AD8CF289829982A9838
:1004D0002B98D3CF289829982A982B9808959C0177
:1004E00080910001813061F090917401915097FDED
:1004F00003C09093740108952150209374010895CE
:10050000809174018F5F482F082E000C550B421705
:1005100053071CF01092740108958093740108959C
:100520001092E20181E08093E0011092DF0187B137
:100530008C7F87B988B1836088B9E9EBF0E080816E
:100540008E7F808380818D7F808388E48093B80054
:1005500085E48093BC000895ECEBF0E080818A7B19
:10056000808388B18C7F88B90895880F8093BA0002
:1005700008959B01AC0160E074E284EF90E00E947A
:10058000962BDA01C9014097A109B109B695A79543
:10059000979587958093B80008954132D8F590914A
:1005A000E2019111FCCF91E09093E2012093E001F0
:1005B0002FEF209375011092BA01240F2093B901F7
:1005C0009093E1019091E101880F892B8093E101E3
:1005D0008091DF01813001F185EE8093BC00909124
:1005E000E2019130E1F38091BA01841710F4409157
:1005F000BA01442379F0EBEBF1E0DB012FEF240F9C
:1006000030E024543E4F91919D93E217F307D9F7C0
:10061000842F089580E008951092DF018091E10118
:100620008093BB008091BC0083FDF8CF85EC809364
:10063000BC00D5CF0F93413208F045C03091E201A4
:100640003111FCCF92E09093E2010093E0019FEF23
:10065000909375011092BA014093B901442371F04F
:10066000FB01ABEBB1E0415050E04F5F5F4F460FF5
:10067000571F91919D93E417F507D9F71092E10167
:100680009091E101880F892B8093E1018091DF0136
:10069000813009F185EE8093BC00222321F0809106
:1006A000E2018230E1F3809175018F3F49F0809142
:1006B0007501803261F0809175018033D1F034E0B2
:1006C000832F0F91089531E0832F0F91089532E029
:1006D000832F0F9108951092DF018091E1018093A3
:1006E000BB008091BC0083FDF8CF85EC8093BC00FB
:1006F000D4CF33E0E5CF40919701262F30E0240F8F
:10070000311D2132310534F42091E201243021F0F1
:1007100082E0089581E00895662379F0DC0180E0AD
:1007200090E0309197012D91FC01E756FE4FE30FC9
:10073000F11D208301968617A0F380919701680F21
:100740006093970180E008959093DC018093DB0132
:1007500008959093DE018093DD010895811104C016
:1007600085E88093BC00089585EC8093BC000895D3
:1007700085ED8093BC008091BC0084FDFCCF10927D
:10078000E201089585EC8093BC001092E201089587
:100790001F920F920FB60F9211240BB60F922F9348
:1007A0003F934F935F936F937F938F939F93AF93F9
:1007B000BF93EF93FF938091B900E82FE87F8E2FCE
:1007C00090E0893C910578F5FC01E25BFF4F0C94C9
:1007D000B82B84E08093E201109298011092970167
:1007E000E091DD01F091DE01099580919701811181
:1007F00005C081E08093970110929901E0919801E2
:1008000081E08E0F80939801F0E0E756FE4F8081E3
:100810008093BB0090919801809197019817D8F42C
:1008200085EC8093BC00FF91EF91BF91AF919F91B8
:100830008F917F916F915F914F913F912F910F9089
:100840000BBE0F900FBE0F901F90189580917601F0
:10085000803208F4AAC085E88093BC00E4CFE09120
:10086000BA0181E08E0F8093BA018091BB00F0E065
:10087000E554FE4F80839091BA018091B901981799
:1008800050F7CECF80E38093750185ED8093BC0057
:100890008091BC0084FDFCCF1092E201C4CF88E3BC
:1008A0008093750185EC8093BC001092E201BBCF70
:1008B000E091BA0181E08E0F8093BA018091BB0074
:1008C000F0E0E554FE4F80838091E001882309F435
:1008D0007CC085ED8093BC008091BC0084FDFCCF82
:1008E000DBCF83E08093E2011092760185EC809368
:1008F000BC0099CF1092750185ED8093BC0080916A
:10090000BC0084FDFCCFC8CF8091E1018093BB0087
:1009100085EC8093BC0087CF9091BA018091B9019A
:10092000981708F45BC08091E001882309F44DC05A
:1009300085ED8093BC008091BC0084FDFCCFACCFE2
:1009400080E28093750185ED8093BC008091BC00AE
:1009500084FDFCCFA1CF85EC8093BC001092E20116
:1009600080917601803230F4E0917601F0E0E95830
:10097000FE4F10826091760170E0E091DB01F09112
:10098000DC0187E791E00995109276014CCF85EC68
:100990008093BC001092E20146CF85ED8093BC00AD
:1009A0008091BC0084FDFCCF77CFE091760181E09F
:1009B0008E0F809376018091BB00F0E0E958FE4FE6
:1009C000808385EC8093BC002ECF81E08093DF0193
:1009D00084EA8093BC001092E20125CFE091BA0135
:1009E00081E08E0F8093BA01F0E0E554FE4F8081E4
:1009F0008093BB0085EC8093BC0015CFFF920F93D2
:100A00001F93CF93DF93C82FD62F042FF22E132FCF
:100A10000E94F30B8D2F0E94230C0E94100C41E0CA
:100A2000602F8C2F0E94E50B002371F0CF2DD12F6A
:100A3000015010E00F5F1F4F0C0F1D1F0E94A70CED
:100A40008993C017D107D1F780E0DF91CF911F9133
:100A50000F91FF9008950F931F93CF93DF93C82FAB
:100A6000D62F8A010E94F30B8D2F0E94230C0E9427
:100A7000100C41E061E08C2F0E94E50B0E94A70C56
:100A8000F801808381E0DF91CF911F910F9108954C
:100A90000F931F93CF93DF93182F062FEA010E9425
:100AA000F30B802F0E94230C0E94100C41E062E0A7
:100AB000812F0E94E50B0E94A70C182F8883998331
:100AC0000E94A70C20E030E0312F820F931F998302
:100AD000888381E0DF91CF911F910F910895FF925C
:100AE0000F931F93CF93DF93411106C0DF91CF91F6
:100AF0001F910F91FF900895132FF22E042FC62FF0
:100B00000E94F30B8C2F0E94230CCF2DD12F01506C
:100B100010E00F5F1F4F0C0F1D1F89910E94230CC7
:100B2000C017D107D1F7DF91CF911F910F91FF909F
:100B30000C94100CCF93DF93D62FC42F0E94F30B8D
:100B40008D2F0E94230C8C2F0E94230CDF91CF91BC
:100B50000C94100C1F93CF93DF93162FEA010E9481
:100B6000F30B812F0E94230C8D2F0E94230C8C2FBE
:100B70000E94230CDF91CF911F910C94100C81B136
:100B8000806C81B982B18F7382B90898109AE8E6B7
:100B9000F0E0808181608083EBE6F0E0808181601D
:100BA000808308958FEF87B918B881B1866081B9C5
:100BB00082B1897F82B908958091010190910201EB
:100BC00085369105ECF497FD1DC082B1897F82B90D
:100BD0008091010190910201880F991F880F991F40
:100BE000880F991F64E670E00E94822B6093E301F6
:100BF00081E090E001C0880F6A95EAF788B908950E
:100C0000129A0895119A0895809100018130E9F0B7
:100C10002FEF3FEF8091010190910201820F931F0E
:100C2000863691053CF085E690E090930201809332
:100C3000010108958F3F2FEF920714F48FEF9FEF7C
:100C40009093020180930101089521E030E0E2CF0A
:100C50008CE787BD14BC16BC84B5826084BD85B5A5
:100C6000846085BD82E080936E0089E291E00C94FF
:100C7000D2171F920F920FB60F9211248F939F934A
:100C8000009906C09091000181E0892780930001BE
:100C90009F918F910F900FBE0F901F9018951F92EC
:100CA0000F920FB60F9211240BB60F922F933F9312
:100CB0004F935F936F937F938F939F93AF93BF9364
:100CC000EF93FF938091E5018F5F8093E501809121
:100CD000E5018A3099F0FF91EF91BF91AF919F911B
:100CE0008F917F916F915F914F913F912F910F90D5
:100CF0000BBE0F900FBE0F901F9018951092E5013C
:100D00000E94300280910001813001F12FEF3FEF0E
:100D10008091010190910201820F931F8636910507
:100D200054F085E690E0909302018093010181E008
:100D30008093E401D0CF8F3F2FEF920714F48FEF11
:100D40009FEF9093020180930101F1CF21E030E009
:100D5000DFCFF89485B7806885BF85B7806885BF89
:100D600014BE81B1806C81B982B18F7382B9089849
:100D7000109AE8E6F0E0808181608083EBE6F0E0A5
:100D8000808181608083109200010E94D6018CE7EF
:100D900087BD14BC16BC84B5826084BD85B58460F3
:100DA00085BD82E080936E0089E291E00E94D217B7
:100DB00060E072EC81E090E00E9401168FEF87B94D
:100DC00018B881B1866081B982B1897F82B983E424
:100DD00091E00E94D217789408950F931F93CF93B8
:100DE000DF93CDB7DEB7C456D1090FB6F894DEBF96
:100DF0000FBECDBF8091E4018823F9F01092E40189
:100E0000809102018F93809101018F938091E30182
:100E10001F928F9381E591E09F938F938E010F5FD7
:100E20001F4F1F930F930E944F24C8010E94D21797
:100E30000FB6F894DEBF0FBECDBF80910101909137
:100E400002018536910544F597FD28C082B1897F5E
:100E500082B98091010190910201880F991F880F3A
:100E6000991F880F991F64E670E00E94822B60939F
:100E7000E30181E090E001C0880F6A95EAF788B944
:100E8000CC59DF4F0FB6F894DEBF0FBECDBFDF9158
:100E9000CF911F910F910895129AF2CF119AF0CF2E
:100EA0006F927F928F929F92AF92BF92CF92DF927A
:100EB000EF92FF920F931F93CF93DF9300D000D058
:100EC000CDB7DEB78B015A0119821A821B821C82B0
:100ED0006FE571E00E94D623009709F44FC021E02E
:100EE0008D35920709F44AC0780101E010E0FE0157
:100EF00031964F0120E7C22E21E0D22E0EC06FE5C1
:100F000071E080E090E00E94D623009719F10F5F16
:100F10001F4FF1E08D359F07E9F09F928F92DF928E
:100F2000CF929F938F930E947E2489819A81AB8177
:100F3000BC81F70181939193A193B1937F01380113
:100F40000F900F900F900F900F900F900A151B05A8
:100F5000B1F63501C3010F900F900F900F90DF9104
:100F6000CF911F910F91FF90EF90DF90CF90BF90A6
:100F7000AF909F908F907F906F900895612C712C0F
:100F8000E9CFCF93DF93EC010E948A17811103C050
:100F9000DF91CF9108950E949C17E091E601AE2F5A
:100FA000B0E0A858BC4F8C93EF5FE093E6018A3025
:100FB00089F0E33669F781E08093E7011092DB0363
:100FC000EBEDF3E010821092E60110927803DF91CE
:100FD000CF9108958091E701882339F01092E701BD
:100FE000F0E0E858FC4F1082EDCFF0E0E858FC4FFD
:100FF000108288E793E0FE010995E091E601F0E0B8
:10100000E858FC4FDFCF8F929F92AF92BF92CF9262
:10101000DF92EF92FF920F931F93CF93DF9300D055
:1010200000D0CDB7DEB77C010E948A17811111C0B4
:101030000F900F900F900F90DF91CF911F910F9114
:10104000FF90EF90DF90CF90BF90AF909F908F90E8
:1010500008950E949C17E091E601AE2FB0E0A858D9
:10106000BC4F8C93EF5FE093E6018A3079F0E33672
:10107000F9F681E08093E7011092DB03EBEDF3E0FA
:1010800010821092E60110927803D2CF8091E7018E
:101090008111B8C0F0E0E858FC4F108219821A8222
:1010A0001B821C826FE571E088E793E00E94D623E3
:1010B000009709F49BC021E08D35920709F496C092
:1010C0009E012F5F3F4F69013F932F9320E731E04F
:1010D0003F932F939F938F930E947E2489819A81BF
:1010E000AB81BC818093E8019093E901A093EA0170
:1010F000B093EB018CEE882E81E0982E0F900F902C
:101100000F900F900F900F9001E010E090E7A92E44
:1011100091E0B92E6FE571E080E090E00E94D62367
:10112000009709F458C031E08D35930709F453C096
:10113000DF92CF92BF92AF929F938F930E947E24B3
:1011400089819A81AB81BC81F40181939193A193B0
:10115000B1934F010F5F1F4F0F900F900F900F90A3
:101160000F900F9004361105A9F68091E801909137
:10117000E901A3E6B0E0E8EEF1E020E030E040E095
:1011800050E0BA0181909190A190B190480D591D05
:101190006A1D7B1D2F5F3F4F2A173B079CF3AA0F49
:1011A000BB1FAA0FBB1FA851BE4F8D909D90AD9045
:1011B000BC9084169506A606B70611F00FEF1FEF38
:1011C000A80168EE71E0F7010995E091E601F0E011
:1011D000E858FC4F55CF8091E8019091E901D80182
:1011E000119749F640E050E0BA01D9CF8091E8016B
:1011F0009091E901AFEFBFEF00E010E040E050E078
:10120000BA01CDCF1092E701F0E0E858FC4F108210
:1012100037CF88E48093ED0389E08093EC0310924C
:10122000EB031092EA031092E903E4EEF3E010827C
:101230001182128213820895CF93DF9300D0CDB72D
:10124000DEB7843038F080E090E00F900F90DF91AF
:10125000CF9108954091E9035091EA038230C1F1A2
:10126000833081F1813089F143685164506861E0D5
:101270008091ED030E94AA058091EC03882361F020
:1012800080E0EFE9FFE03197F1F700C000008F5FE9
:101290009091EC038917A8F3AE014F5F5F4F60E0B8
:1012A0008091ED030E94480589819A810090EB03AB
:1012B00002C0969587950A94E2F70F900F90DF9100
:1012C000CF91089543685167D1CF43685165CECF20
:1012D00043685166CBCF8430A0F44091E90350912C
:1012E000EA03823081F0833011F18130B1F043683C
:1012F0005164506861E08091ED030E94AA0581E08D
:10130000089580E0089543685166506861E08091D7
:10131000ED030E94AA0581E0089543685165506875
:1013200061E08091ED030E94AA0581E00895436881
:101330005167506861E08091ED030E94AA0581E049
:101340000895CF93DF9300D0CDB7DEB7AE014F5FE6
:101350005F4F61E08091ED030E9448058A81881FFC
:101360008827881F0F900F90DF91CF9108950F93DA
:101370001F93CF93DF9300D0CDB7DEB78C01AE01C2
:101380004F5F5F4F61E08091ED030E9448058981C6
:101390009A8197FD38C08091E803E82FF0E0EC5186
:1013A000FC4F9081992369F091509083992349F0E3
:1013B00010E0812F0F900F90DF91CF911F910F912F
:1013C00008959AE09083843098F710E04091E90303
:1013D0005091EA03823009F473C0833009F46DC080
:1013E000813009F467C043685164506861E08091BE
:1013F000ED030E94AA05812F0F900F90DF91CF91EE
:101400001F910F9108954091E80350E0440F551F3C
:1014100044525C4F60E08091ED030E94480580914A
:10142000E803E82FF0E0EE0FFF1FE452FC4F2081AD
:1014300031810090EB0302C0369527950A94E2F7BC
:10144000318320838F5F843078F11092E80310920B
:10145000E4038091DC039091DD03F80191838083A4
:101460001092E5038091DE039091DF0393838283E2
:101470001092E6038091E0039091E10395838483C9
:101480001092E7038091E2039091E30397838683B0
:10149000E0E0F0E080E011E0EC51FC4F9081911130
:1014A00088CF9AE0908392CF8093E803E82FF0E012
:1014B00010E0F2CF4368516598CF4368516795CFEC
:1014C0004368516692CFEF92FF920F931F93CF9391
:1014D000DF9300D0CDB7DEB77C01162FAE014F5F92
:1014E0005F4F61E08091ED030E94480589819A81F8
:1014F00097FD23C000E0143050F0802F0F900F9024
:10150000DF91CF911F910F91FF90EF90089540913F
:10151000E9035091EA03123039F1133059F01130D8
:1015200001F143685164506861E08091ED030E94CD
:10153000AA05E3CF43685167F6CFA70160E0809129
:10154000ED030E944805F701808191810090EB0333
:1015500002C0969587950A94E2F79183808301E013
:10156000CACF43685165DFCF43685166DCCFBC0109
:1015700080E090E00E94832626EA3BE944EC50E4B8
:101580000E94642720E030E040E058E30E94642796
:1015900008959C01A0E0B8E10E94C12BDC01CB01C1
:1015A0002FE0B695A795979587952A95D1F7089539
:1015B000CF93DF93DC01E091EE03F091EF033097DE
:1015C00029F190911704809116049817F8F01616D7
:1015D0001706A4F440E050E090E020E030E0ED0198
:1015E000C20FD31F2881EA01C85EDB4F28839F5FAB
:1015F000292F30E0A901261737078CF31092170422
:1016000060931604CB01DF91CF910994DF91CF91C4
:101610000895E091F003F091F103309729F01092D2
:10162000F4031092F3030994089510921704109292
:1016300016041092F4031092F3030E94900289E0C2
:101640009BE00E94A90388ED9AE00C94A403CF9339
:10165000C82F10921704109216041092F4031092DF
:10166000F3030E94900289E09BE00E94A90388EDA9
:101670009AE00E94A4038C2FCF910C94B5020C9495
:10168000AC020C94B9028F929F92AF92BF92EF92EC
:10169000FF920F931F93CF93DF931F92CDB7DEB7C7
:1016A000F82E162F49015A01002309F459C081E090
:1016B0008093F203F0921504043008F06BC08FEFB2
:1016C000800F982F990F990F990FB501A40104C0AD
:1016D00076956795579547959A95D2F749834093A4
:1016E000F50391E09093F4039093F3030250882361
:1016F00039F1802F880F880F880FA501940104C04D
:1017000056954795379527958A95D2F7DA01C901FD
:1017100029832091F203222309F451C08093F60318
:1017200082E08093F4038093F303002349F08982DD
:101730008091F2038823E9F18091F303803260F114
:1017400000E021E04091F30365EF73E08091150420
:101750000E941A031092F4031092F3031092F20302
:10176000412F113208F040E22E2D68E174E08F2DF8
:101770000E94CD0210921704809316040F90DF91FF
:10178000CF911F910F91FF90EF90BF90AF909F90DE
:101790008F90089503E093CF8091F403E82FF0E059
:1017A000EB50FC4F80828F5F8093F4038093F303B0
:1017B000C7CF61E0CE0101960E947B03C1CF61E0FB
:1017C000CE0101960E947B03B0CF242F462F6132B9
:1017D00008F040E268E174E00E94CD021092170424
:1017E00080931604089591E09093F203809315047A
:1017F0001092F4031092F30308950F93082F21E041
:101800004091F30365EF73E0809115040E941A0381
:101810001092F4031092F3031092F2030F910895C3
:101820000F9301E021E04091F30365EF73E08091B5
:1018300015040E941A031092F4031092F3031092FD
:10184000F2030F910895CF93DF931F92CDB7DEB7C8
:1018500089838091F2038823E9F08091F303803239
:1018600098F48091F403E82FF0E0EB50FC4F99815D
:1018700090838F5F8093F4038093F30381E090E083
:101880000F90DF91CF91089580E090E00F90DF916D
:10189000CF91089561E0CE0101960E947B0381E023
:1018A00090E00F90DF91CF910895CF92DF92EF9269
:1018B000FF920F931F93CF93DF931F92CDB7DEB7A5
:1018C0007B012091F2032223B9F16115710549F1E1
:1018D0008C016C01C60ED71E16C09091F303903296
:1018E00068F49091F403E92FF0E0EB50FC4F808313
:1018F00081E0890F8093F4038093F3030C151D0599
:1019000081F02091F203F80181918F0189832111E7
:10191000E4CF61E0CE0101960E947B030C151D050A
:1019200081F7C7010F90DF91CF911F910F91FF9029
:10193000EF90DF90CF9008950E947B03F2CF8091CB
:10194000160490E020911704821B9109089590914C
:10195000170480911604981758F4E92FF0E0E85E18
:10196000FB4F208130E09F5F90931704C9010895D9
:101970002FEF3FEFFBCFE091170480911604E8179B
:1019800030F4F0E0E85EFB4F808190E008958FEF47
:101990009FEF089508959093EF038093EE030895C9
:1019A0009093F1038093F00308950F931F93CF93C7
:1019B000DF93EB01142F022FAB01682F88E60E9402
:1019C0002B05888190E002C0959587950A95E2F7EE
:1019D00021E030E001C0220F1A95EAF7215082235E
:1019E0008883DF91CF911F910F910895EF92FF921D
:1019F0000F931F93CF93DF931F92CDB7DEB7182FAE
:101A0000F62EE42E022F1982AE014F5F5F4F682F32
:101A100088E60E942B0581E090E001C0880FEA94DF
:101A2000EAF78150498150E0002E02C05595479554
:101A30000A94E2F74823282F002E01C0220F0A94AF
:101A4000EAF7209542238F2101C0880F0A95EAF713
:101A5000482B4983612F88E60E949A050F90DF91F9
:101A6000CF911F910F91FF90EF900895CF93DF9347
:101A70001F92CDB7DEB71982AE014F5F5F4F69E1AC
:101A800088E60E942B0589810F90DF91CF91089500
:101A9000482F69E188E60C949A05CF93DF931F9253
:101AA000CDB7DEB71982AE014F5F5F4F6AE188E6BE
:101AB0000E942B05898187700F90DF91CF91089547
:101AC0001F93CF93DF931F92CDB7DEB7182F1982E4
:101AD000AE014F5F5F4F6AE188E60E942B05412F00
:101AE000477049836AE188E60E949A050F90DF916A
:101AF000CF911F910895CF93DF931F92CDB7DEB79B
:101B00001982AE014F5F5F4F6BE188E60E942B05A3
:101B1000898190E095958795959587959595879579
:101B200083700F90DF91CF9108951F93CF93DF9330
:101B30001F92CDB7DEB7182F1982AE014F5F5F4FEE
:101B40006BE188E60E942B05498150E05595479549
:101B5000559547955595479543701370110F110F83
:101B6000110F412B49836BE188E60E949A050F9083
:101B7000DF91CF911F910895CF93DF931F92CDB73F
:101B8000DEB71982AE014F5F5F4F6BE188E60E94BE
:101B90002B05898190E095958795959587959595E5
:101BA000879583700F90DF91CF9108951F93CF9306
:101BB000DF931F92CDB7DEB7182F1982AE014F5FAA
:101BC0005F4F6CE188E60E942B05498150E05595F6
:101BD0004795559547955595479543701370110F47
:101BE000110F110F412B49836CE188E60E949A0581
:101BF0000F90DF91CF911F9108950F931F93CF9373
:101C0000DF9300D01F92CDB7DEB78C0140E06AE0D1
:101C10008CE00E949A058FE39CE90197F1F700C0E0
:101C200000004FE06AE08CE00E949A05EFE3FCE9D7
:101C30003197F1F700C000009E012F5F3F4F43E056
:101C400060E18CE00E94FE04698170E060587109D7
:101C5000072E000C880B990B0E94852620E030E0AF
:101C600040E85BE30E94642720E030E040E85FE367
:101C70000E94FF24F80160837183828393836A81C9
:101C800070E060587109072E000C880B990B0E94B8
:101C9000852620E030E040E85BE30E94642720E0F6
:101CA00030E040E85FE30E94FF24F801648375831D
:101CB000868397836B8170E060587109072E000C52
:101CC000880B990B0E94852620E030E040E85BE31A
:101CD0000E94642720E030E040E85FE30E94FF2498
:101CE000F801608771878287938740E06AE08CE023
:101CF0000E949A058FE39CE90197F1F700C000006C
:101D000080910401E0E18E9FC00111244091030104
:101D1000482B6AE08CE00E949A058FE39CE90197CA
:101D2000F1F700C000000F900F900F90DF91CF915E
:101D30001F910F910895CF93DF931F92CDB7DEB718
:101D400040E069E188E60E949A051982AE014F5F82
:101D50005F4F6AE188E60E942B05198240E06AE144
:101D600088E60E949A051982AE014F5F5F4F6BE1D2
:101D700088E60E942B05498150E055954795559579
:101D80004795559547954370486049836BE188E6D0
:101D90000E949A051982AE014F5F5F4F6CE188E6A1
:101DA0000E942B05498150E05595479555954795DB
:101DB00055954795437049836CE188E60E949A05E2
:101DC0001982AE014F5F5F4F69E188E60E942B05E3
:101DD0001982AE014F5F5F4F6AE188E60E942B05D2
:101DE0001982AE014F5F5F4F6BE188E60E942B05C1
:101DF000898190E095958795959587959595879597
:101E0000837080936E041982AE014F5F5F4F6BE168
:101E100088E60E942B05898190E095958795959598
:101E2000879595958795837080936F0440E06BE666
:101E300088E60E949A0540E16BE188E60E949A05D7
:101E400040E16CE188E60E949A0542E267E388E699
:101E50000E949A0541E068E388E60E949A0541E005
:101E60006BE688E60E949A050F90DF91CF91089566
:101E70001F93CF93DF9300D000D0CDB7DEB71C8285
:101E8000AE014C5F5F4F65E788E60E942B058C81B1
:101E9000813751F010E0812F0F900F900F900F902D
:101EA000DF91CF911F9108950E949B0E09C02FEFE3
:101EB0008FE097E2215080409040E1F700C00000A1
:101EC00042E267E388E60E949A0541E068E388E61B
:101ED0000E949A05AE014D5F5F4F67E388E60E945E
:101EE0002B05AE014E5F5F4F64E288E60E942B0532
:101EF000AE014F5F5F4F68E388E60E942B051C82AE
:101F0000AE014C5F5F4F60E088E60E942B058B813D
:101F1000823269F68A818111CACF19812FEF8FE051
:101F200097E2215080409040E1F700C0000011305E
:101F300039F6AE014C5F5F4F60E08CE00E942B05EC
:101F40008C81883409F0A6CF2FEF81EE94E02150E8
:101F500080409040E1F700C0000082E694E00E94DB
:101F6000FD0DAE014C5F5F4F65E788E60E942B05D3
:101F700092CF40E06BE688E60C949A0541E06BE670
:101F800088E60C949A052F923F924F925F926F923F
:101F90007F928F929F92AF92BF92CF92DF92EF92F9
:101FA000FF920F931F93CF93DF93CDB7DEB72E979A
:101FB0000FB6F894DEBF0FBECDBF9E012F5F3F4F1F
:101FC0004EE06BE388E60E94FE0489809A809824A4
:101FD000892498249092810480928004AB80BC80F4
:101FE000BA24AB24BA24B0927F04A0927E04CD80A0
:101FF000DE80DC24CD24DC24D0927D04C0927C04DD
:102000006F81788576276727762770937B046093A6
:102010007A04E984FA84FE24EF24FE24F092790401
:10202000E09278040B851C85102701271027109358
:102030007704009376042D843E84322423243224B2
:102040003092750420927404072E000C880B990BB3
:102050000E94852620E030E04AEA53E40E94E2250F
:1020600028EB3EE142E152E40E94FF2460937004B9
:1020700070937104809372049093730480916F0441
:10208000833009F4ACC0823009F49BC0813009F080
:10209000B6C0412C512C612C66E4762EB401990C0B
:1020A000880B990B0E948526A30192010E94E225CC
:1020B0006093960470939704809398049093990486
:1020C000B501BB0C880B990B0E948526A3019201D8
:1020D0000E94E22560939204709393048093940489
:1020E00090939504B601DD0C880B990B0E94852610
:1020F000A30192010E94E22560938E0470938F04E5
:10210000809390049093910480916E04882309F445
:102110005FC0813009F069C0812C912C23E8A22E88
:1021200022E4B22EB701FF0C880B990B0E94852682
:10213000A50194010E94E22560938A0470938B04A8
:1021400080938C0490938D04B801110F880B990B28
:102150000E948526A50194010E94E22560938604D1
:10216000709387048093880490938904B101330CA1
:10217000880B990B0E948526A50194010E94E225F7
:102180006093820470938304809384049093850405
:102190002E960FB6F894DEBF0FBECDBFDF91CF9164
:1021A0001F910F91FF90EF90DF90CF90BF90AF9075
:1021B0009F908F907F906F905F904F903F902F9067
:1021C0000895412C512C70E8672E75E4772E66CF68
:1021D000812C912C33E0A32E33E4B32EA3CF412CDA
:1021E000512C612CE5E47E2E59CF8230C1F493E36B
:1021F000892E982C93E0A92E92E4B92E93CF8111C9
:1022000007C0412C512C50E8652E56E4752E46CF60
:10221000412C512CF0E86F2EFFE37F2E3FCF83300F
:1022200041F483E3882E982C83E8A82E81E4B82E0D
:1022300079CF812C912C40E8A42E4FE3B42E72CF9D
:10224000CF93DF93CDB7DEB728970FB6F894DEBFF4
:102250000FBECDBF1886AE01485F5F4F62E08CE0D5
:102260000E942B05888580FD09C028960FB6F8943A
:10227000DEBF0FBECDBFDF91CF9108959E012F5FCE
:102280003F4F47E063E08CE00E94FE048F8183FDB6
:10229000ECCF89819A8190933D0480933C048B819B
:1022A0009C8190933B0480933A048D819E8190930E
:1022B000390480933804D9CF8F929F92AF92BF9206
:1022C000EF92FF920F931F93809096049090970443
:1022D000A0909804B0909904FC0180829182A2821F
:1022E000B3828091920490919304A0919404B09150
:1022F0009504FB0180839183A283B38380918E0434
:1023000090918F04A0919004B0919104FA01808380
:102310009183A283B38380918A0490918B04A091CE
:102320008C04B0918D04F90180839183A283B383DF
:102330008091860490918704A0918804B0918904CB
:10234000F80180839183A283B3838091820490916A
:102350008304A0918404B0918504F7018083918364
:10236000A283B38381E01F910F91FF90EF90BF9004
:10237000AF909F908F900895EF92FF920F931F93CD
:10238000CF93DF937C018B01EA0160913C04709153
:102390003D04072E000C880B990B0E948526F7013F
:1023A000608371838283938360913A0470913B04CC
:1023B000072E000C880B990B0E948526F80160837C
:1023C0007183828393836091380470913904072E5E
:1023D000000C880B990B0E948526688379838A8379
:1023E0009B83DF91CF911F910F91FF90EF90089504
:1023F00094B1906B94B9269890E59CBD882319F010
:102400008CB580628CBD613089F168F16230A9F0D1
:10241000633019F48CB58C608CBD403199F041313A
:10242000A8F4443091F1483049F14230D9F48DB5E7
:1024300081608DBD8CB58CBD08958CB588608CBDD8
:10244000403169F78CB581608CBD0895403439F016
:10245000403881F0403231F48DB581608DBD8CB54E
:1024600082608CBD08958CB58CBDD7CF8CB584604F
:102470008CBDD3CF8CB583608CBD08958DB5816044
:102480008DBD8CB581608CBD08958CB581608CBD8F
:102490008CB58CBD08958EBD0DB407FEFDCF8EB5F5
:1024A0000895662389F0FC016150262F30E02F5FEC
:1024B0003F4F280F391F81918EBD0DB407FEFDCF10
:1024C0008EB5E217F307B9F70895662391F0FC0182
:1024D0006150262F30E02F5F3F4F280F391F9FEFAD
:1024E0009EBD0DB407FEFDCF8EB58193E217F307B5
:1024F000B9F708950F931F93CF93DF93CDB7DEB74E
:102500002A970FB6F894DEBF0FBECDBF9F938F936F
:1025100081E691E09F938F938E010F5F1F4F1F9372
:102520000F930E944F24C8010E94D2170F900F9062
:102530000F900F900F900F902A960FB6F894DEBF71
:102540000FBECDBFDF91CF911F910F9108950F93D3
:102550001F93CF93DF93CDB7DEB72A970FB6F894CA
:10256000DEBF0FBECDBF9F938F937F936F9384E6A3
:1025700091E09F938F938E010F5F1F4F1F930F93D7
:102580000E944F24C8010E94D2170FB6F894DEBFF4
:102590000FBECDBF2A960FB6F894DEBF0FBECDBFDB
:1025A000DF91CF911F910F910895EF92FF920F93BA
:1025B0001F93CF93DF93CDB7DEB72A970FB6F8946A
:1025C000DEBF0FBECDBF7C01211127C07F936F936B
:1025D0005F934F938EE691E09F938F938E010F5FF1
:1025E0001F4F1F930F930E944F240FB6F894DEBF26
:1025F0000FBECDBFC7010E94D217C8010E94D217DB
:102600002A960FB6F894DEBF0FBECDBFDF91CF91F3
:102610001F910F91FF90EF9008957F936F935F93B9
:102620004F9387E691E0D8CFBF92CF92DF92EF929F
:10263000FF920F931F93CF93DF93CDB7DEB76497CD
:102640000FB6F894DEBF0FBECDBF7C01142FD52E80
:10265000C62EB72E8AE390E29A838983B901CE0110
:1026600003960E94DA23FE013196002349F0DF0130
:102670000D900020E9F711978AE090E08D939C93EC
:10268000BF92CF92DF921F93FF93EF938E01055F6E
:102690001F4F1F930F930E944F24C7010E94D21710
:1026A000C8010E94D2170FB6F894DEBF0FBECDBF8F
:1026B00064960FB6F894DEBF0FBECDBFDF91CF9109
:1026C0001F910F91FF90EF90DF90CF90BF900895F2
:1026D000BF92CF92DF92EF92FF920F931F93CF930F
:1026E000DF93CDB7DEB764970FB6F894DEBF0FBEA9
:1026F000CDBF7C01142FD52EC62EB72E8AE390E2D3
:102700009A838983B901CE0103960E94DA23FE01E0
:102710003196002349F0DF010D900020E9F7119771
:102720008AE090E08D939C93BF92CF92DF921F93AB
:10273000FF93EF938E01055F1F4F1F930F930E942E
:102740004F24C7010E94D217C8010E94D2170FB6AA
:10275000F894DEBF0FBECDBF64960FB6F894DEBF0F
:102760000FBECDBFDF91CF911F910F91FF90EF90E2
:10277000DF90CF90BF900895EDE9F4E080ED97E011
:1027800091838083938382839583848397838683D5
:1027900091878087938782879587848797878687A5
:1027A000918B808B938B828B10929C0410929B0454
:1027B00010929A040895109285001092840080E48B
:1027C0009CE9909389008093880088EE93E0909331
:1027D0008B0080938A0010928000E1E8F0E0108284
:1027E00080818860808380818260808386E080939E
:1027F0006F0008959C0190919C049930F8F4E09149
:102800009C04F0E0EE0FFF1FE554FB4F3183208363
:10281000E0919C04F0E0EF54FB4F6083E0919C0456
:10282000F0E0EE0FFF1FE356FB4F11821082809104
:102830009C048F5F80939C0481E0089580E008955C
:10284000880F991F089596958795089590919C04F7
:10285000891750F4E82FF0E0EE0FFF1FE356FB4F0F
:10286000660F771F71836083089590919C04891788
:10287000D0F490E0FC01EE0FFF1FE554FB4F0190F8
:10288000F081E02DDC01AF54BB4F21E030E0C90105
:102890000C9002C0880F991F0A94E2F7662321F07A
:1028A0009081892B808308958095908189238083EE
:1028B000089580919C04882309F180919C048823C9
:1028C00081F0E091BB04F091BC0481E090E00090C5
:1028D000B10402C0880F991F0A94E2F79081892BF6
:1028E000808380919D0490919E0490938B008093AF
:1028F0008A0081E080939B0480939A0408951F923C
:102900000F920FB60F9211240BB60F928F939F93D5
:10291000EF93FF9380919C0481110BC0FF91EF9185
:102920009F918F910F900BBE0F900FBE0F901F9035
:10293000189580919C04882381F0E091BB04F0916C
:10294000BC0481E090E00090B10402C0880F991FA0
:102950000A94E2F79081892B808380919D04909165
:102960009E0490938B0080938A0081E080939B0467
:1029700080939A04D3CF1F920F920FB60F92112417
:102980000BB60F922F933F938F939F93AF93BF9369
:10299000EF93FF9380919A04882309F459C08091A2
:1029A0009B04882341F080919B04815090919C046A
:1029B000891708F46CC090919B0480919C0498172F
:1029C00008F055C0E0919B04F0E0EE0FFF1FE356C6
:1029D000FB4F80819181892BF1F080919B04909134
:1029E0009C048917C0F490E0FC01EE0FFF1FE55432
:1029F000FB4F0190F081E02DDC01AF54BB4F21E093
:102A000030E0C9010C9002C0880F991F0A94E2F7C8
:102A10009081892B8083E0919B04F0E0EE0FFF1FF3
:102A2000E356FB4F208131812115310511F428EE49
:102A300033E08091840090918500820F931F9093E2
:102A40008B0080938A0080919B048F5F80939B040E
:102A5000FF91EF91BF91AF919F918F913F912F91F6
:102A60000F900BBE0F900FBE0F901F901895809186
:102A70009C04882339F080919C04815090919C049F
:102A80008917F8F010929B0410929A04E1CF90E01D
:102A9000FC01EE0FFF1FE554FB4F0190F081E02D8C
:102AA000DC01AF54BB4F21E030E0C9010C9002C003
:102AB000880F991F0A94E2F780959081892380837B
:102AC0007ACF90E0FC01EE0FFF1FE554FB4F019021
:102AD000F081E02DDC01AF54BB4F21E030E0C901B3
:102AE0000C9002C0880F991F0A94E2F7809590819C
:102AF00089238083C7CF4F925F926F927F928F928C
:102B00009F92AF92BF92CF92DF92EF92FF924B01D2
:102B10005C01880C991CAA1CBB1C880C991CAA1C63
:102B2000BB1C880C991CAA1CBB1C880C991CAA1CD9
:102B3000BB1C60E078E689E899E0A50194010E9459
:102B4000962B69017A0181E0C81AD108E108F108E1
:102B500060E074E284EF90E0A50194010E94962B5E
:102B6000C9010197BC01660F771FFC01EE0FFF1F23
:102B7000EE0FFF1FEE0FFF1F6E0F7F1F4B01A12CEB
:102B8000B12CC814D904EA04FB0449F12601370129
:102B9000481859086A087B0853014201665F7F4F55
:102BA0002B01612C712CC414D504E604F70429F11F
:102BB000C418D508E608F708C814D904EA04FB04C9
:102BC00008F4C901FF90EF90DF90CF90BF90AF90D5
:102BD0009F908F907F906F905F904F900895665F69
:102BE0007F4F2B01612C712CC414D504E604F7042B
:102BF00049F3812C912C5401DBCFC12CD12C7601CF
:102C0000DBCF4F925F926F927F928F929F92AF92A3
:102C1000BF92CF92DF92EF92FF924B015C01880C42
:102C2000991CAA1CBB1C880C991CAA1CBB1C880CD8
:102C3000991CAA1CBB1C880C991CAA1CBB1C60E01C
:102C400078E689E899E0A50194010E94962B690134
:102C50007A0181E0C81AD108E108F10860E074E265
:102C600084EF90E0A50194010E94962BF901319721
:102C7000BF01660F771FCF01880F991F880F991F1B
:102C8000880F991F860F971F4C01A12CB12CC814D7
:102C9000D904EA04FB04B1F12601370148185908A8
:102CA0006A087B08530142010A96A0E0B0E0C8160A
:102CB000D906EA06FB0691F1C81AD90AEA0AFB0A04
:102CC000C814D904EA04FB0408F4F90188E18093EC
:102CD000C1008EE08093C200F093C500E093C40071
:102CE0008091C10080688093C100FF90EF90DF90D9
:102CF000CF90BF90AF909F908F907F906F905F909C
:102D00004F9008950A96A0E0B0E0C816D906EA06EA
:102D1000FB06E1F2812C912C5401CECFC12CD12C99
:102D20007601CECF4F925F926F927F928F929F9259
:102D3000AF92BF92CF92DF92EF92FF924B015C0174
:102D4000880C991CAA1CBB1C880C991CAA1CBB1CB7
:102D5000880C991CAA1CBB1C880C991CAA1CBB1CA7
:102D600060E078E689E899E0A50194010E94962B3D
:102D700069017A0181E0C81AD108E108F10860E030
:102D800074E284EF90E0A50194010E94962BF90172
:102D90003197BF01660F771FCF01880F991F880FEA
:102DA000991F880F991F860F971F4C01A12CB12CDA
:102DB000C814D904EA04FB04B1F12601370148180C
:102DC00059086A087B08530142010A96A0E0B0E066
:102DD000C816D906EA06FB0691F1C81AD90AEA0A0A
:102DE000FB0AC814D904EA04FB0408F4F90188E1D9
:102DF0008093C9008EE08093CA00F093CD00E093E9
:102E0000CC008091C90080688093C900FF90EF904A
:102E1000DF90CF90BF90AF909F908F907F906F90FA
:102E20005F904F9008950A96A0E0B0E0C816D906CA
:102E3000EA06FB06E1F2812C912C5401CECFC12C85
:102E4000D12C7601CECF9091C00095FFFCCF80931E
:102E5000C6000895E0915305F0E0E95AFA4F8083E7
:102E600080915305803418F0109253050895809195
:102E700053058F5F8093530508959091C80095FF87
:102E8000FCCF8093CE000895E091CF04F0E0ED52A6
:102E9000FB4F80838091CF04803418F01092CF04D0
:102EA00008958091CF048F5F8093CF040895FB0134
:102EB0002081820F911DDC014C938081803410F0C1
:102EC0001082089580818F5F80830895FB01308197
:102ED000DA012C91321771F02081DC01A20FB11DB3
:102EE0008C919081903410F01082089590819F5FB2
:102EF0009083089580E008958091C00087FFFCCF03
:102F00008091C60008958091C80087FFFCCF809112
:102F1000CE000895209156059091550581E0291322
:102F2000089580E008952091D2049091D10481E029
:102F30002913089580E008959091560580915505D4
:102F4000981799F0E0915605F0E0E956FA4F808124
:102F500090915605903418F010925605089590916E
:102F600056059F5F90935605089580E008959091CF
:102F7000D2048091D104981799F0E091D204F0E046
:102F8000ED5EFA4F80819091D204903418F0109247
:102F9000D20408959091D2049F5F9093D204089533
:102FA00080E00895FC012081222351F03196909118
:102FB000C00095FFFCCF2093C60021912111F7CFCF
:102FC0000895FC012081222351F031969091C80090
:102FD00095FFFCCF2093CE0021912111F7CF0895CA
:102FE000DC019D91992379F0E0915305F0E0E95AD5
:102FF000FA4F908380915305803458F01092530516
:103000009D919111F1CF8091C10080628093C100A8
:103010000895809153058F5F80935305E2CFDC01C3
:103020009D91992379F0E091CF04F0E0ED52FB4FB0
:1030300090838091CF04803458F01092CF049D91FA
:103040009111F1CF8091C90080628093C9000895E9
:103050008091CF048F5F8093CF04E2CF1F920F92B5
:103060000FB60F9211240BB60F928F93EF93FF932D
:103070008091C600E0915505F0E0E956FA4F808353
:1030800080915505803460F010925505FF91EF91C5
:103090008F910F900BBE0F900FBE0F901F90189541
:1030A000809155058F5F80935505F0CF1F920F9249
:1030B0000FB60F9211240BB60F928F93EF93FF93DD
:1030C0008091CE00E091D104F0E0ED5EFA4F808374
:1030D0008091D104803460F01092D104FF91EF917F
:1030E0008F910F900BBE0F900FBE0F901F901895F1
:1030F0008091D1048F5F8093D104F0CF1F920F9203
:103100000FB60F9211240BB60F928F939F93EF93EC
:10311000FF939091540580915305981711F1E09118
:103120005405F0E0E95AFA4F8081909154059034AB
:1031300088F0109254058823A1F08093C600FF9177
:10314000EF919F918F910F900BBE0F900FBE0F903C
:103150001F901895909154059F5F9093540581118D
:10316000ECCF8091C1008F7D8093C100E8CF0F9399
:103170001F93CF93DF93EB01142F022FAB01682F26
:1031800088E60E942B05888190E002C0959587957E
:103190000A95E2F721E030E001C0220F1A95EAF724
:1031A000215082238883DF91CF911F910F91089541
:1031B000EF92FF920F931F93CF93DF931F92CDB7A0
:1031C000DEB7182FF62EE42E022F1982AE014F5FC4
:1031D0005F4F682F88E60E942B0581E090E001C0D8
:1031E000880FEA94EAF78150498150E0002E02C02E
:1031F000559547950A94E2F74823282F002E01C0E1
:10320000220F0A94EAF7209542238F2101C0880FEC
:103210000A95EAF7482B4983612F88E60E949A05B0
:103220000F90DF91CF911F910F91FF90EF90089534
:10323000CF93DF931F92CDB7DEB71982AE014F5FF8
:103240005F4F69E188E60E942B0589810F90DF912D
:10325000CF910895482F69E188E60C949A05CF93A1
:10326000DF931F92CDB7DEB71982AE014F5F5F4F7C
:103270006AE188E60E942B05898187700F90DF91B3
:10328000CF9108951F93CF93DF931F92CDB7DEB7F1
:10329000182F1982AE014F5F5F4F6AE188E60E94E6
:1032A0002B05412F477049836AE188E60E949A0501
:1032B0000F90DF91CF911F910895CF93DF931F92CD
:1032C000CDB7DEB71982AE014F5F5F4F6BE188E685
:1032D0000E942B05898190E0959587959595879516
:1032E0009595879583700F90DF91CF9108951F93E7
:1032F000CF93DF931F92CDB7DEB7182F1982AE019F
:103300004F5F5F4F6BE188E60E942B05498150E0DB
:103310005595479555954795559547954370137025
:10332000110F110F110F412B49836BE188E60E94A9
:103330009A050F90DF91CF911F910895CF93DF935E
:103340001F92CDB7DEB71982AE014F5F5F4F6BE1C1
:1033500088E60E942B05898190E095958795959543
:1033600087959595879583700F90DF91CF910895FC
:103370001F93CF93DF931F92CDB7DEB7182F19821B
:10338000AE014F5F5F4F6CE188E60E942B054981DB
:1033900050E05595479555954795559547954370F8
:1033A0001370110F110F110F412B49836CE188E647
:1033B0000E949A050F90DF91CF911F910895CF93AE
:1033C000DF931F92CDB7DEB740E069E188E60E9447
:1033D0009A051982AE014F5F5F4F6AE188E60E944D
:1033E0002B05198240E06AE188E60E949A0519825D
:1033F000AE014F5F5F4F6BE188E60E942B0549816C
:1034000050E0559547955595479555954795437087
:10341000486049836BE188E60E949A051982AE01F3
:103420004F5F5F4F6CE188E60E942B05498150E0B9
:1034300055954795559547955595479543704983BB
:103440006CE188E60E949A051982AE014F5F5F4FDA
:1034500069E188E60E942B051982AE014F5F5F4F3C
:103460006AE188E60E942B051982AE014F5F5F4F2B
:103470006BE188E60E942B05898190E09595879500
:10348000959587959595879583708093D705198233
:10349000AE014F5F5F4F6BE188E60E942B0589818B
:1034A00090E09595879595958795959587958370E7
:1034B0008093D80540E06BE688E60E949A0540E1DB
:1034C0006BE188E60E949A0540E16CE188E60E9483
:1034D0009A0541E06BE688E60E949A050F90DF911D
:1034E000CF910895CF93DF931F92CDB7DEB71982A6
:1034F000AE014F5F5F4F65E788E60E942B0589812B
:10350000883629F080E00F90DF91CF9108950E94D6
:10351000DF1981E00F90DF91CF91089540E06BE6D5
:1035200088E60C949A0541E06BE688E60C949A05CF
:103530002F923F924F925F926F927F928F929F92C3
:10354000AF92BF92CF92DF92EF92FF920F931F93B1
:10355000CF93DF93CDB7DEB72E970FB6F894DEBFCB
:103560000FBECDBF9E012F5F3F4F4EE06BE388E65D
:103570000E94FE0489809A8098248924982490923D
:10358000F6058092F505AB80BC80BA24AB24BA2442
:10359000B092F405A092F305CD80DE80DC24CD242A
:1035A000DC24D092F205C092F1056F8178857627F0
:1035B000672776277093F0056093EF05E984FA8416
:1035C000FE24EF24FE24F092EE05E092ED050B853B
:1035D0001C851027012710271093EC050093EB059D
:1035E0002D843E843224232432243092EA05209212
:1035F000E905072E000C880B990B0E94852620E018
:1036000030E04AEA53E40E94E22528EB3EE142E141
:1036100052E40E94FF246093D9057093DA058093E9
:10362000DB059093DC058091D805833009F4ACC0AC
:10363000823009F49BC0813009F0B6C0412C512C76
:10364000612C66E4762EB401990C880B990B0E94CC
:103650008526A30192010E94E22560930B067093D8
:103660000C0680930D0690930E06B501BB0C880BDB
:10367000990B0E948526A30192010E94E225609386
:103680000706709308068093090690930A06B60110
:10369000DD0C880B990B0E948526A30192010E94E4
:1036A000E2256093030670930406809305069093C9
:1036B00006068091D705882309F45FC0813009F0A0
:1036C00069C0812C912C23E8A22E22E4B22EB701EE
:1036D000FF0C880B990B0E948526A50194010E947E
:1036E000E2256093FF057093000680930106909396
:1036F0000206B801110F880B990B0E948526A501BF
:1037000094010E94E2256093FB057093FC05809371
:10371000FD059093FE05B101330C880B990B0E94B7
:103720008526A50194010E94E2256093F705709318
:10373000F8058093F9059093FA052E960FB6F89444
:10374000DEBF0FBECDBFDF91CF911F910F91FF90D4
:10375000EF90DF90CF90BF90AF909F908F907F9031
:103760006F905F904F903F902F900895412C512C77
:1037700070E8672E75E4772E66CF812C912C33E0AC
:10378000A32E33E4B32EA3CF412C512C612CE5E4BE
:103790007E2E59CF8230C1F493E3892E982C93E08A
:1037A000A92E92E4B92E93CF811107C0412C512C40
:1037B00050E8652E56E4752E46CF412C512CF0E88A
:1037C0006F2EFFE37F2E3FCF833041F483E3882EBB
:1037D000982C83E8A82E81E4B82E79CF812C912CE7
:1037E00040E8A42E4FE3B42E72CF8F929F92AF92F7
:1037F000BF92EF92FF920F931F9380900B069090D1
:103800000C06A0900D06B0900E06FC0180829182FD
:10381000A282B3828091070690910806A0910906C2
:10382000B0910A06FB0180839183A283B3838091C8
:10383000030690910406A0910506B0910606FA01D0
:1038400080839183A283B3838091FF0590910006CA
:10385000A0910106B0910206F90180839183A283B1
:10386000B3838091FB059091FC05A091FD05B0917B
:10387000FE05F80180839183A283B3838091F705CD
:103880009091F805A091F905B091FA05F7018083B0
:103890009183A283B38381E01F910F91FF90EF90FA
:1038A000BF90AF909F908F900895CF93DF93C8EC17
:1038B000D0E00E94981A2FEF89E698E121508040CD
:1038C0009040E1F700C00000219799F7DF91CF9178
:1038D00008956091250170912601809127019091B2
:1038E00028010E945426AB01BC0181E090E00E94B7
:1038F000F22B60912101709122018091230190911E
:1039000024010E945426AB01BC0185E090E00E9496
:10391000F22B60911D0170911E0180911F01909109
:1039200020010E945426AB01BC0189E090E00E9476
:10393000F22B6091190170911A0180911B019091F5
:103940001C010E945426AB01BC018DE090E00E9456
:10395000F22B6091150170911601809117019091E1
:1039600018010E945426AB01BC0181E190E00E9445
:10397000F22B6091110170911201809113019091CD
:1039800014010E945426AB01BC0185E190E00C9427
:10399000F22B80E090E00E94E42B8A3F09F008952A
:1039A00081E090E00E94EC2B0E9483266093250129
:1039B00070932601809327019093280185E090E081
:1039C0000E94EC2B0E9483266093210170932201B8
:1039D000809323019093240189E090E00E94EC2BD6
:1039E0000E94832660931D0170931E0180931F0126
:1039F000909320018DE090E00E94EC2B0E948326A2
:103A00006093190170931A0180931B0190931C011C
:103A100081E190E00E94EC2B0E94832660931501C7
:103A200070931601809317019093180185E190E03F
:103A30000E94EC2B0E948326609311017093120167
:103A400080931301909314010895209119013091EE
:103A50001A0140911B0150911C016091FF0570916A
:103A6000000680910106909102060E94FE24609358
:103A7000FF05709300068093010690930206209143
:103A80001501309116014091170150911801609174
:103A9000FB057091FC058091FD059091FE050E944B
:103AA000FE246093FB057093FC058093FD059093C5
:103AB000FE052091110130911201409113015091A6
:103AC00014016091F7057091F8058091F9059091C6
:103AD000FA050E94FE246093F7057093F805809321
:103AE000F9059093FA0508954F925F926F927F9235
:103AF0008F929F92AF92BF92CF92DF92EF92FF92FE
:103B0000CF93DF93CDB7DEB760970FB6F894DEBFE3
:103B10000FBECDBFC0900706D0900806E090090602
:103B2000F0900A0660910B0670910C0680910D06CC
:103B300090910E069B01AC010E94642769837A83F1
:103B40008B839C83A7019601C701B6010E9464275D
:103B500029813A814B815C810E94FF240E94D727F2
:103B60002B013C012FE632E143E85AE30E94DD25B8
:103B700087FF08C09FE6492E92E1592E93E8692EEF
:103B80009AE3792E8090030690900406A090050693
:103B9000B0900606A3019201C501B4010E947E25E2
:103BA0009B01AC0150582D833E834F835887A5015C
:103BB0009401C501B4010E94642729813A814B8197
:103BC0005C810E94FF240E94D7274B015C012FE6F5
:103BD00032E143E85AE30E94DD2587FF08C08FE603
:103BE000882E82E1982E83E8A82E8AE3B82EA501BC
:103BF0009401C701B6010E947E2569877A878B8769
:103C00009C874090090150900A0160900B017090D0
:103C10000C01C0900501D0900601E0900701F090E2
:103C2000080180900D0190900E01A0900F01B090BE
:103C30001001A501940160E070E080E89FE30E941C
:103C4000FE2469837A838B839C838091FB0590910A
:103C5000FC05A091FD05B091FE05BC01CD01905879
:103C6000A30192010E946427A70196010E94642784
:103C70002091E1053091E2054091E3055091E40582
:103C80000E94FF24A50194010E9464276D877E870E
:103C90008F87988B21EE3EE245E652E46D817E816E
:103CA0008F8198850E94642729813A814B815C81AC
:103CB0000E9464279B01AC016D857E858F85988964
:103CC0000E94FF246093E1057093E2058093E30571
:103CD0009093E4058091F7059091F805A091F9057E
:103CE000B091FA05BC01CD019058A30192010E9448
:103CF0006427A70196010E9464272091E505309171
:103D0000E6054091E7055091E8050E94FF24A501D2
:103D100094010E9464274B015C0121EE3EE245E6DE
:103D200052E469857A858B859C850E946427298168
:103D30003A814B815C810E9464279B01AC01C501E3
:103D4000B4010E94FF246093E5057093E60580931B
:103D5000E7059093E8052091FF053091000640911A
:103D6000010650910206C301B2010E946427A70117
:103D700096010E9464279B01AC016091DD05709162
:103D8000DE058091DF059091E0050E94FF2460939D
:103D9000DD057093DE058093DF059093E005609666
:103DA0000FB6F894DEBF0FBECDBFDF91CF91FF906D
:103DB000EF90DF90CF90BF90AF909F908F907F90CB
:103DC0006F905F904F9008952F923F924F925F9225
:103DD0006F927F928F929F92AF92BF92CF92DF921B
:103DE000EF92FF920F931F93CF93DF93CDB7DEB780
:103DF00060970FB6F894DEBF0FBECDBF7C011B01EC
:103E00006A01FC0117821682838181FF44C39E01EF
:103E10002F5F3F4F3901F7019381F10193FD8591A8
:103E200093FF81911F01882309F431C3853239F44E
:103E300093FD859193FF81911F01853239F4B7017C
:103E400090E00E94132456016501E5CF10E0512C4B
:103E5000912CFFE1F915D8F08B3279F038F48032EB
:103E600079F08332A1F4F92DF0612EC08D3261F02A
:103E7000803369F4292D21602DC0392D3260932EB5
:103E8000892D8460982E2AC0E92DE86015C097FC22
:103E90002DC020ED280F2A3088F496FE06C03AE0A7
:103EA000139F200D1124122F19C08AE0589E200D57
:103EB0001124522EE92DE0629E2E10C08E3231F474
:103EC00096FCE5C2F92DF0649F2E08C08C3621F4D3
:103ED000292D2068922E02C0883641F4F10193FD0D
:103EE000859193FF81911F018111B3CF9BEB980FB7
:103EF000933020F4992D9061805E07C09BE9980F64
:103F0000933008F066C1992D9F7E96FF16E09F734F
:103F1000992E853619F49064992E08C0863621F4BE
:103F2000392F3068932E02C01111115097FE07C02F
:103F30001C3350F444244394410E27E00BC0183046
:103F400038F027E017E005C027E09CE3492E02C0C7
:103F5000212F412C560184E0A80EB11CF60160818E
:103F6000718182819381042DA3010E94F3226C014F
:103F7000F981FC87F0FF02C0F3FF06C091FC06C088
:103F800092FE06C000E205C00DE203C00BE201C0D4
:103F900000E08C858C7019F001115AC29BC297FE0B
:103FA00010C04C0CFC85F4FF04C08A81813309F4F5
:103FB0004A94141474F528E0241578F588E0482E06
:103FC0002CC096FC2AC0812F90E08C159D059CF09A
:103FD0003CEFC3163FEFD30674F0892D8068982E0E
:103FE0000AC0E2E0F0E0EC0FFD1FE10FF11D80815F
:103FF000803319F411501111F4CF97FE0EC04424F0
:104000004394410E812F90E0C816D9062CF41C1958
:1040100004C04424439401C010E097FE06C01C1461
:104020001D0434F4C601019605C085E090E002C08D
:1040300081E090E001110196112331F0212F30E051
:104040002F5F3F4F820F931F252D30E0821793077C
:1040500014F4581A01C0512C892D897049F4552047
:1040600039F0B70180E290E00E9413245A94F7CF10
:10407000002329F0B701802F90E00E94132493FCC5
:1040800009C0552039F0B70180E390E00E94132465
:104090005A94F7CF97FE4CC04601D7FE02C0812C40
:1040A000912CC60188199909F301E80FF91FFE87C1
:1040B000ED87960124193109388B2F87012F10E0E5
:1040C0001195019511093FEF8316930629F4B70165
:1040D0008EE290E00E941324C814D9044CF08F851E
:1040E00098898815990524F4ED85FE85818101C0A4
:1040F00080E3F1E08F1A91082D853E852F5F3F4FB9
:104100003E872D87801691062CF0B70190E00E9423
:104110001324D9CFC814D90441F49A81963320F4DA
:10412000953319F43C8534FF81E3B70190E04EC02C
:104130008A81813319F09C859F7E9C87B70190E02E
:104140000E941324111105C094FC18C085E690E06C
:1041500017C0B7018EE290E00E9413241E5F82E038
:1041600001E0080FF301E80FF11D8081B70190E035
:104170000E941324802F0113F3CFE6CF85E490E053
:10418000B7010E941324D7FC06C0C114D10441F426
:10419000EC85E4FF05C0D194C194D1088DE201C043
:1041A0008BE2B70190E00E94132480E32AE0C2165C
:1041B000D1042CF08F5FFAE0CF1AD108F7CFB70106
:1041C00090E00E941324B701C601C0960E941324F8
:1041D00054C1833631F0833779F0833509F056C006
:1041E00020C0560132E0A30EB11CF6018081898304
:1041F00001E010E0630112C05601F2E0AF0EB11C05
:10420000F601C080D18096FE03C0612F70E002C02D
:104210006FEF7FEFC6010E94E1238C01F92DFF773C
:1042200014C0560122E0A20EB11CF601C080D1805C
:1042300096FE03C0612F70E002C06FEF7FEFC601F2
:104240000E94CB238C01F92DF0689F2EF3FD1AC03C
:10425000852D90E008171907A8F4B70180E290E0D7
:104260000E9413245A94F4CFF60197FC859197FE8F
:1042700081916F01B70190E00E94132451105A946C
:10428000015011090115110579F7F7C0843611F0B5
:10429000893661F5560197FE09C024E0A20EB11CD3
:1042A000F60160817181828193810AC0F2E0AF0ED4
:1042B000B11CF60160817181072E000C880B990BEF
:1042C000F92DFF769F2E97FF09C0909580957095E8
:1042D00061957F4F8F4F9F4FF0689F2E2AE030E00F
:1042E000A3010E94A024C82EC6183FC0092D8537FF
:1042F00021F40F7E2AE030E01DC0097F8F3691F057
:1043000018F4883559F0C3C0803719F0883711F098
:10431000BEC0006104FF09C0046007C094FE08C06D
:10432000066006C028E030E005C020E130E002C0B1
:1043300020E132E0560107FF09C084E0A80EB11C5D
:10434000F601608171818281938108C0F2E0AF0E35
:10435000B11CF6016081718180E090E0A3010E94B0
:10436000A024C82EC6180F77902E96FE0BC0092DDC
:104370000E7FC11650F494FE0AC092FC08C0092DAD
:104380000E7E05C0DC2C092D03C0DC2C01C0D12E13
:1043900004FF0DC0FE01EC0DF11D8081803311F48E
:1043A000097E09C002FF06C0D394D39404C0802FB5
:1043B000867809F0D39403FD11C000FF06C01C2DC0
:1043C000D51480F4150D1D190DC0D51458F4B7017E
:1043D00080E290E00E941324D394F7CFD51410F418
:1043E0005D1801C0512C04FF10C0B70180E390E0BC
:1043F0000E94132402FF17C001FD03C088E790E06C
:1044000002C088E590E0B7010CC0802F867859F093
:1044100001FF02C08BE201C080E207FD8DE2B7011F
:1044200090E00E941324C11638F4B70180E390E0B5
:104430000E9413241150F7CFCA94F301EC0DF11D23
:104440008081B70190E00E941324C110F5CF15C000
:10445000F4E0F51560F584E0581A93FE1FC00111D1
:1044600027C02C8523FF2AC00CE512E0392D3071BE
:10447000932EF8018491811124C0552009F4E4CCD5
:10448000B70180E290E00E9413245A94F6CFF7011E
:104490008681978126C08FEF9FEF23C0B70180E20E
:1044A00090E00E9413245A945110F8CFD8CF512C89
:1044B000B701802F90E00E941324D3CF00E612E0D2
:1044C000D5CF91108052B70190E00E9413240F5F66
:1044D0001F4FCFCF23E0251510F483E0BDCF512C23
:1044E000C0CF60960FB6F894DEBF0FBECDBFDF9190
:1044F000CF911F910F91FF90EF90DF90CF90BF90E1
:10450000AF909F908F907F906F905F904F903F9073
:104510002F900895CF93DF93CDB7DEB7C456D1095E
:104520000FB6F894DEBF0FBECDBF0E94A906CE0124
:1045300001967C0101E511E034E6A32EB12CCC24D8
:10454000C394D12C8091E4018823D1F01092E4012E
:10455000809102018F93809101018F938091E301FB
:104560001F928F931F930F93FF92EF920E944F24FD
:10457000C7010E94D2170FB6F894DEBF0FBECDBFA1
:104580008091010190910201853691052CF597FDEE
:1045900025C082B1897F82B9809101019091020189
:1045A000880F991F880F991F880F991FB5010E94C6
:1045B000822B6093E301C60101C0880F6A95EAF778
:1045C00088B98091E4018111C1CF8091010190915E
:1045D000020185369105DCF2129AB4CF119AB2CF5E
:1045E000F8940C941D2C283008F027E03327DA01CA
:1045F000990F311D87FD916000966105710539F4B1
:1046000032602E5F3D9330E32A95E1F708959F3F96
:1046100030F080387105610509F03C5F3C5F3D93E7
:10462000913008F08068911DDF93CF931F930F9313
:10463000FF92EF92192F987F9695E92F9695969570
:10464000E90FFF27E254FD4F99273327EE24FF247B
:10465000A701E70105900894079428F4360FE71E98
:10466000F81E491F511D660F771F881F991F06945A
:10467000A1F70590079428F4E70EF81E491F561F6E
:10468000C11D770F881F991F661F0694A1F705901B
:10469000079428F4F80E491F561FC71FD11D880F15
:1046A000991F661F771F0694A1F70590079420F4C1
:1046B000490F561FC71FD81F990F661F771F881FE6
:1046C0000694A9F784911095177041F0D695C79577
:1046D00057954795F794E7941A95C1F7E4E6F2E009
:1046E00068941590159135916591959105907FE2AB
:1046F0007395E118F10A430B560BC90BD009C0F7AB
:10470000E10CF11E431F561FC91FD01D7EF47033EC
:1047100011F48A95E6CFE894015030F0080F0AF4BE
:104720000027021708F4202F2395022F7A3328F050
:1047300079E37D932A95E9F710C07D932A9589F650
:10474000069497956795379517951794E118F10A90
:10475000430B560BC90BD00998F023957E917395A6
:104760007A3308F070E37C932013B8F77E91706180
:104770007D9330F0839571E37D9370E32A95E1F7A3
:104780001124EF90FF900F911F91CF91DF91992706
:1047900087FD90950895FC010590615070400110CF
:1047A000D8F7809590958E0F9F1F08954FE056E0A3
:1047B0000C94EC23FB01DC0101900D920020E1F749
:1047C0000895FC016150704001900110D8F7809568
:1047D00090958E0F9F1F0895FA01A191B0810097C7
:1047E00019F41097E1F0CD01DC01CD010D9000200E
:1047F00011F4C00113C0FB012191222319F02015EF
:10480000D9F7F3CFFB012191201519F41E921196CF
:1048100006C02223C1F70D900020A1F7D001FA01B4
:10482000A193B08308950F931F93CF93DF93FB0160
:10483000238121FD03C08FEF9FEF2CC022FF16C004
:1048400046815781248135814217530744F4A08162
:10485000B1819D012F5F3F4F318320838C9326814F
:1048600037812F5F3F4F3783268314C08B01EC01C4
:10487000FB010084F185E02D0995892BE1F6D80133
:1048800016968D919C911797019617969C938E93EF
:104890001697CE01DF91CF911F910F9108950F933D
:1048A0001F93CF93DF93CDB7DEB72E970FB6F89453
:1048B000DEBF0FBECDBF0D891E8986E08C831A83B3
:1048C00009838FEF9FE79E838D83AE01475E5F4F25
:1048D0006F89788DCE0101960E94E41EEF81F885E4
:1048E000E00FF11F10822E960FB6F894DEBF0FBEB8
:1048F000CDBFDF91CF911F910F910895CF93DF939B
:10490000CDB7DEB72E970FB6F894DEBF0FBECDBF82
:1049100085E08C838B899C899A838983AE01495E6B
:104920005F4F6D897E89CE0101960E94DA292E960D
:104930000FB6F894DEBF0FBECDBFDF91CF910895C3
:10494000FA01AA27283051F1203181F1E8946F93C0
:104950006E7F6E5F7F4F8F4F9F4FAF4FB1E03ED066
:10496000B4E03CD0670F781F891F9A1FA11D680F04
:10497000791F8A1F911DA11D6A0F711D811D911D37
:10498000A11D20D009F468943F912AE0269F1124AC
:104990003019305D3193DEF6CF010895462F477010
:1049A000405D4193B3E00FD0C9F7F6CF462F4F706B
:1049B000405D4A3318F0495D31FD4052419302D0C9
:1049C000A9F7EACFB4E0A69597958795779567956F
:1049D000BA95C9F700976105710508959B01AC016F
:1049E0000A2E06945795479537952795BA95C9F796
:1049F000620F731F841F951FA01D08955058BB2779
:104A0000AA270E9416250C9422270E94142738F00A
:104A10000E941B2720F039F49F3F19F426F40C94D0
:104A2000EA260EF4E095E7FB0C94E426E92F0E94B9
:104A3000332758F3BA17620773078407950720F0E6
:104A400079F4A6F50C9455270EF4E0950B2EBA2FA9
:104A5000A02D0B01B90190010C01CA01A001112484
:104A6000FF27591B99F0593F50F4503E68F11A1630
:104A7000F040A22F232F342F4427585FF3CF4695C1
:104A800037952795A795F0405395C9F77EF41F16E3
:104A9000BA0B620B730B840BBAF09150A1F0FF0FAD
:104AA000BB1F661F771F881FC2F70EC0BA0F621F99
:104AB000731F841F48F4879577956795B795F79589
:104AC0009E3F08F0B0CF9395880F08F09927EE0F1E
:104AD0009795879508950E94142760F080E891E0EB
:104AE00009F49EEF0E941B2728F040E851E071F482
:104AF0005EEF0CC00C94EA260C945527E92FE07861
:104B00000E94332740F3092E052AB1F326173707F1
:104B10004807590738F00E2E07F8E02569F0E02520
:104B2000E0640AC0EF6307F8009407FADB01B901FB
:104B30009D01DC01CA01AD01EF930E94F9250E949D
:104B400022270E94AE255F91552339F02BED3FE0DF
:104B500049E450FD49EC0C94FF240895DF93DD27D0
:104B6000B92FBF7740E85FE31616170648075B07C3
:104B700018F4D92F0E945C279F938F937F936F9394
:104B80000E941728EEE2F2E00E94ED260E94222702
:104B90002F913F914F915F910E947727DD2351F034
:104BA0009058A2EA2AED3FE049EC5FE3D0785D2718
:104BB0000E941625DF910C9422270E94C02608F43B
:104BC00081E008950E94F6250C9422270E941B275D
:104BD00058F00E94142740F029F45F3F29F00C940C
:104BE000E42651110C9456270C94EA260E94332790
:104BF00068F39923B1F3552391F3951B550BBB270C
:104C0000AA2762177307840738F09F5F5F4F220F50
:104C1000331F441FAA1FA9F335D00E2E3AF0E0E847
:104C200032D091505040E695001CCAF72BD0FE2F91
:104C300029D0660F771F881FBB1F26173707480725
:104C4000AB07B0E809F0BB0B802DBF01FF279358DD
:104C50005F4F3AF09E3F510578F00C94E4260C9497
:104C600056275F3FE4F3983ED4F386957795679592
:104C7000B795F7959F5FC9F7880F911D9695879512
:104C800097F90895E1E0660F771F881FBB1F621731
:104C900073078407BA0720F0621B730B840BBA0BEF
:104CA000EE1F88F7E09508950E943B2788F09F57F4
:104CB00098F0B92F9927B751B0F0E1F0660F771F40
:104CC000881F991F1AF0BA95C9F714C0B13091F036
:104CD0000E945527B1E008950C945527672F782F2F
:104CE0008827B85F39F0B93FCCF3869577956795FB
:104CF000B395D9F73EF490958095709561957F4F67
:104D00008F4F9F4F0895E89409C097FB3EF490950C
:104D10008095709561957F4F8F4F9F4F9923A9F094
:104D2000F92F96E9BB279395F69587957795679523
:104D3000B795F111F8CFFAF4BB0F11F460FF1BC067
:104D40006F5F7F4F8F4F9F4F16C0882311F096E9FA
:104D500011C0772321F09EE8872F762F05C06623A8
:104D600071F096E8862F70E060E02AF09A95660F61
:104D7000771F881FDAF7880F9695879597F908951A
:104D8000990F0008550FAA0BE0E8FEEF161617065C
:104D9000E807F907C0F012161306E407F50798F0C4
:104DA000621B730B840B950B39F40A2661F0232BDD
:104DB000242B252B21F408950A2609F4A140A69559
:104DC0008FEF811D811D089597F99F6780E870E03E
:104DD00060E008959FEF80EC0895DF93CF931F93D9
:104DE0000F93FF92EF92DF927B018C01689406C0D3
:104DF000DA2EEF010E947727FE01E894A591259114
:104E0000359145915591A6F3EF010E941625FE01BB
:104E10009701A801DA9469F7DF90EF90FF900F9166
:104E20001F91CF91DF91089500240A94161617065A
:104E300018060906089500240A941216130614068B
:104E400005060895092E0394000C11F4882352F0EE
:104E5000BB0F40F4BF2B11F460FF04C06F5F7F4FA6
:104E60008F4F9F4F089557FD9058440F551F59F08D
:104E70005F3F71F04795880F97FB991F61F09F3F47
:104E800079F087950895121613061406551FF2CF70
:104E90004695F1DF08C0161617061806991FF1CFC0
:104EA00086957105610508940895E894BB276627E7
:104EB0007727CB0197F908959B01AC0160E070E082
:104EC00080E89FE30C94E2250E9477270C94222728
:104ED0000E94142738F00E941B2720F0952311F020
:104EE0000C94E4260C94EA2611240C9456270E9474
:104EF000332770F3959FC1F3950F50E0551F629FC4
:104F0000F001729FBB27F00DB11D639FAA27F00D22
:104F1000B11DAA1F649F6627B00DA11D661F829F49
:104F20002227B00DA11D621F739FB00DA11D621F2E
:104F3000839FA00D611D221F749F3327A00D611D4B
:104F4000231F849F600D211D822F762F6A2F11242D
:104F50009F5750409AF0F1F088234AF0EE0FFF1F60
:104F6000BB1F661F771F881F91505040A9F79E3FB7
:104F7000510580F00C94E4260C9456275F3FE4F32F
:104F8000983ED4F3869577956795B795F795E7950D
:104F90009F5FC1F7FE2B880F911D9695879597F916
:104FA000089519F416F40C94EA260C946A2B0E94C6
:104FB0003B27B8F39923C9F3B6F39F57550B87FFE7
:104FC0000E94782B0024A0E640EA90018058569574
:104FD000979528F4805C660F771F881F20F02617AE
:104FE0003707480730F4621B730B840B20293129E3
:104FF0004A2BA69517940794202531254A2758F760
:10500000660F771F881F20F026173707480730F4F0
:10501000620B730B840B200D311D411DA09581F790
:10502000B901842F9158880F9695879508959B0113
:10503000AC010C94642720FD09C0FC0123FD05C0D0
:1050400022FF02C07383628351834083089544FD2D
:1050500017C046FD17C0AB01BC01DA01FB01AA0F66
:10506000BB1FEE1FFF1F1094D1F74A0F5B1F6E1F6F
:105070007F1FCB01BA01660F771F881F991F09C0D8
:1050800033E001C034E0660F771F881F991F31504D
:10509000D1F7620F711D811D911D08950F931F930C
:1050A000CF93DF938C01C8010E94132BEC0197FD75
:1050B00008C00E94FF2A892BB1F7B801CE010E94D7
:1050C000512BCE01DF91CF911F910F9108958F92B7
:1050D0009F92AF92BF92EF92FF920F931F93CF9345
:1050E000DF938C01D62F7A01B22E0E94132B9C01E4
:1050F00033272B32310531F02D32310561F48B2D00
:105100008068B82ED15011F480E068C0C8010E94B8
:10511000132B97FDF9CFCB2DCD7F2B2D207309F5C8
:105120008033F9F4AA24AA94AD0E09F443C0C8014F
:105130000E94132B97FD3EC09C012F7D33272835FD
:10514000310549F4C264D250A9F1C8010E94132B61
:1051500097FF07C02FC0B6FE02C0C26001C0C26187
:10516000DA2D812C912C540120ED280F283080F06D
:10517000C4FF04C0B8010E94512B19C02A3040F06E
:10518000C6FFF8CF2F7D3FEE320F363098F727500D
:105190004C2FC501B4010E9427284B015C01C2605D
:1051A000D15059F0C8010E94132B97FFDDCFC1FDEC
:1051B00004C0AACF812C912C5401C7FF08C0B09421
:1051C000A09490948094811C911CA11CB11C2C2F44
:1051D000B501A401C7010E941B2881E0DF91CF9196
:1051E0001F910F91FF90EF90BF90AF909F908F9085
:1051F00008955F926F927F928F929F92AF92BF922B
:10520000CF92DF92EF92FF920F931F93CF93DF9392
:10521000CDB7DEB7A0970FB6F894DEBF0FBECDBFF7
:105220005C01962E7A01F9018E010F5F1F4F680114
:1052300080E2D8011D928A95E9F7D50113968C90EA
:1052400080E090E0612C712C30E061E070E083FC44
:10525000259183FE21918F01522E211103C080E000
:1052600090E092C02E3511F4009751F1432F50E099
:10527000481759073CF42D3559F12D3219F4772090
:1052800009F103C0772009F46AC0452D469546957B
:105290004695D601A40FB11D452D47708B0102C064
:1052A000000F111F4A95E2F7A8015C91452B4C9322
:1052B000651459F0561410F45394E7CF5A94E5CF7F
:1052C00031E004C07724739401C0712C0196BFCFE4
:1052D000772019F08E8180628E83311103C088247B
:1052E000839417C0F6019E012F5D3F4F808180950A
:1052F00081932E173F07D1F7F2CFE114F10429F083
:10530000D7018C93F70131967F019A94812C9920D3
:10531000F9F0C5010E94132B97FD18C0FC01FF276F
:1053200023E0F595E7952A95E1F7EC0DFD1D208129
:1053300030E0AC014770552702C0359527954A9556
:10534000E2F720FDDACFB5010E94512B811087CF03
:10535000E114F10411F0D7011C92C80115C0422FCD
:10536000469546954695D601A40FB11D422F47702C
:105370008B0102C0000F111F4A95E2F7A8015C9152
:10538000452B4C93622EA2CFA0960FB6F894DEBFA9
:105390000FBECDBFDF91CF911F910F91FF90EF9086
:1053A000DF90CF90BF90AF909F908F907F906F9045
:1053B0005F9008955F926F927F928F929F92AF92CB
:1053C000BF92CF92DF92EF92FF920F931F93CF93F2
:1053D000DF936C01EB015A01FC0117821682512CFC
:1053E000F601E380FE01E3FC8591E3FE8191182F35
:1053F000EF01882309F4EEC090E00E94FF2A892B78
:1054000021F0C6010E944E28EBCF153241F4FE0177
:10541000E3FC1591E3FE1191EF01153281F4C60111
:105420000E94132B97FDD4C0412F50E09C013327DD
:1054300024173507A9F2B6010E94512BCBC01A32AE
:1054400039F4E3FC1591E3FE1191EF0101E001C095
:1054500000E0F12C20ED210F2A3080F402606F2D46
:1054600070E080E090E040E20E942728F62EFE01E6
:10547000E3FC1591E3FE1191EF01ECCF01FF03C0B6
:10548000F11003C0A7C0FF24FA94183619F01C3697
:1054900051F010C0FE01E3FC1591E3FE1191EF0104
:1054A000183641F408600460FE01E3FC1591E3FE48
:1054B0001191EF01112309F48DC0612F70E08EE589
:1054C00093E00E94082B892B09F484C000FD07C0DB
:1054D000F50180809180C50102965C0102C0812C9B
:1054E000912C1E3651F4F6014681578160E070E040
:1054F000202FC4010E941B2873CF1336A9F401FD8D
:1055000002C0FF24F394C6010E94132B97FD60C0D4
:105510008114910429F0F4018083C40101964C01A7
:10552000FA94F110F0CF50C01B3559F49E01A4013C
:105530006F2DC6010E94F928EC01892B09F044C0A7
:105540003EC0C6010E944E2897FD42C01F3661F141
:1055500028F4143639F1193651F128C0133771F097
:10556000153701F123C08114910429F0F401608200
:10557000C40101964C01FA94FF2071F0C6010E940B
:10558000132B3C0197FD08C00E94FF2A892B59F379
:10559000B601C3010E94512B81149104A9F0F401BA
:1055A000108212C0006203C0006101C00064202F9D
:1055B000A4016F2DC6010E946728811105C0F60164
:1055C0008381807329F406C000FD0ACF539408CF6D
:1055D000552019F0852D90E002C08FEF9FEFDF91ED
:1055E000CF911F910F91FF90EF90DF90CF90BF90E0
:1055F000AF909F908F907F906F905F9008959111E2
:105600000C947F2B803219F089508550C8F708958B
:10561000FC010590061621F00020D9F7C00108957D
:105620003197CF010895CF93DF93EC012B8120FFB9
:1056300033C026FF0AC02F7B2B838E819F8101966A
:105640009F838E838A8190E029C022FF0FC0E8816A
:10565000F9818081082E000C990B009719F42062C3
:105660002B831AC03196F983E8830EC0EA85FB8547
:10567000099597FF09C02B81019611F080E201C0C6
:1056800080E1822B8B8308C02E813F812F5F3F4FAB
:105690003F832E83992702C08FEF9FEFDF91CF9139
:1056A0000895FB01238120FF12C026FD10C08F3F0B
:1056B0003FEF930761F082832F7D2064238326814F
:1056C00037812150310937832683992708958FEF39
:1056D0009FEF08959F3F31F0915020F48795779583
:1056E0006795B795880F911D9695879597F90895B9
:1056F00091505040660F771F881FD2F70895992761
:105700008827089597FB072E16F4009407D077FD9D
:1057100009D00E94D02B07FC05D03EF490958195CE
:105720009F4F0895709561957F4F0895A1E21A2EBD
:10573000AA1BBB1BFD010DC0AA1FBB1FEE1FFF1F35
:10574000A217B307E407F50720F0A21BB30BE40B85
:10575000F50B661F771F881F991F1A9469F76095CC
:105760007095809590959B01AC01BD01CF01089586
:10577000EE0FFF1F0024001C0BBE0790F691E02DDA
:105780000994A29FB001B39FC001A39F700D811D1A
:105790001124911DB29F700D811D1124911D08953A
:1057A000AA1BBB1B51E107C0AA1FBB1FA617B70747
:1057B00010F0A61BB70B881F991F5A95A9F7809563
:1057C0009095BC01CD010895F999FECF92BD81BDA0
:1057D000F89A992780B50895A6E1B0E044E050E03A
:1057E0000C94012C242F0E94102C252F0E94102C89
:1057F0000C94FA2B0E940F2C272F0C94102CDC01F8
:10580000CB01FC01F999FECF06C0F2BDE1BDF89ACB
:10581000319600B40D9241505040B8F70895262FAC
:10582000F999FECF1FBA92BD81BD20BD0FB6F89485
:0E583000FA9AF99A0FBE01960895F894FFCFE8
:10583E0001320002010AD7A33C0000803F8FC275DF
:10584E003F2DB29D3D17D98EBECBA10D40AE476107
:10585E003DCDCCCCBC1283003F646F6E6520696E6B
:10586E00697469616C697A696E672074696D6572B5
:10587E000D0A0068656C6C6F20776F726C640D0A90
:10588E0000737465703A2025642C25640D0A002C73
:10589E00002564002566003A20256C640A003A2033
:0458AE00256C640001
:00000001FF
